{
  "_format": "hh-sol-artifact-1",
  "contractName": "ERC4907Upgradeable",
  "sourceName": "contracts/ERC4907Upgradeable.sol",
  "abi": [
    {
      "anonymous": false,
      "inputs": [
        {
          "indexed": true,
          "internalType": "address",
          "name": "owner",
          "type": "address"
        },
        {
          "indexed": true,
          "internalType": "address",
          "name": "approved",
          "type": "address"
        },
        {
          "indexed": true,
          "internalType": "uint256",
          "name": "tokenId",
          "type": "uint256"
        }
      ],
      "name": "Approval",
      "type": "event"
    },
    {
      "anonymous": false,
      "inputs": [
        {
          "indexed": true,
          "internalType": "address",
          "name": "owner",
          "type": "address"
        },
        {
          "indexed": true,
          "internalType": "address",
          "name": "operator",
          "type": "address"
        },
        {
          "indexed": false,
          "internalType": "bool",
          "name": "approved",
          "type": "bool"
        }
      ],
      "name": "ApprovalForAll",
      "type": "event"
    },
    {
      "anonymous": false,
      "inputs": [
        {
          "indexed": false,
          "internalType": "uint8",
          "name": "version",
          "type": "uint8"
        }
      ],
      "name": "Initialized",
      "type": "event"
    },
    {
      "anonymous": false,
      "inputs": [
        {
          "indexed": true,
          "internalType": "address",
          "name": "from",
          "type": "address"
        },
        {
          "indexed": true,
          "internalType": "address",
          "name": "to",
          "type": "address"
        },
        {
          "indexed": true,
          "internalType": "uint256",
          "name": "tokenId",
          "type": "uint256"
        }
      ],
      "name": "Transfer",
      "type": "event"
    },
    {
      "anonymous": false,
      "inputs": [
        {
          "indexed": true,
          "internalType": "uint256",
          "name": "tokenId",
          "type": "uint256"
        },
        {
          "indexed": true,
          "internalType": "address",
          "name": "user",
          "type": "address"
        },
        {
          "indexed": false,
          "internalType": "uint64",
          "name": "expires",
          "type": "uint64"
        }
      ],
      "name": "UpdateUser",
      "type": "event"
    },
    {
      "inputs": [
        {
          "internalType": "address",
          "name": "to",
          "type": "address"
        },
        {
          "internalType": "uint256",
          "name": "tokenId",
          "type": "uint256"
        }
      ],
      "name": "approve",
      "outputs": [],
      "stateMutability": "nonpayable",
      "type": "function"
    },
    {
      "inputs": [
        {
          "internalType": "address",
          "name": "owner",
          "type": "address"
        }
      ],
      "name": "balanceOf",
      "outputs": [
        {
          "internalType": "uint256",
          "name": "",
          "type": "uint256"
        }
      ],
      "stateMutability": "view",
      "type": "function"
    },
    {
      "inputs": [
        {
          "internalType": "uint256",
          "name": "tokenId",
          "type": "uint256"
        }
      ],
      "name": "getApproved",
      "outputs": [
        {
          "internalType": "address",
          "name": "",
          "type": "address"
        }
      ],
      "stateMutability": "view",
      "type": "function"
    },
    {
      "inputs": [
        {
          "internalType": "address",
          "name": "owner",
          "type": "address"
        },
        {
          "internalType": "address",
          "name": "operator",
          "type": "address"
        }
      ],
      "name": "isApprovedForAll",
      "outputs": [
        {
          "internalType": "bool",
          "name": "",
          "type": "bool"
        }
      ],
      "stateMutability": "view",
      "type": "function"
    },
    {
      "inputs": [],
      "name": "name",
      "outputs": [
        {
          "internalType": "string",
          "name": "",
          "type": "string"
        }
      ],
      "stateMutability": "view",
      "type": "function"
    },
    {
      "inputs": [
        {
          "internalType": "uint256",
          "name": "tokenId",
          "type": "uint256"
        }
      ],
      "name": "ownerOf",
      "outputs": [
        {
          "internalType": "address",
          "name": "",
          "type": "address"
        }
      ],
      "stateMutability": "view",
      "type": "function"
    },
    {
      "inputs": [
        {
          "internalType": "address",
          "name": "from",
          "type": "address"
        },
        {
          "internalType": "address",
          "name": "to",
          "type": "address"
        },
        {
          "internalType": "uint256",
          "name": "tokenId",
          "type": "uint256"
        }
      ],
      "name": "safeTransferFrom",
      "outputs": [],
      "stateMutability": "nonpayable",
      "type": "function"
    },
    {
      "inputs": [
        {
          "internalType": "address",
          "name": "from",
          "type": "address"
        },
        {
          "internalType": "address",
          "name": "to",
          "type": "address"
        },
        {
          "internalType": "uint256",
          "name": "tokenId",
          "type": "uint256"
        },
        {
          "internalType": "bytes",
          "name": "data",
          "type": "bytes"
        }
      ],
      "name": "safeTransferFrom",
      "outputs": [],
      "stateMutability": "nonpayable",
      "type": "function"
    },
    {
      "inputs": [
        {
          "internalType": "address",
          "name": "operator",
          "type": "address"
        },
        {
          "internalType": "bool",
          "name": "approved",
          "type": "bool"
        }
      ],
      "name": "setApprovalForAll",
      "outputs": [],
      "stateMutability": "nonpayable",
      "type": "function"
    },
    {
      "inputs": [
        {
          "internalType": "uint256",
          "name": "tokenId",
          "type": "uint256"
        },
        {
          "internalType": "address",
          "name": "user",
          "type": "address"
        },
        {
          "internalType": "uint64",
          "name": "expires",
          "type": "uint64"
        }
      ],
      "name": "setUser",
      "outputs": [],
      "stateMutability": "nonpayable",
      "type": "function"
    },
    {
      "inputs": [
        {
          "internalType": "bytes4",
          "name": "interfaceId",
          "type": "bytes4"
        }
      ],
      "name": "supportsInterface",
      "outputs": [
        {
          "internalType": "bool",
          "name": "",
          "type": "bool"
        }
      ],
      "stateMutability": "view",
      "type": "function"
    },
    {
      "inputs": [],
      "name": "symbol",
      "outputs": [
        {
          "internalType": "string",
          "name": "",
          "type": "string"
        }
      ],
      "stateMutability": "view",
      "type": "function"
    },
    {
      "inputs": [
        {
          "internalType": "uint256",
          "name": "tokenId",
          "type": "uint256"
        }
      ],
      "name": "tokenURI",
      "outputs": [
        {
          "internalType": "string",
          "name": "",
          "type": "string"
        }
      ],
      "stateMutability": "view",
      "type": "function"
    },
    {
      "inputs": [
        {
          "internalType": "address",
          "name": "from",
          "type": "address"
        },
        {
          "internalType": "address",
          "name": "to",
          "type": "address"
        },
        {
          "internalType": "uint256",
          "name": "tokenId",
          "type": "uint256"
        }
      ],
      "name": "transferFrom",
      "outputs": [],
      "stateMutability": "nonpayable",
      "type": "function"
    },
    {
      "inputs": [
        {
          "internalType": "uint256",
          "name": "tokenId",
          "type": "uint256"
        }
      ],
      "name": "userExpires",
      "outputs": [
        {
          "internalType": "uint256",
          "name": "",
          "type": "uint256"
        }
      ],
      "stateMutability": "view",
      "type": "function"
    },
    {
      "inputs": [
        {
          "internalType": "uint256",
          "name": "tokenId",
          "type": "uint256"
        }
      ],
      "name": "userOf",
      "outputs": [
        {
          "internalType": "address",
          "name": "",
          "type": "address"
        }
      ],
      "stateMutability": "view",
      "type": "function"
    }
  ],
  "bytecode": "0x608060405234801561001057600080fd5b50611638806100206000396000f3fe608060405234801561001057600080fd5b50600436106101005760003560e01c80638fc88c4811610097578063c2f1f14a11610066578063c2f1f14a1461023b578063c87b56dd1461024e578063e030565e14610261578063e985e9c51461027457600080fd5b80638fc88c48146101dc57806395d89b411461020d578063a22cb46514610215578063b88d4fde1461022857600080fd5b806323b872dd116100d357806323b872dd1461018257806342842e0e146101955780636352211e146101a857806370a08231146101bb57600080fd5b806301ffc9a71461010557806306fdde031461012d578063081812fc14610142578063095ea7b31461016d575b600080fd5b610118610113366004611225565b6102b0565b60405190151581526020015b60405180910390f35b6101356102f4565b6040516101249190611292565b6101556101503660046112a5565b610386565b6040516001600160a01b039091168152602001610124565b61018061017b3660046112d5565b6103ad565b005b6101806101903660046112ff565b610501565b6101806101a33660046112ff565b610578565b6101556101b63660046112a5565b610593565b6101ce6101c936600461133b565b6105f8565b604051908152602001610124565b6101ce6101ea3660046112a5565b600090815260976020526040902054600160a01b900467ffffffffffffffff1690565b610135610692565b610180610223366004611356565b6106a1565b6101806102363660046113a8565b6106b0565b6101556102493660046112a5565b61072e565b61013561025c3660046112a5565b61077e565b61018061026f366004611484565b6107f2565b6101186102823660046114d1565b6001600160a01b039182166000908152606a6020908152604080832093909416825291909152205460ff1690565b60006001600160e01b031982167fad092b5c0000000000000000000000000000000000000000000000000000000014806102ee57506102ee82610948565b92915050565b60606065805461030390611504565b80601f016020809104026020016040519081016040528092919081815260200182805461032f90611504565b801561037c5780601f106103515761010080835404028352916020019161037c565b820191906000526020600020905b81548152906001019060200180831161035f57829003601f168201915b5050505050905090565b6000610391826109e3565b506000908152606960205260409020546001600160a01b031690565b60006103b882610593565b9050806001600160a01b0316836001600160a01b0316036104465760405162461bcd60e51b815260206004820152602160248201527f4552433732313a20617070726f76616c20746f2063757272656e74206f776e6560448201527f720000000000000000000000000000000000000000000000000000000000000060648201526084015b60405180910390fd5b336001600160a01b038216148061048057506001600160a01b0381166000908152606a6020908152604080832033845290915290205460ff165b6104f25760405162461bcd60e51b815260206004820152603d60248201527f4552433732313a20617070726f76652063616c6c6572206973206e6f7420746f60448201527f6b656e206f776e6572206f7220617070726f76656420666f7220616c6c000000606482015260840161043d565b6104fc8383610a4a565b505050565b61050b3382610ac5565b61056d5760405162461bcd60e51b815260206004820152602d60248201527f4552433732313a2063616c6c6572206973206e6f7420746f6b656e206f776e6560448201526c1c881bdc88185c1c1c9bdd9959609a1b606482015260840161043d565b6104fc838383610b44565b6104fc838383604051806020016040528060008152506106b0565b6000818152606760205260408120546001600160a01b0316806102ee5760405162461bcd60e51b815260206004820152601860248201527f4552433732313a20696e76616c696420746f6b656e2049440000000000000000604482015260640161043d565b60006001600160a01b0382166106765760405162461bcd60e51b815260206004820152602960248201527f4552433732313a2061646472657373207a65726f206973206e6f74206120766160448201527f6c6964206f776e65720000000000000000000000000000000000000000000000606482015260840161043d565b506001600160a01b031660009081526068602052604090205490565b60606066805461030390611504565b6106ac338383610d57565b5050565b6106ba3383610ac5565b61071c5760405162461bcd60e51b815260206004820152602d60248201527f4552433732313a2063616c6c6572206973206e6f7420746f6b656e206f776e6560448201526c1c881bdc88185c1c1c9bdd9959609a1b606482015260840161043d565b61072884848484610e25565b50505050565b60008181526097602052604081205442600160a01b90910467ffffffffffffffff161061077157506000908152609760205260409020546001600160a01b031690565b506000919050565b919050565b6060610789826109e3565b60006107a060408051602081019091526000815290565b905060008151116107c057604051806020016040528060008152506107eb565b806107ca84610eae565b6040516020016107db92919061153e565b6040516020818303038152906040525b9392505050565b6001600160a01b0382161561085a57428167ffffffffffffffff161161085a5760405162461bcd60e51b815260206004820152601160248201527f457870697265642074696d657374616d70000000000000000000000000000000604482015260640161043d565b6000838152609760205260409020805473ffffffffffffffffffffffffffffffffffffffff19166001600160a01b03841690811782556108bf5780547fffffffff0000000000000000ffffffffffffffffffffffffffffffffffffffff1681556108f8565b80547fffffffff0000000000000000ffffffffffffffffffffffffffffffffffffffff16600160a01b67ffffffffffffffff8416021781555b60405167ffffffffffffffff831681526001600160a01b0384169085907f4e06b4e7000e659094299b3533b47b6aa8ad048e95e872d23d1f4ee55af89cfe9060200160405180910390a350505050565b60006001600160e01b031982167f80ac58cd0000000000000000000000000000000000000000000000000000000014806109ab57506001600160e01b031982167f5b5e139f00000000000000000000000000000000000000000000000000000000145b806102ee57507f01ffc9a7000000000000000000000000000000000000000000000000000000006001600160e01b03198316146102ee565b6000818152606760205260409020546001600160a01b0316610a475760405162461bcd60e51b815260206004820152601860248201527f4552433732313a20696e76616c696420746f6b656e2049440000000000000000604482015260640161043d565b50565b6000818152606960205260409020805473ffffffffffffffffffffffffffffffffffffffff19166001600160a01b0384169081179091558190610a8c82610593565b6001600160a01b03167f8c5be1e5ebec7d5bd14f71427d1e84f3dd0314c0f7b2291e5b200ac8c7c3b92560405160405180910390a45050565b600080610ad183610593565b9050806001600160a01b0316846001600160a01b03161480610b1857506001600160a01b038082166000908152606a602090815260408083209388168352929052205460ff165b80610b3c5750836001600160a01b0316610b3184610386565b6001600160a01b0316145b949350505050565b826001600160a01b0316610b5782610593565b6001600160a01b031614610bbb5760405162461bcd60e51b815260206004820152602560248201527f4552433732313a207472616e736665722066726f6d20696e636f72726563742060448201526437bbb732b960d91b606482015260840161043d565b6001600160a01b038216610c365760405162461bcd60e51b8152602060048201526024808201527f4552433732313a207472616e7366657220746f20746865207a65726f2061646460448201527f7265737300000000000000000000000000000000000000000000000000000000606482015260840161043d565b610c438383836001610f4e565b826001600160a01b0316610c5682610593565b6001600160a01b031614610cba5760405162461bcd60e51b815260206004820152602560248201527f4552433732313a207472616e736665722066726f6d20696e636f72726563742060448201526437bbb732b960d91b606482015260840161043d565b6000818152606960209081526040808320805473ffffffffffffffffffffffffffffffffffffffff199081169091556001600160a01b0387811680865260688552838620805460001901905590871680865283862080546001019055868652606790945282852080549092168417909155905184937fddf252ad1be2c89b69c2b068fc378daa952ba7f163c4a11628f55a4df523b3ef91a4505050565b816001600160a01b0316836001600160a01b031603610db85760405162461bcd60e51b815260206004820152601960248201527f4552433732313a20617070726f766520746f2063616c6c657200000000000000604482015260640161043d565b6001600160a01b038381166000818152606a6020908152604080832094871680845294825291829020805460ff191686151590811790915591519182527f17307eab39ab6107e8899845ad3d59bd9653f200f220920489ca2b5937696c31910160405180910390a3505050565b610e30848484610b44565b610e3c84848484610fd6565b6107285760405162461bcd60e51b815260206004820152603260248201527f4552433732313a207472616e7366657220746f206e6f6e20455243373231526560448201527f63656976657220696d706c656d656e7465720000000000000000000000000000606482015260840161043d565b60606000610ebb8361112d565b600101905060008167ffffffffffffffff811115610edb57610edb611392565b6040519080825280601f01601f191660200182016040528015610f05576020820181803683370190505b5090508181016020015b600019017f3031323334353637383961626364656600000000000000000000000000000000600a86061a8153600a8504945084610f0f57509392505050565b6001811115610728576001600160a01b03841615610f94576001600160a01b03841660009081526068602052604081208054839290610f8e908490611583565b90915550505b6001600160a01b03831615610728576001600160a01b03831660009081526068602052604081208054839290610fcb908490611596565b909155505050505050565b60006001600160a01b0384163b1561112257604051630a85bd0160e11b81526001600160a01b0385169063150b7a029061101a9033908990889088906004016115a9565b6020604051808303816000875af1925050508015611055575060408051601f3d908101601f19168201909252611052918101906115e5565b60015b611108573d808015611083576040519150601f19603f3d011682016040523d82523d6000602084013e611088565b606091505b5080516000036111005760405162461bcd60e51b815260206004820152603260248201527f4552433732313a207472616e7366657220746f206e6f6e20455243373231526560448201527f63656976657220696d706c656d656e7465720000000000000000000000000000606482015260840161043d565b805181602001fd5b6001600160e01b031916630a85bd0160e11b149050610b3c565b506001949350505050565b6000807a184f03e93ff9f4daa797ed6e38ed64bf6a1f0100000000000000008310611176577a184f03e93ff9f4daa797ed6e38ed64bf6a1f010000000000000000830492506040015b6d04ee2d6d415b85acef810000000083106111a2576d04ee2d6d415b85acef8100000000830492506020015b662386f26fc1000083106111c057662386f26fc10000830492506010015b6305f5e10083106111d8576305f5e100830492506008015b61271083106111ec57612710830492506004015b606483106111fe576064830492506002015b600a83106102ee5760010192915050565b6001600160e01b031981168114610a4757600080fd5b60006020828403121561123757600080fd5b81356107eb8161120f565b60005b8381101561125d578181015183820152602001611245565b50506000910152565b6000815180845261127e816020860160208601611242565b601f01601f19169290920160200192915050565b6020815260006107eb6020830184611266565b6000602082840312156112b757600080fd5b5035919050565b80356001600160a01b038116811461077957600080fd5b600080604083850312156112e857600080fd5b6112f1836112be565b946020939093013593505050565b60008060006060848603121561131457600080fd5b61131d846112be565b925061132b602085016112be565b9150604084013590509250925092565b60006020828403121561134d57600080fd5b6107eb826112be565b6000806040838503121561136957600080fd5b611372836112be565b91506020830135801515811461138757600080fd5b809150509250929050565b634e487b7160e01b600052604160045260246000fd5b600080600080608085870312156113be57600080fd5b6113c7856112be565b93506113d5602086016112be565b925060408501359150606085013567ffffffffffffffff808211156113f957600080fd5b818701915087601f83011261140d57600080fd5b81358181111561141f5761141f611392565b604051601f8201601f19908116603f0116810190838211818310171561144757611447611392565b816040528281528a602084870101111561146057600080fd5b82602086016020830137600060208483010152809550505050505092959194509250565b60008060006060848603121561149957600080fd5b833592506114a9602085016112be565b9150604084013567ffffffffffffffff811681146114c657600080fd5b809150509250925092565b600080604083850312156114e457600080fd5b6114ed836112be565b91506114fb602084016112be565b90509250929050565b600181811c9082168061151857607f821691505b60208210810361153857634e487b7160e01b600052602260045260246000fd5b50919050565b60008351611550818460208801611242565b835190830190611564818360208801611242565b01949350505050565b634e487b7160e01b600052601160045260246000fd5b818103818111156102ee576102ee61156d565b808201808211156102ee576102ee61156d565b60006001600160a01b038087168352808616602084015250836040830152608060608301526115db6080830184611266565b9695505050505050565b6000602082840312156115f757600080fd5b81516107eb8161120f56fea264697066735822122022599824a263bc15e59a6e969b7d49dc451bfffa551c0bdb68b10271fb424e8964736f6c63430008110033",
  "linkReferences": {},
  "deployedLinkReferences": {}
}