{
  "_format": "hh-sol-artifact-1",
  "contractName": "ERC4907Upgradeable",
  "sourceName": "contracts/ERC4907Upgradeable.sol",
  "abi": [
    {
      "anonymous": false,
      "inputs": [
        {
          "indexed": true,
          "internalType": "address",
          "name": "owner",
          "type": "address"
        },
        {
          "indexed": true,
          "internalType": "address",
          "name": "approved",
          "type": "address"
        },
        {
          "indexed": true,
          "internalType": "uint256",
          "name": "tokenId",
          "type": "uint256"
        }
      ],
      "name": "Approval",
      "type": "event"
    },
    {
      "anonymous": false,
      "inputs": [
        {
          "indexed": true,
          "internalType": "address",
          "name": "owner",
          "type": "address"
        },
        {
          "indexed": true,
          "internalType": "address",
          "name": "operator",
          "type": "address"
        },
        {
          "indexed": false,
          "internalType": "bool",
          "name": "approved",
          "type": "bool"
        }
      ],
      "name": "ApprovalForAll",
      "type": "event"
    },
    {
      "anonymous": false,
      "inputs": [
        {
          "indexed": false,
          "internalType": "uint8",
          "name": "version",
          "type": "uint8"
        }
      ],
      "name": "Initialized",
      "type": "event"
    },
    {
      "anonymous": false,
      "inputs": [
        {
          "indexed": true,
          "internalType": "address",
          "name": "from",
          "type": "address"
        },
        {
          "indexed": true,
          "internalType": "address",
          "name": "to",
          "type": "address"
        },
        {
          "indexed": true,
          "internalType": "uint256",
          "name": "tokenId",
          "type": "uint256"
        }
      ],
      "name": "Transfer",
      "type": "event"
    },
    {
      "anonymous": false,
      "inputs": [
        {
          "indexed": true,
          "internalType": "uint256",
          "name": "tokenId",
          "type": "uint256"
        },
        {
          "indexed": true,
          "internalType": "address",
          "name": "user",
          "type": "address"
        },
        {
          "indexed": false,
          "internalType": "uint64",
          "name": "expires",
          "type": "uint64"
        }
      ],
      "name": "UpdateUser",
      "type": "event"
    },
    {
      "inputs": [
        {
          "internalType": "address",
          "name": "to",
          "type": "address"
        },
        {
          "internalType": "uint256",
          "name": "tokenId",
          "type": "uint256"
        }
      ],
      "name": "approve",
      "outputs": [],
      "stateMutability": "nonpayable",
      "type": "function"
    },
    {
      "inputs": [
        {
          "internalType": "address",
          "name": "owner",
          "type": "address"
        }
      ],
      "name": "balanceOf",
      "outputs": [
        {
          "internalType": "uint256",
          "name": "",
          "type": "uint256"
        }
      ],
      "stateMutability": "view",
      "type": "function"
    },
    {
      "inputs": [
        {
          "internalType": "uint256",
          "name": "tokenId",
          "type": "uint256"
        }
      ],
      "name": "getApproved",
      "outputs": [
        {
          "internalType": "address",
          "name": "",
          "type": "address"
        }
      ],
      "stateMutability": "view",
      "type": "function"
    },
    {
      "inputs": [
        {
          "internalType": "address",
          "name": "owner",
          "type": "address"
        },
        {
          "internalType": "address",
          "name": "operator",
          "type": "address"
        }
      ],
      "name": "isApprovedForAll",
      "outputs": [
        {
          "internalType": "bool",
          "name": "",
          "type": "bool"
        }
      ],
      "stateMutability": "view",
      "type": "function"
    },
    {
      "inputs": [],
      "name": "name",
      "outputs": [
        {
          "internalType": "string",
          "name": "",
          "type": "string"
        }
      ],
      "stateMutability": "view",
      "type": "function"
    },
    {
      "inputs": [
        {
          "internalType": "uint256",
          "name": "tokenId",
          "type": "uint256"
        }
      ],
      "name": "ownerOf",
      "outputs": [
        {
          "internalType": "address",
          "name": "",
          "type": "address"
        }
      ],
      "stateMutability": "view",
      "type": "function"
    },
    {
      "inputs": [
        {
          "internalType": "address",
          "name": "from",
          "type": "address"
        },
        {
          "internalType": "address",
          "name": "to",
          "type": "address"
        },
        {
          "internalType": "uint256",
          "name": "tokenId",
          "type": "uint256"
        }
      ],
      "name": "safeTransferFrom",
      "outputs": [],
      "stateMutability": "nonpayable",
      "type": "function"
    },
    {
      "inputs": [
        {
          "internalType": "address",
          "name": "from",
          "type": "address"
        },
        {
          "internalType": "address",
          "name": "to",
          "type": "address"
        },
        {
          "internalType": "uint256",
          "name": "tokenId",
          "type": "uint256"
        },
        {
          "internalType": "bytes",
          "name": "data",
          "type": "bytes"
        }
      ],
      "name": "safeTransferFrom",
      "outputs": [],
      "stateMutability": "nonpayable",
      "type": "function"
    },
    {
      "inputs": [
        {
          "internalType": "address",
          "name": "operator",
          "type": "address"
        },
        {
          "internalType": "bool",
          "name": "approved",
          "type": "bool"
        }
      ],
      "name": "setApprovalForAll",
      "outputs": [],
      "stateMutability": "nonpayable",
      "type": "function"
    },
    {
      "inputs": [
        {
          "internalType": "uint256",
          "name": "tokenId",
          "type": "uint256"
        },
        {
          "internalType": "address",
          "name": "user",
          "type": "address"
        },
        {
          "internalType": "uint64",
          "name": "expires",
          "type": "uint64"
        }
      ],
      "name": "setUser",
      "outputs": [],
      "stateMutability": "nonpayable",
      "type": "function"
    },
    {
      "inputs": [
        {
          "internalType": "bytes4",
          "name": "interfaceId",
          "type": "bytes4"
        }
      ],
      "name": "supportsInterface",
      "outputs": [
        {
          "internalType": "bool",
          "name": "",
          "type": "bool"
        }
      ],
      "stateMutability": "view",
      "type": "function"
    },
    {
      "inputs": [],
      "name": "symbol",
      "outputs": [
        {
          "internalType": "string",
          "name": "",
          "type": "string"
        }
      ],
      "stateMutability": "view",
      "type": "function"
    },
    {
      "inputs": [
        {
          "internalType": "uint256",
          "name": "tokenId",
          "type": "uint256"
        }
      ],
      "name": "tokenURI",
      "outputs": [
        {
          "internalType": "string",
          "name": "",
          "type": "string"
        }
      ],
      "stateMutability": "view",
      "type": "function"
    },
    {
      "inputs": [
        {
          "internalType": "address",
          "name": "from",
          "type": "address"
        },
        {
          "internalType": "address",
          "name": "to",
          "type": "address"
        },
        {
          "internalType": "uint256",
          "name": "tokenId",
          "type": "uint256"
        }
      ],
      "name": "transferFrom",
      "outputs": [],
      "stateMutability": "nonpayable",
      "type": "function"
    },
    {
      "inputs": [
        {
          "internalType": "uint256",
          "name": "tokenId",
          "type": "uint256"
        }
      ],
      "name": "userExpires",
      "outputs": [
        {
          "internalType": "uint256",
          "name": "",
          "type": "uint256"
        }
      ],
      "stateMutability": "view",
      "type": "function"
    },
    {
      "inputs": [
        {
          "internalType": "uint256",
          "name": "tokenId",
          "type": "uint256"
        }
      ],
      "name": "userOf",
      "outputs": [
        {
          "internalType": "address",
          "name": "",
          "type": "address"
        }
      ],
      "stateMutability": "view",
      "type": "function"
    }
  ],
  "bytecode": "0x608060405234801561001057600080fd5b506127ab806100206000396000f3fe608060405234801561001057600080fd5b50600436106101005760003560e01c80638fc88c4811610097578063c2f1f14a11610066578063c2f1f14a146102bd578063c87b56dd146102ed578063e030565e1461031d578063e985e9c51461033957610100565b80638fc88c481461023757806395d89b4114610267578063a22cb46514610285578063b88d4fde146102a157610100565b806323b872dd116100d357806323b872dd1461019f57806342842e0e146101bb5780636352211e146101d757806370a082311461020757610100565b806301ffc9a71461010557806306fdde0314610135578063081812fc14610153578063095ea7b314610183575b600080fd5b61011f600480360381019061011a91906119bf565b610369565b60405161012c9190611a07565b60405180910390f35b61013d6103e3565b60405161014a9190611ab2565b60405180910390f35b61016d60048036038101906101689190611b0a565b610475565b60405161017a9190611b78565b60405180910390f35b61019d60048036038101906101989190611bbf565b6104bb565b005b6101b960048036038101906101b49190611bff565b6105d2565b005b6101d560048036038101906101d09190611bff565b610632565b005b6101f160048036038101906101ec9190611b0a565b610652565b6040516101fe9190611b78565b60405180910390f35b610221600480360381019061021c9190611c52565b6106d8565b60405161022e9190611c8e565b60405180910390f35b610251600480360381019061024c9190611b0a565b61078f565b60405161025e9190611c8e565b60405180910390f35b61026f6107cd565b60405161027c9190611ab2565b60405180910390f35b61029f600480360381019061029a9190611cd5565b61085f565b005b6102bb60048036038101906102b69190611e4a565b610875565b005b6102d760048036038101906102d29190611b0a565b6108d7565b6040516102e49190611b78565b60405180910390f35b61030760048036038101906103029190611b0a565b61095c565b6040516103149190611ab2565b60405180910390f35b61033760048036038101906103329190611f0d565b6109c4565b005b610353600480360381019061034e9190611f60565b610b85565b6040516103609190611a07565b60405180910390f35b60007fad092b5c000000000000000000000000000000000000000000000000000000007bffffffffffffffffffffffffffffffffffffffffffffffffffffffff1916827bffffffffffffffffffffffffffffffffffffffffffffffffffffffff191614806103dc57506103db82610c19565b5b9050919050565b6060606580546103f290611fcf565b80601f016020809104026020016040519081016040528092919081815260200182805461041e90611fcf565b801561046b5780601f106104405761010080835404028352916020019161046b565b820191906000526020600020905b81548152906001019060200180831161044e57829003601f168201915b5050505050905090565b600061048082610cfb565b6069600083815260200190815260200160002060009054906101000a900473ffffffffffffffffffffffffffffffffffffffff169050919050565b60006104c682610652565b90508073ffffffffffffffffffffffffffffffffffffffff168373ffffffffffffffffffffffffffffffffffffffff1603610536576040517f08c379a000000000000000000000000000000000000000000000000000000000815260040161052d90612072565b60405180910390fd5b8073ffffffffffffffffffffffffffffffffffffffff16610555610d46565b73ffffffffffffffffffffffffffffffffffffffff16148061058457506105838161057e610d46565b610b85565b5b6105c3576040517f08c379a00000000000000000000000000000000000000000000000000000000081526004016105ba90612104565b60405180910390fd5b6105cd8383610d4e565b505050565b6105e36105dd610d46565b82610e07565b610622576040517f08c379a000000000000000000000000000000000000000000000000000000000815260040161061990612196565b60405180910390fd5b61062d838383610e9c565b505050565b61064d83838360405180602001604052806000815250610875565b505050565b60008061065e83611195565b9050600073ffffffffffffffffffffffffffffffffffffffff168173ffffffffffffffffffffffffffffffffffffffff16036106cf576040517f08c379a00000000000000000000000000000000000000000000000000000000081526004016106c690612202565b60405180910390fd5b80915050919050565b60008073ffffffffffffffffffffffffffffffffffffffff168273ffffffffffffffffffffffffffffffffffffffff1603610748576040517f08c379a000000000000000000000000000000000000000000000000000000000815260040161073f90612294565b60405180910390fd5b606860008373ffffffffffffffffffffffffffffffffffffffff1673ffffffffffffffffffffffffffffffffffffffff168152602001908152602001600020549050919050565b60006097600083815260200190815260200160002060000160149054906101000a900467ffffffffffffffff1667ffffffffffffffff169050919050565b6060606680546107dc90611fcf565b80601f016020809104026020016040519081016040528092919081815260200182805461080890611fcf565b80156108555780601f1061082a57610100808354040283529160200191610855565b820191906000526020600020905b81548152906001019060200180831161083857829003601f168201915b5050505050905090565b61087161086a610d46565b83836111d2565b5050565b610886610880610d46565b83610e07565b6108c5576040517f08c379a00000000000000000000000000000000000000000000000000000000081526004016108bc90612196565b60405180910390fd5b6108d18484848461133e565b50505050565b6000426097600084815260200190815260200160002060000160149054906101000a900467ffffffffffffffff1667ffffffffffffffff1610610952576097600083815260200190815260200160002060000160009054906101000a900473ffffffffffffffffffffffffffffffffffffffff169050610957565b600090505b919050565b606061096782610cfb565b600061097161139a565b9050600081511161099157604051806020016040528060008152506109bc565b8061099b846113b1565b6040516020016109ac9291906122f0565b6040516020818303038152906040525b915050919050565b600073ffffffffffffffffffffffffffffffffffffffff168273ffffffffffffffffffffffffffffffffffffffff1614610a4557428167ffffffffffffffff1611610a44576040517f08c379a0000000000000000000000000000000000000000000000000000000008152600401610a3b90612360565b60405180910390fd5b5b6000609760008581526020019081526020016000209050828160000160006101000a81548173ffffffffffffffffffffffffffffffffffffffff021916908373ffffffffffffffffffffffffffffffffffffffff160217905550600073ffffffffffffffffffffffffffffffffffffffff168373ffffffffffffffffffffffffffffffffffffffff1603610b045760008160000160146101000a81548167ffffffffffffffff021916908367ffffffffffffffff160217905550610b30565b818160000160146101000a81548167ffffffffffffffff021916908367ffffffffffffffff1602179055505b8273ffffffffffffffffffffffffffffffffffffffff16847f4e06b4e7000e659094299b3533b47b6aa8ad048e95e872d23d1f4ee55af89cfe84604051610b77919061238f565b60405180910390a350505050565b6000606a60008473ffffffffffffffffffffffffffffffffffffffff1673ffffffffffffffffffffffffffffffffffffffff16815260200190815260200160002060008373ffffffffffffffffffffffffffffffffffffffff1673ffffffffffffffffffffffffffffffffffffffff16815260200190815260200160002060009054906101000a900460ff16905092915050565b60007f80ac58cd000000000000000000000000000000000000000000000000000000007bffffffffffffffffffffffffffffffffffffffffffffffffffffffff1916827bffffffffffffffffffffffffffffffffffffffffffffffffffffffff19161480610ce457507f5b5e139f000000000000000000000000000000000000000000000000000000007bffffffffffffffffffffffffffffffffffffffffffffffffffffffff1916827bffffffffffffffffffffffffffffffffffffffffffffffffffffffff1916145b80610cf45750610cf38261147f565b5b9050919050565b610d04816114e9565b610d43576040517f08c379a0000000000000000000000000000000000000000000000000000000008152600401610d3a90612202565b60405180910390fd5b50565b600033905090565b816069600083815260200190815260200160002060006101000a81548173ffffffffffffffffffffffffffffffffffffffff021916908373ffffffffffffffffffffffffffffffffffffffff160217905550808273ffffffffffffffffffffffffffffffffffffffff16610dc183610652565b73ffffffffffffffffffffffffffffffffffffffff167f8c5be1e5ebec7d5bd14f71427d1e84f3dd0314c0f7b2291e5b200ac8c7c3b92560405160405180910390a45050565b600080610e1383610652565b90508073ffffffffffffffffffffffffffffffffffffffff168473ffffffffffffffffffffffffffffffffffffffff161480610e555750610e548185610b85565b5b80610e9357508373ffffffffffffffffffffffffffffffffffffffff16610e7b84610475565b73ffffffffffffffffffffffffffffffffffffffff16145b91505092915050565b8273ffffffffffffffffffffffffffffffffffffffff16610ebc82610652565b73ffffffffffffffffffffffffffffffffffffffff1614610f12576040517f08c379a0000000000000000000000000000000000000000000000000000000008152600401610f099061241c565b60405180910390fd5b600073ffffffffffffffffffffffffffffffffffffffff168273ffffffffffffffffffffffffffffffffffffffff1603610f81576040517f08c379a0000000000000000000000000000000000000000000000000000000008152600401610f78906124ae565b60405180910390fd5b610f8e838383600161152a565b8273ffffffffffffffffffffffffffffffffffffffff16610fae82610652565b73ffffffffffffffffffffffffffffffffffffffff1614611004576040517f08c379a0000000000000000000000000000000000000000000000000000000008152600401610ffb9061241c565b60405180910390fd5b6069600082815260200190815260200160002060006101000a81549073ffffffffffffffffffffffffffffffffffffffff02191690556001606860008573ffffffffffffffffffffffffffffffffffffffff1673ffffffffffffffffffffffffffffffffffffffff168152602001908152602001600020600082825403925050819055506001606860008473ffffffffffffffffffffffffffffffffffffffff1673ffffffffffffffffffffffffffffffffffffffff16815260200190815260200160002060008282540192505081905550816067600083815260200190815260200160002060006101000a81548173ffffffffffffffffffffffffffffffffffffffff021916908373ffffffffffffffffffffffffffffffffffffffff160217905550808273ffffffffffffffffffffffffffffffffffffffff168473ffffffffffffffffffffffffffffffffffffffff167fddf252ad1be2c89b69c2b068fc378daa952ba7f163c4a11628f55a4df523b3ef60405160405180910390a46111908383836001611650565b505050565b60006067600083815260200190815260200160002060009054906101000a900473ffffffffffffffffffffffffffffffffffffffff169050919050565b8173ffffffffffffffffffffffffffffffffffffffff168373ffffffffffffffffffffffffffffffffffffffff1603611240576040517f08c379a00000000000000000000000000000000000000000000000000000000081526004016112379061251a565b60405180910390fd5b80606a60008573ffffffffffffffffffffffffffffffffffffffff1673ffffffffffffffffffffffffffffffffffffffff16815260200190815260200160002060008473ffffffffffffffffffffffffffffffffffffffff1673ffffffffffffffffffffffffffffffffffffffff16815260200190815260200160002060006101000a81548160ff0219169083151502179055508173ffffffffffffffffffffffffffffffffffffffff168373ffffffffffffffffffffffffffffffffffffffff167f17307eab39ab6107e8899845ad3d59bd9653f200f220920489ca2b5937696c31836040516113319190611a07565b60405180910390a3505050565b611349848484610e9c565b61135584848484611656565b611394576040517f08c379a000000000000000000000000000000000000000000000000000000000815260040161138b906125ac565b60405180910390fd5b50505050565b606060405180602001604052806000815250905090565b6060600060016113c0846117dd565b01905060008167ffffffffffffffff8111156113df576113de611d1f565b5b6040519080825280601f01601f1916602001820160405280156114115781602001600182028036833780820191505090505b509050600082602001820190505b600115611474578080600190039150507f3031323334353637383961626364656600000000000000000000000000000000600a86061a8153600a8581611468576114676125cc565b5b0494506000850361141f575b819350505050919050565b60007f01ffc9a7000000000000000000000000000000000000000000000000000000007bffffffffffffffffffffffffffffffffffffffffffffffffffffffff1916827bffffffffffffffffffffffffffffffffffffffffffffffffffffffff1916149050919050565b60008073ffffffffffffffffffffffffffffffffffffffff1661150b83611195565b73ffffffffffffffffffffffffffffffffffffffff1614159050919050565b600181111561164a57600073ffffffffffffffffffffffffffffffffffffffff168473ffffffffffffffffffffffffffffffffffffffff16146115be5780606860008673ffffffffffffffffffffffffffffffffffffffff1673ffffffffffffffffffffffffffffffffffffffff16815260200190815260200160002060008282546115b6919061262a565b925050819055505b600073ffffffffffffffffffffffffffffffffffffffff168373ffffffffffffffffffffffffffffffffffffffff16146116495780606860008573ffffffffffffffffffffffffffffffffffffffff1673ffffffffffffffffffffffffffffffffffffffff1681526020019081526020016000206000828254611641919061265e565b925050819055505b5b50505050565b50505050565b60006116778473ffffffffffffffffffffffffffffffffffffffff16611930565b156117d0578373ffffffffffffffffffffffffffffffffffffffff1663150b7a026116a0610d46565b8786866040518563ffffffff1660e01b81526004016116c294939291906126e7565b6020604051808303816000875af19250505080156116fe57506040513d601f19601f820116820180604052508101906116fb9190612748565b60015b611780573d806000811461172e576040519150601f19603f3d011682016040523d82523d6000602084013e611733565b606091505b506000815103611778576040517f08c379a000000000000000000000000000000000000000000000000000000000815260040161176f906125ac565b60405180910390fd5b805181602001fd5b63150b7a0260e01b7bffffffffffffffffffffffffffffffffffffffffffffffffffffffff1916817bffffffffffffffffffffffffffffffffffffffffffffffffffffffff1916149150506117d5565b600190505b949350505050565b600080600090507a184f03e93ff9f4daa797ed6e38ed64bf6a1f010000000000000000831061183b577a184f03e93ff9f4daa797ed6e38ed64bf6a1f0100000000000000008381611831576118306125cc565b5b0492506040810190505b6d04ee2d6d415b85acef81000000008310611878576d04ee2d6d415b85acef8100000000838161186e5761186d6125cc565b5b0492506020810190505b662386f26fc1000083106118a757662386f26fc10000838161189d5761189c6125cc565b5b0492506010810190505b6305f5e10083106118d0576305f5e10083816118c6576118c56125cc565b5b0492506008810190505b61271083106118f55761271083816118eb576118ea6125cc565b5b0492506004810190505b60648310611918576064838161190e5761190d6125cc565b5b0492506002810190505b600a8310611927576001810190505b80915050919050565b6000808273ffffffffffffffffffffffffffffffffffffffff163b119050919050565b6000604051905090565b600080fd5b600080fd5b60007fffffffff0000000000000000000000000000000000000000000000000000000082169050919050565b61199c81611967565b81146119a757600080fd5b50565b6000813590506119b981611993565b92915050565b6000602082840312156119d5576119d461195d565b5b60006119e3848285016119aa565b91505092915050565b60008115159050919050565b611a01816119ec565b82525050565b6000602082019050611a1c60008301846119f8565b92915050565b600081519050919050565b600082825260208201905092915050565b60005b83811015611a5c578082015181840152602081019050611a41565b60008484015250505050565b6000601f19601f8301169050919050565b6000611a8482611a22565b611a8e8185611a2d565b9350611a9e818560208601611a3e565b611aa781611a68565b840191505092915050565b60006020820190508181036000830152611acc8184611a79565b905092915050565b6000819050919050565b611ae781611ad4565b8114611af257600080fd5b50565b600081359050611b0481611ade565b92915050565b600060208284031215611b2057611b1f61195d565b5b6000611b2e84828501611af5565b91505092915050565b600073ffffffffffffffffffffffffffffffffffffffff82169050919050565b6000611b6282611b37565b9050919050565b611b7281611b57565b82525050565b6000602082019050611b8d6000830184611b69565b92915050565b611b9c81611b57565b8114611ba757600080fd5b50565b600081359050611bb981611b93565b92915050565b60008060408385031215611bd657611bd561195d565b5b6000611be485828601611baa565b9250506020611bf585828601611af5565b9150509250929050565b600080600060608486031215611c1857611c1761195d565b5b6000611c2686828701611baa565b9350506020611c3786828701611baa565b9250506040611c4886828701611af5565b9150509250925092565b600060208284031215611c6857611c6761195d565b5b6000611c7684828501611baa565b91505092915050565b611c8881611ad4565b82525050565b6000602082019050611ca36000830184611c7f565b92915050565b611cb2816119ec565b8114611cbd57600080fd5b50565b600081359050611ccf81611ca9565b92915050565b60008060408385031215611cec57611ceb61195d565b5b6000611cfa85828601611baa565b9250506020611d0b85828601611cc0565b9150509250929050565b600080fd5b600080fd5b7f4e487b7100000000000000000000000000000000000000000000000000000000600052604160045260246000fd5b611d5782611a68565b810181811067ffffffffffffffff82111715611d7657611d75611d1f565b5b80604052505050565b6000611d89611953565b9050611d958282611d4e565b919050565b600067ffffffffffffffff821115611db557611db4611d1f565b5b611dbe82611a68565b9050602081019050919050565b82818337600083830152505050565b6000611ded611de884611d9a565b611d7f565b905082815260208101848484011115611e0957611e08611d1a565b5b611e14848285611dcb565b509392505050565b600082601f830112611e3157611e30611d15565b5b8135611e41848260208601611dda565b91505092915050565b60008060008060808587031215611e6457611e6361195d565b5b6000611e7287828801611baa565b9450506020611e8387828801611baa565b9350506040611e9487828801611af5565b925050606085013567ffffffffffffffff811115611eb557611eb4611962565b5b611ec187828801611e1c565b91505092959194509250565b600067ffffffffffffffff82169050919050565b611eea81611ecd565b8114611ef557600080fd5b50565b600081359050611f0781611ee1565b92915050565b600080600060608486031215611f2657611f2561195d565b5b6000611f3486828701611af5565b9350506020611f4586828701611baa565b9250506040611f5686828701611ef8565b9150509250925092565b60008060408385031215611f7757611f7661195d565b5b6000611f8585828601611baa565b9250506020611f9685828601611baa565b9150509250929050565b7f4e487b7100000000000000000000000000000000000000000000000000000000600052602260045260246000fd5b60006002820490506001821680611fe757607f821691505b602082108103611ffa57611ff9611fa0565b5b50919050565b7f4552433732313a20617070726f76616c20746f2063757272656e74206f776e6560008201527f7200000000000000000000000000000000000000000000000000000000000000602082015250565b600061205c602183611a2d565b915061206782612000565b604082019050919050565b6000602082019050818103600083015261208b8161204f565b9050919050565b7f4552433732313a20617070726f76652063616c6c6572206973206e6f7420746f60008201527f6b656e206f776e6572206f7220617070726f76656420666f7220616c6c000000602082015250565b60006120ee603d83611a2d565b91506120f982612092565b604082019050919050565b6000602082019050818103600083015261211d816120e1565b9050919050565b7f4552433732313a2063616c6c6572206973206e6f7420746f6b656e206f776e6560008201527f72206f7220617070726f76656400000000000000000000000000000000000000602082015250565b6000612180602d83611a2d565b915061218b82612124565b604082019050919050565b600060208201905081810360008301526121af81612173565b9050919050565b7f4552433732313a20696e76616c696420746f6b656e2049440000000000000000600082015250565b60006121ec601883611a2d565b91506121f7826121b6565b602082019050919050565b6000602082019050818103600083015261221b816121df565b9050919050565b7f4552433732313a2061646472657373207a65726f206973206e6f74206120766160008201527f6c6964206f776e65720000000000000000000000000000000000000000000000602082015250565b600061227e602983611a2d565b915061228982612222565b604082019050919050565b600060208201905081810360008301526122ad81612271565b9050919050565b600081905092915050565b60006122ca82611a22565b6122d481856122b4565b93506122e4818560208601611a3e565b80840191505092915050565b60006122fc82856122bf565b915061230882846122bf565b91508190509392505050565b7f457870697265642074696d657374616d70000000000000000000000000000000600082015250565b600061234a601183611a2d565b915061235582612314565b602082019050919050565b600060208201905081810360008301526123798161233d565b9050919050565b61238981611ecd565b82525050565b60006020820190506123a46000830184612380565b92915050565b7f4552433732313a207472616e736665722066726f6d20696e636f72726563742060008201527f6f776e6572000000000000000000000000000000000000000000000000000000602082015250565b6000612406602583611a2d565b9150612411826123aa565b604082019050919050565b60006020820190508181036000830152612435816123f9565b9050919050565b7f4552433732313a207472616e7366657220746f20746865207a65726f2061646460008201527f7265737300000000000000000000000000000000000000000000000000000000602082015250565b6000612498602483611a2d565b91506124a38261243c565b604082019050919050565b600060208201905081810360008301526124c78161248b565b9050919050565b7f4552433732313a20617070726f766520746f2063616c6c657200000000000000600082015250565b6000612504601983611a2d565b915061250f826124ce565b602082019050919050565b60006020820190508181036000830152612533816124f7565b9050919050565b7f4552433732313a207472616e7366657220746f206e6f6e20455243373231526560008201527f63656976657220696d706c656d656e7465720000000000000000000000000000602082015250565b6000612596603283611a2d565b91506125a18261253a565b604082019050919050565b600060208201905081810360008301526125c581612589565b9050919050565b7f4e487b7100000000000000000000000000000000000000000000000000000000600052601260045260246000fd5b7f4e487b7100000000000000000000000000000000000000000000000000000000600052601160045260246000fd5b600061263582611ad4565b915061264083611ad4565b9250828203905081811115612658576126576125fb565b5b92915050565b600061266982611ad4565b915061267483611ad4565b925082820190508082111561268c5761268b6125fb565b5b92915050565b600081519050919050565b600082825260208201905092915050565b60006126b982612692565b6126c3818561269d565b93506126d3818560208601611a3e565b6126dc81611a68565b840191505092915050565b60006080820190506126fc6000830187611b69565b6127096020830186611b69565b6127166040830185611c7f565b818103606083015261272881846126ae565b905095945050505050565b60008151905061274281611993565b92915050565b60006020828403121561275e5761275d61195d565b5b600061276c84828501612733565b9150509291505056fea26469706673582212209264c83c33a19952fa643febc9bd9cde06dc6fd232bea210fbe740105e8b312e64736f6c63430008110033",
  "linkReferences": {},
  "deployedLinkReferences": {}
}