{
  "_format": "hh-sol-artifact-1",
  "contractName": "ERC4907EnumerableUpgradeable",
  "sourceName": "contracts/ERC4907EnumerableUpgradeable.sol",
  "abi": [
    {
      "anonymous": false,
      "inputs": [
        {
          "indexed": true,
          "internalType": "address",
          "name": "owner",
          "type": "address"
        },
        {
          "indexed": true,
          "internalType": "address",
          "name": "approved",
          "type": "address"
        },
        {
          "indexed": true,
          "internalType": "uint256",
          "name": "tokenId",
          "type": "uint256"
        }
      ],
      "name": "Approval",
      "type": "event"
    },
    {
      "anonymous": false,
      "inputs": [
        {
          "indexed": true,
          "internalType": "address",
          "name": "owner",
          "type": "address"
        },
        {
          "indexed": true,
          "internalType": "address",
          "name": "operator",
          "type": "address"
        },
        {
          "indexed": false,
          "internalType": "bool",
          "name": "approved",
          "type": "bool"
        }
      ],
      "name": "ApprovalForAll",
      "type": "event"
    },
    {
      "anonymous": false,
      "inputs": [
        {
          "indexed": false,
          "internalType": "uint8",
          "name": "version",
          "type": "uint8"
        }
      ],
      "name": "Initialized",
      "type": "event"
    },
    {
      "anonymous": false,
      "inputs": [
        {
          "indexed": true,
          "internalType": "address",
          "name": "from",
          "type": "address"
        },
        {
          "indexed": true,
          "internalType": "address",
          "name": "to",
          "type": "address"
        },
        {
          "indexed": true,
          "internalType": "uint256",
          "name": "tokenId",
          "type": "uint256"
        }
      ],
      "name": "Transfer",
      "type": "event"
    },
    {
      "anonymous": false,
      "inputs": [
        {
          "indexed": true,
          "internalType": "uint256",
          "name": "tokenId",
          "type": "uint256"
        },
        {
          "indexed": true,
          "internalType": "address",
          "name": "user",
          "type": "address"
        },
        {
          "indexed": false,
          "internalType": "uint64",
          "name": "expires",
          "type": "uint64"
        }
      ],
      "name": "UpdateUser",
      "type": "event"
    },
    {
      "inputs": [
        {
          "internalType": "address",
          "name": "to",
          "type": "address"
        },
        {
          "internalType": "uint256",
          "name": "tokenId",
          "type": "uint256"
        }
      ],
      "name": "approve",
      "outputs": [],
      "stateMutability": "nonpayable",
      "type": "function"
    },
    {
      "inputs": [
        {
          "internalType": "address",
          "name": "owner",
          "type": "address"
        }
      ],
      "name": "balanceOf",
      "outputs": [
        {
          "internalType": "uint256",
          "name": "",
          "type": "uint256"
        }
      ],
      "stateMutability": "view",
      "type": "function"
    },
    {
      "inputs": [
        {
          "internalType": "uint256",
          "name": "tokenId",
          "type": "uint256"
        }
      ],
      "name": "getApproved",
      "outputs": [
        {
          "internalType": "address",
          "name": "",
          "type": "address"
        }
      ],
      "stateMutability": "view",
      "type": "function"
    },
    {
      "inputs": [
        {
          "internalType": "address",
          "name": "owner",
          "type": "address"
        },
        {
          "internalType": "address",
          "name": "operator",
          "type": "address"
        }
      ],
      "name": "isApprovedForAll",
      "outputs": [
        {
          "internalType": "bool",
          "name": "",
          "type": "bool"
        }
      ],
      "stateMutability": "view",
      "type": "function"
    },
    {
      "inputs": [],
      "name": "name",
      "outputs": [
        {
          "internalType": "string",
          "name": "",
          "type": "string"
        }
      ],
      "stateMutability": "view",
      "type": "function"
    },
    {
      "inputs": [
        {
          "internalType": "uint256",
          "name": "tokenId",
          "type": "uint256"
        }
      ],
      "name": "ownerOf",
      "outputs": [
        {
          "internalType": "address",
          "name": "",
          "type": "address"
        }
      ],
      "stateMutability": "view",
      "type": "function"
    },
    {
      "inputs": [
        {
          "internalType": "address",
          "name": "from",
          "type": "address"
        },
        {
          "internalType": "address",
          "name": "to",
          "type": "address"
        },
        {
          "internalType": "uint256",
          "name": "tokenId",
          "type": "uint256"
        }
      ],
      "name": "safeTransferFrom",
      "outputs": [],
      "stateMutability": "nonpayable",
      "type": "function"
    },
    {
      "inputs": [
        {
          "internalType": "address",
          "name": "from",
          "type": "address"
        },
        {
          "internalType": "address",
          "name": "to",
          "type": "address"
        },
        {
          "internalType": "uint256",
          "name": "tokenId",
          "type": "uint256"
        },
        {
          "internalType": "bytes",
          "name": "data",
          "type": "bytes"
        }
      ],
      "name": "safeTransferFrom",
      "outputs": [],
      "stateMutability": "nonpayable",
      "type": "function"
    },
    {
      "inputs": [
        {
          "internalType": "address",
          "name": "operator",
          "type": "address"
        },
        {
          "internalType": "bool",
          "name": "approved",
          "type": "bool"
        }
      ],
      "name": "setApprovalForAll",
      "outputs": [],
      "stateMutability": "nonpayable",
      "type": "function"
    },
    {
      "inputs": [
        {
          "internalType": "uint256",
          "name": "tokenId",
          "type": "uint256"
        },
        {
          "internalType": "address",
          "name": "user",
          "type": "address"
        },
        {
          "internalType": "uint64",
          "name": "expires",
          "type": "uint64"
        }
      ],
      "name": "setUser",
      "outputs": [],
      "stateMutability": "nonpayable",
      "type": "function"
    },
    {
      "inputs": [
        {
          "internalType": "bytes4",
          "name": "interfaceId",
          "type": "bytes4"
        }
      ],
      "name": "supportsInterface",
      "outputs": [
        {
          "internalType": "bool",
          "name": "",
          "type": "bool"
        }
      ],
      "stateMutability": "view",
      "type": "function"
    },
    {
      "inputs": [],
      "name": "symbol",
      "outputs": [
        {
          "internalType": "string",
          "name": "",
          "type": "string"
        }
      ],
      "stateMutability": "view",
      "type": "function"
    },
    {
      "inputs": [
        {
          "internalType": "address",
          "name": "user",
          "type": "address"
        },
        {
          "internalType": "uint256",
          "name": "index",
          "type": "uint256"
        }
      ],
      "name": "tokenOfUserByIndex",
      "outputs": [
        {
          "internalType": "uint256",
          "name": "",
          "type": "uint256"
        }
      ],
      "stateMutability": "view",
      "type": "function"
    },
    {
      "inputs": [
        {
          "internalType": "uint256",
          "name": "tokenId",
          "type": "uint256"
        }
      ],
      "name": "tokenURI",
      "outputs": [
        {
          "internalType": "string",
          "name": "",
          "type": "string"
        }
      ],
      "stateMutability": "view",
      "type": "function"
    },
    {
      "inputs": [
        {
          "internalType": "address",
          "name": "from",
          "type": "address"
        },
        {
          "internalType": "address",
          "name": "to",
          "type": "address"
        },
        {
          "internalType": "uint256",
          "name": "tokenId",
          "type": "uint256"
        }
      ],
      "name": "transferFrom",
      "outputs": [],
      "stateMutability": "nonpayable",
      "type": "function"
    },
    {
      "inputs": [
        {
          "internalType": "address",
          "name": "user",
          "type": "address"
        }
      ],
      "name": "usedBalanceOf",
      "outputs": [
        {
          "internalType": "uint256",
          "name": "",
          "type": "uint256"
        }
      ],
      "stateMutability": "view",
      "type": "function"
    },
    {
      "inputs": [
        {
          "internalType": "uint256",
          "name": "tokenId",
          "type": "uint256"
        }
      ],
      "name": "userExpires",
      "outputs": [
        {
          "internalType": "uint256",
          "name": "",
          "type": "uint256"
        }
      ],
      "stateMutability": "view",
      "type": "function"
    },
    {
      "inputs": [
        {
          "internalType": "uint256",
          "name": "tokenId",
          "type": "uint256"
        }
      ],
      "name": "userOf",
      "outputs": [
        {
          "internalType": "address",
          "name": "",
          "type": "address"
        }
      ],
      "stateMutability": "view",
      "type": "function"
    }
  ],
  "bytecode": "0x608060405234801561001057600080fd5b50611a59806100206000396000f3fe608060405234801561001057600080fd5b50600436106101365760003560e01c806370a08231116100b2578063b88d4fde11610081578063c87b56dd11610066578063c87b56dd146102c0578063e030565e146102d3578063e985e9c5146102e657600080fd5b8063b88d4fde1461029a578063c2f1f14a146102ad57600080fd5b806370a082311461023b5780638fc88c481461024e57806395d89b411461027f578063a22cb4651461028757600080fd5b80631d350ef81161010957806323b872dd116100ee57806323b872dd1461020257806342842e0e146102155780636352211e1461022857600080fd5b80631d350ef8146101b8578063227773c0146101d957600080fd5b806301ffc9a71461013b57806306fdde0314610163578063081812fc14610178578063095ea7b3146101a3575b600080fd5b61014e6101493660046115d4565b610322565b60405190151581526020015b60405180910390f35b61016b610366565b60405161015a9190611641565b61018b610186366004611654565b6103f8565b6040516001600160a01b03909116815260200161015a565b6101b66101b1366004611684565b61041f565b005b6101cb6101c6366004611684565b610555565b60405190815260200161015a565b6101cb6101e73660046116ae565b6001600160a01b0316600090815260cd602052604090205490565b6101b66102103660046116c9565b61061d565b6101b66102233660046116c9565b610694565b61018b610236366004611654565b6106af565b6101cb6102493660046116ae565b610714565b6101cb61025c366004611654565b600090815260976020526040902054600160a01b900467ffffffffffffffff1690565b61016b6107ae565b6101b6610295366004611705565b6107bd565b6101b66102a8366004611757565b6107cc565b61018b6102bb366004611654565b61084a565b61016b6102ce366004611654565b61089a565b6101b66102e1366004611833565b61090d565b61014e6102f4366004611880565b6001600160a01b039182166000908152606a6020908152604080832093909416825291909152205460ff1690565b60006001600160e01b031982167fad092b5c000000000000000000000000000000000000000000000000000000001480610360575061036082610999565b92915050565b606060658054610375906118b3565b80601f01602080910402602001604051908101604052809291908181526020018280546103a1906118b3565b80156103ee5780601f106103c3576101008083540402835291602001916103ee565b820191906000526020600020905b8154815290600101906020018083116103d157829003601f168201915b5050505050905090565b600061040382610a34565b506000908152606960205260409020546001600160a01b031690565b600061042a826106af565b9050806001600160a01b0316836001600160a01b0316036104b85760405162461bcd60e51b815260206004820152602160248201527f4552433732313a20617070726f76616c20746f2063757272656e74206f776e6560448201527f720000000000000000000000000000000000000000000000000000000000000060648201526084015b60405180910390fd5b336001600160a01b03821614806104d457506104d481336102f4565b6105465760405162461bcd60e51b815260206004820152603d60248201527f4552433732313a20617070726f76652063616c6c6572206973206e6f7420746f60448201527f6b656e206f776e6572206f7220617070726f76656420666f7220616c6c00000060648201526084016104af565b6105508383610a9b565b505050565b6001600160a01b038216600090815260cd602052604081205482106105e25760405162461bcd60e51b815260206004820152602b60248201527f45524334393037456e756d657261626c653a207573657220696e646578206f7560448201527f74206f6620626f756e647300000000000000000000000000000000000000000060648201526084016104af565b6001600160a01b038316600090815260c96020908152604080832085845290915281205490819003610616576106166118ed565b9392505050565b6106273382610b16565b6106895760405162461bcd60e51b815260206004820152602d60248201527f4552433732313a2063616c6c6572206973206e6f7420746f6b656e206f776e6560448201526c1c881bdc88185c1c1c9bdd9959609a1b60648201526084016104af565b610550838383610b95565b610550838383604051806020016040528060008152506107cc565b6000818152606760205260408120546001600160a01b0316806103605760405162461bcd60e51b815260206004820152601860248201527f4552433732313a20696e76616c696420746f6b656e204944000000000000000060448201526064016104af565b60006001600160a01b0382166107925760405162461bcd60e51b815260206004820152602960248201527f4552433732313a2061646472657373207a65726f206973206e6f74206120766160448201527f6c6964206f776e6572000000000000000000000000000000000000000000000060648201526084016104af565b506001600160a01b031660009081526068602052604090205490565b606060668054610375906118b3565b6107c8338383610da8565b5050565b6107d63383610b16565b6108385760405162461bcd60e51b815260206004820152602d60248201527f4552433732313a2063616c6c6572206973206e6f7420746f6b656e206f776e6560448201526c1c881bdc88185c1c1c9bdd9959609a1b60648201526084016104af565b61084484848484610e76565b50505050565b60008181526097602052604081205442600160a01b90910467ffffffffffffffff161061088d57506000908152609760205260409020546001600160a01b031690565b506000919050565b919050565b60606108a582610a34565b60006108bc60408051602081019091526000815290565b905060008151116108dc5760405180602001604052806000815250610616565b806108e684610eff565b6040516020016108f7929190611903565b6040516020818303038152906040529392505050565b6109178284610f9f565b6001600160a01b03821615610954576001600160a01b038216600090815260cd6020526040812080549161094a83611948565b919050555061098e565b60cd60006109618561084a565b6001600160a01b031681526020810191909152604001600090812080549161098883611961565b91905055505b61055083838361104d565b60006001600160e01b031982167f80ac58cd0000000000000000000000000000000000000000000000000000000014806109fc57506001600160e01b031982167f5b5e139f00000000000000000000000000000000000000000000000000000000145b8061036057507f01ffc9a7000000000000000000000000000000000000000000000000000000006001600160e01b0319831614610360565b6000818152606760205260409020546001600160a01b0316610a985760405162461bcd60e51b815260206004820152601860248201527f4552433732313a20696e76616c696420746f6b656e204944000000000000000060448201526064016104af565b50565b6000818152606960205260409020805473ffffffffffffffffffffffffffffffffffffffff19166001600160a01b0384169081179091558190610add826106af565b6001600160a01b03167f8c5be1e5ebec7d5bd14f71427d1e84f3dd0314c0f7b2291e5b200ac8c7c3b92560405160405180910390a45050565b600080610b22836106af565b9050806001600160a01b0316846001600160a01b03161480610b6957506001600160a01b038082166000908152606a602090815260408083209388168352929052205460ff165b80610b8d5750836001600160a01b0316610b82846103f8565b6001600160a01b0316145b949350505050565b826001600160a01b0316610ba8826106af565b6001600160a01b031614610c0c5760405162461bcd60e51b815260206004820152602560248201527f4552433732313a207472616e736665722066726f6d20696e636f72726563742060448201526437bbb732b960d91b60648201526084016104af565b6001600160a01b038216610c875760405162461bcd60e51b8152602060048201526024808201527f4552433732313a207472616e7366657220746f20746865207a65726f2061646460448201527f726573730000000000000000000000000000000000000000000000000000000060648201526084016104af565b610c9483838360016111a3565b826001600160a01b0316610ca7826106af565b6001600160a01b031614610d0b5760405162461bcd60e51b815260206004820152602560248201527f4552433732313a207472616e736665722066726f6d20696e636f72726563742060448201526437bbb732b960d91b60648201526084016104af565b6000818152606960209081526040808320805473ffffffffffffffffffffffffffffffffffffffff199081169091556001600160a01b0387811680865260688552838620805460001901905590871680865283862080546001019055868652606790945282852080549092168417909155905184937fddf252ad1be2c89b69c2b068fc378daa952ba7f163c4a11628f55a4df523b3ef91a4505050565b816001600160a01b0316836001600160a01b031603610e095760405162461bcd60e51b815260206004820152601960248201527f4552433732313a20617070726f766520746f2063616c6c65720000000000000060448201526064016104af565b6001600160a01b038381166000818152606a6020908152604080832094871680845294825291829020805460ff191686151590811790915591519182527f17307eab39ab6107e8899845ad3d59bd9653f200f220920489ca2b5937696c31910160405180910390a3505050565b610e81848484610b95565b610e8d8484848461122b565b6108445760405162461bcd60e51b815260206004820152603260248201527f4552433732313a207472616e7366657220746f206e6f6e20455243373231526560448201527f63656976657220696d706c656d656e746572000000000000000000000000000060648201526084016104af565b60606000610f0c83611382565b600101905060008167ffffffffffffffff811115610f2c57610f2c611741565b6040519080825280601f01601f191660200182016040528015610f56576020820181803683370190505b5090508181016020015b600019017f3031323334353637383961626364656600000000000000000000000000000000600a86061a8153600a8504945084610f6057509392505050565b6001600160a01b038216610fc857610fb681611464565b6107c8610fc28261084a565b82611513565b6110108160cb8054600083815260cc60205260408120829055600182018355919091527fa7ce836d032b2bf62b7e2097a8e0a6d8aeb35405ad15271e96d3b0188a1d06fb0155565b6001600160a01b0391909116600090815260cd602090815260408083205460c98352818420818552835281842085905593835260ca909152902055565b6001600160a01b038216156110b557428167ffffffffffffffff16116110b55760405162461bcd60e51b815260206004820152601160248201527f457870697265642074696d657374616d7000000000000000000000000000000060448201526064016104af565b6000838152609760205260409020805473ffffffffffffffffffffffffffffffffffffffff19166001600160a01b038416908117825561111a5780547fffffffff0000000000000000ffffffffffffffffffffffffffffffffffffffff168155611153565b80547fffffffff0000000000000000ffffffffffffffffffffffffffffffffffffffff16600160a01b67ffffffffffffffff8416021781555b60405167ffffffffffffffff831681526001600160a01b0384169085907f4e06b4e7000e659094299b3533b47b6aa8ad048e95e872d23d1f4ee55af89cfe9060200160405180910390a350505050565b6001811115610844576001600160a01b038416156111e9576001600160a01b038416600090815260686020526040812080548392906111e3908490611978565b90915550505b6001600160a01b03831615610844576001600160a01b0383166000908152606860205260408120805483929061122090849061198b565b909155505050505050565b60006001600160a01b0384163b1561137757604051630a85bd0160e11b81526001600160a01b0385169063150b7a029061126f90339089908890889060040161199e565b6020604051808303816000875af19250505080156112aa575060408051601f3d908101601f191682019092526112a7918101906119da565b60015b61135d573d8080156112d8576040519150601f19603f3d011682016040523d82523d6000602084013e6112dd565b606091505b5080516000036113555760405162461bcd60e51b815260206004820152603260248201527f4552433732313a207472616e7366657220746f206e6f6e20455243373231526560448201527f63656976657220696d706c656d656e746572000000000000000000000000000060648201526084016104af565b805181602001fd5b6001600160e01b031916630a85bd0160e11b149050610b8d565b506001949350505050565b6000807a184f03e93ff9f4daa797ed6e38ed64bf6a1f01000000000000000083106113cb577a184f03e93ff9f4daa797ed6e38ed64bf6a1f010000000000000000830492506040015b6d04ee2d6d415b85acef810000000083106113f7576d04ee2d6d415b85acef8100000000830492506020015b662386f26fc10000831061141557662386f26fc10000830492506010015b6305f5e100831061142d576305f5e100830492506008015b612710831061144157612710830492506004015b60648310611453576064830492506002015b600a83106103605760010192915050565b60cb5460009061147690600190611978565b600083815260cc602052604081205460cb805493945090928490811061149e5761149e6119f7565b906000526020600020015490508060cb83815481106114bf576114bf6119f7565b600091825260208083209091019290925582815260cc909152604080822084905585825281205560cb8054806114f7576114f7611a0d565b6001900381819060005260206000200160009055905550505050565b6001600160a01b038216600090815260cd602052604081205461153890600190611978565b600083815260ca602052604090205490915080821461158b576001600160a01b038416600090815260c960209081526040808320858452825280832054848452818420819055835260ca90915290208190555b50600091825260ca602090815260408084208490556001600160a01b03909416835260c981528383209183525290812055565b6001600160e01b031981168114610a9857600080fd5b6000602082840312156115e657600080fd5b8135610616816115be565b60005b8381101561160c5781810151838201526020016115f4565b50506000910152565b6000815180845261162d8160208601602086016115f1565b601f01601f19169290920160200192915050565b6020815260006106166020830184611615565b60006020828403121561166657600080fd5b5035919050565b80356001600160a01b038116811461089557600080fd5b6000806040838503121561169757600080fd5b6116a08361166d565b946020939093013593505050565b6000602082840312156116c057600080fd5b6106168261166d565b6000806000606084860312156116de57600080fd5b6116e78461166d565b92506116f56020850161166d565b9150604084013590509250925092565b6000806040838503121561171857600080fd5b6117218361166d565b91506020830135801515811461173657600080fd5b809150509250929050565b634e487b7160e01b600052604160045260246000fd5b6000806000806080858703121561176d57600080fd5b6117768561166d565b93506117846020860161166d565b925060408501359150606085013567ffffffffffffffff808211156117a857600080fd5b818701915087601f8301126117bc57600080fd5b8135818111156117ce576117ce611741565b604051601f8201601f19908116603f011681019083821181831017156117f6576117f6611741565b816040528281528a602084870101111561180f57600080fd5b82602086016020830137600060208483010152809550505050505092959194509250565b60008060006060848603121561184857600080fd5b833592506118586020850161166d565b9150604084013567ffffffffffffffff8116811461187557600080fd5b809150509250925092565b6000806040838503121561189357600080fd5b61189c8361166d565b91506118aa6020840161166d565b90509250929050565b600181811c908216806118c757607f821691505b6020821081036118e757634e487b7160e01b600052602260045260246000fd5b50919050565b634e487b7160e01b600052600160045260246000fd5b600083516119158184602088016115f1565b8351908301906119298183602088016115f1565b01949350505050565b634e487b7160e01b600052601160045260246000fd5b60006001820161195a5761195a611932565b5060010190565b60008161197057611970611932565b506000190190565b8181038181111561036057610360611932565b8082018082111561036057610360611932565b60006001600160a01b038087168352808616602084015250836040830152608060608301526119d06080830184611615565b9695505050505050565b6000602082840312156119ec57600080fd5b8151610616816115be565b634e487b7160e01b600052603260045260246000fd5b634e487b7160e01b600052603160045260246000fdfea26469706673582212204364e746e6e72720fac9b9b88a29cc0d09f88ead4f5c1a53bc1f24299cc55dd464736f6c63430008110033",
  "linkReferences": {},
  "deployedLinkReferences": {}
}