{
  "_format": "hh-sol-artifact-1",
  "contractName": "ERC4907EnumerableUpgradeable",
  "sourceName": "contracts/ERC4907EnumerableUpgradeable.sol",
  "abi": [
    {
      "anonymous": false,
      "inputs": [
        {
          "indexed": true,
          "internalType": "address",
          "name": "owner",
          "type": "address"
        },
        {
          "indexed": true,
          "internalType": "address",
          "name": "approved",
          "type": "address"
        },
        {
          "indexed": true,
          "internalType": "uint256",
          "name": "tokenId",
          "type": "uint256"
        }
      ],
      "name": "Approval",
      "type": "event"
    },
    {
      "anonymous": false,
      "inputs": [
        {
          "indexed": true,
          "internalType": "address",
          "name": "owner",
          "type": "address"
        },
        {
          "indexed": true,
          "internalType": "address",
          "name": "operator",
          "type": "address"
        },
        {
          "indexed": false,
          "internalType": "bool",
          "name": "approved",
          "type": "bool"
        }
      ],
      "name": "ApprovalForAll",
      "type": "event"
    },
    {
      "anonymous": false,
      "inputs": [
        {
          "indexed": false,
          "internalType": "uint8",
          "name": "version",
          "type": "uint8"
        }
      ],
      "name": "Initialized",
      "type": "event"
    },
    {
      "anonymous": false,
      "inputs": [
        {
          "indexed": true,
          "internalType": "address",
          "name": "from",
          "type": "address"
        },
        {
          "indexed": true,
          "internalType": "address",
          "name": "to",
          "type": "address"
        },
        {
          "indexed": true,
          "internalType": "uint256",
          "name": "tokenId",
          "type": "uint256"
        }
      ],
      "name": "Transfer",
      "type": "event"
    },
    {
      "anonymous": false,
      "inputs": [
        {
          "indexed": true,
          "internalType": "uint256",
          "name": "tokenId",
          "type": "uint256"
        },
        {
          "indexed": true,
          "internalType": "address",
          "name": "user",
          "type": "address"
        },
        {
          "indexed": false,
          "internalType": "uint64",
          "name": "expires",
          "type": "uint64"
        }
      ],
      "name": "UpdateUser",
      "type": "event"
    },
    {
      "inputs": [
        {
          "internalType": "address",
          "name": "to",
          "type": "address"
        },
        {
          "internalType": "uint256",
          "name": "tokenId",
          "type": "uint256"
        }
      ],
      "name": "approve",
      "outputs": [],
      "stateMutability": "nonpayable",
      "type": "function"
    },
    {
      "inputs": [
        {
          "internalType": "address",
          "name": "owner",
          "type": "address"
        }
      ],
      "name": "balanceOf",
      "outputs": [
        {
          "internalType": "uint256",
          "name": "",
          "type": "uint256"
        }
      ],
      "stateMutability": "view",
      "type": "function"
    },
    {
      "inputs": [
        {
          "internalType": "uint256",
          "name": "tokenId",
          "type": "uint256"
        }
      ],
      "name": "getApproved",
      "outputs": [
        {
          "internalType": "address",
          "name": "",
          "type": "address"
        }
      ],
      "stateMutability": "view",
      "type": "function"
    },
    {
      "inputs": [
        {
          "internalType": "address",
          "name": "owner",
          "type": "address"
        },
        {
          "internalType": "address",
          "name": "operator",
          "type": "address"
        }
      ],
      "name": "isApprovedForAll",
      "outputs": [
        {
          "internalType": "bool",
          "name": "",
          "type": "bool"
        }
      ],
      "stateMutability": "view",
      "type": "function"
    },
    {
      "inputs": [],
      "name": "name",
      "outputs": [
        {
          "internalType": "string",
          "name": "",
          "type": "string"
        }
      ],
      "stateMutability": "view",
      "type": "function"
    },
    {
      "inputs": [
        {
          "internalType": "uint256",
          "name": "tokenId",
          "type": "uint256"
        }
      ],
      "name": "ownerOf",
      "outputs": [
        {
          "internalType": "address",
          "name": "",
          "type": "address"
        }
      ],
      "stateMutability": "view",
      "type": "function"
    },
    {
      "inputs": [
        {
          "internalType": "address",
          "name": "from",
          "type": "address"
        },
        {
          "internalType": "address",
          "name": "to",
          "type": "address"
        },
        {
          "internalType": "uint256",
          "name": "tokenId",
          "type": "uint256"
        }
      ],
      "name": "safeTransferFrom",
      "outputs": [],
      "stateMutability": "nonpayable",
      "type": "function"
    },
    {
      "inputs": [
        {
          "internalType": "address",
          "name": "from",
          "type": "address"
        },
        {
          "internalType": "address",
          "name": "to",
          "type": "address"
        },
        {
          "internalType": "uint256",
          "name": "tokenId",
          "type": "uint256"
        },
        {
          "internalType": "bytes",
          "name": "data",
          "type": "bytes"
        }
      ],
      "name": "safeTransferFrom",
      "outputs": [],
      "stateMutability": "nonpayable",
      "type": "function"
    },
    {
      "inputs": [
        {
          "internalType": "address",
          "name": "operator",
          "type": "address"
        },
        {
          "internalType": "bool",
          "name": "approved",
          "type": "bool"
        }
      ],
      "name": "setApprovalForAll",
      "outputs": [],
      "stateMutability": "nonpayable",
      "type": "function"
    },
    {
      "inputs": [
        {
          "internalType": "uint256",
          "name": "tokenId",
          "type": "uint256"
        },
        {
          "internalType": "address",
          "name": "user",
          "type": "address"
        },
        {
          "internalType": "uint64",
          "name": "expires",
          "type": "uint64"
        }
      ],
      "name": "setUser",
      "outputs": [],
      "stateMutability": "nonpayable",
      "type": "function"
    },
    {
      "inputs": [
        {
          "internalType": "bytes4",
          "name": "interfaceId",
          "type": "bytes4"
        }
      ],
      "name": "supportsInterface",
      "outputs": [
        {
          "internalType": "bool",
          "name": "",
          "type": "bool"
        }
      ],
      "stateMutability": "view",
      "type": "function"
    },
    {
      "inputs": [],
      "name": "symbol",
      "outputs": [
        {
          "internalType": "string",
          "name": "",
          "type": "string"
        }
      ],
      "stateMutability": "view",
      "type": "function"
    },
    {
      "inputs": [
        {
          "internalType": "address",
          "name": "user",
          "type": "address"
        },
        {
          "internalType": "uint256",
          "name": "index",
          "type": "uint256"
        }
      ],
      "name": "tokenOfUserByIndex",
      "outputs": [
        {
          "internalType": "uint256",
          "name": "",
          "type": "uint256"
        }
      ],
      "stateMutability": "view",
      "type": "function"
    },
    {
      "inputs": [
        {
          "internalType": "uint256",
          "name": "tokenId",
          "type": "uint256"
        }
      ],
      "name": "tokenURI",
      "outputs": [
        {
          "internalType": "string",
          "name": "",
          "type": "string"
        }
      ],
      "stateMutability": "view",
      "type": "function"
    },
    {
      "inputs": [
        {
          "internalType": "address",
          "name": "from",
          "type": "address"
        },
        {
          "internalType": "address",
          "name": "to",
          "type": "address"
        },
        {
          "internalType": "uint256",
          "name": "tokenId",
          "type": "uint256"
        }
      ],
      "name": "transferFrom",
      "outputs": [],
      "stateMutability": "nonpayable",
      "type": "function"
    },
    {
      "inputs": [
        {
          "internalType": "address",
          "name": "user",
          "type": "address"
        }
      ],
      "name": "usedBalanceOf",
      "outputs": [
        {
          "internalType": "uint256",
          "name": "",
          "type": "uint256"
        }
      ],
      "stateMutability": "view",
      "type": "function"
    },
    {
      "inputs": [
        {
          "internalType": "uint256",
          "name": "tokenId",
          "type": "uint256"
        }
      ],
      "name": "userExpires",
      "outputs": [
        {
          "internalType": "uint256",
          "name": "",
          "type": "uint256"
        }
      ],
      "stateMutability": "view",
      "type": "function"
    },
    {
      "inputs": [
        {
          "internalType": "uint256",
          "name": "tokenId",
          "type": "uint256"
        }
      ],
      "name": "userOf",
      "outputs": [
        {
          "internalType": "address",
          "name": "",
          "type": "address"
        }
      ],
      "stateMutability": "view",
      "type": "function"
    }
  ],
  "bytecode": "0x608060405234801561001057600080fd5b50612f2e806100206000396000f3fe608060405234801561001057600080fd5b50600436106101165760003560e01c806370a08231116100a2578063b88d4fde11610071578063b88d4fde14610317578063c2f1f14a14610333578063c87b56dd14610363578063e030565e14610393578063e985e9c5146103af57610116565b806370a082311461027d5780638fc88c48146102ad57806395d89b41146102dd578063a22cb465146102fb57610116565b80631d350ef8116100e95780631d350ef8146101b5578063227773c0146101e557806323b872dd1461021557806342842e0e146102315780636352211e1461024d57610116565b806301ffc9a71461011b57806306fdde031461014b578063081812fc14610169578063095ea7b314610199575b600080fd5b61013560048036038101906101309190611fb2565b6103df565b6040516101429190611ffa565b60405180910390f35b610153610459565b60405161016091906120a5565b60405180910390f35b610183600480360381019061017e91906120fd565b6104eb565b604051610190919061216b565b60405180910390f35b6101b360048036038101906101ae91906121b2565b610531565b005b6101cf60048036038101906101ca91906121b2565b610648565b6040516101dc9190612201565b60405180910390f35b6101ff60048036038101906101fa919061221c565b610704565b60405161020c9190612201565b60405180910390f35b61022f600480360381019061022a9190612249565b61074d565b005b61024b60048036038101906102469190612249565b6107ad565b005b610267600480360381019061026291906120fd565b6107cd565b604051610274919061216b565b60405180910390f35b6102976004803603810190610292919061221c565b610853565b6040516102a49190612201565b60405180910390f35b6102c760048036038101906102c291906120fd565b61090a565b6040516102d49190612201565b60405180910390f35b6102e5610948565b6040516102f291906120a5565b60405180910390f35b610315600480360381019061031091906122c8565b6109da565b005b610331600480360381019061032c919061243d565b6109f0565b005b61034d600480360381019061034891906120fd565b610a52565b60405161035a919061216b565b60405180910390f35b61037d600480360381019061037891906120fd565b610ad7565b60405161038a91906120a5565b60405180910390f35b6103ad60048036038101906103a89190612500565b610b3f565b005b6103c960048036038101906103c49190612553565b610c45565b6040516103d69190611ffa565b60405180910390f35b60007fad092b5c000000000000000000000000000000000000000000000000000000007bffffffffffffffffffffffffffffffffffffffffffffffffffffffff1916827bffffffffffffffffffffffffffffffffffffffffffffffffffffffff19161480610452575061045182610cd9565b5b9050919050565b606060658054610468906125c2565b80601f0160208091040260200160405190810160405280929190818152602001828054610494906125c2565b80156104e15780601f106104b6576101008083540402835291602001916104e1565b820191906000526020600020905b8154815290600101906020018083116104c457829003601f168201915b5050505050905090565b60006104f682610dbb565b6069600083815260200190815260200160002060009054906101000a900473ffffffffffffffffffffffffffffffffffffffff169050919050565b600061053c826107cd565b90508073ffffffffffffffffffffffffffffffffffffffff168373ffffffffffffffffffffffffffffffffffffffff16036105ac576040517f08c379a00000000000000000000000000000000000000000000000000000000081526004016105a390612665565b60405180910390fd5b8073ffffffffffffffffffffffffffffffffffffffff166105cb610e06565b73ffffffffffffffffffffffffffffffffffffffff1614806105fa57506105f9816105f4610e06565b610c45565b5b610639576040517f08c379a0000000000000000000000000000000000000000000000000000000008152600401610630906126f7565b60405180910390fd5b6106438383610e0e565b505050565b600061065383610704565b8210610694576040517f08c379a000000000000000000000000000000000000000000000000000000000815260040161068b90612789565b60405180910390fd5b6000609860008573ffffffffffffffffffffffffffffffffffffffff1673ffffffffffffffffffffffffffffffffffffffff1681526020019081526020016000206000848152602001908152602001600020549050600081036106fa576106f96127a9565b5b8091505092915050565b6000609c60008373ffffffffffffffffffffffffffffffffffffffff1673ffffffffffffffffffffffffffffffffffffffff168152602001908152602001600020549050919050565b61075e610758610e06565b82610ec7565b61079d576040517f08c379a00000000000000000000000000000000000000000000000000000000081526004016107949061284a565b60405180910390fd5b6107a8838383610f5c565b505050565b6107c8838383604051806020016040528060008152506109f0565b505050565b6000806107d983611255565b9050600073ffffffffffffffffffffffffffffffffffffffff168173ffffffffffffffffffffffffffffffffffffffff160361084a576040517f08c379a0000000000000000000000000000000000000000000000000000000008152600401610841906128b6565b60405180910390fd5b80915050919050565b60008073ffffffffffffffffffffffffffffffffffffffff168273ffffffffffffffffffffffffffffffffffffffff16036108c3576040517f08c379a00000000000000000000000000000000000000000000000000000000081526004016108ba90612948565b60405180910390fd5b606860008373ffffffffffffffffffffffffffffffffffffffff1673ffffffffffffffffffffffffffffffffffffffff168152602001908152602001600020549050919050565b60006097600083815260200190815260200160002060000160149054906101000a900467ffffffffffffffff1667ffffffffffffffff169050919050565b606060668054610957906125c2565b80601f0160208091040260200160405190810160405280929190818152602001828054610983906125c2565b80156109d05780601f106109a5576101008083540402835291602001916109d0565b820191906000526020600020905b8154815290600101906020018083116109b357829003601f168201915b5050505050905090565b6109ec6109e5610e06565b8383611292565b5050565b610a016109fb610e06565b83610ec7565b610a40576040517f08c379a0000000000000000000000000000000000000000000000000000000008152600401610a379061284a565b60405180910390fd5b610a4c848484846113fe565b50505050565b6000426097600084815260200190815260200160002060000160149054906101000a900467ffffffffffffffff1667ffffffffffffffff1610610acd576097600083815260200190815260200160002060000160009054906101000a900473ffffffffffffffffffffffffffffffffffffffff169050610ad2565b600090505b919050565b6060610ae282610dbb565b6000610aec61145a565b90506000815111610b0c5760405180602001604052806000815250610b37565b80610b1684611471565b604051602001610b279291906129a4565b6040516020818303038152906040525b915050919050565b610b49828461153f565b600073ffffffffffffffffffffffffffffffffffffffff168273ffffffffffffffffffffffffffffffffffffffff1614610bd757609c60008373ffffffffffffffffffffffffffffffffffffffff1673ffffffffffffffffffffffffffffffffffffffff1681526020019081526020016000206000815480929190610bcd906129f7565b9190505550610c35565b609c6000610be485610a52565b73ffffffffffffffffffffffffffffffffffffffff1673ffffffffffffffffffffffffffffffffffffffff1681526020019081526020016000206000815480929190610c2f90612a3f565b91905055505b610c408383836115ab565b505050565b6000606a60008473ffffffffffffffffffffffffffffffffffffffff1673ffffffffffffffffffffffffffffffffffffffff16815260200190815260200160002060008373ffffffffffffffffffffffffffffffffffffffff1673ffffffffffffffffffffffffffffffffffffffff16815260200190815260200160002060009054906101000a900460ff16905092915050565b60007f80ac58cd000000000000000000000000000000000000000000000000000000007bffffffffffffffffffffffffffffffffffffffffffffffffffffffff1916827bffffffffffffffffffffffffffffffffffffffffffffffffffffffff19161480610da457507f5b5e139f000000000000000000000000000000000000000000000000000000007bffffffffffffffffffffffffffffffffffffffffffffffffffffffff1916827bffffffffffffffffffffffffffffffffffffffffffffffffffffffff1916145b80610db45750610db38261176c565b5b9050919050565b610dc4816117d6565b610e03576040517f08c379a0000000000000000000000000000000000000000000000000000000008152600401610dfa906128b6565b60405180910390fd5b50565b600033905090565b816069600083815260200190815260200160002060006101000a81548173ffffffffffffffffffffffffffffffffffffffff021916908373ffffffffffffffffffffffffffffffffffffffff160217905550808273ffffffffffffffffffffffffffffffffffffffff16610e81836107cd565b73ffffffffffffffffffffffffffffffffffffffff167f8c5be1e5ebec7d5bd14f71427d1e84f3dd0314c0f7b2291e5b200ac8c7c3b92560405160405180910390a45050565b600080610ed3836107cd565b90508073ffffffffffffffffffffffffffffffffffffffff168473ffffffffffffffffffffffffffffffffffffffff161480610f155750610f148185610c45565b5b80610f5357508373ffffffffffffffffffffffffffffffffffffffff16610f3b846104eb565b73ffffffffffffffffffffffffffffffffffffffff16145b91505092915050565b8273ffffffffffffffffffffffffffffffffffffffff16610f7c826107cd565b73ffffffffffffffffffffffffffffffffffffffff1614610fd2576040517f08c379a0000000000000000000000000000000000000000000000000000000008152600401610fc990612ada565b60405180910390fd5b600073ffffffffffffffffffffffffffffffffffffffff168273ffffffffffffffffffffffffffffffffffffffff1603611041576040517f08c379a000000000000000000000000000000000000000000000000000000000815260040161103890612b6c565b60405180910390fd5b61104e8383836001611817565b8273ffffffffffffffffffffffffffffffffffffffff1661106e826107cd565b73ffffffffffffffffffffffffffffffffffffffff16146110c4576040517f08c379a00000000000000000000000000000000000000000000000000000000081526004016110bb90612ada565b60405180910390fd5b6069600082815260200190815260200160002060006101000a81549073ffffffffffffffffffffffffffffffffffffffff02191690556001606860008573ffffffffffffffffffffffffffffffffffffffff1673ffffffffffffffffffffffffffffffffffffffff168152602001908152602001600020600082825403925050819055506001606860008473ffffffffffffffffffffffffffffffffffffffff1673ffffffffffffffffffffffffffffffffffffffff16815260200190815260200160002060008282540192505081905550816067600083815260200190815260200160002060006101000a81548173ffffffffffffffffffffffffffffffffffffffff021916908373ffffffffffffffffffffffffffffffffffffffff160217905550808273ffffffffffffffffffffffffffffffffffffffff168473ffffffffffffffffffffffffffffffffffffffff167fddf252ad1be2c89b69c2b068fc378daa952ba7f163c4a11628f55a4df523b3ef60405160405180910390a4611250838383600161193d565b505050565b60006067600083815260200190815260200160002060009054906101000a900473ffffffffffffffffffffffffffffffffffffffff169050919050565b8173ffffffffffffffffffffffffffffffffffffffff168373ffffffffffffffffffffffffffffffffffffffff1603611300576040517f08c379a00000000000000000000000000000000000000000000000000000000081526004016112f790612bd8565b60405180910390fd5b80606a60008573ffffffffffffffffffffffffffffffffffffffff1673ffffffffffffffffffffffffffffffffffffffff16815260200190815260200160002060008473ffffffffffffffffffffffffffffffffffffffff1673ffffffffffffffffffffffffffffffffffffffff16815260200190815260200160002060006101000a81548160ff0219169083151502179055508173ffffffffffffffffffffffffffffffffffffffff168373ffffffffffffffffffffffffffffffffffffffff167f17307eab39ab6107e8899845ad3d59bd9653f200f220920489ca2b5937696c31836040516113f19190611ffa565b60405180910390a3505050565b611409848484610f5c565b61141584848484611943565b611454576040517f08c379a000000000000000000000000000000000000000000000000000000000815260040161144b90612c6a565b60405180910390fd5b50505050565b606060405180602001604052806000815250905090565b60606000600161148084611aca565b01905060008167ffffffffffffffff81111561149f5761149e612312565b5b6040519080825280601f01601f1916602001820160405280156114d15781602001600182028036833780820191505090505b509050600082602001820190505b600115611534578080600190039150507f3031323334353637383961626364656600000000000000000000000000000000600a86061a8153600a858161152857611527612c8a565b5b049450600085036114df575b819350505050919050565b600073ffffffffffffffffffffffffffffffffffffffff168273ffffffffffffffffffffffffffffffffffffffff16036115935761157c81611c1d565b61158e61158882610a52565b82611cee565b6115a7565b61159c81611e5b565b6115a68282611ea4565b5b5050565b600073ffffffffffffffffffffffffffffffffffffffff168273ffffffffffffffffffffffffffffffffffffffff161461162c57428167ffffffffffffffff161161162b576040517f08c379a000000000000000000000000000000000000000000000000000000000815260040161162290612d05565b60405180910390fd5b5b6000609760008581526020019081526020016000209050828160000160006101000a81548173ffffffffffffffffffffffffffffffffffffffff021916908373ffffffffffffffffffffffffffffffffffffffff160217905550600073ffffffffffffffffffffffffffffffffffffffff168373ffffffffffffffffffffffffffffffffffffffff16036116eb5760008160000160146101000a81548167ffffffffffffffff021916908367ffffffffffffffff160217905550611717565b818160000160146101000a81548167ffffffffffffffff021916908367ffffffffffffffff1602179055505b8273ffffffffffffffffffffffffffffffffffffffff16847f4e06b4e7000e659094299b3533b47b6aa8ad048e95e872d23d1f4ee55af89cfe8460405161175e9190612d34565b60405180910390a350505050565b60007f01ffc9a7000000000000000000000000000000000000000000000000000000007bffffffffffffffffffffffffffffffffffffffffffffffffffffffff1916827bffffffffffffffffffffffffffffffffffffffffffffffffffffffff1916149050919050565b60008073ffffffffffffffffffffffffffffffffffffffff166117f883611255565b73ffffffffffffffffffffffffffffffffffffffff1614159050919050565b600181111561193757600073ffffffffffffffffffffffffffffffffffffffff168473ffffffffffffffffffffffffffffffffffffffff16146118ab5780606860008673ffffffffffffffffffffffffffffffffffffffff1673ffffffffffffffffffffffffffffffffffffffff16815260200190815260200160002060008282546118a39190612d4f565b925050819055505b600073ffffffffffffffffffffffffffffffffffffffff168373ffffffffffffffffffffffffffffffffffffffff16146119365780606860008573ffffffffffffffffffffffffffffffffffffffff1673ffffffffffffffffffffffffffffffffffffffff168152602001908152602001600020600082825461192e9190612d83565b925050819055505b5b50505050565b50505050565b60006119648473ffffffffffffffffffffffffffffffffffffffff16611f23565b15611abd578373ffffffffffffffffffffffffffffffffffffffff1663150b7a0261198d610e06565b8786866040518563ffffffff1660e01b81526004016119af9493929190612e0c565b6020604051808303816000875af19250505080156119eb57506040513d601f19601f820116820180604052508101906119e89190612e6d565b60015b611a6d573d8060008114611a1b576040519150601f19603f3d011682016040523d82523d6000602084013e611a20565b606091505b506000815103611a65576040517f08c379a0000000000000000000000000000000000000000000000000000000008152600401611a5c90612c6a565b60405180910390fd5b805181602001fd5b63150b7a0260e01b7bffffffffffffffffffffffffffffffffffffffffffffffffffffffff1916817bffffffffffffffffffffffffffffffffffffffffffffffffffffffff191614915050611ac2565b600190505b949350505050565b600080600090507a184f03e93ff9f4daa797ed6e38ed64bf6a1f0100000000000000008310611b28577a184f03e93ff9f4daa797ed6e38ed64bf6a1f0100000000000000008381611b1e57611b1d612c8a565b5b0492506040810190505b6d04ee2d6d415b85acef81000000008310611b65576d04ee2d6d415b85acef81000000008381611b5b57611b5a612c8a565b5b0492506020810190505b662386f26fc100008310611b9457662386f26fc100008381611b8a57611b89612c8a565b5b0492506010810190505b6305f5e1008310611bbd576305f5e1008381611bb357611bb2612c8a565b5b0492506008810190505b6127108310611be2576127108381611bd857611bd7612c8a565b5b0492506004810190505b60648310611c055760648381611bfb57611bfa612c8a565b5b0492506002810190505b600a8310611c14576001810190505b80915050919050565b60006001609a80549050611c319190612d4f565b90506000609b60008481526020019081526020016000205490506000609a8381548110611c6157611c60612e9a565b5b9060005260206000200154905080609a8381548110611c8357611c82612e9a565b5b906000526020600020018190555081609b600083815260200190815260200160002081905550609b600085815260200190815260200160002060009055609a805480611cd257611cd1612ec9565b5b6001900381819060005260206000200160009055905550505050565b60006001611cfb84610704565b611d059190612d4f565b9050600060996000848152602001908152602001600020549050818114611dea576000609860008673ffffffffffffffffffffffffffffffffffffffff1673ffffffffffffffffffffffffffffffffffffffff168152602001908152602001600020600084815260200190815260200160002054905080609860008773ffffffffffffffffffffffffffffffffffffffff1673ffffffffffffffffffffffffffffffffffffffff168152602001908152602001600020600084815260200190815260200160002081905550816099600083815260200190815260200160002081905550505b6099600084815260200190815260200160002060009055609860008573ffffffffffffffffffffffffffffffffffffffff1673ffffffffffffffffffffffffffffffffffffffff16815260200190815260200160002060008381526020019081526020016000206000905550505050565b609a80549050609b600083815260200190815260200160002081905550609a81908060018154018082558091505060019003906000526020600020016000909190919091505550565b6000611eaf83610704565b905081609860008573ffffffffffffffffffffffffffffffffffffffff1673ffffffffffffffffffffffffffffffffffffffff168152602001908152602001600020600083815260200190815260200160002081905550806099600084815260200190815260200160002081905550505050565b6000808273ffffffffffffffffffffffffffffffffffffffff163b119050919050565b6000604051905090565b600080fd5b600080fd5b60007fffffffff0000000000000000000000000000000000000000000000000000000082169050919050565b611f8f81611f5a565b8114611f9a57600080fd5b50565b600081359050611fac81611f86565b92915050565b600060208284031215611fc857611fc7611f50565b5b6000611fd684828501611f9d565b91505092915050565b60008115159050919050565b611ff481611fdf565b82525050565b600060208201905061200f6000830184611feb565b92915050565b600081519050919050565b600082825260208201905092915050565b60005b8381101561204f578082015181840152602081019050612034565b60008484015250505050565b6000601f19601f8301169050919050565b600061207782612015565b6120818185612020565b9350612091818560208601612031565b61209a8161205b565b840191505092915050565b600060208201905081810360008301526120bf818461206c565b905092915050565b6000819050919050565b6120da816120c7565b81146120e557600080fd5b50565b6000813590506120f7816120d1565b92915050565b60006020828403121561211357612112611f50565b5b6000612121848285016120e8565b91505092915050565b600073ffffffffffffffffffffffffffffffffffffffff82169050919050565b60006121558261212a565b9050919050565b6121658161214a565b82525050565b6000602082019050612180600083018461215c565b92915050565b61218f8161214a565b811461219a57600080fd5b50565b6000813590506121ac81612186565b92915050565b600080604083850312156121c9576121c8611f50565b5b60006121d78582860161219d565b92505060206121e8858286016120e8565b9150509250929050565b6121fb816120c7565b82525050565b600060208201905061221660008301846121f2565b92915050565b60006020828403121561223257612231611f50565b5b60006122408482850161219d565b91505092915050565b60008060006060848603121561226257612261611f50565b5b60006122708682870161219d565b93505060206122818682870161219d565b9250506040612292868287016120e8565b9150509250925092565b6122a581611fdf565b81146122b057600080fd5b50565b6000813590506122c28161229c565b92915050565b600080604083850312156122df576122de611f50565b5b60006122ed8582860161219d565b92505060206122fe858286016122b3565b9150509250929050565b600080fd5b600080fd5b7f4e487b7100000000000000000000000000000000000000000000000000000000600052604160045260246000fd5b61234a8261205b565b810181811067ffffffffffffffff8211171561236957612368612312565b5b80604052505050565b600061237c611f46565b90506123888282612341565b919050565b600067ffffffffffffffff8211156123a8576123a7612312565b5b6123b18261205b565b9050602081019050919050565b82818337600083830152505050565b60006123e06123db8461238d565b612372565b9050828152602081018484840111156123fc576123fb61230d565b5b6124078482856123be565b509392505050565b600082601f83011261242457612423612308565b5b81356124348482602086016123cd565b91505092915050565b6000806000806080858703121561245757612456611f50565b5b60006124658782880161219d565b94505060206124768782880161219d565b9350506040612487878288016120e8565b925050606085013567ffffffffffffffff8111156124a8576124a7611f55565b5b6124b48782880161240f565b91505092959194509250565b600067ffffffffffffffff82169050919050565b6124dd816124c0565b81146124e857600080fd5b50565b6000813590506124fa816124d4565b92915050565b60008060006060848603121561251957612518611f50565b5b6000612527868287016120e8565b93505060206125388682870161219d565b9250506040612549868287016124eb565b9150509250925092565b6000806040838503121561256a57612569611f50565b5b60006125788582860161219d565b92505060206125898582860161219d565b9150509250929050565b7f4e487b7100000000000000000000000000000000000000000000000000000000600052602260045260246000fd5b600060028204905060018216806125da57607f821691505b6020821081036125ed576125ec612593565b5b50919050565b7f4552433732313a20617070726f76616c20746f2063757272656e74206f776e6560008201527f7200000000000000000000000000000000000000000000000000000000000000602082015250565b600061264f602183612020565b915061265a826125f3565b604082019050919050565b6000602082019050818103600083015261267e81612642565b9050919050565b7f4552433732313a20617070726f76652063616c6c6572206973206e6f7420746f60008201527f6b656e206f776e6572206f7220617070726f76656420666f7220616c6c000000602082015250565b60006126e1603d83612020565b91506126ec82612685565b604082019050919050565b60006020820190508181036000830152612710816126d4565b9050919050565b7f45524334393037456e756d657261626c653a207573657220696e646578206f7560008201527f74206f6620626f756e6473000000000000000000000000000000000000000000602082015250565b6000612773602b83612020565b915061277e82612717565b604082019050919050565b600060208201905081810360008301526127a281612766565b9050919050565b7f4e487b7100000000000000000000000000000000000000000000000000000000600052600160045260246000fd5b7f4552433732313a2063616c6c6572206973206e6f7420746f6b656e206f776e6560008201527f72206f7220617070726f76656400000000000000000000000000000000000000602082015250565b6000612834602d83612020565b915061283f826127d8565b604082019050919050565b6000602082019050818103600083015261286381612827565b9050919050565b7f4552433732313a20696e76616c696420746f6b656e2049440000000000000000600082015250565b60006128a0601883612020565b91506128ab8261286a565b602082019050919050565b600060208201905081810360008301526128cf81612893565b9050919050565b7f4552433732313a2061646472657373207a65726f206973206e6f74206120766160008201527f6c6964206f776e65720000000000000000000000000000000000000000000000602082015250565b6000612932602983612020565b915061293d826128d6565b604082019050919050565b6000602082019050818103600083015261296181612925565b9050919050565b600081905092915050565b600061297e82612015565b6129888185612968565b9350612998818560208601612031565b80840191505092915050565b60006129b08285612973565b91506129bc8284612973565b91508190509392505050565b7f4e487b7100000000000000000000000000000000000000000000000000000000600052601160045260246000fd5b6000612a02826120c7565b91507fffffffffffffffffffffffffffffffffffffffffffffffffffffffffffffffff8203612a3457612a336129c8565b5b600182019050919050565b6000612a4a826120c7565b915060008203612a5d57612a5c6129c8565b5b600182039050919050565b7f4552433732313a207472616e736665722066726f6d20696e636f72726563742060008201527f6f776e6572000000000000000000000000000000000000000000000000000000602082015250565b6000612ac4602583612020565b9150612acf82612a68565b604082019050919050565b60006020820190508181036000830152612af381612ab7565b9050919050565b7f4552433732313a207472616e7366657220746f20746865207a65726f2061646460008201527f7265737300000000000000000000000000000000000000000000000000000000602082015250565b6000612b56602483612020565b9150612b6182612afa565b604082019050919050565b60006020820190508181036000830152612b8581612b49565b9050919050565b7f4552433732313a20617070726f766520746f2063616c6c657200000000000000600082015250565b6000612bc2601983612020565b9150612bcd82612b8c565b602082019050919050565b60006020820190508181036000830152612bf181612bb5565b9050919050565b7f4552433732313a207472616e7366657220746f206e6f6e20455243373231526560008201527f63656976657220696d706c656d656e7465720000000000000000000000000000602082015250565b6000612c54603283612020565b9150612c5f82612bf8565b604082019050919050565b60006020820190508181036000830152612c8381612c47565b9050919050565b7f4e487b7100000000000000000000000000000000000000000000000000000000600052601260045260246000fd5b7f457870697265642074696d657374616d70000000000000000000000000000000600082015250565b6000612cef601183612020565b9150612cfa82612cb9565b602082019050919050565b60006020820190508181036000830152612d1e81612ce2565b9050919050565b612d2e816124c0565b82525050565b6000602082019050612d496000830184612d25565b92915050565b6000612d5a826120c7565b9150612d65836120c7565b9250828203905081811115612d7d57612d7c6129c8565b5b92915050565b6000612d8e826120c7565b9150612d99836120c7565b9250828201905080821115612db157612db06129c8565b5b92915050565b600081519050919050565b600082825260208201905092915050565b6000612dde82612db7565b612de88185612dc2565b9350612df8818560208601612031565b612e018161205b565b840191505092915050565b6000608082019050612e21600083018761215c565b612e2e602083018661215c565b612e3b60408301856121f2565b8181036060830152612e4d8184612dd3565b905095945050505050565b600081519050612e6781611f86565b92915050565b600060208284031215612e8357612e82611f50565b5b6000612e9184828501612e58565b91505092915050565b7f4e487b7100000000000000000000000000000000000000000000000000000000600052603260045260246000fd5b7f4e487b7100000000000000000000000000000000000000000000000000000000600052603160045260246000fdfea2646970667358221220930580df2d49a03f0ee0d5d0a33337de834a9e9af065a997192485a3b157b13564736f6c63430008110033",
  "linkReferences": {},
  "deployedLinkReferences": {}
}