{
  "_format": "hh-sol-artifact-1",
  "contractName": "Marketplace",
  "sourceName": "contracts/Marketplace.sol",
  "abi": [
    {
      "anonymous": false,
      "inputs": [
        {
          "indexed": false,
          "internalType": "uint8",
          "name": "version",
          "type": "uint8"
        }
      ],
      "name": "Initialized",
      "type": "event"
    },
    {
      "anonymous": false,
      "inputs": [
        {
          "indexed": false,
          "internalType": "uint256",
          "name": "tokenId",
          "type": "uint256"
        }
      ],
      "name": "RentOfferCancelled",
      "type": "event"
    },
    {
      "anonymous": false,
      "inputs": [
        {
          "indexed": false,
          "internalType": "uint256",
          "name": "tokenId",
          "type": "uint256"
        }
      ],
      "name": "RentOfferCreated",
      "type": "event"
    },
    {
      "inputs": [
        {
          "internalType": "uint256",
          "name": "tokenId",
          "type": "uint256"
        }
      ],
      "name": "cancelOfferForRent",
      "outputs": [],
      "stateMutability": "nonpayable",
      "type": "function"
    },
    {
      "inputs": [],
      "name": "getAvailableTokenCount",
      "outputs": [
        {
          "internalType": "uint256",
          "name": "",
          "type": "uint256"
        }
      ],
      "stateMutability": "view",
      "type": "function"
    },
    {
      "inputs": [
        {
          "internalType": "uint256",
          "name": "index",
          "type": "uint256"
        }
      ],
      "name": "getAvailableTokenIdAtIndex",
      "outputs": [
        {
          "internalType": "uint256",
          "name": "",
          "type": "uint256"
        }
      ],
      "stateMutability": "view",
      "type": "function"
    },
    {
      "inputs": [
        {
          "internalType": "uint256",
          "name": "tokenId",
          "type": "uint256"
        }
      ],
      "name": "getRentingConditions",
      "outputs": [
        {
          "components": [
            {
              "internalType": "uint32",
              "name": "price",
              "type": "uint32"
            },
            {
              "internalType": "uint128",
              "name": "duration",
              "type": "uint128"
            },
            {
              "internalType": "uint256",
              "name": "createdAt",
              "type": "uint256"
            }
          ],
          "internalType": "struct Marketplace.RentingConditions",
          "name": "",
          "type": "tuple"
        }
      ],
      "stateMutability": "view",
      "type": "function"
    },
    {
      "inputs": [],
      "name": "minRentDuration",
      "outputs": [
        {
          "internalType": "uint32",
          "name": "",
          "type": "uint32"
        }
      ],
      "stateMutability": "view",
      "type": "function"
    },
    {
      "inputs": [],
      "name": "minRentPrice",
      "outputs": [
        {
          "internalType": "uint32",
          "name": "",
          "type": "uint32"
        }
      ],
      "stateMutability": "view",
      "type": "function"
    },
    {
      "inputs": [
        {
          "internalType": "uint256",
          "name": "tokenId",
          "type": "uint256"
        },
        {
          "internalType": "uint32",
          "name": "price",
          "type": "uint32"
        },
        {
          "internalType": "uint128",
          "name": "duration",
          "type": "uint128"
        }
      ],
      "name": "offerForRent",
      "outputs": [],
      "stateMutability": "nonpayable",
      "type": "function"
    }
  ],
  "bytecode": "0x608060405234801561001057600080fd5b506105ea806100206000396000f3fe608060405234801561001057600080fd5b506004361061007d5760003560e01c8063abb302ad1161005b578063abb302ad146100ea578063c25a2c6514610199578063d3d72617146101a9578063d5370904146101bc57600080fd5b806322f3bb3e14610082578063479069051461009757806355673d07146100bd575b600080fd5b6100956100903660046104e8565b6101c4565b005b6100aa6100a5366004610548565b61039a565b6040519081526020015b60405180910390f35b6002546100d590640100000000900463ffffffff1681565b60405163ffffffff90911681526020016100b4565b61015f6100f8366004610548565b60408051606080820183526000808352602080840182905292840181905293845260018083529383902083519182018452805463ffffffff8116835264010000000090046fffffffffffffffffffffffffffffffff16928201929092529201549082015290565b60408051825163ffffffff1681526020808401516fffffffffffffffffffffffffffffffff169082015291810151908201526060016100b4565b6002546100d59063ffffffff1681565b6100956101b7366004610548565b6103c1565b6003546100aa565b60025463ffffffff90811690831610156102255760405162461bcd60e51b815260206004820152600d60248201527f507269636520746f6f206c6f770000000000000000000000000000000000000060448201526064015b60405180910390fd5b600254640100000000900463ffffffff166fffffffffffffffffffffffffffffffff821610156102975760405162461bcd60e51b815260206004820152601060248201527f4475726174696f6e20746f6f206c6f7700000000000000000000000000000000604482015260640161021c565b6040805160608101825263ffffffff80851682526fffffffffffffffffffffffffffffffff80851660208085019182524285870190815260008a8152600192839052969096208551815493519094166401000000000273ffffffffffffffffffffffffffffffffffffffff199093169390941692909217178255925192019190915561036184600380546000838152600460205260408120829055600182018355919091527fc2575a0e9e593c00f959f8c92f12db2869c3395a3b0502d05e2516446f71f85b0155565b6040518481527fc8bf25b5dc60208595c2afecaf7a3b5852ecdb7917ab66a44def586c13a282a79060200160405180910390a150505050565b6000600382815481106103af576103af610561565b90600052602060002001549050919050565b6103ca81610400565b6040518181527f4ee8bdb37621a2594d4cb695cc7b6ecddd0eaa9d9d972acd674f3fca50aee7f29060200160405180910390a150565b60008181526001602081905260408220805473ffffffffffffffffffffffffffffffffffffffff19168155015561043681610439565b50565b60035460009061044b90600190610577565b6000838152600460205260408120546003805493945090928490811061047357610473610561565b90600052602060002001549050806003838154811061049457610494610561565b60009182526020808320909101929092558281526004909152604080822084905585825281205560038054806104cc576104cc61059e565b6001900381819060005260206000200160009055905550505050565b6000806000606084860312156104fd57600080fd5b83359250602084013563ffffffff8116811461051857600080fd5b915060408401356fffffffffffffffffffffffffffffffff8116811461053d57600080fd5b809150509250925092565b60006020828403121561055a57600080fd5b5035919050565b634e487b7160e01b600052603260045260246000fd5b8181038181111561059857634e487b7160e01b600052601160045260246000fd5b92915050565b634e487b7160e01b600052603160045260246000fdfea2646970667358221220c680da0ec1a87450fe13700ff4da31f8ad85d8a4ac918ddaabc8e7fdde6e53a064736f6c63430008110033",
  "linkReferences": {},
  "deployedLinkReferences": {}
}