{
  "_format": "hh-sol-artifact-1",
  "contractName": "Marketplace",
  "sourceName": "contracts/Marketplace.sol",
  "abi": [
    {
      "anonymous": false,
      "inputs": [
        {
          "indexed": true,
          "internalType": "address",
          "name": "owner",
          "type": "address"
        },
        {
          "indexed": true,
          "internalType": "address",
          "name": "approved",
          "type": "address"
        },
        {
          "indexed": true,
          "internalType": "uint256",
          "name": "tokenId",
          "type": "uint256"
        }
      ],
      "name": "Approval",
      "type": "event"
    },
    {
      "anonymous": false,
      "inputs": [
        {
          "indexed": true,
          "internalType": "address",
          "name": "owner",
          "type": "address"
        },
        {
          "indexed": true,
          "internalType": "address",
          "name": "operator",
          "type": "address"
        },
        {
          "indexed": false,
          "internalType": "bool",
          "name": "approved",
          "type": "bool"
        }
      ],
      "name": "ApprovalForAll",
      "type": "event"
    },
    {
      "anonymous": false,
      "inputs": [
        {
          "indexed": false,
          "internalType": "uint8",
          "name": "version",
          "type": "uint8"
        }
      ],
      "name": "Initialized",
      "type": "event"
    },
    {
      "anonymous": false,
      "inputs": [
        {
          "indexed": false,
          "internalType": "uint256",
          "name": "tokenId",
          "type": "uint256"
        }
      ],
      "name": "RentOfferCancelled",
      "type": "event"
    },
    {
      "anonymous": false,
      "inputs": [
        {
          "indexed": false,
          "internalType": "uint256",
          "name": "tokenId",
          "type": "uint256"
        }
      ],
      "name": "RentOfferCreated",
      "type": "event"
    },
    {
      "anonymous": false,
      "inputs": [
        {
          "indexed": true,
          "internalType": "address",
          "name": "from",
          "type": "address"
        },
        {
          "indexed": true,
          "internalType": "address",
          "name": "to",
          "type": "address"
        },
        {
          "indexed": true,
          "internalType": "uint256",
          "name": "tokenId",
          "type": "uint256"
        }
      ],
      "name": "Transfer",
      "type": "event"
    },
    {
      "anonymous": false,
      "inputs": [
        {
          "indexed": true,
          "internalType": "uint256",
          "name": "tokenId",
          "type": "uint256"
        },
        {
          "indexed": true,
          "internalType": "address",
          "name": "user",
          "type": "address"
        },
        {
          "indexed": false,
          "internalType": "uint64",
          "name": "expires",
          "type": "uint64"
        }
      ],
      "name": "UpdateUser",
      "type": "event"
    },
    {
      "inputs": [
        {
          "internalType": "address",
          "name": "to",
          "type": "address"
        },
        {
          "internalType": "uint256",
          "name": "tokenId",
          "type": "uint256"
        }
      ],
      "name": "approve",
      "outputs": [],
      "stateMutability": "nonpayable",
      "type": "function"
    },
    {
      "inputs": [
        {
          "internalType": "address",
          "name": "owner",
          "type": "address"
        }
      ],
      "name": "balanceOf",
      "outputs": [
        {
          "internalType": "uint256",
          "name": "",
          "type": "uint256"
        }
      ],
      "stateMutability": "view",
      "type": "function"
    },
    {
      "inputs": [
        {
          "internalType": "uint256",
          "name": "tokenId",
          "type": "uint256"
        }
      ],
      "name": "cancelOfferForRent",
      "outputs": [],
      "stateMutability": "nonpayable",
      "type": "function"
    },
    {
      "inputs": [
        {
          "internalType": "uint256",
          "name": "tokenId",
          "type": "uint256"
        }
      ],
      "name": "getApproved",
      "outputs": [
        {
          "internalType": "address",
          "name": "",
          "type": "address"
        }
      ],
      "stateMutability": "view",
      "type": "function"
    },
    {
      "inputs": [],
      "name": "getAvailableTokenCount",
      "outputs": [
        {
          "internalType": "uint256",
          "name": "",
          "type": "uint256"
        }
      ],
      "stateMutability": "view",
      "type": "function"
    },
    {
      "inputs": [
        {
          "internalType": "uint256",
          "name": "index",
          "type": "uint256"
        }
      ],
      "name": "getAvailableTokenIdAtIndex",
      "outputs": [
        {
          "internalType": "uint256",
          "name": "",
          "type": "uint256"
        }
      ],
      "stateMutability": "view",
      "type": "function"
    },
    {
      "inputs": [
        {
          "internalType": "uint256",
          "name": "tokenId",
          "type": "uint256"
        }
      ],
      "name": "getRentingConditions",
      "outputs": [
        {
          "components": [
            {
              "internalType": "uint32",
              "name": "price",
              "type": "uint32"
            },
            {
              "internalType": "uint128",
              "name": "duration",
              "type": "uint128"
            },
            {
              "internalType": "uint256",
              "name": "createdAt",
              "type": "uint256"
            }
          ],
          "internalType": "struct Marketplace.RentingConditions",
          "name": "",
          "type": "tuple"
        }
      ],
      "stateMutability": "view",
      "type": "function"
    },
    {
      "inputs": [
        {
          "internalType": "address",
          "name": "owner",
          "type": "address"
        },
        {
          "internalType": "address",
          "name": "operator",
          "type": "address"
        }
      ],
      "name": "isApprovedForAll",
      "outputs": [
        {
          "internalType": "bool",
          "name": "",
          "type": "bool"
        }
      ],
      "stateMutability": "view",
      "type": "function"
    },
    {
      "inputs": [],
      "name": "minRentDuration",
      "outputs": [
        {
          "internalType": "uint32",
          "name": "",
          "type": "uint32"
        }
      ],
      "stateMutability": "view",
      "type": "function"
    },
    {
      "inputs": [],
      "name": "minRentPrice",
      "outputs": [
        {
          "internalType": "uint32",
          "name": "",
          "type": "uint32"
        }
      ],
      "stateMutability": "view",
      "type": "function"
    },
    {
      "inputs": [],
      "name": "name",
      "outputs": [
        {
          "internalType": "string",
          "name": "",
          "type": "string"
        }
      ],
      "stateMutability": "view",
      "type": "function"
    },
    {
      "inputs": [
        {
          "internalType": "uint256",
          "name": "tokenId",
          "type": "uint256"
        },
        {
          "internalType": "uint32",
          "name": "price",
          "type": "uint32"
        },
        {
          "internalType": "uint128",
          "name": "duration",
          "type": "uint128"
        }
      ],
      "name": "offerForRent",
      "outputs": [],
      "stateMutability": "nonpayable",
      "type": "function"
    },
    {
      "inputs": [
        {
          "internalType": "uint256",
          "name": "tokenId",
          "type": "uint256"
        }
      ],
      "name": "ownerOf",
      "outputs": [
        {
          "internalType": "address",
          "name": "",
          "type": "address"
        }
      ],
      "stateMutability": "view",
      "type": "function"
    },
    {
      "inputs": [
        {
          "internalType": "address",
          "name": "from",
          "type": "address"
        },
        {
          "internalType": "address",
          "name": "to",
          "type": "address"
        },
        {
          "internalType": "uint256",
          "name": "tokenId",
          "type": "uint256"
        }
      ],
      "name": "safeTransferFrom",
      "outputs": [],
      "stateMutability": "nonpayable",
      "type": "function"
    },
    {
      "inputs": [
        {
          "internalType": "address",
          "name": "from",
          "type": "address"
        },
        {
          "internalType": "address",
          "name": "to",
          "type": "address"
        },
        {
          "internalType": "uint256",
          "name": "tokenId",
          "type": "uint256"
        },
        {
          "internalType": "bytes",
          "name": "data",
          "type": "bytes"
        }
      ],
      "name": "safeTransferFrom",
      "outputs": [],
      "stateMutability": "nonpayable",
      "type": "function"
    },
    {
      "inputs": [
        {
          "internalType": "address",
          "name": "operator",
          "type": "address"
        },
        {
          "internalType": "bool",
          "name": "approved",
          "type": "bool"
        }
      ],
      "name": "setApprovalForAll",
      "outputs": [],
      "stateMutability": "nonpayable",
      "type": "function"
    },
    {
      "inputs": [
        {
          "internalType": "uint256",
          "name": "tokenId",
          "type": "uint256"
        },
        {
          "internalType": "address",
          "name": "user",
          "type": "address"
        },
        {
          "internalType": "uint64",
          "name": "expires",
          "type": "uint64"
        }
      ],
      "name": "setUser",
      "outputs": [],
      "stateMutability": "nonpayable",
      "type": "function"
    },
    {
      "inputs": [
        {
          "internalType": "bytes4",
          "name": "interfaceId",
          "type": "bytes4"
        }
      ],
      "name": "supportsInterface",
      "outputs": [
        {
          "internalType": "bool",
          "name": "",
          "type": "bool"
        }
      ],
      "stateMutability": "view",
      "type": "function"
    },
    {
      "inputs": [],
      "name": "symbol",
      "outputs": [
        {
          "internalType": "string",
          "name": "",
          "type": "string"
        }
      ],
      "stateMutability": "view",
      "type": "function"
    },
    {
      "inputs": [
        {
          "internalType": "address",
          "name": "user",
          "type": "address"
        },
        {
          "internalType": "uint256",
          "name": "index",
          "type": "uint256"
        }
      ],
      "name": "tokenOfUserByIndex",
      "outputs": [
        {
          "internalType": "uint256",
          "name": "",
          "type": "uint256"
        }
      ],
      "stateMutability": "view",
      "type": "function"
    },
    {
      "inputs": [
        {
          "internalType": "uint256",
          "name": "tokenId",
          "type": "uint256"
        }
      ],
      "name": "tokenURI",
      "outputs": [
        {
          "internalType": "string",
          "name": "",
          "type": "string"
        }
      ],
      "stateMutability": "view",
      "type": "function"
    },
    {
      "inputs": [
        {
          "internalType": "address",
          "name": "from",
          "type": "address"
        },
        {
          "internalType": "address",
          "name": "to",
          "type": "address"
        },
        {
          "internalType": "uint256",
          "name": "tokenId",
          "type": "uint256"
        }
      ],
      "name": "transferFrom",
      "outputs": [],
      "stateMutability": "nonpayable",
      "type": "function"
    },
    {
      "inputs": [
        {
          "internalType": "address",
          "name": "user",
          "type": "address"
        }
      ],
      "name": "usedBalanceOf",
      "outputs": [
        {
          "internalType": "uint256",
          "name": "",
          "type": "uint256"
        }
      ],
      "stateMutability": "view",
      "type": "function"
    },
    {
      "inputs": [
        {
          "internalType": "uint256",
          "name": "tokenId",
          "type": "uint256"
        }
      ],
      "name": "userExpires",
      "outputs": [
        {
          "internalType": "uint256",
          "name": "",
          "type": "uint256"
        }
      ],
      "stateMutability": "view",
      "type": "function"
    },
    {
      "inputs": [
        {
          "internalType": "uint256",
          "name": "tokenId",
          "type": "uint256"
        }
      ],
      "name": "userOf",
      "outputs": [
        {
          "internalType": "address",
          "name": "",
          "type": "address"
        }
      ],
      "stateMutability": "view",
      "type": "function"
    }
  ],
  "bytecode": "0x608060405234801561001057600080fd5b506139c9806100206000396000f3fe608060405234801561001057600080fd5b50600436106101735760003560e01c806370a08231116100de578063c25a2c6511610097578063d3d7261711610071578063d3d72617146104a8578063d5370904146104c4578063e030565e146104e2578063e985e9c5146104fe57610173565b8063c25a2c651461042a578063c2f1f14a14610448578063c87b56dd1461047857610173565b806370a08231146103445780638fc88c481461037457806395d89b41146103a4578063a22cb465146103c2578063abb302ad146103de578063b88d4fde1461040e57610173565b806322f3bb3e1161013057806322f3bb3e1461027257806323b872dd1461028e57806342842e0e146102aa57806347906905146102c657806355673d07146102f65780636352211e1461031457610173565b806301ffc9a71461017857806306fdde03146101a8578063081812fc146101c6578063095ea7b3146101f65780631d350ef814610212578063227773c014610242575b600080fd5b610192600480360381019061018d91906126ec565b61052e565b60405161019f9190612734565b60405180910390f35b6101b06105a8565b6040516101bd91906127df565b60405180910390f35b6101e060048036038101906101db9190612837565b61063a565b6040516101ed91906128a5565b60405180910390f35b610210600480360381019061020b91906128ec565b610680565b005b61022c600480360381019061022791906128ec565b610797565b604051610239919061293b565b60405180910390f35b61025c60048036038101906102579190612956565b610853565b604051610269919061293b565b60405180910390f35b61028c60048036038101906102879190612a07565b61089c565b005b6102a860048036038101906102a39190612a5a565b610b35565b005b6102c460048036038101906102bf9190612a5a565b610b95565b005b6102e060048036038101906102db9190612837565b610bb5565b6040516102ed919061293b565b60405180910390f35b6102fe610bdd565b60405161030b9190612abc565b60405180910390f35b61032e60048036038101906103299190612837565b610bf3565b60405161033b91906128a5565b60405180910390f35b61035e60048036038101906103599190612956565b610c79565b60405161036b919061293b565b60405180910390f35b61038e60048036038101906103899190612837565b610d30565b60405161039b919061293b565b60405180910390f35b6103ac610d6e565b6040516103b991906127df565b60405180910390f35b6103dc60048036038101906103d79190612b03565b610e00565b005b6103f860048036038101906103f39190612837565b610e16565b6040516104059190612bb2565b60405180910390f35b61042860048036038101906104239190612d02565b610ebd565b005b610432610f1f565b60405161043f9190612abc565b60405180910390f35b610462600480360381019061045d9190612837565b610f35565b60405161046f91906128a5565b60405180910390f35b610492600480360381019061048d9190612837565b610fba565b60405161049f91906127df565b60405180910390f35b6104c260048036038101906104bd9190612837565b611022565b005b6104cc6110b5565b6040516104d9919061293b565b60405180910390f35b6104fc60048036038101906104f79190612dc5565b6110c2565b005b61051860048036038101906105139190612e18565b6111c8565b6040516105259190612734565b60405180910390f35b60007fad092b5c000000000000000000000000000000000000000000000000000000007bffffffffffffffffffffffffffffffffffffffffffffffffffffffff1916827bffffffffffffffffffffffffffffffffffffffffffffffffffffffff191614806105a157506105a08261125c565b5b9050919050565b6060606580546105b790612e87565b80601f01602080910402602001604051908101604052809291908181526020018280546105e390612e87565b80156106305780601f1061060557610100808354040283529160200191610630565b820191906000526020600020905b81548152906001019060200180831161061357829003601f168201915b5050505050905090565b60006106458261133e565b6069600083815260200190815260200160002060009054906101000a900473ffffffffffffffffffffffffffffffffffffffff169050919050565b600061068b82610bf3565b90508073ffffffffffffffffffffffffffffffffffffffff168373ffffffffffffffffffffffffffffffffffffffff16036106fb576040517f08c379a00000000000000000000000000000000000000000000000000000000081526004016106f290612f2a565b60405180910390fd5b8073ffffffffffffffffffffffffffffffffffffffff1661071a611389565b73ffffffffffffffffffffffffffffffffffffffff161480610749575061074881610743611389565b6111c8565b5b610788576040517f08c379a000000000000000000000000000000000000000000000000000000000815260040161077f90612fbc565b60405180910390fd5b6107928383611391565b505050565b60006107a283610853565b82106107e3576040517f08c379a00000000000000000000000000000000000000000000000000000000081526004016107da9061304e565b60405180910390fd5b6000609860008573ffffffffffffffffffffffffffffffffffffffff1673ffffffffffffffffffffffffffffffffffffffff1681526020019081526020016000206000848152602001908152602001600020549050600081036108495761084861306e565b5b8091505092915050565b6000609c60008373ffffffffffffffffffffffffffffffffffffffff1673ffffffffffffffffffffffffffffffffffffffff168152602001908152602001600020549050919050565b6108ad6108a7611389565b8461144a565b6108ec576040517f08c379a00000000000000000000000000000000000000000000000000000000081526004016108e39061310f565b60405180910390fd5b600073ffffffffffffffffffffffffffffffffffffffff1661090d84610f35565b73ffffffffffffffffffffffffffffffffffffffff1614610963576040517f08c379a000000000000000000000000000000000000000000000000000000000815260040161095a9061317b565b60405180910390fd5b609e60009054906101000a900463ffffffff1663ffffffff168263ffffffff1610156109c4576040517f08c379a00000000000000000000000000000000000000000000000000000000081526004016109bb906131e7565b60405180910390fd5b609e60049054906101000a900463ffffffff1663ffffffff16816fffffffffffffffffffffffffffffffff161015610a31576040517f08c379a0000000000000000000000000000000000000000000000000000000008152600401610a2890613253565b60405180910390fd5b600060405180606001604052808463ffffffff168152602001836fffffffffffffffffffffffffffffffff16815260200142815250905080609d600086815260200190815260200160002060008201518160000160006101000a81548163ffffffff021916908363ffffffff16021790555060208201518160000160046101000a8154816fffffffffffffffffffffffffffffffff02191690836fffffffffffffffffffffffffffffffff16021790555060408201518160010155905050610af8846114df565b7fc8bf25b5dc60208595c2afecaf7a3b5852ecdb7917ab66a44def586c13a282a784604051610b27919061293b565b60405180910390a150505050565b610b46610b40611389565b8261144a565b610b85576040517f08c379a0000000000000000000000000000000000000000000000000000000008152600401610b7c906132e5565b60405180910390fd5b610b90838383611528565b505050565b610bb083838360405180602001604052806000815250610ebd565b505050565b6000609f8281548110610bcb57610bca613305565b5b90600052602060002001549050919050565b609e60049054906101000a900463ffffffff1681565b600080610bff83611821565b9050600073ffffffffffffffffffffffffffffffffffffffff168173ffffffffffffffffffffffffffffffffffffffff1603610c70576040517f08c379a0000000000000000000000000000000000000000000000000000000008152600401610c6790613380565b60405180910390fd5b80915050919050565b60008073ffffffffffffffffffffffffffffffffffffffff168273ffffffffffffffffffffffffffffffffffffffff1603610ce9576040517f08c379a0000000000000000000000000000000000000000000000000000000008152600401610ce090613412565b60405180910390fd5b606860008373ffffffffffffffffffffffffffffffffffffffff1673ffffffffffffffffffffffffffffffffffffffff168152602001908152602001600020549050919050565b60006097600083815260200190815260200160002060000160149054906101000a900467ffffffffffffffff1667ffffffffffffffff169050919050565b606060668054610d7d90612e87565b80601f0160208091040260200160405190810160405280929190818152602001828054610da990612e87565b8015610df65780601f10610dcb57610100808354040283529160200191610df6565b820191906000526020600020905b815481529060010190602001808311610dd957829003601f168201915b5050505050905090565b610e12610e0b611389565b838361185e565b5050565b610e1e612647565b609d60008381526020019081526020016000206040518060600160405290816000820160009054906101000a900463ffffffff1663ffffffff1663ffffffff1681526020016000820160049054906101000a90046fffffffffffffffffffffffffffffffff166fffffffffffffffffffffffffffffffff166fffffffffffffffffffffffffffffffff1681526020016001820154815250509050919050565b610ece610ec8611389565b8361144a565b610f0d576040517f08c379a0000000000000000000000000000000000000000000000000000000008152600401610f04906132e5565b60405180910390fd5b610f19848484846119ca565b50505050565b609e60009054906101000a900463ffffffff1681565b6000426097600084815260200190815260200160002060000160149054906101000a900467ffffffffffffffff1667ffffffffffffffff1610610fb0576097600083815260200190815260200160002060000160009054906101000a900473ffffffffffffffffffffffffffffffffffffffff169050610fb5565b600090505b919050565b6060610fc58261133e565b6000610fcf611a26565b90506000815111610fef576040518060200160405280600081525061101a565b80610ff984611a3d565b60405160200161100a92919061346e565b6040516020818303038152906040525b915050919050565b61103361102d611389565b8261144a565b611072576040517f08c379a00000000000000000000000000000000000000000000000000000000081526004016110699061310f565b60405180910390fd5b61107b81611b0b565b7f4ee8bdb37621a2594d4cb695cc7b6ecddd0eaa9d9d972acd674f3fca50aee7f2816040516110aa919061293b565b60405180910390a150565b6000609f80549050905090565b6110cc8284611b6f565b600073ffffffffffffffffffffffffffffffffffffffff168273ffffffffffffffffffffffffffffffffffffffff161461115a57609c60008373ffffffffffffffffffffffffffffffffffffffff1673ffffffffffffffffffffffffffffffffffffffff1681526020019081526020016000206000815480929190611150906134c1565b91905055506111b8565b609c600061116785610f35565b73ffffffffffffffffffffffffffffffffffffffff1673ffffffffffffffffffffffffffffffffffffffff16815260200190815260200160002060008154809291906111b290613509565b91905055505b6111c3838383611bdb565b505050565b6000606a60008473ffffffffffffffffffffffffffffffffffffffff1673ffffffffffffffffffffffffffffffffffffffff16815260200190815260200160002060008373ffffffffffffffffffffffffffffffffffffffff1673ffffffffffffffffffffffffffffffffffffffff16815260200190815260200160002060009054906101000a900460ff16905092915050565b60007f80ac58cd000000000000000000000000000000000000000000000000000000007bffffffffffffffffffffffffffffffffffffffffffffffffffffffff1916827bffffffffffffffffffffffffffffffffffffffffffffffffffffffff1916148061132757507f5b5e139f000000000000000000000000000000000000000000000000000000007bffffffffffffffffffffffffffffffffffffffffffffffffffffffff1916827bffffffffffffffffffffffffffffffffffffffffffffffffffffffff1916145b80611337575061133682611d9c565b5b9050919050565b61134781611e06565b611386576040517f08c379a000000000000000000000000000000000000000000000000000000000815260040161137d90613380565b60405180910390fd5b50565b600033905090565b816069600083815260200190815260200160002060006101000a81548173ffffffffffffffffffffffffffffffffffffffff021916908373ffffffffffffffffffffffffffffffffffffffff160217905550808273ffffffffffffffffffffffffffffffffffffffff1661140483610bf3565b73ffffffffffffffffffffffffffffffffffffffff167f8c5be1e5ebec7d5bd14f71427d1e84f3dd0314c0f7b2291e5b200ac8c7c3b92560405160405180910390a45050565b60008061145683610bf3565b90508073ffffffffffffffffffffffffffffffffffffffff168473ffffffffffffffffffffffffffffffffffffffff161480611498575061149781856111c8565b5b806114d657508373ffffffffffffffffffffffffffffffffffffffff166114be8461063a565b73ffffffffffffffffffffffffffffffffffffffff16145b91505092915050565b609f8054905060a0600083815260200190815260200160002081905550609f81908060018154018082558091505060019003906000526020600020016000909190919091505550565b8273ffffffffffffffffffffffffffffffffffffffff1661154882610bf3565b73ffffffffffffffffffffffffffffffffffffffff161461159e576040517f08c379a0000000000000000000000000000000000000000000000000000000008152600401611595906135a4565b60405180910390fd5b600073ffffffffffffffffffffffffffffffffffffffff168273ffffffffffffffffffffffffffffffffffffffff160361160d576040517f08c379a000000000000000000000000000000000000000000000000000000000815260040161160490613636565b60405180910390fd5b61161a8383836001611e47565b8273ffffffffffffffffffffffffffffffffffffffff1661163a82610bf3565b73ffffffffffffffffffffffffffffffffffffffff1614611690576040517f08c379a0000000000000000000000000000000000000000000000000000000008152600401611687906135a4565b60405180910390fd5b6069600082815260200190815260200160002060006101000a81549073ffffffffffffffffffffffffffffffffffffffff02191690556001606860008573ffffffffffffffffffffffffffffffffffffffff1673ffffffffffffffffffffffffffffffffffffffff168152602001908152602001600020600082825403925050819055506001606860008473ffffffffffffffffffffffffffffffffffffffff1673ffffffffffffffffffffffffffffffffffffffff16815260200190815260200160002060008282540192505081905550816067600083815260200190815260200160002060006101000a81548173ffffffffffffffffffffffffffffffffffffffff021916908373ffffffffffffffffffffffffffffffffffffffff160217905550808273ffffffffffffffffffffffffffffffffffffffff168473ffffffffffffffffffffffffffffffffffffffff167fddf252ad1be2c89b69c2b068fc378daa952ba7f163c4a11628f55a4df523b3ef60405160405180910390a461181c8383836001611f6d565b505050565b60006067600083815260200190815260200160002060009054906101000a900473ffffffffffffffffffffffffffffffffffffffff169050919050565b8173ffffffffffffffffffffffffffffffffffffffff168373ffffffffffffffffffffffffffffffffffffffff16036118cc576040517f08c379a00000000000000000000000000000000000000000000000000000000081526004016118c3906136a2565b60405180910390fd5b80606a60008573ffffffffffffffffffffffffffffffffffffffff1673ffffffffffffffffffffffffffffffffffffffff16815260200190815260200160002060008473ffffffffffffffffffffffffffffffffffffffff1673ffffffffffffffffffffffffffffffffffffffff16815260200190815260200160002060006101000a81548160ff0219169083151502179055508173ffffffffffffffffffffffffffffffffffffffff168373ffffffffffffffffffffffffffffffffffffffff167f17307eab39ab6107e8899845ad3d59bd9653f200f220920489ca2b5937696c31836040516119bd9190612734565b60405180910390a3505050565b6119d5848484611528565b6119e184848484611f73565b611a20576040517f08c379a0000000000000000000000000000000000000000000000000000000008152600401611a1790613734565b60405180910390fd5b50505050565b606060405180602001604052806000815250905090565b606060006001611a4c846120fa565b01905060008167ffffffffffffffff811115611a6b57611a6a612bd7565b5b6040519080825280601f01601f191660200182016040528015611a9d5781602001600182028036833780820191505090505b509050600082602001820190505b600115611b00578080600190039150507f3031323334353637383961626364656600000000000000000000000000000000600a86061a8153600a8581611af457611af3613754565b5b04945060008503611aab575b819350505050919050565b609d6000828152602001908152602001600020600080820160006101000a81549063ffffffff02191690556000820160046101000a8154906fffffffffffffffffffffffffffffffff021916905560018201600090555050611b6c8161224d565b50565b600073ffffffffffffffffffffffffffffffffffffffff168273ffffffffffffffffffffffffffffffffffffffff1603611bc357611bac8161231e565b611bbe611bb882610f35565b826123ef565b611bd7565b611bcc8161255c565b611bd682826125a5565b5b5050565b600073ffffffffffffffffffffffffffffffffffffffff168273ffffffffffffffffffffffffffffffffffffffff1614611c5c57428167ffffffffffffffff1611611c5b576040517f08c379a0000000000000000000000000000000000000000000000000000000008152600401611c52906137cf565b60405180910390fd5b5b6000609760008581526020019081526020016000209050828160000160006101000a81548173ffffffffffffffffffffffffffffffffffffffff021916908373ffffffffffffffffffffffffffffffffffffffff160217905550600073ffffffffffffffffffffffffffffffffffffffff168373ffffffffffffffffffffffffffffffffffffffff1603611d1b5760008160000160146101000a81548167ffffffffffffffff021916908367ffffffffffffffff160217905550611d47565b818160000160146101000a81548167ffffffffffffffff021916908367ffffffffffffffff1602179055505b8273ffffffffffffffffffffffffffffffffffffffff16847f4e06b4e7000e659094299b3533b47b6aa8ad048e95e872d23d1f4ee55af89cfe84604051611d8e91906137fe565b60405180910390a350505050565b60007f01ffc9a7000000000000000000000000000000000000000000000000000000007bffffffffffffffffffffffffffffffffffffffffffffffffffffffff1916827bffffffffffffffffffffffffffffffffffffffffffffffffffffffff1916149050919050565b60008073ffffffffffffffffffffffffffffffffffffffff16611e2883611821565b73ffffffffffffffffffffffffffffffffffffffff1614159050919050565b6001811115611f6757600073ffffffffffffffffffffffffffffffffffffffff168473ffffffffffffffffffffffffffffffffffffffff1614611edb5780606860008673ffffffffffffffffffffffffffffffffffffffff1673ffffffffffffffffffffffffffffffffffffffff1681526020019081526020016000206000828254611ed39190613819565b925050819055505b600073ffffffffffffffffffffffffffffffffffffffff168373ffffffffffffffffffffffffffffffffffffffff1614611f665780606860008573ffffffffffffffffffffffffffffffffffffffff1673ffffffffffffffffffffffffffffffffffffffff1681526020019081526020016000206000828254611f5e919061384d565b925050819055505b5b50505050565b50505050565b6000611f948473ffffffffffffffffffffffffffffffffffffffff16612624565b156120ed578373ffffffffffffffffffffffffffffffffffffffff1663150b7a02611fbd611389565b8786866040518563ffffffff1660e01b8152600401611fdf94939291906138d6565b6020604051808303816000875af192505050801561201b57506040513d601f19601f820116820180604052508101906120189190613937565b60015b61209d573d806000811461204b576040519150601f19603f3d011682016040523d82523d6000602084013e612050565b606091505b506000815103612095576040517f08c379a000000000000000000000000000000000000000000000000000000000815260040161208c90613734565b60405180910390fd5b805181602001fd5b63150b7a0260e01b7bffffffffffffffffffffffffffffffffffffffffffffffffffffffff1916817bffffffffffffffffffffffffffffffffffffffffffffffffffffffff1916149150506120f2565b600190505b949350505050565b600080600090507a184f03e93ff9f4daa797ed6e38ed64bf6a1f0100000000000000008310612158577a184f03e93ff9f4daa797ed6e38ed64bf6a1f010000000000000000838161214e5761214d613754565b5b0492506040810190505b6d04ee2d6d415b85acef81000000008310612195576d04ee2d6d415b85acef8100000000838161218b5761218a613754565b5b0492506020810190505b662386f26fc1000083106121c457662386f26fc1000083816121ba576121b9613754565b5b0492506010810190505b6305f5e10083106121ed576305f5e10083816121e3576121e2613754565b5b0492506008810190505b612710831061221257612710838161220857612207613754565b5b0492506004810190505b60648310612235576064838161222b5761222a613754565b5b0492506002810190505b600a8310612244576001810190505b80915050919050565b60006001609f805490506122619190613819565b9050600060a060008481526020019081526020016000205490506000609f838154811061229157612290613305565b5b9060005260206000200154905080609f83815481106122b3576122b2613305565b5b90600052602060002001819055508160a060008381526020019081526020016000208190555060a0600085815260200190815260200160002060009055609f80548061230257612301613964565b5b6001900381819060005260206000200160009055905550505050565b60006001609a805490506123329190613819565b90506000609b60008481526020019081526020016000205490506000609a838154811061236257612361613305565b5b9060005260206000200154905080609a838154811061238457612383613305565b5b906000526020600020018190555081609b600083815260200190815260200160002081905550609b600085815260200190815260200160002060009055609a8054806123d3576123d2613964565b5b6001900381819060005260206000200160009055905550505050565b600060016123fc84610853565b6124069190613819565b90506000609960008481526020019081526020016000205490508181146124eb576000609860008673ffffffffffffffffffffffffffffffffffffffff1673ffffffffffffffffffffffffffffffffffffffff168152602001908152602001600020600084815260200190815260200160002054905080609860008773ffffffffffffffffffffffffffffffffffffffff1673ffffffffffffffffffffffffffffffffffffffff168152602001908152602001600020600084815260200190815260200160002081905550816099600083815260200190815260200160002081905550505b6099600084815260200190815260200160002060009055609860008573ffffffffffffffffffffffffffffffffffffffff1673ffffffffffffffffffffffffffffffffffffffff16815260200190815260200160002060008381526020019081526020016000206000905550505050565b609a80549050609b600083815260200190815260200160002081905550609a81908060018154018082558091505060019003906000526020600020016000909190919091505550565b60006125b083610853565b905081609860008573ffffffffffffffffffffffffffffffffffffffff1673ffffffffffffffffffffffffffffffffffffffff168152602001908152602001600020600083815260200190815260200160002081905550806099600084815260200190815260200160002081905550505050565b6000808273ffffffffffffffffffffffffffffffffffffffff163b119050919050565b6040518060600160405280600063ffffffff16815260200160006fffffffffffffffffffffffffffffffff168152602001600081525090565b6000604051905090565b600080fd5b600080fd5b60007fffffffff0000000000000000000000000000000000000000000000000000000082169050919050565b6126c981612694565b81146126d457600080fd5b50565b6000813590506126e6816126c0565b92915050565b6000602082840312156127025761270161268a565b5b6000612710848285016126d7565b91505092915050565b60008115159050919050565b61272e81612719565b82525050565b60006020820190506127496000830184612725565b92915050565b600081519050919050565b600082825260208201905092915050565b60005b8381101561278957808201518184015260208101905061276e565b60008484015250505050565b6000601f19601f8301169050919050565b60006127b18261274f565b6127bb818561275a565b93506127cb81856020860161276b565b6127d481612795565b840191505092915050565b600060208201905081810360008301526127f981846127a6565b905092915050565b6000819050919050565b61281481612801565b811461281f57600080fd5b50565b6000813590506128318161280b565b92915050565b60006020828403121561284d5761284c61268a565b5b600061285b84828501612822565b91505092915050565b600073ffffffffffffffffffffffffffffffffffffffff82169050919050565b600061288f82612864565b9050919050565b61289f81612884565b82525050565b60006020820190506128ba6000830184612896565b92915050565b6128c981612884565b81146128d457600080fd5b50565b6000813590506128e6816128c0565b92915050565b600080604083850312156129035761290261268a565b5b6000612911858286016128d7565b925050602061292285828601612822565b9150509250929050565b61293581612801565b82525050565b6000602082019050612950600083018461292c565b92915050565b60006020828403121561296c5761296b61268a565b5b600061297a848285016128d7565b91505092915050565b600063ffffffff82169050919050565b61299c81612983565b81146129a757600080fd5b50565b6000813590506129b981612993565b92915050565b60006fffffffffffffffffffffffffffffffff82169050919050565b6129e4816129bf565b81146129ef57600080fd5b50565b600081359050612a01816129db565b92915050565b600080600060608486031215612a2057612a1f61268a565b5b6000612a2e86828701612822565b9350506020612a3f868287016129aa565b9250506040612a50868287016129f2565b9150509250925092565b600080600060608486031215612a7357612a7261268a565b5b6000612a81868287016128d7565b9350506020612a92868287016128d7565b9250506040612aa386828701612822565b9150509250925092565b612ab681612983565b82525050565b6000602082019050612ad16000830184612aad565b92915050565b612ae081612719565b8114612aeb57600080fd5b50565b600081359050612afd81612ad7565b92915050565b60008060408385031215612b1a57612b1961268a565b5b6000612b28858286016128d7565b9250506020612b3985828601612aee565b9150509250929050565b612b4c81612983565b82525050565b612b5b816129bf565b82525050565b612b6a81612801565b82525050565b606082016000820151612b866000850182612b43565b506020820151612b996020850182612b52565b506040820151612bac6040850182612b61565b50505050565b6000606082019050612bc76000830184612b70565b92915050565b600080fd5b600080fd5b7f4e487b7100000000000000000000000000000000000000000000000000000000600052604160045260246000fd5b612c0f82612795565b810181811067ffffffffffffffff82111715612c2e57612c2d612bd7565b5b80604052505050565b6000612c41612680565b9050612c4d8282612c06565b919050565b600067ffffffffffffffff821115612c6d57612c6c612bd7565b5b612c7682612795565b9050602081019050919050565b82818337600083830152505050565b6000612ca5612ca084612c52565b612c37565b905082815260208101848484011115612cc157612cc0612bd2565b5b612ccc848285612c83565b509392505050565b600082601f830112612ce957612ce8612bcd565b5b8135612cf9848260208601612c92565b91505092915050565b60008060008060808587031215612d1c57612d1b61268a565b5b6000612d2a878288016128d7565b9450506020612d3b878288016128d7565b9350506040612d4c87828801612822565b925050606085013567ffffffffffffffff811115612d6d57612d6c61268f565b5b612d7987828801612cd4565b91505092959194509250565b600067ffffffffffffffff82169050919050565b612da281612d85565b8114612dad57600080fd5b50565b600081359050612dbf81612d99565b92915050565b600080600060608486031215612dde57612ddd61268a565b5b6000612dec86828701612822565b9350506020612dfd868287016128d7565b9250506040612e0e86828701612db0565b9150509250925092565b60008060408385031215612e2f57612e2e61268a565b5b6000612e3d858286016128d7565b9250506020612e4e858286016128d7565b9150509250929050565b7f4e487b7100000000000000000000000000000000000000000000000000000000600052602260045260246000fd5b60006002820490506001821680612e9f57607f821691505b602082108103612eb257612eb1612e58565b5b50919050565b7f4552433732313a20617070726f76616c20746f2063757272656e74206f776e6560008201527f7200000000000000000000000000000000000000000000000000000000000000602082015250565b6000612f1460218361275a565b9150612f1f82612eb8565b604082019050919050565b60006020820190508181036000830152612f4381612f07565b9050919050565b7f4552433732313a20617070726f76652063616c6c6572206973206e6f7420746f60008201527f6b656e206f776e6572206f7220617070726f76656420666f7220616c6c000000602082015250565b6000612fa6603d8361275a565b9150612fb182612f4a565b604082019050919050565b60006020820190508181036000830152612fd581612f99565b9050919050565b7f45524334393037456e756d657261626c653a207573657220696e646578206f7560008201527f74206f6620626f756e6473000000000000000000000000000000000000000000602082015250565b6000613038602b8361275a565b915061304382612fdc565b604082019050919050565b600060208201905081810360008301526130678161302b565b9050919050565b7f4e487b7100000000000000000000000000000000000000000000000000000000600052600160045260246000fd5b7f43616c6c6572206973206e6f7420746f6b656e206f776e6572206f722061707060008201527f726f766564000000000000000000000000000000000000000000000000000000602082015250565b60006130f960258361275a565b91506131048261309d565b604082019050919050565b60006020820190508181036000830152613128816130ec565b9050919050565b7f416c726561647920757365640000000000000000000000000000000000000000600082015250565b6000613165600c8361275a565b91506131708261312f565b602082019050919050565b6000602082019050818103600083015261319481613158565b9050919050565b7f507269636520746f6f206c6f7700000000000000000000000000000000000000600082015250565b60006131d1600d8361275a565b91506131dc8261319b565b602082019050919050565b60006020820190508181036000830152613200816131c4565b9050919050565b7f4475726174696f6e20746f6f206c6f7700000000000000000000000000000000600082015250565b600061323d60108361275a565b915061324882613207565b602082019050919050565b6000602082019050818103600083015261326c81613230565b9050919050565b7f4552433732313a2063616c6c6572206973206e6f7420746f6b656e206f776e6560008201527f72206f7220617070726f76656400000000000000000000000000000000000000602082015250565b60006132cf602d8361275a565b91506132da82613273565b604082019050919050565b600060208201905081810360008301526132fe816132c2565b9050919050565b7f4e487b7100000000000000000000000000000000000000000000000000000000600052603260045260246000fd5b7f4552433732313a20696e76616c696420746f6b656e2049440000000000000000600082015250565b600061336a60188361275a565b915061337582613334565b602082019050919050565b600060208201905081810360008301526133998161335d565b9050919050565b7f4552433732313a2061646472657373207a65726f206973206e6f74206120766160008201527f6c6964206f776e65720000000000000000000000000000000000000000000000602082015250565b60006133fc60298361275a565b9150613407826133a0565b604082019050919050565b6000602082019050818103600083015261342b816133ef565b9050919050565b600081905092915050565b60006134488261274f565b6134528185613432565b935061346281856020860161276b565b80840191505092915050565b600061347a828561343d565b9150613486828461343d565b91508190509392505050565b7f4e487b7100000000000000000000000000000000000000000000000000000000600052601160045260246000fd5b60006134cc82612801565b91507fffffffffffffffffffffffffffffffffffffffffffffffffffffffffffffffff82036134fe576134fd613492565b5b600182019050919050565b600061351482612801565b91506000820361352757613526613492565b5b600182039050919050565b7f4552433732313a207472616e736665722066726f6d20696e636f72726563742060008201527f6f776e6572000000000000000000000000000000000000000000000000000000602082015250565b600061358e60258361275a565b915061359982613532565b604082019050919050565b600060208201905081810360008301526135bd81613581565b9050919050565b7f4552433732313a207472616e7366657220746f20746865207a65726f2061646460008201527f7265737300000000000000000000000000000000000000000000000000000000602082015250565b600061362060248361275a565b915061362b826135c4565b604082019050919050565b6000602082019050818103600083015261364f81613613565b9050919050565b7f4552433732313a20617070726f766520746f2063616c6c657200000000000000600082015250565b600061368c60198361275a565b915061369782613656565b602082019050919050565b600060208201905081810360008301526136bb8161367f565b9050919050565b7f4552433732313a207472616e7366657220746f206e6f6e20455243373231526560008201527f63656976657220696d706c656d656e7465720000000000000000000000000000602082015250565b600061371e60328361275a565b9150613729826136c2565b604082019050919050565b6000602082019050818103600083015261374d81613711565b9050919050565b7f4e487b7100000000000000000000000000000000000000000000000000000000600052601260045260246000fd5b7f457870697265642074696d657374616d70000000000000000000000000000000600082015250565b60006137b960118361275a565b91506137c482613783565b602082019050919050565b600060208201905081810360008301526137e8816137ac565b9050919050565b6137f881612d85565b82525050565b600060208201905061381360008301846137ef565b92915050565b600061382482612801565b915061382f83612801565b925082820390508181111561384757613846613492565b5b92915050565b600061385882612801565b915061386383612801565b925082820190508082111561387b5761387a613492565b5b92915050565b600081519050919050565b600082825260208201905092915050565b60006138a882613881565b6138b2818561388c565b93506138c281856020860161276b565b6138cb81612795565b840191505092915050565b60006080820190506138eb6000830187612896565b6138f86020830186612896565b613905604083018561292c565b8181036060830152613917818461389d565b905095945050505050565b600081519050613931816126c0565b92915050565b60006020828403121561394d5761394c61268a565b5b600061395b84828501613922565b91505092915050565b7f4e487b7100000000000000000000000000000000000000000000000000000000600052603160045260246000fdfea264697066735822122037b3d495a72fea2afb8e4a8649780b31b7e7df8aa5cda625b07202ed7942878964736f6c63430008110033",
  "linkReferences": {},
  "deployedLinkReferences": {}
}