{"contracts/Marketplace.sol":{"Marketplace":{"abi":[{"anonymous":false,"inputs":[{"indexed":false,"internalType":"uint8","name":"version","type":"uint8"}],"name":"Initialized","type":"event"},{"anonymous":false,"inputs":[{"indexed":false,"internalType":"uint256","name":"tokenId","type":"uint256"}],"name":"RentOfferCancelled","type":"event"},{"anonymous":false,"inputs":[{"indexed":false,"internalType":"uint256","name":"tokenId","type":"uint256"}],"name":"RentOfferCreated","type":"event"},{"inputs":[{"internalType":"uint256","name":"tokenId","type":"uint256"}],"name":"cancelOfferForRent","outputs":[],"stateMutability":"nonpayable","type":"function"},{"inputs":[],"name":"getAvailableTokenCount","outputs":[{"internalType":"uint256","name":"","type":"uint256"}],"stateMutability":"view","type":"function"},{"inputs":[{"internalType":"uint256","name":"index","type":"uint256"}],"name":"getAvailableTokenIdAtIndex","outputs":[{"internalType":"uint256","name":"","type":"uint256"}],"stateMutability":"view","type":"function"},{"inputs":[{"internalType":"uint256","name":"tokenId","type":"uint256"}],"name":"getRentingConditions","outputs":[{"components":[{"internalType":"uint32","name":"price","type":"uint32"},{"internalType":"uint128","name":"duration","type":"uint128"},{"internalType":"uint256","name":"createdAt","type":"uint256"}],"internalType":"struct Marketplace.RentingConditions","name":"","type":"tuple"}],"stateMutability":"view","type":"function"},{"inputs":[],"name":"minRentDuration","outputs":[{"internalType":"uint32","name":"","type":"uint32"}],"stateMutability":"view","type":"function"},{"inputs":[],"name":"minRentPrice","outputs":[{"internalType":"uint32","name":"","type":"uint32"}],"stateMutability":"view","type":"function"},{"inputs":[{"internalType":"uint256","name":"tokenId","type":"uint256"},{"internalType":"uint32","name":"price","type":"uint32"},{"internalType":"uint128","name":"duration","type":"uint128"}],"name":"offerForRent","outputs":[],"stateMutability":"nonpayable","type":"function"}],"evm":{"bytecode":{"linkReferences":{},"object":"608060405234801561001057600080fd5b506105ea806100206000396000f3fe608060405234801561001057600080fd5b506004361061007d5760003560e01c8063abb302ad1161005b578063abb302ad146100ea578063c25a2c6514610199578063d3d72617146101a9578063d5370904146101bc57600080fd5b806322f3bb3e14610082578063479069051461009757806355673d07146100bd575b600080fd5b6100956100903660046104e8565b6101c4565b005b6100aa6100a5366004610548565b61039a565b6040519081526020015b60405180910390f35b6002546100d590640100000000900463ffffffff1681565b60405163ffffffff90911681526020016100b4565b61015f6100f8366004610548565b60408051606080820183526000808352602080840182905292840181905293845260018083529383902083519182018452805463ffffffff8116835264010000000090046fffffffffffffffffffffffffffffffff16928201929092529201549082015290565b60408051825163ffffffff1681526020808401516fffffffffffffffffffffffffffffffff169082015291810151908201526060016100b4565b6002546100d59063ffffffff1681565b6100956101b7366004610548565b6103c1565b6003546100aa565b60025463ffffffff90811690831610156102255760405162461bcd60e51b815260206004820152600d60248201527f507269636520746f6f206c6f770000000000000000000000000000000000000060448201526064015b60405180910390fd5b600254640100000000900463ffffffff166fffffffffffffffffffffffffffffffff821610156102975760405162461bcd60e51b815260206004820152601060248201527f4475726174696f6e20746f6f206c6f7700000000000000000000000000000000604482015260640161021c565b6040805160608101825263ffffffff80851682526fffffffffffffffffffffffffffffffff80851660208085019182524285870190815260008a8152600192839052969096208551815493519094166401000000000273ffffffffffffffffffffffffffffffffffffffff199093169390941692909217178255925192019190915561036184600380546000838152600460205260408120829055600182018355919091527fc2575a0e9e593c00f959f8c92f12db2869c3395a3b0502d05e2516446f71f85b0155565b6040518481527fc8bf25b5dc60208595c2afecaf7a3b5852ecdb7917ab66a44def586c13a282a79060200160405180910390a150505050565b6000600382815481106103af576103af610561565b90600052602060002001549050919050565b6103ca81610400565b6040518181527f4ee8bdb37621a2594d4cb695cc7b6ecddd0eaa9d9d972acd674f3fca50aee7f29060200160405180910390a150565b60008181526001602081905260408220805473ffffffffffffffffffffffffffffffffffffffff19168155015561043681610439565b50565b60035460009061044b90600190610577565b6000838152600460205260408120546003805493945090928490811061047357610473610561565b90600052602060002001549050806003838154811061049457610494610561565b60009182526020808320909101929092558281526004909152604080822084905585825281205560038054806104cc576104cc61059e565b6001900381819060005260206000200160009055905550505050565b6000806000606084860312156104fd57600080fd5b83359250602084013563ffffffff8116811461051857600080fd5b915060408401356fffffffffffffffffffffffffffffffff8116811461053d57600080fd5b809150509250925092565b60006020828403121561055a57600080fd5b5035919050565b634e487b7160e01b600052603260045260246000fd5b8181038181111561059857634e487b7160e01b600052601160045260246000fd5b92915050565b634e487b7160e01b600052603160045260246000fdfea264697066735822122069f7ca0546774e2ba259459ec5367e75decad562a590def310395cf23dc16f5564736f6c63430008110033","opcodes":"PUSH1 0x80 PUSH1 0x40 MSTORE CALLVALUE DUP1 ISZERO PUSH2 0x10 JUMPI PUSH1 0x0 DUP1 REVERT JUMPDEST POP PUSH2 0x5EA DUP1 PUSH2 0x20 PUSH1 0x0 CODECOPY PUSH1 0x0 RETURN INVALID PUSH1 0x80 PUSH1 0x40 MSTORE CALLVALUE DUP1 ISZERO PUSH2 0x10 JUMPI PUSH1 0x0 DUP1 REVERT JUMPDEST POP PUSH1 0x4 CALLDATASIZE LT PUSH2 0x7D JUMPI PUSH1 0x0 CALLDATALOAD PUSH1 0xE0 SHR DUP1 PUSH4 0xABB302AD GT PUSH2 0x5B JUMPI DUP1 PUSH4 0xABB302AD EQ PUSH2 0xEA JUMPI DUP1 PUSH4 0xC25A2C65 EQ PUSH2 0x199 JUMPI DUP1 PUSH4 0xD3D72617 EQ PUSH2 0x1A9 JUMPI DUP1 PUSH4 0xD5370904 EQ PUSH2 0x1BC JUMPI PUSH1 0x0 DUP1 REVERT JUMPDEST DUP1 PUSH4 0x22F3BB3E EQ PUSH2 0x82 JUMPI DUP1 PUSH4 0x47906905 EQ PUSH2 0x97 JUMPI DUP1 PUSH4 0x55673D07 EQ PUSH2 0xBD JUMPI JUMPDEST PUSH1 0x0 DUP1 REVERT JUMPDEST PUSH2 0x95 PUSH2 0x90 CALLDATASIZE PUSH1 0x4 PUSH2 0x4E8 JUMP JUMPDEST PUSH2 0x1C4 JUMP JUMPDEST STOP JUMPDEST PUSH2 0xAA PUSH2 0xA5 CALLDATASIZE PUSH1 0x4 PUSH2 0x548 JUMP JUMPDEST PUSH2 0x39A JUMP JUMPDEST PUSH1 0x40 MLOAD SWAP1 DUP2 MSTORE PUSH1 0x20 ADD JUMPDEST PUSH1 0x40 MLOAD DUP1 SWAP2 SUB SWAP1 RETURN JUMPDEST PUSH1 0x2 SLOAD PUSH2 0xD5 SWAP1 PUSH5 0x100000000 SWAP1 DIV PUSH4 0xFFFFFFFF AND DUP2 JUMP JUMPDEST PUSH1 0x40 MLOAD PUSH4 0xFFFFFFFF SWAP1 SWAP2 AND DUP2 MSTORE PUSH1 0x20 ADD PUSH2 0xB4 JUMP JUMPDEST PUSH2 0x15F PUSH2 0xF8 CALLDATASIZE PUSH1 0x4 PUSH2 0x548 JUMP JUMPDEST PUSH1 0x40 DUP1 MLOAD PUSH1 0x60 DUP1 DUP3 ADD DUP4 MSTORE PUSH1 0x0 DUP1 DUP4 MSTORE PUSH1 0x20 DUP1 DUP5 ADD DUP3 SWAP1 MSTORE SWAP3 DUP5 ADD DUP2 SWAP1 MSTORE SWAP4 DUP5 MSTORE PUSH1 0x1 DUP1 DUP4 MSTORE SWAP4 DUP4 SWAP1 KECCAK256 DUP4 MLOAD SWAP2 DUP3 ADD DUP5 MSTORE DUP1 SLOAD PUSH4 0xFFFFFFFF DUP2 AND DUP4 MSTORE PUSH5 0x100000000 SWAP1 DIV PUSH16 0xFFFFFFFFFFFFFFFFFFFFFFFFFFFFFFFF AND SWAP3 DUP3 ADD SWAP3 SWAP1 SWAP3 MSTORE SWAP3 ADD SLOAD SWAP1 DUP3 ADD MSTORE SWAP1 JUMP JUMPDEST PUSH1 0x40 DUP1 MLOAD DUP3 MLOAD PUSH4 0xFFFFFFFF AND DUP2 MSTORE PUSH1 0x20 DUP1 DUP5 ADD MLOAD PUSH16 0xFFFFFFFFFFFFFFFFFFFFFFFFFFFFFFFF AND SWAP1 DUP3 ADD MSTORE SWAP2 DUP2 ADD MLOAD SWAP1 DUP3 ADD MSTORE PUSH1 0x60 ADD PUSH2 0xB4 JUMP JUMPDEST PUSH1 0x2 SLOAD PUSH2 0xD5 SWAP1 PUSH4 0xFFFFFFFF AND DUP2 JUMP JUMPDEST PUSH2 0x95 PUSH2 0x1B7 CALLDATASIZE PUSH1 0x4 PUSH2 0x548 JUMP JUMPDEST PUSH2 0x3C1 JUMP JUMPDEST PUSH1 0x3 SLOAD PUSH2 0xAA JUMP JUMPDEST PUSH1 0x2 SLOAD PUSH4 0xFFFFFFFF SWAP1 DUP2 AND SWAP1 DUP4 AND LT ISZERO PUSH2 0x225 JUMPI PUSH1 0x40 MLOAD PUSH3 0x461BCD PUSH1 0xE5 SHL DUP2 MSTORE PUSH1 0x20 PUSH1 0x4 DUP3 ADD MSTORE PUSH1 0xD PUSH1 0x24 DUP3 ADD MSTORE PUSH32 0x507269636520746F6F206C6F7700000000000000000000000000000000000000 PUSH1 0x44 DUP3 ADD MSTORE PUSH1 0x64 ADD JUMPDEST PUSH1 0x40 MLOAD DUP1 SWAP2 SUB SWAP1 REVERT JUMPDEST PUSH1 0x2 SLOAD PUSH5 0x100000000 SWAP1 DIV PUSH4 0xFFFFFFFF AND PUSH16 0xFFFFFFFFFFFFFFFFFFFFFFFFFFFFFFFF DUP3 AND LT ISZERO PUSH2 0x297 JUMPI PUSH1 0x40 MLOAD PUSH3 0x461BCD PUSH1 0xE5 SHL DUP2 MSTORE PUSH1 0x20 PUSH1 0x4 DUP3 ADD MSTORE PUSH1 0x10 PUSH1 0x24 DUP3 ADD MSTORE PUSH32 0x4475726174696F6E20746F6F206C6F7700000000000000000000000000000000 PUSH1 0x44 DUP3 ADD MSTORE PUSH1 0x64 ADD PUSH2 0x21C JUMP JUMPDEST PUSH1 0x40 DUP1 MLOAD PUSH1 0x60 DUP2 ADD DUP3 MSTORE PUSH4 0xFFFFFFFF DUP1 DUP6 AND DUP3 MSTORE PUSH16 0xFFFFFFFFFFFFFFFFFFFFFFFFFFFFFFFF DUP1 DUP6 AND PUSH1 0x20 DUP1 DUP6 ADD SWAP2 DUP3 MSTORE TIMESTAMP DUP6 DUP8 ADD SWAP1 DUP2 MSTORE PUSH1 0x0 DUP11 DUP2 MSTORE PUSH1 0x1 SWAP3 DUP4 SWAP1 MSTORE SWAP7 SWAP1 SWAP7 KECCAK256 DUP6 MLOAD DUP2 SLOAD SWAP4 MLOAD SWAP1 SWAP5 AND PUSH5 0x100000000 MUL PUSH20 0xFFFFFFFFFFFFFFFFFFFFFFFFFFFFFFFFFFFFFFFF NOT SWAP1 SWAP4 AND SWAP4 SWAP1 SWAP5 AND SWAP3 SWAP1 SWAP3 OR OR DUP3 SSTORE SWAP3 MLOAD SWAP3 ADD SWAP2 SWAP1 SWAP2 SSTORE PUSH2 0x361 DUP5 PUSH1 0x3 DUP1 SLOAD PUSH1 0x0 DUP4 DUP2 MSTORE PUSH1 0x4 PUSH1 0x20 MSTORE PUSH1 0x40 DUP2 KECCAK256 DUP3 SWAP1 SSTORE PUSH1 0x1 DUP3 ADD DUP4 SSTORE SWAP2 SWAP1 SWAP2 MSTORE PUSH32 0xC2575A0E9E593C00F959F8C92F12DB2869C3395A3B0502D05E2516446F71F85B ADD SSTORE JUMP JUMPDEST PUSH1 0x40 MLOAD DUP5 DUP2 MSTORE PUSH32 0xC8BF25B5DC60208595C2AFECAF7A3B5852ECDB7917AB66A44DEF586C13A282A7 SWAP1 PUSH1 0x20 ADD PUSH1 0x40 MLOAD DUP1 SWAP2 SUB SWAP1 LOG1 POP POP POP POP JUMP JUMPDEST PUSH1 0x0 PUSH1 0x3 DUP3 DUP2 SLOAD DUP2 LT PUSH2 0x3AF JUMPI PUSH2 0x3AF PUSH2 0x561 JUMP JUMPDEST SWAP1 PUSH1 0x0 MSTORE PUSH1 0x20 PUSH1 0x0 KECCAK256 ADD SLOAD SWAP1 POP SWAP2 SWAP1 POP JUMP JUMPDEST PUSH2 0x3CA DUP2 PUSH2 0x400 JUMP JUMPDEST PUSH1 0x40 MLOAD DUP2 DUP2 MSTORE PUSH32 0x4EE8BDB37621A2594D4CB695CC7B6ECDDD0EAA9D9D972ACD674F3FCA50AEE7F2 SWAP1 PUSH1 0x20 ADD PUSH1 0x40 MLOAD DUP1 SWAP2 SUB SWAP1 LOG1 POP JUMP JUMPDEST PUSH1 0x0 DUP2 DUP2 MSTORE PUSH1 0x1 PUSH1 0x20 DUP2 SWAP1 MSTORE PUSH1 0x40 DUP3 KECCAK256 DUP1 SLOAD PUSH20 0xFFFFFFFFFFFFFFFFFFFFFFFFFFFFFFFFFFFFFFFF NOT AND DUP2 SSTORE ADD SSTORE PUSH2 0x436 DUP2 PUSH2 0x439 JUMP JUMPDEST POP JUMP JUMPDEST PUSH1 0x3 SLOAD PUSH1 0x0 SWAP1 PUSH2 0x44B SWAP1 PUSH1 0x1 SWAP1 PUSH2 0x577 JUMP JUMPDEST PUSH1 0x0 DUP4 DUP2 MSTORE PUSH1 0x4 PUSH1 0x20 MSTORE PUSH1 0x40 DUP2 KECCAK256 SLOAD PUSH1 0x3 DUP1 SLOAD SWAP4 SWAP5 POP SWAP1 SWAP3 DUP5 SWAP1 DUP2 LT PUSH2 0x473 JUMPI PUSH2 0x473 PUSH2 0x561 JUMP JUMPDEST SWAP1 PUSH1 0x0 MSTORE PUSH1 0x20 PUSH1 0x0 KECCAK256 ADD SLOAD SWAP1 POP DUP1 PUSH1 0x3 DUP4 DUP2 SLOAD DUP2 LT PUSH2 0x494 JUMPI PUSH2 0x494 PUSH2 0x561 JUMP JUMPDEST PUSH1 0x0 SWAP2 DUP3 MSTORE PUSH1 0x20 DUP1 DUP4 KECCAK256 SWAP1 SWAP2 ADD SWAP3 SWAP1 SWAP3 SSTORE DUP3 DUP2 MSTORE PUSH1 0x4 SWAP1 SWAP2 MSTORE PUSH1 0x40 DUP1 DUP3 KECCAK256 DUP5 SWAP1 SSTORE DUP6 DUP3 MSTORE DUP2 KECCAK256 SSTORE PUSH1 0x3 DUP1 SLOAD DUP1 PUSH2 0x4CC JUMPI PUSH2 0x4CC PUSH2 0x59E JUMP JUMPDEST PUSH1 0x1 SWAP1 SUB DUP2 DUP2 SWAP1 PUSH1 0x0 MSTORE PUSH1 0x20 PUSH1 0x0 KECCAK256 ADD PUSH1 0x0 SWAP1 SSTORE SWAP1 SSTORE POP POP POP POP JUMP JUMPDEST PUSH1 0x0 DUP1 PUSH1 0x0 PUSH1 0x60 DUP5 DUP7 SUB SLT ISZERO PUSH2 0x4FD JUMPI PUSH1 0x0 DUP1 REVERT JUMPDEST DUP4 CALLDATALOAD SWAP3 POP PUSH1 0x20 DUP5 ADD CALLDATALOAD PUSH4 0xFFFFFFFF DUP2 AND DUP2 EQ PUSH2 0x518 JUMPI PUSH1 0x0 DUP1 REVERT JUMPDEST SWAP2 POP PUSH1 0x40 DUP5 ADD CALLDATALOAD PUSH16 0xFFFFFFFFFFFFFFFFFFFFFFFFFFFFFFFF DUP2 AND DUP2 EQ PUSH2 0x53D JUMPI PUSH1 0x0 DUP1 REVERT JUMPDEST DUP1 SWAP2 POP POP SWAP3 POP SWAP3 POP SWAP3 JUMP JUMPDEST PUSH1 0x0 PUSH1 0x20 DUP3 DUP5 SUB SLT ISZERO PUSH2 0x55A JUMPI PUSH1 0x0 DUP1 REVERT JUMPDEST POP CALLDATALOAD SWAP2 SWAP1 POP JUMP JUMPDEST PUSH4 0x4E487B71 PUSH1 0xE0 SHL PUSH1 0x0 MSTORE PUSH1 0x32 PUSH1 0x4 MSTORE PUSH1 0x24 PUSH1 0x0 REVERT JUMPDEST DUP2 DUP2 SUB DUP2 DUP2 GT ISZERO PUSH2 0x598 JUMPI PUSH4 0x4E487B71 PUSH1 0xE0 SHL PUSH1 0x0 MSTORE PUSH1 0x11 PUSH1 0x4 MSTORE PUSH1 0x24 PUSH1 0x0 REVERT JUMPDEST SWAP3 SWAP2 POP POP JUMP JUMPDEST PUSH4 0x4E487B71 PUSH1 0xE0 SHL PUSH1 0x0 MSTORE PUSH1 0x31 PUSH1 0x4 MSTORE PUSH1 0x24 PUSH1 0x0 REVERT INVALID LOG2 PUSH5 0x6970667358 0x22 SLT KECCAK256 PUSH10 0xF7CA0546774E2BA25945 SWAP15 0xC5 CALLDATASIZE PUSH31 0x75DECAD562A590DEF310395CF23DC16F5564736F6C63430008110033000000 "},"methodIdentifiers":{"cancelOfferForRent(uint256)":"d3d72617","getAvailableTokenCount()":"d5370904","getAvailableTokenIdAtIndex(uint256)":"47906905","getRentingConditions(uint256)":"abb302ad","minRentDuration()":"55673d07","minRentPrice()":"c25a2c65","offerForRent(uint256,uint32,uint128)":"22f3bb3e"}},"storageLayout":{"storage":[{"astId":52,"contract":"contracts/Marketplace.sol:Marketplace","label":"_initialized","offset":0,"slot":"0","type":"t_uint8"},{"astId":55,"contract":"contracts/Marketplace.sol:Marketplace","label":"_initializing","offset":1,"slot":"0","type":"t_bool"},{"astId":3825,"contract":"contracts/Marketplace.sol:Marketplace","label":"_rentingConditions","offset":0,"slot":"1","type":"t_mapping(t_uint256,t_struct(RentingConditions)3820_storage)"},{"astId":3827,"contract":"contracts/Marketplace.sol:Marketplace","label":"minRentPrice","offset":0,"slot":"2","type":"t_uint32"},{"astId":3829,"contract":"contracts/Marketplace.sol:Marketplace","label":"minRentDuration","offset":4,"slot":"2","type":"t_uint32"},{"astId":3832,"contract":"contracts/Marketplace.sol:Marketplace","label":"_allAvailableForRenting","offset":0,"slot":"3","type":"t_array(t_uint256)dyn_storage"},{"astId":3836,"contract":"contracts/Marketplace.sol:Marketplace","label":"_allAvailableForRentingIndex","offset":0,"slot":"4","type":"t_mapping(t_uint256,t_uint256)"},{"astId":3840,"contract":"contracts/Marketplace.sol:Marketplace","label":"__gap","offset":0,"slot":"5","type":"t_array(t_uint256)49_storage"}],"types":{"t_array(t_uint256)49_storage":{"base":"t_uint256","encoding":"inplace","label":"uint256[49]","numberOfBytes":"1568"},"t_array(t_uint256)dyn_storage":{"base":"t_uint256","encoding":"dynamic_array","label":"uint256[]","numberOfBytes":"32"},"t_bool":{"encoding":"inplace","label":"bool","numberOfBytes":"1"},"t_mapping(t_uint256,t_struct(RentingConditions)3820_storage)":{"encoding":"mapping","key":"t_uint256","label":"mapping(uint256 => struct Marketplace.RentingConditions)","numberOfBytes":"32","value":"t_struct(RentingConditions)3820_storage"},"t_mapping(t_uint256,t_uint256)":{"encoding":"mapping","key":"t_uint256","label":"mapping(uint256 => uint256)","numberOfBytes":"32","value":"t_uint256"},"t_struct(RentingConditions)3820_storage":{"encoding":"inplace","label":"struct Marketplace.RentingConditions","members":[{"astId":3815,"contract":"contracts/Marketplace.sol:Marketplace","label":"price","offset":0,"slot":"0","type":"t_uint32"},{"astId":3817,"contract":"contracts/Marketplace.sol:Marketplace","label":"duration","offset":4,"slot":"0","type":"t_uint128"},{"astId":3819,"contract":"contracts/Marketplace.sol:Marketplace","label":"createdAt","offset":0,"slot":"1","type":"t_uint256"}],"numberOfBytes":"64"},"t_uint128":{"encoding":"inplace","label":"uint128","numberOfBytes":"16"},"t_uint256":{"encoding":"inplace","label":"uint256","numberOfBytes":"32"},"t_uint32":{"encoding":"inplace","label":"uint32","numberOfBytes":"4"},"t_uint8":{"encoding":"inplace","label":"uint8","numberOfBytes":"1"}}}}}}