{"contracts/Subscription.sol":{"Subscription":{"abi":[{"anonymous":false,"inputs":[{"indexed":true,"internalType":"address","name":"owner","type":"address"},{"indexed":true,"internalType":"address","name":"approved","type":"address"},{"indexed":true,"internalType":"uint256","name":"tokenId","type":"uint256"}],"name":"Approval","type":"event"},{"anonymous":false,"inputs":[{"indexed":true,"internalType":"address","name":"owner","type":"address"},{"indexed":true,"internalType":"address","name":"operator","type":"address"},{"indexed":false,"internalType":"bool","name":"approved","type":"bool"}],"name":"ApprovalForAll","type":"event"},{"anonymous":false,"inputs":[{"indexed":false,"internalType":"uint8","name":"version","type":"uint8"}],"name":"Initialized","type":"event"},{"anonymous":false,"inputs":[{"indexed":false,"internalType":"uint256","name":"tokenId","type":"uint256"}],"name":"RentOfferCancelled","type":"event"},{"anonymous":false,"inputs":[{"indexed":false,"internalType":"uint256","name":"tokenId","type":"uint256"}],"name":"RentOfferCreated","type":"event"},{"anonymous":false,"inputs":[{"indexed":true,"internalType":"address","name":"from","type":"address"},{"indexed":true,"internalType":"address","name":"to","type":"address"},{"indexed":true,"internalType":"uint256","name":"tokenId","type":"uint256"}],"name":"Transfer","type":"event"},{"anonymous":false,"inputs":[{"indexed":true,"internalType":"uint256","name":"tokenId","type":"uint256"},{"indexed":true,"internalType":"address","name":"user","type":"address"},{"indexed":false,"internalType":"uint64","name":"expires","type":"uint64"}],"name":"UpdateUser","type":"event"},{"inputs":[{"internalType":"address","name":"to","type":"address"},{"internalType":"uint256","name":"tokenId","type":"uint256"}],"name":"approve","outputs":[],"stateMutability":"nonpayable","type":"function"},{"inputs":[{"internalType":"address","name":"owner","type":"address"}],"name":"balanceOf","outputs":[{"internalType":"uint256","name":"","type":"uint256"}],"stateMutability":"view","type":"function"},{"inputs":[{"internalType":"address","name":"","type":"address"}],"name":"balances","outputs":[{"internalType":"uint256","name":"","type":"uint256"}],"stateMutability":"view","type":"function"},{"inputs":[{"internalType":"uint256","name":"tokenId","type":"uint256"}],"name":"cancelOfferForRent","outputs":[],"stateMutability":"nonpayable","type":"function"},{"inputs":[],"name":"contentSubscriptionDuration","outputs":[{"internalType":"uint32","name":"","type":"uint32"}],"stateMutability":"view","type":"function"},{"inputs":[],"name":"contentSubscriptionPrice","outputs":[{"internalType":"uint32","name":"","type":"uint32"}],"stateMutability":"view","type":"function"},{"inputs":[{"internalType":"uint256","name":"tokenId","type":"uint256"}],"name":"expiresAt","outputs":[{"internalType":"uint256","name":"","type":"uint256"}],"stateMutability":"view","type":"function"},{"inputs":[{"internalType":"uint256","name":"tokenId","type":"uint256"}],"name":"getApproved","outputs":[{"internalType":"address","name":"","type":"address"}],"stateMutability":"view","type":"function"},{"inputs":[],"name":"getAvailableTokenCount","outputs":[{"internalType":"uint256","name":"","type":"uint256"}],"stateMutability":"view","type":"function"},{"inputs":[{"internalType":"uint256","name":"index","type":"uint256"}],"name":"getAvailableTokenIdAtIndex","outputs":[{"internalType":"uint256","name":"","type":"uint256"}],"stateMutability":"view","type":"function"},{"inputs":[{"internalType":"uint256","name":"tokenId","type":"uint256"}],"name":"getRentingConditions","outputs":[{"components":[{"internalType":"uint32","name":"price","type":"uint32"},{"internalType":"uint128","name":"duration","type":"uint128"},{"internalType":"uint256","name":"createdAt","type":"uint256"}],"internalType":"struct Marketplace.RentingConditions","name":"","type":"tuple"}],"stateMutability":"view","type":"function"},{"inputs":[{"internalType":"string","name":"name_","type":"string"},{"internalType":"string","name":"symbol_","type":"string"},{"internalType":"uint32","name":"contentSubscriptionPrice_","type":"uint32"},{"internalType":"uint32","name":"contentSubscriptionDuration_","type":"uint32"},{"internalType":"uint32","name":"minRentPrice_","type":"uint32"},{"internalType":"uint32","name":"minRentDuration_","type":"uint32"},{"internalType":"address","name":"contentProvider_","type":"address"},{"internalType":"address","name":"marketplaceProvider_","type":"address"},{"internalType":"address","name":"priceFeedAddress_","type":"address"},{"internalType":"string","name":"baseUri_","type":"string"}],"name":"initialize","outputs":[],"stateMutability":"nonpayable","type":"function"},{"inputs":[{"internalType":"address","name":"owner","type":"address"},{"internalType":"address","name":"operator","type":"address"}],"name":"isApprovedForAll","outputs":[{"internalType":"bool","name":"","type":"bool"}],"stateMutability":"view","type":"function"},{"inputs":[],"name":"minRentDuration","outputs":[{"internalType":"uint32","name":"","type":"uint32"}],"stateMutability":"view","type":"function"},{"inputs":[],"name":"minRentPrice","outputs":[{"internalType":"uint32","name":"","type":"uint32"}],"stateMutability":"view","type":"function"},{"inputs":[],"name":"mint","outputs":[],"stateMutability":"payable","type":"function"},{"inputs":[],"name":"name","outputs":[{"internalType":"string","name":"","type":"string"}],"stateMutability":"view","type":"function"},{"inputs":[{"internalType":"uint256","name":"tokenId","type":"uint256"},{"internalType":"uint32","name":"price","type":"uint32"},{"internalType":"uint128","name":"duration","type":"uint128"}],"name":"offerForRent","outputs":[],"stateMutability":"nonpayable","type":"function"},{"inputs":[{"internalType":"uint256","name":"tokenId","type":"uint256"}],"name":"ownerOf","outputs":[{"internalType":"address","name":"","type":"address"}],"stateMutability":"view","type":"function"},{"inputs":[{"internalType":"uint256","name":"tokenId","type":"uint256"}],"name":"reclaim","outputs":[],"stateMutability":"nonpayable","type":"function"},{"inputs":[{"internalType":"uint256","name":"tokenId","type":"uint256"}],"name":"rent","outputs":[],"stateMutability":"payable","type":"function"},{"inputs":[{"internalType":"address","name":"","type":"address"},{"internalType":"address","name":"","type":"address"},{"internalType":"uint256","name":"","type":"uint256"}],"name":"safeTransferFrom","outputs":[],"stateMutability":"pure","type":"function"},{"inputs":[{"internalType":"address","name":"","type":"address"},{"internalType":"address","name":"","type":"address"},{"internalType":"uint256","name":"","type":"uint256"},{"internalType":"bytes","name":"","type":"bytes"}],"name":"safeTransferFrom","outputs":[],"stateMutability":"pure","type":"function"},{"inputs":[{"internalType":"address","name":"operator","type":"address"},{"internalType":"bool","name":"approved","type":"bool"}],"name":"setApprovalForAll","outputs":[],"stateMutability":"nonpayable","type":"function"},{"inputs":[{"internalType":"uint256","name":"tokenId","type":"uint256"},{"internalType":"address","name":"user","type":"address"},{"internalType":"uint64","name":"expires","type":"uint64"}],"name":"setUser","outputs":[],"stateMutability":"nonpayable","type":"function"},{"inputs":[{"internalType":"bytes4","name":"interfaceId","type":"bytes4"}],"name":"supportsInterface","outputs":[{"internalType":"bool","name":"","type":"bool"}],"stateMutability":"view","type":"function"},{"inputs":[],"name":"symbol","outputs":[{"internalType":"string","name":"","type":"string"}],"stateMutability":"view","type":"function"},{"inputs":[{"internalType":"uint256","name":"index","type":"uint256"}],"name":"tokenByIndex","outputs":[{"internalType":"uint256","name":"","type":"uint256"}],"stateMutability":"view","type":"function"},{"inputs":[{"internalType":"address","name":"owner","type":"address"},{"internalType":"uint256","name":"index","type":"uint256"}],"name":"tokenOfOwnerByIndex","outputs":[{"internalType":"uint256","name":"","type":"uint256"}],"stateMutability":"view","type":"function"},{"inputs":[{"internalType":"address","name":"user","type":"address"},{"internalType":"uint256","name":"index","type":"uint256"}],"name":"tokenOfUserByIndex","outputs":[{"internalType":"uint256","name":"","type":"uint256"}],"stateMutability":"view","type":"function"},{"inputs":[{"internalType":"uint256","name":"tokenId","type":"uint256"}],"name":"tokenURI","outputs":[{"internalType":"string","name":"","type":"string"}],"stateMutability":"view","type":"function"},{"inputs":[],"name":"totalSupply","outputs":[{"internalType":"uint256","name":"","type":"uint256"}],"stateMutability":"view","type":"function"},{"inputs":[{"internalType":"address","name":"","type":"address"},{"internalType":"address","name":"","type":"address"},{"internalType":"uint256","name":"","type":"uint256"}],"name":"transferFrom","outputs":[],"stateMutability":"pure","type":"function"},{"inputs":[{"internalType":"address","name":"user","type":"address"}],"name":"usedBalanceOf","outputs":[{"internalType":"uint256","name":"","type":"uint256"}],"stateMutability":"view","type":"function"},{"inputs":[{"internalType":"uint256","name":"tokenId","type":"uint256"}],"name":"userExpires","outputs":[{"internalType":"uint256","name":"","type":"uint256"}],"stateMutability":"view","type":"function"},{"inputs":[{"internalType":"uint256","name":"tokenId","type":"uint256"}],"name":"userOf","outputs":[{"internalType":"address","name":"","type":"address"}],"stateMutability":"view","type":"function"},{"inputs":[],"name":"withdraw","outputs":[],"stateMutability":"nonpayable","type":"function"}],"evm":{"bytecode":{"linkReferences":{},"object":"608060405234801561001057600080fd5b50613b53806100206000396000f3fe60806040526004361061026a5760003560e01c80634f6ccce711610153578063a22cb465116100cb578063c87b56dd1161007f578063d537090411610064578063d53709041461078a578063e030565e146107a0578063e985e9c5146107c057600080fd5b8063c87b56dd1461074a578063d3d726171461076a57600080fd5b8063b88d4fde116100b0578063b88d4fde146106db578063c25a2c65146106f6578063c2f1f14a1461071457600080fd5b8063a22cb46514610610578063abb302ad1461063057600080fd5b806363dd96c4116101225780637456be7d116101075780637456be7d146105aa5780638fc88c48146105bd57806395d89b41146105fb57600080fd5b806363dd96c41461056c57806370a082311461058a57600080fd5b80634f6ccce7146104e657806355673d07146105065780635f3fd7bc1461052c5780636352211e1461054c57600080fd5b8063227773c0116101e65780632dabbeed116101b55780633ccfd60b1161019a5780633ccfd60b146104b157806342842e0e1461042357806347906905146104c657600080fd5b80632dabbeed146104715780632f745c591461049157600080fd5b8063227773c0146103cd57806322f3bb3e1461040357806323b872dd1461042357806327e235e31461044357600080fd5b806311daca271161023d57806317c957091161022257806317c957091461035b57806318160ddd146103975780631d350ef8146103ad57600080fd5b806311daca27146103205780631249c58b1461035357600080fd5b806301ffc9a71461026f57806306fdde03146102a4578063081812fc146102c6578063095ea7b3146102fe575b600080fd5b34801561027b57600080fd5b5061028f61028a366004613197565b610809565b60405190151581526020015b60405180910390f35b3480156102b057600080fd5b506102b961081a565b60405161029b9190613204565b3480156102d257600080fd5b506102e66102e1366004613217565b6108ac565b6040516001600160a01b03909116815260200161029b565b34801561030a57600080fd5b5061031e61031936600461324c565b6108d3565b005b34801561032c57600080fd5b506101685461033e9063ffffffff1681565b60405163ffffffff909116815260200161029b565b61031e610a09565b34801561036757600080fd5b50610389610376366004613217565b6000908152610169602052604090205490565b60405190815260200161029b565b3480156103a357600080fd5b5061010154610389565b3480156103b957600080fd5b506103896103c836600461324c565b610cff565b3480156103d957600080fd5b506103896103e8366004613276565b6001600160a01b0316600090815260cd602052604090205490565b34801561040f57600080fd5b5061031e61041e3660046132a5565b610db5565b34801561042f57600080fd5b5061031e61043e3660046132f1565b610f27565b34801561044f57600080fd5b5061038961045e366004613276565b61016c6020526000908152604090205481565b34801561047d57600080fd5b5061031e61048c366004613217565b610f6f565b34801561049d57600080fd5b506103896104ac36600461324c565b610f7e565b3480156104bd57600080fd5b5061031e611014565b3480156104d257600080fd5b506103896104e1366004613217565b61111e565b3480156104f257600080fd5b50610389610501366004613217565b611146565b34801561051257600080fd5b506101325461033e90640100000000900463ffffffff1681565b34801561053857600080fd5b5061031e610547366004613422565b6111da565b34801561055857600080fd5b506102e6610567366004613217565b6113cd565b34801561057857600080fd5b5061016a5461033e9063ffffffff1681565b34801561059657600080fd5b506103896105a5366004613276565b611432565b61031e6105b8366004613217565b6114cc565b3480156105c957600080fd5b506103896105d8366004613217565b600090815260976020526040902054600160a01b900467ffffffffffffffff1690565b34801561060757600080fd5b506102b9611620565b34801561061c57600080fd5b5061031e61062b36600461353b565b61162f565b34801561063c57600080fd5b506106aa61064b366004613217565b60408051606080820183526000808352602080840182905292840181905293845261013182529282902082519384018352805463ffffffff8116855264010000000090046001600160801b031691840191909152600101549082015290565b60408051825163ffffffff1681526020808401516001600160801b031690820152918101519082015260600161029b565b3480156106e757600080fd5b5061031e61043e366004613577565b34801561070257600080fd5b506101325461033e9063ffffffff1681565b34801561072057600080fd5b506102e661072f366004613217565b6000908152609760205260409020546001600160a01b031690565b34801561075657600080fd5b506102b9610765366004613217565b61163a565b34801561077657600080fd5b5061031e610785366004613217565b61166b565b34801561079657600080fd5b5061013354610389565b3480156107ac57600080fd5b5061031e6107bb3660046135f3565b6116d8565b3480156107cc57600080fd5b5061028f6107db366004613635565b6001600160a01b039182166000908152606a6020908152604080832093909416825291909152205460ff1690565b60006108148261183b565b92915050565b60606065805461082990613668565b80601f016020809104026020016040519081016040528092919081815260200182805461085590613668565b80156108a25780601f10610877576101008083540402835291602001916108a2565b820191906000526020600020905b81548152906001019060200180831161088557829003601f168201915b5050505050905090565b60006108b782611879565b506000908152606960205260409020546001600160a01b031690565b60006108de826113cd565b9050806001600160a01b0316836001600160a01b03160361096c5760405162461bcd60e51b815260206004820152602160248201527f4552433732313a20617070726f76616c20746f2063757272656e74206f776e6560448201527f720000000000000000000000000000000000000000000000000000000000000060648201526084015b60405180910390fd5b336001600160a01b0382161480610988575061098881336107db565b6109fa5760405162461bcd60e51b815260206004820152603d60248201527f4552433732313a20617070726f76652063616c6c6572206973206e6f7420746f60448201527f6b656e206f776e6572206f7220617070726f76656420666f7220616c6c0000006064820152608401610963565b610a0483836118dd565b505050565b6101665460408051633fabe5a360e21b815290516000926001600160a01b03169163feaf968c9160048083019260a09291908290030181865afa158015610a54573d6000803e3d6000fd5b505050506040513d601f19601f82011682018060405250810190610a7891906136bc565b50505091505060008113610a8e57610a8e61370c565b610166546040805163313ce56760e01b815290516000926001600160a01b03169163313ce5679160048083019260209291908290030181865afa158015610ad9573d6000803e3d6000fd5b505050506040513d601f19601f82011682018060405250810190610afd9190613722565b905060006064610b0e83600a61383f565b610b18908561384e565b61016a54610b349063ffffffff16670de0b6b3a7640000613870565b610b3e919061384e565b610b48919061384e565b61016a549091506000906103e890610b6b90640100000000900460ff1682613887565b610b799061ffff1684613870565b610b83919061384e565b61016a549091506000906103e890610ba690640100000000900460ff16826138a9565b610bb49061ffff1685613870565b610bbe919061384e565b9050813410158015610bd05750803411155b610c1c5760405162461bcd60e51b815260206004820152601160248201527f546f6f206d75636820736c6970706167650000000000000000000000000000006044820152606401610963565b60006103e8610c2c601934613870565b610c36919061384e565b90506000610c4482346138c4565b61016b546001600160a01b0316600090815261016c6020526040812080549293508492909190610c759084906138d7565b909155505061016a546501000000000090046001600160a01b0316600090815261016c602052604081208054839290610caf9084906138d7565b90915550506101675461016854610ccc9063ffffffff16426138d7565b60008281526101696020526040902055610ce6338261194b565b610cf561016780546001019055565b5050505050505050565b6001600160a01b038216600090815260cd60205260408120548210610d7a5760405162461bcd60e51b815260206004820152602b60248201527f45524334393037456e756d657261626c653a207573657220696e646578206f7560448201526a74206f6620626f756e647360a81b6064820152608401610963565b6001600160a01b038316600090815260c96020908152604080832085845290915281205490819003610dae57610dae61370c565b9392505050565b610dc0335b84611965565b610e1a5760405162461bcd60e51b815260206004820152602560248201527f43616c6c6572206973206e6f7420746f6b656e206f776e6572206f72206170706044820152641c9bdd995960da1b6064820152608401610963565b6000838152609760205260409020546001600160a01b031615610e6e5760405162461bcd60e51b815260206004820152600c60248201526b105b1c9958591e481d5cd95960a21b6044820152606401610963565b6000610e836001600160801b038316426138d7565b6000858152610169602052604090205490915067ffffffffffffffff82168111610f155760405162461bcd60e51b815260206004820152602c60248201527f537562736372697074696f6e2077696c6c20657870697265206265666f72652060448201527f72656e74206578706972657300000000000000000000000000000000000000006064820152608401610963565b610f208585856119e4565b5050505050565b60405162461bcd60e51b815260206004820152600b60248201527f4e6f7420616c6c6f7765640000000000000000000000000000000000000000006044820152606401610963565b610f7b816000806116d8565b50565b6000610f8983611432565b8210610feb5760405162461bcd60e51b815260206004820152602b60248201527f455243373231456e756d657261626c653a206f776e657220696e646578206f7560448201526a74206f6620626f756e647360a81b6064820152608401610963565b506001600160a01b0391909116600090815260ff60209081526040808320938352929052205490565b33600090815261016c6020526040902054806110725760405162461bcd60e51b815260206004820152601360248201527f4e6f7468696e6720746f207769746864726177000000000000000000000000006044820152606401610963565b33600081815261016c60205260408082208290555190919083908381818185875af1925050503d80600081146110c4576040519150601f19603f3d011682016040523d82523d6000602084013e6110c9565b606091505b505090508061111a5760405162461bcd60e51b815260206004820152601460248201527f4661696c656420746f2073656e642045746865720000000000000000000000006044820152606401610963565b5050565b60006101338281548110611134576111346138ea565b90600052602060002001549050919050565b60006111526101015490565b82106111c65760405162461bcd60e51b815260206004820152602c60248201527f455243373231456e756d657261626c653a20676c6f62616c20696e646578206f60448201527f7574206f6620626f756e647300000000000000000000000000000000000000006064820152608401610963565b6101018281548110611134576111346138ea565b600054610100900460ff16158080156111fa5750600054600160ff909116105b806112145750303b158015611214575060005460ff166001145b6112865760405162461bcd60e51b815260206004820152602e60248201527f496e697469616c697a61626c653a20636f6e747261637420697320616c72656160448201527f647920696e697469616c697a65640000000000000000000000000000000000006064820152608401610963565b6000805460ff1916600117905580156112a9576000805461ff0019166101001790555b6112b58d8d8d8d611b92565b6112bf8787611c09565b61016a8054610168805463ffffffff191663ffffffff8c81169190911790915561016b80546001600160a01b03199081166001600160a01b038a8116919091179092556101668054909116888316179055908c167fffffffffffffff0000000000000000000000000000000000000000ff000000009092169190911765010000000000918816919091021764ff00000000191664050000000017905561016d611368838261394e565b5061137861016780546001019055565b80156113be576000805461ff0019169055604051600181527f7f26b83ff96e1f2b6a682f133852f6798a09c465da95921460cefb38474024989060200160405180910390a15b50505050505050505050505050565b6000818152606760205260408120546001600160a01b0316806108145760405162461bcd60e51b815260206004820152601860248201527f4552433732313a20696e76616c696420746f6b656e20494400000000000000006044820152606401610963565b60006001600160a01b0382166114b05760405162461bcd60e51b815260206004820152602960248201527f4552433732313a2061646472657373207a65726f206973206e6f74206120766160448201527f6c6964206f776e657200000000000000000000000000000000000000000000006064820152608401610963565b506001600160a01b031660009081526068602052604090205490565b6000818152610131602090815260408083208151606081018352815463ffffffff8116825264010000000090046001600160801b031693810193909352600101549082018190529091036115625760405162461bcd60e51b815260206004820152601960248201527f4e6f7420617661696c61626c6520666f722072656e74696e67000000000000006044820152606401610963565b600081602001516001600160801b03164261157d91906138d7565b6000848152610169602052604090205490915067ffffffffffffffff8216811161160f5760405162461bcd60e51b815260206004820152602860248201527f537562736372697074696f6e2065787069726573206265666f72652072656e7460448201527f20657870697265730000000000000000000000000000000000000000000000006064820152608401610963565b61161a8433846116d8565b50505050565b60606066805461082990613668565b61111a338383611ca5565b606061164582611d73565b6040516020016116559190613a0e565b6040516020818303038152906040529050919050565b6116753382611965565b6116cf5760405162461bcd60e51b815260206004820152602560248201527f43616c6c6572206973206e6f7420746f6b656e206f776e6572206f72206170706044820152641c9bdd995960da1b6064820152608401610963565b610f7b81611dd9565b6116e1836113cd565b6001600160a01b0316826001600160a01b0316036117415760405162461bcd60e51b815260206004820152601960248201527f43616e6e6f742075736520796f7572206f776e20746f6b656e000000000000006044820152606401610963565b600083815260976020526040902054600160a01b900467ffffffffffffffff1642101561179f5760405162461bcd60e51b815260206004820152600c60248201526b105b1c9958591e481d5cd95960a21b6044820152606401610963565b6001600160a01b038216611815576117b633610dba565b6118105760405162461bcd60e51b815260206004820152602560248201527f43616c6c6572206973206e6f7420746f6b656e206f776e6572206f72206170706044820152641c9bdd995960da1b6064820152608401610963565b611830565b61181e83611e18565b611827836120c7565b611830836121c5565b610a048383836121ef565b60006001600160e01b031982167f780e9d63000000000000000000000000000000000000000000000000000000001480610814575061081482612277565b6000818152606760205260409020546001600160a01b0316610f7b5760405162461bcd60e51b815260206004820152601860248201527f4552433732313a20696e76616c696420746f6b656e20494400000000000000006044820152606401610963565b600081815260696020526040902080546001600160a01b0319166001600160a01b0384169081179091558190611912826113cd565b6001600160a01b03167f8c5be1e5ebec7d5bd14f71427d1e84f3dd0314c0f7b2291e5b200ac8c7c3b92560405160405180910390a45050565b61111a8282604051806020016040528060008152506122b5565b600080611971836113cd565b9050806001600160a01b0316846001600160a01b031614806119b857506001600160a01b038082166000908152606a602090815260408083209388168352929052205460ff165b806119dc5750836001600160a01b03166119d1846108ac565b6001600160a01b0316145b949350505050565b6101325463ffffffff9081169083161015611a415760405162461bcd60e51b815260206004820152600d60248201527f507269636520746f6f206c6f77000000000000000000000000000000000000006044820152606401610963565b61013254640100000000900463ffffffff166001600160801b0382161015611aab5760405162461bcd60e51b815260206004820152601060248201527f4475726174696f6e20746f6f206c6f77000000000000000000000000000000006044820152606401610963565b6040805160608101825263ffffffff84811682526001600160801b0384811660208085019182524285870190815260008a8152610131835287812087518154955197166001600160a01b031990951694909417640100000000969095169590950293909317825591516001918201556101338054610134909352948320829055810184559290527f92e985329fb94cc1b424ebb0f7f2929b6d27383ca94c0ec71c44fb48bdf96d2c9091018490556040518481527fc8bf25b5dc60208595c2afecaf7a3b5852ecdb7917ab66a44def586c13a282a79060200160405180910390a150505050565b600054610100900460ff16611bfd5760405162461bcd60e51b815260206004820152602b60248201527f496e697469616c697a61626c653a20636f6e7472616374206973206e6f74206960448201526a6e697469616c697a696e6760a81b6064820152608401610963565b61161a8484848461233e565b600054610100900460ff16611c745760405162461bcd60e51b815260206004820152602b60248201527f496e697469616c697a61626c653a20636f6e7472616374206973206e6f74206960448201526a6e697469616c697a696e6760a81b6064820152608401610963565b610132805463ffffffff9283166401000000000267ffffffffffffffff199091169290931691909117919091179055565b816001600160a01b0316836001600160a01b031603611d065760405162461bcd60e51b815260206004820152601960248201527f4552433732313a20617070726f766520746f2063616c6c6572000000000000006044820152606401610963565b6001600160a01b038381166000818152606a6020908152604080832094871680845294825291829020805460ff191686151590811790915591519182527f17307eab39ab6107e8899845ad3d59bd9653f200f220920489ca2b5937696c31910160405180910390a3505050565b6060611d7e82611879565b6000611d8861241c565b90506000815111611da85760405180602001604052806000815250610dae565b80611db28461242c565b604051602001611dc3929190613a4f565b6040516020818303038152906040529392505050565b611de2816121c5565b6040518181527f4ee8bdb37621a2594d4cb695cc7b6ecddd0eaa9d9d972acd674f3fca50aee7f29060200160405180910390a150565b60003411611e685760405162461bcd60e51b815260206004820152601160248201527f4e6f2076616c75652072656365697665640000000000000000000000000000006044820152606401610963565b6000818152610131602090815260408083208151606081018352815463ffffffff8116825264010000000090046001600160801b0316938101939093526001015482820152610166548151633fabe5a360e21b815291519293926001600160a01b039091169163feaf968c9160048083019260a09291908290030181865afa158015611ef8573d6000803e3d6000fd5b505050506040513d601f19601f82011682018060405250810190611f1c91906136bc565b50505091505060008113611f3257611f3261370c565b610166546040805163313ce56760e01b815290516000926001600160a01b03169163313ce5679160048083019260209291908290030181865afa158015611f7d573d6000803e3d6000fd5b505050506040513d601f19601f82011682018060405250810190611fa19190613722565b905060006064611fb283600a61383f565b611fbc908561384e565b8551611fd69063ffffffff16670de0b6b3a7640000613870565b611fe0919061384e565b611fea919061384e565b61016a549091506000906103e89061200d90640100000000900460ff1682613887565b61201b9061ffff1684613870565b612025919061384e565b61016a549091506000906103e89061204890640100000000900460ff16826138a9565b6120569061ffff1685613870565b612060919061384e565b90508134101580156120725750803411155b6120be5760405162461bcd60e51b815260206004820152601160248201527f546f6f206d75636820736c6970706167650000000000000000000000000000006044820152606401610963565b50505050505050565b60006120d2826113cd565b9050600060646120e3600f34613870565b6120ed919061384e565b9050600060646120fe600f34613870565b612108919061384e565b9050600061211682846138d7565b61212090346138c4565b61016a546501000000000090046001600160a01b0316600090815261016c602052604081208054929350859290919061215a9084906138d7565b909155505061016b546001600160a01b0316600090815261016c60205260408120805484929061218b9084906138d7565b90915550506001600160a01b038416600090815261016c6020526040812080548392906121b99084906138d7565b90915550505050505050565b60008181526101316020526040812080546001600160a01b031916815560010155610f7b816124cc565b6121f98284612581565b6001600160a01b03821615612236576001600160a01b038216600090815260cd6020526040812080549161222c83613a7e565b919050555061226c565b6000838152609760209081526040808320546001600160a01b0316835260cd909152812080549161226683613a97565b91905055505b610a0483838361263f565b60006001600160e01b031982167fad092b5c000000000000000000000000000000000000000000000000000000001480610814575061081482612788565b6122bf8383612823565b6122cc60008484846129bc565b610a045760405162461bcd60e51b815260206004820152603260248201527f4552433732313a207472616e7366657220746f206e6f6e20455243373231526560448201527f63656976657220696d706c656d656e74657200000000000000000000000000006064820152608401610963565b600054610100900460ff166123a95760405162461bcd60e51b815260206004820152602b60248201527f496e697469616c697a61626c653a20636f6e7472616374206973206e6f74206960448201526a6e697469616c697a696e6760a81b6064820152608401610963565b61161a84848080601f01602080910402602001604051908101604052809392919081815260200183838082843760009201919091525050604080516020601f88018190048102820181019092528681529250869150859081908401838280828437600092019190915250612b1392505050565b606061016d805461082990613668565b6060600061243983612b88565b600101905060008167ffffffffffffffff81111561245957612459613376565b6040519080825280601f01601f191660200182016040528015612483576020820181803683370190505b5090508181016020015b600019017f3031323334353637383961626364656600000000000000000000000000000000600a86061a8153600a850494508461248d57509392505050565b610133546000906124df906001906138c4565b600083815261013460205260408120546101338054939450909284908110612509576125096138ea565b9060005260206000200154905080610133838154811061252b5761252b6138ea565b6000918252602080832090910192909255828152610134909152604080822084905585825281205561013380548061256557612565613aae565b6001900381819060005260206000200160009055905550505050565b6001600160a01b0382166125ba5761259881612c6a565b60008181526097602052604090205461111a906001600160a01b031682612cfd565b6126028160cb8054600083815260cc60205260408120829055600182018355919091527fa7ce836d032b2bf62b7e2097a8e0a6d8aeb35405ad15271e96d3b0188a1d06fb0155565b6001600160a01b0391909116600090815260cd602090815260408083205460c98352818420818552835281842085905593835260ca909152902055565b6001600160a01b038216156126a757428167ffffffffffffffff16116126a75760405162461bcd60e51b815260206004820152601160248201527f457870697265642074696d657374616d700000000000000000000000000000006044820152606401610963565b600083815260976020526040902080546001600160a01b0319166001600160a01b03841690811782556126ff5780547fffffffff0000000000000000ffffffffffffffffffffffffffffffffffffffff168155612738565b80547fffffffff0000000000000000ffffffffffffffffffffffffffffffffffffffff16600160a01b67ffffffffffffffff8416021781555b60405167ffffffffffffffff831681526001600160a01b0384169085907f4e06b4e7000e659094299b3533b47b6aa8ad048e95e872d23d1f4ee55af89cfe9060200160405180910390a350505050565b60006001600160e01b031982167f80ac58cd0000000000000000000000000000000000000000000000000000000014806127eb57506001600160e01b031982167f5b5e139f00000000000000000000000000000000000000000000000000000000145b8061081457507f01ffc9a7000000000000000000000000000000000000000000000000000000006001600160e01b0319831614610814565b6001600160a01b0382166128795760405162461bcd60e51b815260206004820181905260248201527f4552433732313a206d696e7420746f20746865207a65726f20616464726573736044820152606401610963565b6000818152606760205260409020546001600160a01b0316156128de5760405162461bcd60e51b815260206004820152601c60248201527f4552433732313a20746f6b656e20616c7265616479206d696e746564000000006044820152606401610963565b6128ec600083836001612da8565b6000818152606760205260409020546001600160a01b0316156129515760405162461bcd60e51b815260206004820152601c60248201527f4552433732313a20746f6b656e20616c7265616479206d696e746564000000006044820152606401610963565b6001600160a01b038216600081815260686020908152604080832080546001019055848352606790915280822080546001600160a01b0319168417905551839291907fddf252ad1be2c89b69c2b068fc378daa952ba7f163c4a11628f55a4df523b3ef908290a45050565b60006001600160a01b0384163b15612b0857604051630a85bd0160e11b81526001600160a01b0385169063150b7a0290612a00903390899088908890600401613ac4565b6020604051808303816000875af1925050508015612a3b575060408051601f3d908101601f19168201909252612a3891810190613b00565b60015b612aee573d808015612a69576040519150601f19603f3d011682016040523d82523d6000602084013e612a6e565b606091505b508051600003612ae65760405162461bcd60e51b815260206004820152603260248201527f4552433732313a207472616e7366657220746f206e6f6e20455243373231526560448201527f63656976657220696d706c656d656e74657200000000000000000000000000006064820152608401610963565b805181602001fd5b6001600160e01b031916630a85bd0160e11b1490506119dc565b506001949350505050565b600054610100900460ff16612b7e5760405162461bcd60e51b815260206004820152602b60248201527f496e697469616c697a61626c653a20636f6e7472616374206973206e6f74206960448201526a6e697469616c697a696e6760a81b6064820152608401610963565b61111a8282612db4565b6000807a184f03e93ff9f4daa797ed6e38ed64bf6a1f0100000000000000008310612bd1577a184f03e93ff9f4daa797ed6e38ed64bf6a1f010000000000000000830492506040015b6d04ee2d6d415b85acef81000000008310612bfd576d04ee2d6d415b85acef8100000000830492506020015b662386f26fc100008310612c1b57662386f26fc10000830492506010015b6305f5e1008310612c33576305f5e100830492506008015b6127108310612c4757612710830492506004015b60648310612c59576064830492506002015b600a83106108145760010192915050565b60cb54600090612c7c906001906138c4565b600083815260cc602052604081205460cb8054939450909284908110612ca457612ca46138ea565b906000526020600020015490508060cb8381548110612cc557612cc56138ea565b600091825260208083209091019290925582815260cc909152604080822084905585825281205560cb80548061256557612565613aae565b6001600160a01b038216600090815260cd6020526040812054612d22906001906138c4565b600083815260ca6020526040902054909150808214612d75576001600160a01b038416600090815260c960209081526040808320858452825280832054848452818420819055835260ca90915290208190555b50600091825260ca602090815260408084208490556001600160a01b03909416835260c981528383209183525290812055565b61161a84848484612e38565b600054610100900460ff16612e1f5760405162461bcd60e51b815260206004820152602b60248201527f496e697469616c697a61626c653a20636f6e7472616374206973206e6f74206960448201526a6e697469616c697a696e6760a81b6064820152608401610963565b6065612e2b838261394e565b506066610a04828261394e565b612e4484848484612f7b565b6001811115612ebb5760405162461bcd60e51b815260206004820152603560248201527f455243373231456e756d657261626c653a20636f6e736563757469766520747260448201527f616e7366657273206e6f7420737570706f7274656400000000000000000000006064820152608401610963565b816001600160a01b038516612f1957612f14816101018054600083815261010260205260408120829055600182018355919091527f109ea3cebb188b9c1b9fc5bb3920be60dfdc8699098dff92f3d80daaca7476890155565b612f3c565b836001600160a01b0316856001600160a01b031614612f3c57612f3c8582613003565b6001600160a01b038416612f5857612f53816130a3565b610f20565b846001600160a01b0316846001600160a01b031614610f2057610f20848261313c565b600181111561161a576001600160a01b03841615612fc1576001600160a01b03841660009081526068602052604081208054839290612fbb9084906138c4565b90915550505b6001600160a01b0383161561161a576001600160a01b03831660009081526068602052604081208054839290612ff89084906138d7565b909155505050505050565b6000600161301084611432565b61301a91906138c4565b6000838152610100602052604090205490915080821461306f576001600160a01b038416600090815260ff60209081526040808320858452825280832054848452818420819055835261010090915290208190555b506000918252610100602090815260408084208490556001600160a01b03909416835260ff81528383209183525290812055565b610101546000906130b6906001906138c4565b6000838152610102602052604081205461010180549394509092849081106130e0576130e06138ea565b90600052602060002001549050806101018381548110613102576131026138ea565b6000918252602080832090910192909255828152610102909152604080822084905585825281205561010180548061256557612565613aae565b600061314783611432565b6001600160a01b03909316600090815260ff6020908152604080832086845282528083208590559382526101009052919091209190915550565b6001600160e01b031981168114610f7b57600080fd5b6000602082840312156131a957600080fd5b8135610dae81613181565b60005b838110156131cf5781810151838201526020016131b7565b50506000910152565b600081518084526131f08160208601602086016131b4565b601f01601f19169290920160200192915050565b602081526000610dae60208301846131d8565b60006020828403121561322957600080fd5b5035919050565b80356001600160a01b038116811461324757600080fd5b919050565b6000806040838503121561325f57600080fd5b61326883613230565b946020939093013593505050565b60006020828403121561328857600080fd5b610dae82613230565b803563ffffffff8116811461324757600080fd5b6000806000606084860312156132ba57600080fd5b833592506132ca60208501613291565b915060408401356001600160801b03811681146132e657600080fd5b809150509250925092565b60008060006060848603121561330657600080fd5b61330f84613230565b925061331d60208501613230565b9150604084013590509250925092565b60008083601f84011261333f57600080fd5b50813567ffffffffffffffff81111561335757600080fd5b60208301915083602082850101111561336f57600080fd5b9250929050565b634e487b7160e01b600052604160045260246000fd5b600067ffffffffffffffff808411156133a7576133a7613376565b604051601f8501601f19908116603f011681019082821181831017156133cf576133cf613376565b816040528093508581528686860111156133e857600080fd5b858560208301376000602087830101525050509392505050565b600082601f83011261341357600080fd5b610dae8383356020850161338c565b6000806000806000806000806000806000806101408d8f03121561344557600080fd5b67ffffffffffffffff8d35111561345b57600080fd5b6134688e8e358f0161332d565b909c509a5067ffffffffffffffff60208e0135111561348657600080fd5b6134968e60208f01358f0161332d565b909a5098506134a760408e01613291565b97506134b560608e01613291565b96506134c360808e01613291565b95506134d160a08e01613291565b94506134df60c08e01613230565b93506134ed60e08e01613230565b92506134fc6101008e01613230565b915067ffffffffffffffff6101208e0135111561351857600080fd5b6135298e6101208f01358f01613402565b90509295989b509295989b509295989b565b6000806040838503121561354e57600080fd5b61355783613230565b91506020830135801515811461356c57600080fd5b809150509250929050565b6000806000806080858703121561358d57600080fd5b61359685613230565b93506135a460208601613230565b925060408501359150606085013567ffffffffffffffff8111156135c757600080fd5b8501601f810187136135d857600080fd5b6135e78782356020840161338c565b91505092959194509250565b60008060006060848603121561360857600080fd5b8335925061361860208501613230565b9150604084013567ffffffffffffffff811681146132e657600080fd5b6000806040838503121561364857600080fd5b61365183613230565b915061365f60208401613230565b90509250929050565b600181811c9082168061367c57607f821691505b60208210810361369c57634e487b7160e01b600052602260045260246000fd5b50919050565b805169ffffffffffffffffffff8116811461324757600080fd5b600080600080600060a086880312156136d457600080fd5b6136dd866136a2565b9450602086015193506040860151925060608601519150613700608087016136a2565b90509295509295909350565b634e487b7160e01b600052600160045260246000fd5b60006020828403121561373457600080fd5b815160ff81168114610dae57600080fd5b634e487b7160e01b600052601160045260246000fd5b600181815b8085111561379657816000190482111561377c5761377c613745565b8085161561378957918102915b93841c9390800290613760565b509250929050565b6000826137ad57506001610814565b816137ba57506000610814565b81600181146137d057600281146137da576137f6565b6001915050610814565b60ff8411156137eb576137eb613745565b50506001821b610814565b5060208310610133831016604e8410600b8410161715613819575081810a610814565b613823838361375b565b806000190482111561383757613837613745565b029392505050565b6000610dae60ff84168361379e565b60008261386b57634e487b7160e01b600052601260045260246000fd5b500490565b808202811582820484141761081457610814613745565b61ffff8281168282160390808211156138a2576138a2613745565b5092915050565b61ffff8181168382160190808211156138a2576138a2613745565b8181038181111561081457610814613745565b8082018082111561081457610814613745565b634e487b7160e01b600052603260045260246000fd5b601f821115610a0457600081815260208120601f850160051c810160208610156139275750805b601f850160051c820191505b8181101561394657828155600101613933565b505050505050565b815167ffffffffffffffff81111561396857613968613376565b61397c816139768454613668565b84613900565b602080601f8311600181146139b157600084156139995750858301515b600019600386901b1c1916600185901b178555613946565b600085815260208120601f198616915b828110156139e0578886015182559484019460019091019084016139c1565b50858210156139fe5787850151600019600388901b60f8161c191681555b5050505050600190811b01905550565b60008251613a208184602087016131b4565b7f2e6a736f6e3f616c743d6d656469610000000000000000000000000000000000920191825250600f01919050565b60008351613a618184602088016131b4565b835190830190613a758183602088016131b4565b01949350505050565b600060018201613a9057613a90613745565b5060010190565b600081613aa657613aa6613745565b506000190190565b634e487b7160e01b600052603160045260246000fd5b60006001600160a01b03808716835280861660208401525083604083015260806060830152613af660808301846131d8565b9695505050505050565b600060208284031215613b1257600080fd5b8151610dae8161318156fea26469706673582212201e1384279cf08f6ccb018627acac7916db339f3bb2b72c29a3f432deedf62e5964736f6c63430008110033","opcodes":"PUSH1 0x80 PUSH1 0x40 MSTORE CALLVALUE DUP1 ISZERO PUSH2 0x10 JUMPI PUSH1 0x0 DUP1 REVERT JUMPDEST POP PUSH2 0x3B53 DUP1 PUSH2 0x20 PUSH1 0x0 CODECOPY PUSH1 0x0 RETURN INVALID PUSH1 0x80 PUSH1 0x40 MSTORE PUSH1 0x4 CALLDATASIZE LT PUSH2 0x26A JUMPI PUSH1 0x0 CALLDATALOAD PUSH1 0xE0 SHR DUP1 PUSH4 0x4F6CCCE7 GT PUSH2 0x153 JUMPI DUP1 PUSH4 0xA22CB465 GT PUSH2 0xCB JUMPI DUP1 PUSH4 0xC87B56DD GT PUSH2 0x7F JUMPI DUP1 PUSH4 0xD5370904 GT PUSH2 0x64 JUMPI DUP1 PUSH4 0xD5370904 EQ PUSH2 0x78A JUMPI DUP1 PUSH4 0xE030565E EQ PUSH2 0x7A0 JUMPI DUP1 PUSH4 0xE985E9C5 EQ PUSH2 0x7C0 JUMPI PUSH1 0x0 DUP1 REVERT JUMPDEST DUP1 PUSH4 0xC87B56DD EQ PUSH2 0x74A JUMPI DUP1 PUSH4 0xD3D72617 EQ PUSH2 0x76A JUMPI PUSH1 0x0 DUP1 REVERT JUMPDEST DUP1 PUSH4 0xB88D4FDE GT PUSH2 0xB0 JUMPI DUP1 PUSH4 0xB88D4FDE EQ PUSH2 0x6DB JUMPI DUP1 PUSH4 0xC25A2C65 EQ PUSH2 0x6F6 JUMPI DUP1 PUSH4 0xC2F1F14A EQ PUSH2 0x714 JUMPI PUSH1 0x0 DUP1 REVERT JUMPDEST DUP1 PUSH4 0xA22CB465 EQ PUSH2 0x610 JUMPI DUP1 PUSH4 0xABB302AD EQ PUSH2 0x630 JUMPI PUSH1 0x0 DUP1 REVERT JUMPDEST DUP1 PUSH4 0x63DD96C4 GT PUSH2 0x122 JUMPI DUP1 PUSH4 0x7456BE7D GT PUSH2 0x107 JUMPI DUP1 PUSH4 0x7456BE7D EQ PUSH2 0x5AA JUMPI DUP1 PUSH4 0x8FC88C48 EQ PUSH2 0x5BD JUMPI DUP1 PUSH4 0x95D89B41 EQ PUSH2 0x5FB JUMPI PUSH1 0x0 DUP1 REVERT JUMPDEST DUP1 PUSH4 0x63DD96C4 EQ PUSH2 0x56C JUMPI DUP1 PUSH4 0x70A08231 EQ PUSH2 0x58A JUMPI PUSH1 0x0 DUP1 REVERT JUMPDEST DUP1 PUSH4 0x4F6CCCE7 EQ PUSH2 0x4E6 JUMPI DUP1 PUSH4 0x55673D07 EQ PUSH2 0x506 JUMPI DUP1 PUSH4 0x5F3FD7BC EQ PUSH2 0x52C JUMPI DUP1 PUSH4 0x6352211E EQ PUSH2 0x54C JUMPI PUSH1 0x0 DUP1 REVERT JUMPDEST DUP1 PUSH4 0x227773C0 GT PUSH2 0x1E6 JUMPI DUP1 PUSH4 0x2DABBEED GT PUSH2 0x1B5 JUMPI DUP1 PUSH4 0x3CCFD60B GT PUSH2 0x19A JUMPI DUP1 PUSH4 0x3CCFD60B EQ PUSH2 0x4B1 JUMPI DUP1 PUSH4 0x42842E0E EQ PUSH2 0x423 JUMPI DUP1 PUSH4 0x47906905 EQ PUSH2 0x4C6 JUMPI PUSH1 0x0 DUP1 REVERT JUMPDEST DUP1 PUSH4 0x2DABBEED EQ PUSH2 0x471 JUMPI DUP1 PUSH4 0x2F745C59 EQ PUSH2 0x491 JUMPI PUSH1 0x0 DUP1 REVERT JUMPDEST DUP1 PUSH4 0x227773C0 EQ PUSH2 0x3CD JUMPI DUP1 PUSH4 0x22F3BB3E EQ PUSH2 0x403 JUMPI DUP1 PUSH4 0x23B872DD EQ PUSH2 0x423 JUMPI DUP1 PUSH4 0x27E235E3 EQ PUSH2 0x443 JUMPI PUSH1 0x0 DUP1 REVERT JUMPDEST DUP1 PUSH4 0x11DACA27 GT PUSH2 0x23D JUMPI DUP1 PUSH4 0x17C95709 GT PUSH2 0x222 JUMPI DUP1 PUSH4 0x17C95709 EQ PUSH2 0x35B JUMPI DUP1 PUSH4 0x18160DDD EQ PUSH2 0x397 JUMPI DUP1 PUSH4 0x1D350EF8 EQ PUSH2 0x3AD JUMPI PUSH1 0x0 DUP1 REVERT JUMPDEST DUP1 PUSH4 0x11DACA27 EQ PUSH2 0x320 JUMPI DUP1 PUSH4 0x1249C58B EQ PUSH2 0x353 JUMPI PUSH1 0x0 DUP1 REVERT JUMPDEST DUP1 PUSH4 0x1FFC9A7 EQ PUSH2 0x26F JUMPI DUP1 PUSH4 0x6FDDE03 EQ PUSH2 0x2A4 JUMPI DUP1 PUSH4 0x81812FC EQ PUSH2 0x2C6 JUMPI DUP1 PUSH4 0x95EA7B3 EQ PUSH2 0x2FE JUMPI JUMPDEST PUSH1 0x0 DUP1 REVERT JUMPDEST CALLVALUE DUP1 ISZERO PUSH2 0x27B JUMPI PUSH1 0x0 DUP1 REVERT JUMPDEST POP PUSH2 0x28F PUSH2 0x28A CALLDATASIZE PUSH1 0x4 PUSH2 0x3197 JUMP JUMPDEST PUSH2 0x809 JUMP JUMPDEST PUSH1 0x40 MLOAD SWAP1 ISZERO ISZERO DUP2 MSTORE PUSH1 0x20 ADD JUMPDEST PUSH1 0x40 MLOAD DUP1 SWAP2 SUB SWAP1 RETURN JUMPDEST CALLVALUE DUP1 ISZERO PUSH2 0x2B0 JUMPI PUSH1 0x0 DUP1 REVERT JUMPDEST POP PUSH2 0x2B9 PUSH2 0x81A JUMP JUMPDEST PUSH1 0x40 MLOAD PUSH2 0x29B SWAP2 SWAP1 PUSH2 0x3204 JUMP JUMPDEST CALLVALUE DUP1 ISZERO PUSH2 0x2D2 JUMPI PUSH1 0x0 DUP1 REVERT JUMPDEST POP PUSH2 0x2E6 PUSH2 0x2E1 CALLDATASIZE PUSH1 0x4 PUSH2 0x3217 JUMP JUMPDEST PUSH2 0x8AC JUMP JUMPDEST PUSH1 0x40 MLOAD PUSH1 0x1 PUSH1 0x1 PUSH1 0xA0 SHL SUB SWAP1 SWAP2 AND DUP2 MSTORE PUSH1 0x20 ADD PUSH2 0x29B JUMP JUMPDEST CALLVALUE DUP1 ISZERO PUSH2 0x30A JUMPI PUSH1 0x0 DUP1 REVERT JUMPDEST POP PUSH2 0x31E PUSH2 0x319 CALLDATASIZE PUSH1 0x4 PUSH2 0x324C JUMP JUMPDEST PUSH2 0x8D3 JUMP JUMPDEST STOP JUMPDEST CALLVALUE DUP1 ISZERO PUSH2 0x32C JUMPI PUSH1 0x0 DUP1 REVERT JUMPDEST POP PUSH2 0x168 SLOAD PUSH2 0x33E SWAP1 PUSH4 0xFFFFFFFF AND DUP2 JUMP JUMPDEST PUSH1 0x40 MLOAD PUSH4 0xFFFFFFFF SWAP1 SWAP2 AND DUP2 MSTORE PUSH1 0x20 ADD PUSH2 0x29B JUMP JUMPDEST PUSH2 0x31E PUSH2 0xA09 JUMP JUMPDEST CALLVALUE DUP1 ISZERO PUSH2 0x367 JUMPI PUSH1 0x0 DUP1 REVERT JUMPDEST POP PUSH2 0x389 PUSH2 0x376 CALLDATASIZE PUSH1 0x4 PUSH2 0x3217 JUMP JUMPDEST PUSH1 0x0 SWAP1 DUP2 MSTORE PUSH2 0x169 PUSH1 0x20 MSTORE PUSH1 0x40 SWAP1 KECCAK256 SLOAD SWAP1 JUMP JUMPDEST PUSH1 0x40 MLOAD SWAP1 DUP2 MSTORE PUSH1 0x20 ADD PUSH2 0x29B JUMP JUMPDEST CALLVALUE DUP1 ISZERO PUSH2 0x3A3 JUMPI PUSH1 0x0 DUP1 REVERT JUMPDEST POP PUSH2 0x101 SLOAD PUSH2 0x389 JUMP JUMPDEST CALLVALUE DUP1 ISZERO PUSH2 0x3B9 JUMPI PUSH1 0x0 DUP1 REVERT JUMPDEST POP PUSH2 0x389 PUSH2 0x3C8 CALLDATASIZE PUSH1 0x4 PUSH2 0x324C JUMP JUMPDEST PUSH2 0xCFF JUMP JUMPDEST CALLVALUE DUP1 ISZERO PUSH2 0x3D9 JUMPI PUSH1 0x0 DUP1 REVERT JUMPDEST POP PUSH2 0x389 PUSH2 0x3E8 CALLDATASIZE PUSH1 0x4 PUSH2 0x3276 JUMP JUMPDEST PUSH1 0x1 PUSH1 0x1 PUSH1 0xA0 SHL SUB AND PUSH1 0x0 SWAP1 DUP2 MSTORE PUSH1 0xCD PUSH1 0x20 MSTORE PUSH1 0x40 SWAP1 KECCAK256 SLOAD SWAP1 JUMP JUMPDEST CALLVALUE DUP1 ISZERO PUSH2 0x40F JUMPI PUSH1 0x0 DUP1 REVERT JUMPDEST POP PUSH2 0x31E PUSH2 0x41E CALLDATASIZE PUSH1 0x4 PUSH2 0x32A5 JUMP JUMPDEST PUSH2 0xDB5 JUMP JUMPDEST CALLVALUE DUP1 ISZERO PUSH2 0x42F JUMPI PUSH1 0x0 DUP1 REVERT JUMPDEST POP PUSH2 0x31E PUSH2 0x43E CALLDATASIZE PUSH1 0x4 PUSH2 0x32F1 JUMP JUMPDEST PUSH2 0xF27 JUMP JUMPDEST CALLVALUE DUP1 ISZERO PUSH2 0x44F JUMPI PUSH1 0x0 DUP1 REVERT JUMPDEST POP PUSH2 0x389 PUSH2 0x45E CALLDATASIZE PUSH1 0x4 PUSH2 0x3276 JUMP JUMPDEST PUSH2 0x16C PUSH1 0x20 MSTORE PUSH1 0x0 SWAP1 DUP2 MSTORE PUSH1 0x40 SWAP1 KECCAK256 SLOAD DUP2 JUMP JUMPDEST CALLVALUE DUP1 ISZERO PUSH2 0x47D JUMPI PUSH1 0x0 DUP1 REVERT JUMPDEST POP PUSH2 0x31E PUSH2 0x48C CALLDATASIZE PUSH1 0x4 PUSH2 0x3217 JUMP JUMPDEST PUSH2 0xF6F JUMP JUMPDEST CALLVALUE DUP1 ISZERO PUSH2 0x49D JUMPI PUSH1 0x0 DUP1 REVERT JUMPDEST POP PUSH2 0x389 PUSH2 0x4AC CALLDATASIZE PUSH1 0x4 PUSH2 0x324C JUMP JUMPDEST PUSH2 0xF7E JUMP JUMPDEST CALLVALUE DUP1 ISZERO PUSH2 0x4BD JUMPI PUSH1 0x0 DUP1 REVERT JUMPDEST POP PUSH2 0x31E PUSH2 0x1014 JUMP JUMPDEST CALLVALUE DUP1 ISZERO PUSH2 0x4D2 JUMPI PUSH1 0x0 DUP1 REVERT JUMPDEST POP PUSH2 0x389 PUSH2 0x4E1 CALLDATASIZE PUSH1 0x4 PUSH2 0x3217 JUMP JUMPDEST PUSH2 0x111E JUMP JUMPDEST CALLVALUE DUP1 ISZERO PUSH2 0x4F2 JUMPI PUSH1 0x0 DUP1 REVERT JUMPDEST POP PUSH2 0x389 PUSH2 0x501 CALLDATASIZE PUSH1 0x4 PUSH2 0x3217 JUMP JUMPDEST PUSH2 0x1146 JUMP JUMPDEST CALLVALUE DUP1 ISZERO PUSH2 0x512 JUMPI PUSH1 0x0 DUP1 REVERT JUMPDEST POP PUSH2 0x132 SLOAD PUSH2 0x33E SWAP1 PUSH5 0x100000000 SWAP1 DIV PUSH4 0xFFFFFFFF AND DUP2 JUMP JUMPDEST CALLVALUE DUP1 ISZERO PUSH2 0x538 JUMPI PUSH1 0x0 DUP1 REVERT JUMPDEST POP PUSH2 0x31E PUSH2 0x547 CALLDATASIZE PUSH1 0x4 PUSH2 0x3422 JUMP JUMPDEST PUSH2 0x11DA JUMP JUMPDEST CALLVALUE DUP1 ISZERO PUSH2 0x558 JUMPI PUSH1 0x0 DUP1 REVERT JUMPDEST POP PUSH2 0x2E6 PUSH2 0x567 CALLDATASIZE PUSH1 0x4 PUSH2 0x3217 JUMP JUMPDEST PUSH2 0x13CD JUMP JUMPDEST CALLVALUE DUP1 ISZERO PUSH2 0x578 JUMPI PUSH1 0x0 DUP1 REVERT JUMPDEST POP PUSH2 0x16A SLOAD PUSH2 0x33E SWAP1 PUSH4 0xFFFFFFFF AND DUP2 JUMP JUMPDEST CALLVALUE DUP1 ISZERO PUSH2 0x596 JUMPI PUSH1 0x0 DUP1 REVERT JUMPDEST POP PUSH2 0x389 PUSH2 0x5A5 CALLDATASIZE PUSH1 0x4 PUSH2 0x3276 JUMP JUMPDEST PUSH2 0x1432 JUMP JUMPDEST PUSH2 0x31E PUSH2 0x5B8 CALLDATASIZE PUSH1 0x4 PUSH2 0x3217 JUMP JUMPDEST PUSH2 0x14CC JUMP JUMPDEST CALLVALUE DUP1 ISZERO PUSH2 0x5C9 JUMPI PUSH1 0x0 DUP1 REVERT JUMPDEST POP PUSH2 0x389 PUSH2 0x5D8 CALLDATASIZE PUSH1 0x4 PUSH2 0x3217 JUMP JUMPDEST PUSH1 0x0 SWAP1 DUP2 MSTORE PUSH1 0x97 PUSH1 0x20 MSTORE PUSH1 0x40 SWAP1 KECCAK256 SLOAD PUSH1 0x1 PUSH1 0xA0 SHL SWAP1 DIV PUSH8 0xFFFFFFFFFFFFFFFF AND SWAP1 JUMP JUMPDEST CALLVALUE DUP1 ISZERO PUSH2 0x607 JUMPI PUSH1 0x0 DUP1 REVERT JUMPDEST POP PUSH2 0x2B9 PUSH2 0x1620 JUMP JUMPDEST CALLVALUE DUP1 ISZERO PUSH2 0x61C JUMPI PUSH1 0x0 DUP1 REVERT JUMPDEST POP PUSH2 0x31E PUSH2 0x62B CALLDATASIZE PUSH1 0x4 PUSH2 0x353B JUMP JUMPDEST PUSH2 0x162F JUMP JUMPDEST CALLVALUE DUP1 ISZERO PUSH2 0x63C JUMPI PUSH1 0x0 DUP1 REVERT JUMPDEST POP PUSH2 0x6AA PUSH2 0x64B CALLDATASIZE PUSH1 0x4 PUSH2 0x3217 JUMP JUMPDEST PUSH1 0x40 DUP1 MLOAD PUSH1 0x60 DUP1 DUP3 ADD DUP4 MSTORE PUSH1 0x0 DUP1 DUP4 MSTORE PUSH1 0x20 DUP1 DUP5 ADD DUP3 SWAP1 MSTORE SWAP3 DUP5 ADD DUP2 SWAP1 MSTORE SWAP4 DUP5 MSTORE PUSH2 0x131 DUP3 MSTORE SWAP3 DUP3 SWAP1 KECCAK256 DUP3 MLOAD SWAP4 DUP5 ADD DUP4 MSTORE DUP1 SLOAD PUSH4 0xFFFFFFFF DUP2 AND DUP6 MSTORE PUSH5 0x100000000 SWAP1 DIV PUSH1 0x1 PUSH1 0x1 PUSH1 0x80 SHL SUB AND SWAP2 DUP5 ADD SWAP2 SWAP1 SWAP2 MSTORE PUSH1 0x1 ADD SLOAD SWAP1 DUP3 ADD MSTORE SWAP1 JUMP JUMPDEST PUSH1 0x40 DUP1 MLOAD DUP3 MLOAD PUSH4 0xFFFFFFFF AND DUP2 MSTORE PUSH1 0x20 DUP1 DUP5 ADD MLOAD PUSH1 0x1 PUSH1 0x1 PUSH1 0x80 SHL SUB AND SWAP1 DUP3 ADD MSTORE SWAP2 DUP2 ADD MLOAD SWAP1 DUP3 ADD MSTORE PUSH1 0x60 ADD PUSH2 0x29B JUMP JUMPDEST CALLVALUE DUP1 ISZERO PUSH2 0x6E7 JUMPI PUSH1 0x0 DUP1 REVERT JUMPDEST POP PUSH2 0x31E PUSH2 0x43E CALLDATASIZE PUSH1 0x4 PUSH2 0x3577 JUMP JUMPDEST CALLVALUE DUP1 ISZERO PUSH2 0x702 JUMPI PUSH1 0x0 DUP1 REVERT JUMPDEST POP PUSH2 0x132 SLOAD PUSH2 0x33E SWAP1 PUSH4 0xFFFFFFFF AND DUP2 JUMP JUMPDEST CALLVALUE DUP1 ISZERO PUSH2 0x720 JUMPI PUSH1 0x0 DUP1 REVERT JUMPDEST POP PUSH2 0x2E6 PUSH2 0x72F CALLDATASIZE PUSH1 0x4 PUSH2 0x3217 JUMP JUMPDEST PUSH1 0x0 SWAP1 DUP2 MSTORE PUSH1 0x97 PUSH1 0x20 MSTORE PUSH1 0x40 SWAP1 KECCAK256 SLOAD PUSH1 0x1 PUSH1 0x1 PUSH1 0xA0 SHL SUB AND SWAP1 JUMP JUMPDEST CALLVALUE DUP1 ISZERO PUSH2 0x756 JUMPI PUSH1 0x0 DUP1 REVERT JUMPDEST POP PUSH2 0x2B9 PUSH2 0x765 CALLDATASIZE PUSH1 0x4 PUSH2 0x3217 JUMP JUMPDEST PUSH2 0x163A JUMP JUMPDEST CALLVALUE DUP1 ISZERO PUSH2 0x776 JUMPI PUSH1 0x0 DUP1 REVERT JUMPDEST POP PUSH2 0x31E PUSH2 0x785 CALLDATASIZE PUSH1 0x4 PUSH2 0x3217 JUMP JUMPDEST PUSH2 0x166B JUMP JUMPDEST CALLVALUE DUP1 ISZERO PUSH2 0x796 JUMPI PUSH1 0x0 DUP1 REVERT JUMPDEST POP PUSH2 0x133 SLOAD PUSH2 0x389 JUMP JUMPDEST CALLVALUE DUP1 ISZERO PUSH2 0x7AC JUMPI PUSH1 0x0 DUP1 REVERT JUMPDEST POP PUSH2 0x31E PUSH2 0x7BB CALLDATASIZE PUSH1 0x4 PUSH2 0x35F3 JUMP JUMPDEST PUSH2 0x16D8 JUMP JUMPDEST CALLVALUE DUP1 ISZERO PUSH2 0x7CC JUMPI PUSH1 0x0 DUP1 REVERT JUMPDEST POP PUSH2 0x28F PUSH2 0x7DB CALLDATASIZE PUSH1 0x4 PUSH2 0x3635 JUMP JUMPDEST PUSH1 0x1 PUSH1 0x1 PUSH1 0xA0 SHL SUB SWAP2 DUP3 AND PUSH1 0x0 SWAP1 DUP2 MSTORE PUSH1 0x6A PUSH1 0x20 SWAP1 DUP2 MSTORE PUSH1 0x40 DUP1 DUP4 KECCAK256 SWAP4 SWAP1 SWAP5 AND DUP3 MSTORE SWAP2 SWAP1 SWAP2 MSTORE KECCAK256 SLOAD PUSH1 0xFF AND SWAP1 JUMP JUMPDEST PUSH1 0x0 PUSH2 0x814 DUP3 PUSH2 0x183B JUMP JUMPDEST SWAP3 SWAP2 POP POP JUMP JUMPDEST PUSH1 0x60 PUSH1 0x65 DUP1 SLOAD PUSH2 0x829 SWAP1 PUSH2 0x3668 JUMP JUMPDEST DUP1 PUSH1 0x1F ADD PUSH1 0x20 DUP1 SWAP2 DIV MUL PUSH1 0x20 ADD PUSH1 0x40 MLOAD SWAP1 DUP2 ADD PUSH1 0x40 MSTORE DUP1 SWAP3 SWAP2 SWAP1 DUP2 DUP2 MSTORE PUSH1 0x20 ADD DUP3 DUP1 SLOAD PUSH2 0x855 SWAP1 PUSH2 0x3668 JUMP JUMPDEST DUP1 ISZERO PUSH2 0x8A2 JUMPI DUP1 PUSH1 0x1F LT PUSH2 0x877 JUMPI PUSH2 0x100 DUP1 DUP4 SLOAD DIV MUL DUP4 MSTORE SWAP2 PUSH1 0x20 ADD SWAP2 PUSH2 0x8A2 JUMP JUMPDEST DUP3 ADD SWAP2 SWAP1 PUSH1 0x0 MSTORE PUSH1 0x20 PUSH1 0x0 KECCAK256 SWAP1 JUMPDEST DUP2 SLOAD DUP2 MSTORE SWAP1 PUSH1 0x1 ADD SWAP1 PUSH1 0x20 ADD DUP1 DUP4 GT PUSH2 0x885 JUMPI DUP3 SWAP1 SUB PUSH1 0x1F AND DUP3 ADD SWAP2 JUMPDEST POP POP POP POP POP SWAP1 POP SWAP1 JUMP JUMPDEST PUSH1 0x0 PUSH2 0x8B7 DUP3 PUSH2 0x1879 JUMP JUMPDEST POP PUSH1 0x0 SWAP1 DUP2 MSTORE PUSH1 0x69 PUSH1 0x20 MSTORE PUSH1 0x40 SWAP1 KECCAK256 SLOAD PUSH1 0x1 PUSH1 0x1 PUSH1 0xA0 SHL SUB AND SWAP1 JUMP JUMPDEST PUSH1 0x0 PUSH2 0x8DE DUP3 PUSH2 0x13CD JUMP JUMPDEST SWAP1 POP DUP1 PUSH1 0x1 PUSH1 0x1 PUSH1 0xA0 SHL SUB AND DUP4 PUSH1 0x1 PUSH1 0x1 PUSH1 0xA0 SHL SUB AND SUB PUSH2 0x96C JUMPI PUSH1 0x40 MLOAD PUSH3 0x461BCD PUSH1 0xE5 SHL DUP2 MSTORE PUSH1 0x20 PUSH1 0x4 DUP3 ADD MSTORE PUSH1 0x21 PUSH1 0x24 DUP3 ADD MSTORE PUSH32 0x4552433732313A20617070726F76616C20746F2063757272656E74206F776E65 PUSH1 0x44 DUP3 ADD MSTORE PUSH32 0x7200000000000000000000000000000000000000000000000000000000000000 PUSH1 0x64 DUP3 ADD MSTORE PUSH1 0x84 ADD JUMPDEST PUSH1 0x40 MLOAD DUP1 SWAP2 SUB SWAP1 REVERT JUMPDEST CALLER PUSH1 0x1 PUSH1 0x1 PUSH1 0xA0 SHL SUB DUP3 AND EQ DUP1 PUSH2 0x988 JUMPI POP PUSH2 0x988 DUP2 CALLER PUSH2 0x7DB JUMP JUMPDEST PUSH2 0x9FA JUMPI PUSH1 0x40 MLOAD PUSH3 0x461BCD PUSH1 0xE5 SHL DUP2 MSTORE PUSH1 0x20 PUSH1 0x4 DUP3 ADD MSTORE PUSH1 0x3D PUSH1 0x24 DUP3 ADD MSTORE PUSH32 0x4552433732313A20617070726F76652063616C6C6572206973206E6F7420746F PUSH1 0x44 DUP3 ADD MSTORE PUSH32 0x6B656E206F776E6572206F7220617070726F76656420666F7220616C6C000000 PUSH1 0x64 DUP3 ADD MSTORE PUSH1 0x84 ADD PUSH2 0x963 JUMP JUMPDEST PUSH2 0xA04 DUP4 DUP4 PUSH2 0x18DD JUMP JUMPDEST POP POP POP JUMP JUMPDEST PUSH2 0x166 SLOAD PUSH1 0x40 DUP1 MLOAD PUSH4 0x3FABE5A3 PUSH1 0xE2 SHL DUP2 MSTORE SWAP1 MLOAD PUSH1 0x0 SWAP3 PUSH1 0x1 PUSH1 0x1 PUSH1 0xA0 SHL SUB AND SWAP2 PUSH4 0xFEAF968C SWAP2 PUSH1 0x4 DUP1 DUP4 ADD SWAP3 PUSH1 0xA0 SWAP3 SWAP2 SWAP1 DUP3 SWAP1 SUB ADD DUP2 DUP7 GAS STATICCALL ISZERO DUP1 ISZERO PUSH2 0xA54 JUMPI RETURNDATASIZE PUSH1 0x0 DUP1 RETURNDATACOPY RETURNDATASIZE PUSH1 0x0 REVERT JUMPDEST POP POP POP POP PUSH1 0x40 MLOAD RETURNDATASIZE PUSH1 0x1F NOT PUSH1 0x1F DUP3 ADD AND DUP3 ADD DUP1 PUSH1 0x40 MSTORE POP DUP2 ADD SWAP1 PUSH2 0xA78 SWAP2 SWAP1 PUSH2 0x36BC JUMP JUMPDEST POP POP POP SWAP2 POP POP PUSH1 0x0 DUP2 SGT PUSH2 0xA8E JUMPI PUSH2 0xA8E PUSH2 0x370C JUMP JUMPDEST PUSH2 0x166 SLOAD PUSH1 0x40 DUP1 MLOAD PUSH4 0x313CE567 PUSH1 0xE0 SHL DUP2 MSTORE SWAP1 MLOAD PUSH1 0x0 SWAP3 PUSH1 0x1 PUSH1 0x1 PUSH1 0xA0 SHL SUB AND SWAP2 PUSH4 0x313CE567 SWAP2 PUSH1 0x4 DUP1 DUP4 ADD SWAP3 PUSH1 0x20 SWAP3 SWAP2 SWAP1 DUP3 SWAP1 SUB ADD DUP2 DUP7 GAS STATICCALL ISZERO DUP1 ISZERO PUSH2 0xAD9 JUMPI RETURNDATASIZE PUSH1 0x0 DUP1 RETURNDATACOPY RETURNDATASIZE PUSH1 0x0 REVERT JUMPDEST POP POP POP POP PUSH1 0x40 MLOAD RETURNDATASIZE PUSH1 0x1F NOT PUSH1 0x1F DUP3 ADD AND DUP3 ADD DUP1 PUSH1 0x40 MSTORE POP DUP2 ADD SWAP1 PUSH2 0xAFD SWAP2 SWAP1 PUSH2 0x3722 JUMP JUMPDEST SWAP1 POP PUSH1 0x0 PUSH1 0x64 PUSH2 0xB0E DUP4 PUSH1 0xA PUSH2 0x383F JUMP JUMPDEST PUSH2 0xB18 SWAP1 DUP6 PUSH2 0x384E JUMP JUMPDEST PUSH2 0x16A SLOAD PUSH2 0xB34 SWAP1 PUSH4 0xFFFFFFFF AND PUSH8 0xDE0B6B3A7640000 PUSH2 0x3870 JUMP JUMPDEST PUSH2 0xB3E SWAP2 SWAP1 PUSH2 0x384E JUMP JUMPDEST PUSH2 0xB48 SWAP2 SWAP1 PUSH2 0x384E JUMP JUMPDEST PUSH2 0x16A SLOAD SWAP1 SWAP2 POP PUSH1 0x0 SWAP1 PUSH2 0x3E8 SWAP1 PUSH2 0xB6B SWAP1 PUSH5 0x100000000 SWAP1 DIV PUSH1 0xFF AND DUP3 PUSH2 0x3887 JUMP JUMPDEST PUSH2 0xB79 SWAP1 PUSH2 0xFFFF AND DUP5 PUSH2 0x3870 JUMP JUMPDEST PUSH2 0xB83 SWAP2 SWAP1 PUSH2 0x384E JUMP JUMPDEST PUSH2 0x16A SLOAD SWAP1 SWAP2 POP PUSH1 0x0 SWAP1 PUSH2 0x3E8 SWAP1 PUSH2 0xBA6 SWAP1 PUSH5 0x100000000 SWAP1 DIV PUSH1 0xFF AND DUP3 PUSH2 0x38A9 JUMP JUMPDEST PUSH2 0xBB4 SWAP1 PUSH2 0xFFFF AND DUP6 PUSH2 0x3870 JUMP JUMPDEST PUSH2 0xBBE SWAP2 SWAP1 PUSH2 0x384E JUMP JUMPDEST SWAP1 POP DUP2 CALLVALUE LT ISZERO DUP1 ISZERO PUSH2 0xBD0 JUMPI POP DUP1 CALLVALUE GT ISZERO JUMPDEST PUSH2 0xC1C JUMPI PUSH1 0x40 MLOAD PUSH3 0x461BCD PUSH1 0xE5 SHL DUP2 MSTORE PUSH1 0x20 PUSH1 0x4 DUP3 ADD MSTORE PUSH1 0x11 PUSH1 0x24 DUP3 ADD MSTORE PUSH32 0x546F6F206D75636820736C697070616765000000000000000000000000000000 PUSH1 0x44 DUP3 ADD MSTORE PUSH1 0x64 ADD PUSH2 0x963 JUMP JUMPDEST PUSH1 0x0 PUSH2 0x3E8 PUSH2 0xC2C PUSH1 0x19 CALLVALUE PUSH2 0x3870 JUMP JUMPDEST PUSH2 0xC36 SWAP2 SWAP1 PUSH2 0x384E JUMP JUMPDEST SWAP1 POP PUSH1 0x0 PUSH2 0xC44 DUP3 CALLVALUE PUSH2 0x38C4 JUMP JUMPDEST PUSH2 0x16B SLOAD PUSH1 0x1 PUSH1 0x1 PUSH1 0xA0 SHL SUB AND PUSH1 0x0 SWAP1 DUP2 MSTORE PUSH2 0x16C PUSH1 0x20 MSTORE PUSH1 0x40 DUP2 KECCAK256 DUP1 SLOAD SWAP3 SWAP4 POP DUP5 SWAP3 SWAP1 SWAP2 SWAP1 PUSH2 0xC75 SWAP1 DUP5 SWAP1 PUSH2 0x38D7 JUMP JUMPDEST SWAP1 SWAP2 SSTORE POP POP PUSH2 0x16A SLOAD PUSH6 0x10000000000 SWAP1 DIV PUSH1 0x1 PUSH1 0x1 PUSH1 0xA0 SHL SUB AND PUSH1 0x0 SWAP1 DUP2 MSTORE PUSH2 0x16C PUSH1 0x20 MSTORE PUSH1 0x40 DUP2 KECCAK256 DUP1 SLOAD DUP4 SWAP3 SWAP1 PUSH2 0xCAF SWAP1 DUP5 SWAP1 PUSH2 0x38D7 JUMP JUMPDEST SWAP1 SWAP2 SSTORE POP POP PUSH2 0x167 SLOAD PUSH2 0x168 SLOAD PUSH2 0xCCC SWAP1 PUSH4 0xFFFFFFFF AND TIMESTAMP PUSH2 0x38D7 JUMP JUMPDEST PUSH1 0x0 DUP3 DUP2 MSTORE PUSH2 0x169 PUSH1 0x20 MSTORE PUSH1 0x40 SWAP1 KECCAK256 SSTORE PUSH2 0xCE6 CALLER DUP3 PUSH2 0x194B JUMP JUMPDEST PUSH2 0xCF5 PUSH2 0x167 DUP1 SLOAD PUSH1 0x1 ADD SWAP1 SSTORE JUMP JUMPDEST POP POP POP POP POP POP POP POP JUMP JUMPDEST PUSH1 0x1 PUSH1 0x1 PUSH1 0xA0 SHL SUB DUP3 AND PUSH1 0x0 SWAP1 DUP2 MSTORE PUSH1 0xCD PUSH1 0x20 MSTORE PUSH1 0x40 DUP2 KECCAK256 SLOAD DUP3 LT PUSH2 0xD7A JUMPI PUSH1 0x40 MLOAD PUSH3 0x461BCD PUSH1 0xE5 SHL DUP2 MSTORE PUSH1 0x20 PUSH1 0x4 DUP3 ADD MSTORE PUSH1 0x2B PUSH1 0x24 DUP3 ADD MSTORE PUSH32 0x45524334393037456E756D657261626C653A207573657220696E646578206F75 PUSH1 0x44 DUP3 ADD MSTORE PUSH11 0x74206F6620626F756E6473 PUSH1 0xA8 SHL PUSH1 0x64 DUP3 ADD MSTORE PUSH1 0x84 ADD PUSH2 0x963 JUMP JUMPDEST PUSH1 0x1 PUSH1 0x1 PUSH1 0xA0 SHL SUB DUP4 AND PUSH1 0x0 SWAP1 DUP2 MSTORE PUSH1 0xC9 PUSH1 0x20 SWAP1 DUP2 MSTORE PUSH1 0x40 DUP1 DUP4 KECCAK256 DUP6 DUP5 MSTORE SWAP1 SWAP2 MSTORE DUP2 KECCAK256 SLOAD SWAP1 DUP2 SWAP1 SUB PUSH2 0xDAE JUMPI PUSH2 0xDAE PUSH2 0x370C JUMP JUMPDEST SWAP4 SWAP3 POP POP POP JUMP JUMPDEST PUSH2 0xDC0 CALLER JUMPDEST DUP5 PUSH2 0x1965 JUMP JUMPDEST PUSH2 0xE1A JUMPI PUSH1 0x40 MLOAD PUSH3 0x461BCD PUSH1 0xE5 SHL DUP2 MSTORE PUSH1 0x20 PUSH1 0x4 DUP3 ADD MSTORE PUSH1 0x25 PUSH1 0x24 DUP3 ADD MSTORE PUSH32 0x43616C6C6572206973206E6F7420746F6B656E206F776E6572206F7220617070 PUSH1 0x44 DUP3 ADD MSTORE PUSH5 0x1C9BDD9959 PUSH1 0xDA SHL PUSH1 0x64 DUP3 ADD MSTORE PUSH1 0x84 ADD PUSH2 0x963 JUMP JUMPDEST PUSH1 0x0 DUP4 DUP2 MSTORE PUSH1 0x97 PUSH1 0x20 MSTORE PUSH1 0x40 SWAP1 KECCAK256 SLOAD PUSH1 0x1 PUSH1 0x1 PUSH1 0xA0 SHL SUB AND ISZERO PUSH2 0xE6E JUMPI PUSH1 0x40 MLOAD PUSH3 0x461BCD PUSH1 0xE5 SHL DUP2 MSTORE PUSH1 0x20 PUSH1 0x4 DUP3 ADD MSTORE PUSH1 0xC PUSH1 0x24 DUP3 ADD MSTORE PUSH12 0x105B1C9958591E481D5CD959 PUSH1 0xA2 SHL PUSH1 0x44 DUP3 ADD MSTORE PUSH1 0x64 ADD PUSH2 0x963 JUMP JUMPDEST PUSH1 0x0 PUSH2 0xE83 PUSH1 0x1 PUSH1 0x1 PUSH1 0x80 SHL SUB DUP4 AND TIMESTAMP PUSH2 0x38D7 JUMP JUMPDEST PUSH1 0x0 DUP6 DUP2 MSTORE PUSH2 0x169 PUSH1 0x20 MSTORE PUSH1 0x40 SWAP1 KECCAK256 SLOAD SWAP1 SWAP2 POP PUSH8 0xFFFFFFFFFFFFFFFF DUP3 AND DUP2 GT PUSH2 0xF15 JUMPI PUSH1 0x40 MLOAD PUSH3 0x461BCD PUSH1 0xE5 SHL DUP2 MSTORE PUSH1 0x20 PUSH1 0x4 DUP3 ADD MSTORE PUSH1 0x2C PUSH1 0x24 DUP3 ADD MSTORE PUSH32 0x537562736372697074696F6E2077696C6C20657870697265206265666F726520 PUSH1 0x44 DUP3 ADD MSTORE PUSH32 0x72656E7420657870697265730000000000000000000000000000000000000000 PUSH1 0x64 DUP3 ADD MSTORE PUSH1 0x84 ADD PUSH2 0x963 JUMP JUMPDEST PUSH2 0xF20 DUP6 DUP6 DUP6 PUSH2 0x19E4 JUMP JUMPDEST POP POP POP POP POP JUMP JUMPDEST PUSH1 0x40 MLOAD PUSH3 0x461BCD PUSH1 0xE5 SHL DUP2 MSTORE PUSH1 0x20 PUSH1 0x4 DUP3 ADD MSTORE PUSH1 0xB PUSH1 0x24 DUP3 ADD MSTORE PUSH32 0x4E6F7420616C6C6F776564000000000000000000000000000000000000000000 PUSH1 0x44 DUP3 ADD MSTORE PUSH1 0x64 ADD PUSH2 0x963 JUMP JUMPDEST PUSH2 0xF7B DUP2 PUSH1 0x0 DUP1 PUSH2 0x16D8 JUMP JUMPDEST POP JUMP JUMPDEST PUSH1 0x0 PUSH2 0xF89 DUP4 PUSH2 0x1432 JUMP JUMPDEST DUP3 LT PUSH2 0xFEB JUMPI PUSH1 0x40 MLOAD PUSH3 0x461BCD PUSH1 0xE5 SHL DUP2 MSTORE PUSH1 0x20 PUSH1 0x4 DUP3 ADD MSTORE PUSH1 0x2B PUSH1 0x24 DUP3 ADD MSTORE PUSH32 0x455243373231456E756D657261626C653A206F776E657220696E646578206F75 PUSH1 0x44 DUP3 ADD MSTORE PUSH11 0x74206F6620626F756E6473 PUSH1 0xA8 SHL PUSH1 0x64 DUP3 ADD MSTORE PUSH1 0x84 ADD PUSH2 0x963 JUMP JUMPDEST POP PUSH1 0x1 PUSH1 0x1 PUSH1 0xA0 SHL SUB SWAP2 SWAP1 SWAP2 AND PUSH1 0x0 SWAP1 DUP2 MSTORE PUSH1 0xFF PUSH1 0x20 SWAP1 DUP2 MSTORE PUSH1 0x40 DUP1 DUP4 KECCAK256 SWAP4 DUP4 MSTORE SWAP3 SWAP1 MSTORE KECCAK256 SLOAD SWAP1 JUMP JUMPDEST CALLER PUSH1 0x0 SWAP1 DUP2 MSTORE PUSH2 0x16C PUSH1 0x20 MSTORE PUSH1 0x40 SWAP1 KECCAK256 SLOAD DUP1 PUSH2 0x1072 JUMPI PUSH1 0x40 MLOAD PUSH3 0x461BCD PUSH1 0xE5 SHL DUP2 MSTORE PUSH1 0x20 PUSH1 0x4 DUP3 ADD MSTORE PUSH1 0x13 PUSH1 0x24 DUP3 ADD MSTORE PUSH32 0x4E6F7468696E6720746F20776974686472617700000000000000000000000000 PUSH1 0x44 DUP3 ADD MSTORE PUSH1 0x64 ADD PUSH2 0x963 JUMP JUMPDEST CALLER PUSH1 0x0 DUP2 DUP2 MSTORE PUSH2 0x16C PUSH1 0x20 MSTORE PUSH1 0x40 DUP1 DUP3 KECCAK256 DUP3 SWAP1 SSTORE MLOAD SWAP1 SWAP2 SWAP1 DUP4 SWAP1 DUP4 DUP2 DUP2 DUP2 DUP6 DUP8 GAS CALL SWAP3 POP POP POP RETURNDATASIZE DUP1 PUSH1 0x0 DUP2 EQ PUSH2 0x10C4 JUMPI PUSH1 0x40 MLOAD SWAP2 POP PUSH1 0x1F NOT PUSH1 0x3F RETURNDATASIZE ADD AND DUP3 ADD PUSH1 0x40 MSTORE RETURNDATASIZE DUP3 MSTORE RETURNDATASIZE PUSH1 0x0 PUSH1 0x20 DUP5 ADD RETURNDATACOPY PUSH2 0x10C9 JUMP JUMPDEST PUSH1 0x60 SWAP2 POP JUMPDEST POP POP SWAP1 POP DUP1 PUSH2 0x111A JUMPI PUSH1 0x40 MLOAD PUSH3 0x461BCD PUSH1 0xE5 SHL DUP2 MSTORE PUSH1 0x20 PUSH1 0x4 DUP3 ADD MSTORE PUSH1 0x14 PUSH1 0x24 DUP3 ADD MSTORE PUSH32 0x4661696C656420746F2073656E64204574686572000000000000000000000000 PUSH1 0x44 DUP3 ADD MSTORE PUSH1 0x64 ADD PUSH2 0x963 JUMP JUMPDEST POP POP JUMP JUMPDEST PUSH1 0x0 PUSH2 0x133 DUP3 DUP2 SLOAD DUP2 LT PUSH2 0x1134 JUMPI PUSH2 0x1134 PUSH2 0x38EA JUMP JUMPDEST SWAP1 PUSH1 0x0 MSTORE PUSH1 0x20 PUSH1 0x0 KECCAK256 ADD SLOAD SWAP1 POP SWAP2 SWAP1 POP JUMP JUMPDEST PUSH1 0x0 PUSH2 0x1152 PUSH2 0x101 SLOAD SWAP1 JUMP JUMPDEST DUP3 LT PUSH2 0x11C6 JUMPI PUSH1 0x40 MLOAD PUSH3 0x461BCD PUSH1 0xE5 SHL DUP2 MSTORE PUSH1 0x20 PUSH1 0x4 DUP3 ADD MSTORE PUSH1 0x2C PUSH1 0x24 DUP3 ADD MSTORE PUSH32 0x455243373231456E756D657261626C653A20676C6F62616C20696E646578206F PUSH1 0x44 DUP3 ADD MSTORE PUSH32 0x7574206F6620626F756E64730000000000000000000000000000000000000000 PUSH1 0x64 DUP3 ADD MSTORE PUSH1 0x84 ADD PUSH2 0x963 JUMP JUMPDEST PUSH2 0x101 DUP3 DUP2 SLOAD DUP2 LT PUSH2 0x1134 JUMPI PUSH2 0x1134 PUSH2 0x38EA JUMP JUMPDEST PUSH1 0x0 SLOAD PUSH2 0x100 SWAP1 DIV PUSH1 0xFF AND ISZERO DUP1 DUP1 ISZERO PUSH2 0x11FA JUMPI POP PUSH1 0x0 SLOAD PUSH1 0x1 PUSH1 0xFF SWAP1 SWAP2 AND LT JUMPDEST DUP1 PUSH2 0x1214 JUMPI POP ADDRESS EXTCODESIZE ISZERO DUP1 ISZERO PUSH2 0x1214 JUMPI POP PUSH1 0x0 SLOAD PUSH1 0xFF AND PUSH1 0x1 EQ JUMPDEST PUSH2 0x1286 JUMPI PUSH1 0x40 MLOAD PUSH3 0x461BCD PUSH1 0xE5 SHL DUP2 MSTORE PUSH1 0x20 PUSH1 0x4 DUP3 ADD MSTORE PUSH1 0x2E PUSH1 0x24 DUP3 ADD MSTORE PUSH32 0x496E697469616C697A61626C653A20636F6E747261637420697320616C726561 PUSH1 0x44 DUP3 ADD MSTORE PUSH32 0x647920696E697469616C697A6564000000000000000000000000000000000000 PUSH1 0x64 DUP3 ADD MSTORE PUSH1 0x84 ADD PUSH2 0x963 JUMP JUMPDEST PUSH1 0x0 DUP1 SLOAD PUSH1 0xFF NOT AND PUSH1 0x1 OR SWAP1 SSTORE DUP1 ISZERO PUSH2 0x12A9 JUMPI PUSH1 0x0 DUP1 SLOAD PUSH2 0xFF00 NOT AND PUSH2 0x100 OR SWAP1 SSTORE JUMPDEST PUSH2 0x12B5 DUP14 DUP14 DUP14 DUP14 PUSH2 0x1B92 JUMP JUMPDEST PUSH2 0x12BF DUP8 DUP8 PUSH2 0x1C09 JUMP JUMPDEST PUSH2 0x16A DUP1 SLOAD PUSH2 0x168 DUP1 SLOAD PUSH4 0xFFFFFFFF NOT AND PUSH4 0xFFFFFFFF DUP13 DUP2 AND SWAP2 SWAP1 SWAP2 OR SWAP1 SWAP2 SSTORE PUSH2 0x16B DUP1 SLOAD PUSH1 0x1 PUSH1 0x1 PUSH1 0xA0 SHL SUB NOT SWAP1 DUP2 AND PUSH1 0x1 PUSH1 0x1 PUSH1 0xA0 SHL SUB DUP11 DUP2 AND SWAP2 SWAP1 SWAP2 OR SWAP1 SWAP3 SSTORE PUSH2 0x166 DUP1 SLOAD SWAP1 SWAP2 AND DUP9 DUP4 AND OR SWAP1 SSTORE SWAP1 DUP13 AND PUSH32 0xFFFFFFFFFFFFFF0000000000000000000000000000000000000000FF00000000 SWAP1 SWAP3 AND SWAP2 SWAP1 SWAP2 OR PUSH6 0x10000000000 SWAP2 DUP9 AND SWAP2 SWAP1 SWAP2 MUL OR PUSH5 0xFF00000000 NOT AND PUSH5 0x500000000 OR SWAP1 SSTORE PUSH2 0x16D PUSH2 0x1368 DUP4 DUP3 PUSH2 0x394E JUMP JUMPDEST POP PUSH2 0x1378 PUSH2 0x167 DUP1 SLOAD PUSH1 0x1 ADD SWAP1 SSTORE JUMP JUMPDEST DUP1 ISZERO PUSH2 0x13BE JUMPI PUSH1 0x0 DUP1 SLOAD PUSH2 0xFF00 NOT AND SWAP1 SSTORE PUSH1 0x40 MLOAD PUSH1 0x1 DUP2 MSTORE PUSH32 0x7F26B83FF96E1F2B6A682F133852F6798A09C465DA95921460CEFB3847402498 SWAP1 PUSH1 0x20 ADD PUSH1 0x40 MLOAD DUP1 SWAP2 SUB SWAP1 LOG1 JUMPDEST POP POP POP POP POP POP POP POP POP POP POP POP POP JUMP JUMPDEST PUSH1 0x0 DUP2 DUP2 MSTORE PUSH1 0x67 PUSH1 0x20 MSTORE PUSH1 0x40 DUP2 KECCAK256 SLOAD PUSH1 0x1 PUSH1 0x1 PUSH1 0xA0 SHL SUB AND DUP1 PUSH2 0x814 JUMPI PUSH1 0x40 MLOAD PUSH3 0x461BCD PUSH1 0xE5 SHL DUP2 MSTORE PUSH1 0x20 PUSH1 0x4 DUP3 ADD MSTORE PUSH1 0x18 PUSH1 0x24 DUP3 ADD MSTORE PUSH32 0x4552433732313A20696E76616C696420746F6B656E2049440000000000000000 PUSH1 0x44 DUP3 ADD MSTORE PUSH1 0x64 ADD PUSH2 0x963 JUMP JUMPDEST PUSH1 0x0 PUSH1 0x1 PUSH1 0x1 PUSH1 0xA0 SHL SUB DUP3 AND PUSH2 0x14B0 JUMPI PUSH1 0x40 MLOAD PUSH3 0x461BCD PUSH1 0xE5 SHL DUP2 MSTORE PUSH1 0x20 PUSH1 0x4 DUP3 ADD MSTORE PUSH1 0x29 PUSH1 0x24 DUP3 ADD MSTORE PUSH32 0x4552433732313A2061646472657373207A65726F206973206E6F742061207661 PUSH1 0x44 DUP3 ADD MSTORE PUSH32 0x6C6964206F776E65720000000000000000000000000000000000000000000000 PUSH1 0x64 DUP3 ADD MSTORE PUSH1 0x84 ADD PUSH2 0x963 JUMP JUMPDEST POP PUSH1 0x1 PUSH1 0x1 PUSH1 0xA0 SHL SUB AND PUSH1 0x0 SWAP1 DUP2 MSTORE PUSH1 0x68 PUSH1 0x20 MSTORE PUSH1 0x40 SWAP1 KECCAK256 SLOAD SWAP1 JUMP JUMPDEST PUSH1 0x0 DUP2 DUP2 MSTORE PUSH2 0x131 PUSH1 0x20 SWAP1 DUP2 MSTORE PUSH1 0x40 DUP1 DUP4 KECCAK256 DUP2 MLOAD PUSH1 0x60 DUP2 ADD DUP4 MSTORE DUP2 SLOAD PUSH4 0xFFFFFFFF DUP2 AND DUP3 MSTORE PUSH5 0x100000000 SWAP1 DIV PUSH1 0x1 PUSH1 0x1 PUSH1 0x80 SHL SUB AND SWAP4 DUP2 ADD SWAP4 SWAP1 SWAP4 MSTORE PUSH1 0x1 ADD SLOAD SWAP1 DUP3 ADD DUP2 SWAP1 MSTORE SWAP1 SWAP2 SUB PUSH2 0x1562 JUMPI PUSH1 0x40 MLOAD PUSH3 0x461BCD PUSH1 0xE5 SHL DUP2 MSTORE PUSH1 0x20 PUSH1 0x4 DUP3 ADD MSTORE PUSH1 0x19 PUSH1 0x24 DUP3 ADD MSTORE PUSH32 0x4E6F7420617661696C61626C6520666F722072656E74696E6700000000000000 PUSH1 0x44 DUP3 ADD MSTORE PUSH1 0x64 ADD PUSH2 0x963 JUMP JUMPDEST PUSH1 0x0 DUP2 PUSH1 0x20 ADD MLOAD PUSH1 0x1 PUSH1 0x1 PUSH1 0x80 SHL SUB AND TIMESTAMP PUSH2 0x157D SWAP2 SWAP1 PUSH2 0x38D7 JUMP JUMPDEST PUSH1 0x0 DUP5 DUP2 MSTORE PUSH2 0x169 PUSH1 0x20 MSTORE PUSH1 0x40 SWAP1 KECCAK256 SLOAD SWAP1 SWAP2 POP PUSH8 0xFFFFFFFFFFFFFFFF DUP3 AND DUP2 GT PUSH2 0x160F JUMPI PUSH1 0x40 MLOAD PUSH3 0x461BCD PUSH1 0xE5 SHL DUP2 MSTORE PUSH1 0x20 PUSH1 0x4 DUP3 ADD MSTORE PUSH1 0x28 PUSH1 0x24 DUP3 ADD MSTORE PUSH32 0x537562736372697074696F6E2065787069726573206265666F72652072656E74 PUSH1 0x44 DUP3 ADD MSTORE PUSH32 0x2065787069726573000000000000000000000000000000000000000000000000 PUSH1 0x64 DUP3 ADD MSTORE PUSH1 0x84 ADD PUSH2 0x963 JUMP JUMPDEST PUSH2 0x161A DUP5 CALLER DUP5 PUSH2 0x16D8 JUMP JUMPDEST POP POP POP POP JUMP JUMPDEST PUSH1 0x60 PUSH1 0x66 DUP1 SLOAD PUSH2 0x829 SWAP1 PUSH2 0x3668 JUMP JUMPDEST PUSH2 0x111A CALLER DUP4 DUP4 PUSH2 0x1CA5 JUMP JUMPDEST PUSH1 0x60 PUSH2 0x1645 DUP3 PUSH2 0x1D73 JUMP JUMPDEST PUSH1 0x40 MLOAD PUSH1 0x20 ADD PUSH2 0x1655 SWAP2 SWAP1 PUSH2 0x3A0E JUMP JUMPDEST PUSH1 0x40 MLOAD PUSH1 0x20 DUP2 DUP4 SUB SUB DUP2 MSTORE SWAP1 PUSH1 0x40 MSTORE SWAP1 POP SWAP2 SWAP1 POP JUMP JUMPDEST PUSH2 0x1675 CALLER DUP3 PUSH2 0x1965 JUMP JUMPDEST PUSH2 0x16CF JUMPI PUSH1 0x40 MLOAD PUSH3 0x461BCD PUSH1 0xE5 SHL DUP2 MSTORE PUSH1 0x20 PUSH1 0x4 DUP3 ADD MSTORE PUSH1 0x25 PUSH1 0x24 DUP3 ADD MSTORE PUSH32 0x43616C6C6572206973206E6F7420746F6B656E206F776E6572206F7220617070 PUSH1 0x44 DUP3 ADD MSTORE PUSH5 0x1C9BDD9959 PUSH1 0xDA SHL PUSH1 0x64 DUP3 ADD MSTORE PUSH1 0x84 ADD PUSH2 0x963 JUMP JUMPDEST PUSH2 0xF7B DUP2 PUSH2 0x1DD9 JUMP JUMPDEST PUSH2 0x16E1 DUP4 PUSH2 0x13CD JUMP JUMPDEST PUSH1 0x1 PUSH1 0x1 PUSH1 0xA0 SHL SUB AND DUP3 PUSH1 0x1 PUSH1 0x1 PUSH1 0xA0 SHL SUB AND SUB PUSH2 0x1741 JUMPI PUSH1 0x40 MLOAD PUSH3 0x461BCD PUSH1 0xE5 SHL DUP2 MSTORE PUSH1 0x20 PUSH1 0x4 DUP3 ADD MSTORE PUSH1 0x19 PUSH1 0x24 DUP3 ADD MSTORE PUSH32 0x43616E6E6F742075736520796F7572206F776E20746F6B656E00000000000000 PUSH1 0x44 DUP3 ADD MSTORE PUSH1 0x64 ADD PUSH2 0x963 JUMP JUMPDEST PUSH1 0x0 DUP4 DUP2 MSTORE PUSH1 0x97 PUSH1 0x20 MSTORE PUSH1 0x40 SWAP1 KECCAK256 SLOAD PUSH1 0x1 PUSH1 0xA0 SHL SWAP1 DIV PUSH8 0xFFFFFFFFFFFFFFFF AND TIMESTAMP LT ISZERO PUSH2 0x179F JUMPI PUSH1 0x40 MLOAD PUSH3 0x461BCD PUSH1 0xE5 SHL DUP2 MSTORE PUSH1 0x20 PUSH1 0x4 DUP3 ADD MSTORE PUSH1 0xC PUSH1 0x24 DUP3 ADD MSTORE PUSH12 0x105B1C9958591E481D5CD959 PUSH1 0xA2 SHL PUSH1 0x44 DUP3 ADD MSTORE PUSH1 0x64 ADD PUSH2 0x963 JUMP JUMPDEST PUSH1 0x1 PUSH1 0x1 PUSH1 0xA0 SHL SUB DUP3 AND PUSH2 0x1815 JUMPI PUSH2 0x17B6 CALLER PUSH2 0xDBA JUMP JUMPDEST PUSH2 0x1810 JUMPI PUSH1 0x40 MLOAD PUSH3 0x461BCD PUSH1 0xE5 SHL DUP2 MSTORE PUSH1 0x20 PUSH1 0x4 DUP3 ADD MSTORE PUSH1 0x25 PUSH1 0x24 DUP3 ADD MSTORE PUSH32 0x43616C6C6572206973206E6F7420746F6B656E206F776E6572206F7220617070 PUSH1 0x44 DUP3 ADD MSTORE PUSH5 0x1C9BDD9959 PUSH1 0xDA SHL PUSH1 0x64 DUP3 ADD MSTORE PUSH1 0x84 ADD PUSH2 0x963 JUMP JUMPDEST PUSH2 0x1830 JUMP JUMPDEST PUSH2 0x181E DUP4 PUSH2 0x1E18 JUMP JUMPDEST PUSH2 0x1827 DUP4 PUSH2 0x20C7 JUMP JUMPDEST PUSH2 0x1830 DUP4 PUSH2 0x21C5 JUMP JUMPDEST PUSH2 0xA04 DUP4 DUP4 DUP4 PUSH2 0x21EF JUMP JUMPDEST PUSH1 0x0 PUSH1 0x1 PUSH1 0x1 PUSH1 0xE0 SHL SUB NOT DUP3 AND PUSH32 0x780E9D6300000000000000000000000000000000000000000000000000000000 EQ DUP1 PUSH2 0x814 JUMPI POP PUSH2 0x814 DUP3 PUSH2 0x2277 JUMP JUMPDEST PUSH1 0x0 DUP2 DUP2 MSTORE PUSH1 0x67 PUSH1 0x20 MSTORE PUSH1 0x40 SWAP1 KECCAK256 SLOAD PUSH1 0x1 PUSH1 0x1 PUSH1 0xA0 SHL SUB AND PUSH2 0xF7B JUMPI PUSH1 0x40 MLOAD PUSH3 0x461BCD PUSH1 0xE5 SHL DUP2 MSTORE PUSH1 0x20 PUSH1 0x4 DUP3 ADD MSTORE PUSH1 0x18 PUSH1 0x24 DUP3 ADD MSTORE PUSH32 0x4552433732313A20696E76616C696420746F6B656E2049440000000000000000 PUSH1 0x44 DUP3 ADD MSTORE PUSH1 0x64 ADD PUSH2 0x963 JUMP JUMPDEST PUSH1 0x0 DUP2 DUP2 MSTORE PUSH1 0x69 PUSH1 0x20 MSTORE PUSH1 0x40 SWAP1 KECCAK256 DUP1 SLOAD PUSH1 0x1 PUSH1 0x1 PUSH1 0xA0 SHL SUB NOT AND PUSH1 0x1 PUSH1 0x1 PUSH1 0xA0 SHL SUB DUP5 AND SWAP1 DUP2 OR SWAP1 SWAP2 SSTORE DUP2 SWAP1 PUSH2 0x1912 DUP3 PUSH2 0x13CD JUMP JUMPDEST PUSH1 0x1 PUSH1 0x1 PUSH1 0xA0 SHL SUB AND PUSH32 0x8C5BE1E5EBEC7D5BD14F71427D1E84F3DD0314C0F7B2291E5B200AC8C7C3B925 PUSH1 0x40 MLOAD PUSH1 0x40 MLOAD DUP1 SWAP2 SUB SWAP1 LOG4 POP POP JUMP JUMPDEST PUSH2 0x111A DUP3 DUP3 PUSH1 0x40 MLOAD DUP1 PUSH1 0x20 ADD PUSH1 0x40 MSTORE DUP1 PUSH1 0x0 DUP2 MSTORE POP PUSH2 0x22B5 JUMP JUMPDEST PUSH1 0x0 DUP1 PUSH2 0x1971 DUP4 PUSH2 0x13CD JUMP JUMPDEST SWAP1 POP DUP1 PUSH1 0x1 PUSH1 0x1 PUSH1 0xA0 SHL SUB AND DUP5 PUSH1 0x1 PUSH1 0x1 PUSH1 0xA0 SHL SUB AND EQ DUP1 PUSH2 0x19B8 JUMPI POP PUSH1 0x1 PUSH1 0x1 PUSH1 0xA0 SHL SUB DUP1 DUP3 AND PUSH1 0x0 SWAP1 DUP2 MSTORE PUSH1 0x6A PUSH1 0x20 SWAP1 DUP2 MSTORE PUSH1 0x40 DUP1 DUP4 KECCAK256 SWAP4 DUP9 AND DUP4 MSTORE SWAP3 SWAP1 MSTORE KECCAK256 SLOAD PUSH1 0xFF AND JUMPDEST DUP1 PUSH2 0x19DC JUMPI POP DUP4 PUSH1 0x1 PUSH1 0x1 PUSH1 0xA0 SHL SUB AND PUSH2 0x19D1 DUP5 PUSH2 0x8AC JUMP JUMPDEST PUSH1 0x1 PUSH1 0x1 PUSH1 0xA0 SHL SUB AND EQ JUMPDEST SWAP5 SWAP4 POP POP POP POP JUMP JUMPDEST PUSH2 0x132 SLOAD PUSH4 0xFFFFFFFF SWAP1 DUP2 AND SWAP1 DUP4 AND LT ISZERO PUSH2 0x1A41 JUMPI PUSH1 0x40 MLOAD PUSH3 0x461BCD PUSH1 0xE5 SHL DUP2 MSTORE PUSH1 0x20 PUSH1 0x4 DUP3 ADD MSTORE PUSH1 0xD PUSH1 0x24 DUP3 ADD MSTORE PUSH32 0x507269636520746F6F206C6F7700000000000000000000000000000000000000 PUSH1 0x44 DUP3 ADD MSTORE PUSH1 0x64 ADD PUSH2 0x963 JUMP JUMPDEST PUSH2 0x132 SLOAD PUSH5 0x100000000 SWAP1 DIV PUSH4 0xFFFFFFFF AND PUSH1 0x1 PUSH1 0x1 PUSH1 0x80 SHL SUB DUP3 AND LT ISZERO PUSH2 0x1AAB JUMPI PUSH1 0x40 MLOAD PUSH3 0x461BCD PUSH1 0xE5 SHL DUP2 MSTORE PUSH1 0x20 PUSH1 0x4 DUP3 ADD MSTORE PUSH1 0x10 PUSH1 0x24 DUP3 ADD MSTORE PUSH32 0x4475726174696F6E20746F6F206C6F7700000000000000000000000000000000 PUSH1 0x44 DUP3 ADD MSTORE PUSH1 0x64 ADD PUSH2 0x963 JUMP JUMPDEST PUSH1 0x40 DUP1 MLOAD PUSH1 0x60 DUP2 ADD DUP3 MSTORE PUSH4 0xFFFFFFFF DUP5 DUP2 AND DUP3 MSTORE PUSH1 0x1 PUSH1 0x1 PUSH1 0x80 SHL SUB DUP5 DUP2 AND PUSH1 0x20 DUP1 DUP6 ADD SWAP2 DUP3 MSTORE TIMESTAMP DUP6 DUP8 ADD SWAP1 DUP2 MSTORE PUSH1 0x0 DUP11 DUP2 MSTORE PUSH2 0x131 DUP4 MSTORE DUP8 DUP2 KECCAK256 DUP8 MLOAD DUP2 SLOAD SWAP6 MLOAD SWAP8 AND PUSH1 0x1 PUSH1 0x1 PUSH1 0xA0 SHL SUB NOT SWAP1 SWAP6 AND SWAP5 SWAP1 SWAP5 OR PUSH5 0x100000000 SWAP7 SWAP1 SWAP6 AND SWAP6 SWAP1 SWAP6 MUL SWAP4 SWAP1 SWAP4 OR DUP3 SSTORE SWAP2 MLOAD PUSH1 0x1 SWAP2 DUP3 ADD SSTORE PUSH2 0x133 DUP1 SLOAD PUSH2 0x134 SWAP1 SWAP4 MSTORE SWAP5 DUP4 KECCAK256 DUP3 SWAP1 SSTORE DUP2 ADD DUP5 SSTORE SWAP3 SWAP1 MSTORE PUSH32 0x92E985329FB94CC1B424EBB0F7F2929B6D27383CA94C0EC71C44FB48BDF96D2C SWAP1 SWAP2 ADD DUP5 SWAP1 SSTORE PUSH1 0x40 MLOAD DUP5 DUP2 MSTORE PUSH32 0xC8BF25B5DC60208595C2AFECAF7A3B5852ECDB7917AB66A44DEF586C13A282A7 SWAP1 PUSH1 0x20 ADD PUSH1 0x40 MLOAD DUP1 SWAP2 SUB SWAP1 LOG1 POP POP POP POP JUMP JUMPDEST PUSH1 0x0 SLOAD PUSH2 0x100 SWAP1 DIV PUSH1 0xFF AND PUSH2 0x1BFD JUMPI PUSH1 0x40 MLOAD PUSH3 0x461BCD PUSH1 0xE5 SHL DUP2 MSTORE PUSH1 0x20 PUSH1 0x4 DUP3 ADD MSTORE PUSH1 0x2B PUSH1 0x24 DUP3 ADD MSTORE PUSH32 0x496E697469616C697A61626C653A20636F6E7472616374206973206E6F742069 PUSH1 0x44 DUP3 ADD MSTORE PUSH11 0x6E697469616C697A696E67 PUSH1 0xA8 SHL PUSH1 0x64 DUP3 ADD MSTORE PUSH1 0x84 ADD PUSH2 0x963 JUMP JUMPDEST PUSH2 0x161A DUP5 DUP5 DUP5 DUP5 PUSH2 0x233E JUMP JUMPDEST PUSH1 0x0 SLOAD PUSH2 0x100 SWAP1 DIV PUSH1 0xFF AND PUSH2 0x1C74 JUMPI PUSH1 0x40 MLOAD PUSH3 0x461BCD PUSH1 0xE5 SHL DUP2 MSTORE PUSH1 0x20 PUSH1 0x4 DUP3 ADD MSTORE PUSH1 0x2B PUSH1 0x24 DUP3 ADD MSTORE PUSH32 0x496E697469616C697A61626C653A20636F6E7472616374206973206E6F742069 PUSH1 0x44 DUP3 ADD MSTORE PUSH11 0x6E697469616C697A696E67 PUSH1 0xA8 SHL PUSH1 0x64 DUP3 ADD MSTORE PUSH1 0x84 ADD PUSH2 0x963 JUMP JUMPDEST PUSH2 0x132 DUP1 SLOAD PUSH4 0xFFFFFFFF SWAP3 DUP4 AND PUSH5 0x100000000 MUL PUSH8 0xFFFFFFFFFFFFFFFF NOT SWAP1 SWAP2 AND SWAP3 SWAP1 SWAP4 AND SWAP2 SWAP1 SWAP2 OR SWAP2 SWAP1 SWAP2 OR SWAP1 SSTORE JUMP JUMPDEST DUP2 PUSH1 0x1 PUSH1 0x1 PUSH1 0xA0 SHL SUB AND DUP4 PUSH1 0x1 PUSH1 0x1 PUSH1 0xA0 SHL SUB AND SUB PUSH2 0x1D06 JUMPI PUSH1 0x40 MLOAD PUSH3 0x461BCD PUSH1 0xE5 SHL DUP2 MSTORE PUSH1 0x20 PUSH1 0x4 DUP3 ADD MSTORE PUSH1 0x19 PUSH1 0x24 DUP3 ADD MSTORE PUSH32 0x4552433732313A20617070726F766520746F2063616C6C657200000000000000 PUSH1 0x44 DUP3 ADD MSTORE PUSH1 0x64 ADD PUSH2 0x963 JUMP JUMPDEST PUSH1 0x1 PUSH1 0x1 PUSH1 0xA0 SHL SUB DUP4 DUP2 AND PUSH1 0x0 DUP2 DUP2 MSTORE PUSH1 0x6A PUSH1 0x20 SWAP1 DUP2 MSTORE PUSH1 0x40 DUP1 DUP4 KECCAK256 SWAP5 DUP8 AND DUP1 DUP5 MSTORE SWAP5 DUP3 MSTORE SWAP2 DUP3 SWAP1 KECCAK256 DUP1 SLOAD PUSH1 0xFF NOT AND DUP7 ISZERO ISZERO SWAP1 DUP2 OR SWAP1 SWAP2 SSTORE SWAP2 MLOAD SWAP2 DUP3 MSTORE PUSH32 0x17307EAB39AB6107E8899845AD3D59BD9653F200F220920489CA2B5937696C31 SWAP2 ADD PUSH1 0x40 MLOAD DUP1 SWAP2 SUB SWAP1 LOG3 POP POP POP JUMP JUMPDEST PUSH1 0x60 PUSH2 0x1D7E DUP3 PUSH2 0x1879 JUMP JUMPDEST PUSH1 0x0 PUSH2 0x1D88 PUSH2 0x241C JUMP JUMPDEST SWAP1 POP PUSH1 0x0 DUP2 MLOAD GT PUSH2 0x1DA8 JUMPI PUSH1 0x40 MLOAD DUP1 PUSH1 0x20 ADD PUSH1 0x40 MSTORE DUP1 PUSH1 0x0 DUP2 MSTORE POP PUSH2 0xDAE JUMP JUMPDEST DUP1 PUSH2 0x1DB2 DUP5 PUSH2 0x242C JUMP JUMPDEST PUSH1 0x40 MLOAD PUSH1 0x20 ADD PUSH2 0x1DC3 SWAP3 SWAP2 SWAP1 PUSH2 0x3A4F JUMP JUMPDEST PUSH1 0x40 MLOAD PUSH1 0x20 DUP2 DUP4 SUB SUB DUP2 MSTORE SWAP1 PUSH1 0x40 MSTORE SWAP4 SWAP3 POP POP POP JUMP JUMPDEST PUSH2 0x1DE2 DUP2 PUSH2 0x21C5 JUMP JUMPDEST PUSH1 0x40 MLOAD DUP2 DUP2 MSTORE PUSH32 0x4EE8BDB37621A2594D4CB695CC7B6ECDDD0EAA9D9D972ACD674F3FCA50AEE7F2 SWAP1 PUSH1 0x20 ADD PUSH1 0x40 MLOAD DUP1 SWAP2 SUB SWAP1 LOG1 POP JUMP JUMPDEST PUSH1 0x0 CALLVALUE GT PUSH2 0x1E68 JUMPI PUSH1 0x40 MLOAD PUSH3 0x461BCD PUSH1 0xE5 SHL DUP2 MSTORE PUSH1 0x20 PUSH1 0x4 DUP3 ADD MSTORE PUSH1 0x11 PUSH1 0x24 DUP3 ADD MSTORE PUSH32 0x4E6F2076616C7565207265636569766564000000000000000000000000000000 PUSH1 0x44 DUP3 ADD MSTORE PUSH1 0x64 ADD PUSH2 0x963 JUMP JUMPDEST PUSH1 0x0 DUP2 DUP2 MSTORE PUSH2 0x131 PUSH1 0x20 SWAP1 DUP2 MSTORE PUSH1 0x40 DUP1 DUP4 KECCAK256 DUP2 MLOAD PUSH1 0x60 DUP2 ADD DUP4 MSTORE DUP2 SLOAD PUSH4 0xFFFFFFFF DUP2 AND DUP3 MSTORE PUSH5 0x100000000 SWAP1 DIV PUSH1 0x1 PUSH1 0x1 PUSH1 0x80 SHL SUB AND SWAP4 DUP2 ADD SWAP4 SWAP1 SWAP4 MSTORE PUSH1 0x1 ADD SLOAD DUP3 DUP3 ADD MSTORE PUSH2 0x166 SLOAD DUP2 MLOAD PUSH4 0x3FABE5A3 PUSH1 0xE2 SHL DUP2 MSTORE SWAP2 MLOAD SWAP3 SWAP4 SWAP3 PUSH1 0x1 PUSH1 0x1 PUSH1 0xA0 SHL SUB SWAP1 SWAP2 AND SWAP2 PUSH4 0xFEAF968C SWAP2 PUSH1 0x4 DUP1 DUP4 ADD SWAP3 PUSH1 0xA0 SWAP3 SWAP2 SWAP1 DUP3 SWAP1 SUB ADD DUP2 DUP7 GAS STATICCALL ISZERO DUP1 ISZERO PUSH2 0x1EF8 JUMPI RETURNDATASIZE PUSH1 0x0 DUP1 RETURNDATACOPY RETURNDATASIZE PUSH1 0x0 REVERT JUMPDEST POP POP POP POP PUSH1 0x40 MLOAD RETURNDATASIZE PUSH1 0x1F NOT PUSH1 0x1F DUP3 ADD AND DUP3 ADD DUP1 PUSH1 0x40 MSTORE POP DUP2 ADD SWAP1 PUSH2 0x1F1C SWAP2 SWAP1 PUSH2 0x36BC JUMP JUMPDEST POP POP POP SWAP2 POP POP PUSH1 0x0 DUP2 SGT PUSH2 0x1F32 JUMPI PUSH2 0x1F32 PUSH2 0x370C JUMP JUMPDEST PUSH2 0x166 SLOAD PUSH1 0x40 DUP1 MLOAD PUSH4 0x313CE567 PUSH1 0xE0 SHL DUP2 MSTORE SWAP1 MLOAD PUSH1 0x0 SWAP3 PUSH1 0x1 PUSH1 0x1 PUSH1 0xA0 SHL SUB AND SWAP2 PUSH4 0x313CE567 SWAP2 PUSH1 0x4 DUP1 DUP4 ADD SWAP3 PUSH1 0x20 SWAP3 SWAP2 SWAP1 DUP3 SWAP1 SUB ADD DUP2 DUP7 GAS STATICCALL ISZERO DUP1 ISZERO PUSH2 0x1F7D JUMPI RETURNDATASIZE PUSH1 0x0 DUP1 RETURNDATACOPY RETURNDATASIZE PUSH1 0x0 REVERT JUMPDEST POP POP POP POP PUSH1 0x40 MLOAD RETURNDATASIZE PUSH1 0x1F NOT PUSH1 0x1F DUP3 ADD AND DUP3 ADD DUP1 PUSH1 0x40 MSTORE POP DUP2 ADD SWAP1 PUSH2 0x1FA1 SWAP2 SWAP1 PUSH2 0x3722 JUMP JUMPDEST SWAP1 POP PUSH1 0x0 PUSH1 0x64 PUSH2 0x1FB2 DUP4 PUSH1 0xA PUSH2 0x383F JUMP JUMPDEST PUSH2 0x1FBC SWAP1 DUP6 PUSH2 0x384E JUMP JUMPDEST DUP6 MLOAD PUSH2 0x1FD6 SWAP1 PUSH4 0xFFFFFFFF AND PUSH8 0xDE0B6B3A7640000 PUSH2 0x3870 JUMP JUMPDEST PUSH2 0x1FE0 SWAP2 SWAP1 PUSH2 0x384E JUMP JUMPDEST PUSH2 0x1FEA SWAP2 SWAP1 PUSH2 0x384E JUMP JUMPDEST PUSH2 0x16A SLOAD SWAP1 SWAP2 POP PUSH1 0x0 SWAP1 PUSH2 0x3E8 SWAP1 PUSH2 0x200D SWAP1 PUSH5 0x100000000 SWAP1 DIV PUSH1 0xFF AND DUP3 PUSH2 0x3887 JUMP JUMPDEST PUSH2 0x201B SWAP1 PUSH2 0xFFFF AND DUP5 PUSH2 0x3870 JUMP JUMPDEST PUSH2 0x2025 SWAP2 SWAP1 PUSH2 0x384E JUMP JUMPDEST PUSH2 0x16A SLOAD SWAP1 SWAP2 POP PUSH1 0x0 SWAP1 PUSH2 0x3E8 SWAP1 PUSH2 0x2048 SWAP1 PUSH5 0x100000000 SWAP1 DIV PUSH1 0xFF AND DUP3 PUSH2 0x38A9 JUMP JUMPDEST PUSH2 0x2056 SWAP1 PUSH2 0xFFFF AND DUP6 PUSH2 0x3870 JUMP JUMPDEST PUSH2 0x2060 SWAP2 SWAP1 PUSH2 0x384E JUMP JUMPDEST SWAP1 POP DUP2 CALLVALUE LT ISZERO DUP1 ISZERO PUSH2 0x2072 JUMPI POP DUP1 CALLVALUE GT ISZERO JUMPDEST PUSH2 0x20BE JUMPI PUSH1 0x40 MLOAD PUSH3 0x461BCD PUSH1 0xE5 SHL DUP2 MSTORE PUSH1 0x20 PUSH1 0x4 DUP3 ADD MSTORE PUSH1 0x11 PUSH1 0x24 DUP3 ADD MSTORE PUSH32 0x546F6F206D75636820736C697070616765000000000000000000000000000000 PUSH1 0x44 DUP3 ADD MSTORE PUSH1 0x64 ADD PUSH2 0x963 JUMP JUMPDEST POP POP POP POP POP POP POP JUMP JUMPDEST PUSH1 0x0 PUSH2 0x20D2 DUP3 PUSH2 0x13CD JUMP JUMPDEST SWAP1 POP PUSH1 0x0 PUSH1 0x64 PUSH2 0x20E3 PUSH1 0xF CALLVALUE PUSH2 0x3870 JUMP JUMPDEST PUSH2 0x20ED SWAP2 SWAP1 PUSH2 0x384E JUMP JUMPDEST SWAP1 POP PUSH1 0x0 PUSH1 0x64 PUSH2 0x20FE PUSH1 0xF CALLVALUE PUSH2 0x3870 JUMP JUMPDEST PUSH2 0x2108 SWAP2 SWAP1 PUSH2 0x384E JUMP JUMPDEST SWAP1 POP PUSH1 0x0 PUSH2 0x2116 DUP3 DUP5 PUSH2 0x38D7 JUMP JUMPDEST PUSH2 0x2120 SWAP1 CALLVALUE PUSH2 0x38C4 JUMP JUMPDEST PUSH2 0x16A SLOAD PUSH6 0x10000000000 SWAP1 DIV PUSH1 0x1 PUSH1 0x1 PUSH1 0xA0 SHL SUB AND PUSH1 0x0 SWAP1 DUP2 MSTORE PUSH2 0x16C PUSH1 0x20 MSTORE PUSH1 0x40 DUP2 KECCAK256 DUP1 SLOAD SWAP3 SWAP4 POP DUP6 SWAP3 SWAP1 SWAP2 SWAP1 PUSH2 0x215A SWAP1 DUP5 SWAP1 PUSH2 0x38D7 JUMP JUMPDEST SWAP1 SWAP2 SSTORE POP POP PUSH2 0x16B SLOAD PUSH1 0x1 PUSH1 0x1 PUSH1 0xA0 SHL SUB AND PUSH1 0x0 SWAP1 DUP2 MSTORE PUSH2 0x16C PUSH1 0x20 MSTORE PUSH1 0x40 DUP2 KECCAK256 DUP1 SLOAD DUP5 SWAP3 SWAP1 PUSH2 0x218B SWAP1 DUP5 SWAP1 PUSH2 0x38D7 JUMP JUMPDEST SWAP1 SWAP2 SSTORE POP POP PUSH1 0x1 PUSH1 0x1 PUSH1 0xA0 SHL SUB DUP5 AND PUSH1 0x0 SWAP1 DUP2 MSTORE PUSH2 0x16C PUSH1 0x20 MSTORE PUSH1 0x40 DUP2 KECCAK256 DUP1 SLOAD DUP4 SWAP3 SWAP1 PUSH2 0x21B9 SWAP1 DUP5 SWAP1 PUSH2 0x38D7 JUMP JUMPDEST SWAP1 SWAP2 SSTORE POP POP POP POP POP POP POP JUMP JUMPDEST PUSH1 0x0 DUP2 DUP2 MSTORE PUSH2 0x131 PUSH1 0x20 MSTORE PUSH1 0x40 DUP2 KECCAK256 DUP1 SLOAD PUSH1 0x1 PUSH1 0x1 PUSH1 0xA0 SHL SUB NOT AND DUP2 SSTORE PUSH1 0x1 ADD SSTORE PUSH2 0xF7B DUP2 PUSH2 0x24CC JUMP JUMPDEST PUSH2 0x21F9 DUP3 DUP5 PUSH2 0x2581 JUMP JUMPDEST PUSH1 0x1 PUSH1 0x1 PUSH1 0xA0 SHL SUB DUP3 AND ISZERO PUSH2 0x2236 JUMPI PUSH1 0x1 PUSH1 0x1 PUSH1 0xA0 SHL SUB DUP3 AND PUSH1 0x0 SWAP1 DUP2 MSTORE PUSH1 0xCD PUSH1 0x20 MSTORE PUSH1 0x40 DUP2 KECCAK256 DUP1 SLOAD SWAP2 PUSH2 0x222C DUP4 PUSH2 0x3A7E JUMP JUMPDEST SWAP2 SWAP1 POP SSTORE POP PUSH2 0x226C JUMP JUMPDEST PUSH1 0x0 DUP4 DUP2 MSTORE PUSH1 0x97 PUSH1 0x20 SWAP1 DUP2 MSTORE PUSH1 0x40 DUP1 DUP4 KECCAK256 SLOAD PUSH1 0x1 PUSH1 0x1 PUSH1 0xA0 SHL SUB AND DUP4 MSTORE PUSH1 0xCD SWAP1 SWAP2 MSTORE DUP2 KECCAK256 DUP1 SLOAD SWAP2 PUSH2 0x2266 DUP4 PUSH2 0x3A97 JUMP JUMPDEST SWAP2 SWAP1 POP SSTORE POP JUMPDEST PUSH2 0xA04 DUP4 DUP4 DUP4 PUSH2 0x263F JUMP JUMPDEST PUSH1 0x0 PUSH1 0x1 PUSH1 0x1 PUSH1 0xE0 SHL SUB NOT DUP3 AND PUSH32 0xAD092B5C00000000000000000000000000000000000000000000000000000000 EQ DUP1 PUSH2 0x814 JUMPI POP PUSH2 0x814 DUP3 PUSH2 0x2788 JUMP JUMPDEST PUSH2 0x22BF DUP4 DUP4 PUSH2 0x2823 JUMP JUMPDEST PUSH2 0x22CC PUSH1 0x0 DUP5 DUP5 DUP5 PUSH2 0x29BC JUMP JUMPDEST PUSH2 0xA04 JUMPI PUSH1 0x40 MLOAD PUSH3 0x461BCD PUSH1 0xE5 SHL DUP2 MSTORE PUSH1 0x20 PUSH1 0x4 DUP3 ADD MSTORE PUSH1 0x32 PUSH1 0x24 DUP3 ADD MSTORE PUSH32 0x4552433732313A207472616E7366657220746F206E6F6E204552433732315265 PUSH1 0x44 DUP3 ADD MSTORE PUSH32 0x63656976657220696D706C656D656E7465720000000000000000000000000000 PUSH1 0x64 DUP3 ADD MSTORE PUSH1 0x84 ADD PUSH2 0x963 JUMP JUMPDEST PUSH1 0x0 SLOAD PUSH2 0x100 SWAP1 DIV PUSH1 0xFF AND PUSH2 0x23A9 JUMPI PUSH1 0x40 MLOAD PUSH3 0x461BCD PUSH1 0xE5 SHL DUP2 MSTORE PUSH1 0x20 PUSH1 0x4 DUP3 ADD MSTORE PUSH1 0x2B PUSH1 0x24 DUP3 ADD MSTORE PUSH32 0x496E697469616C697A61626C653A20636F6E7472616374206973206E6F742069 PUSH1 0x44 DUP3 ADD MSTORE PUSH11 0x6E697469616C697A696E67 PUSH1 0xA8 SHL PUSH1 0x64 DUP3 ADD MSTORE PUSH1 0x84 ADD PUSH2 0x963 JUMP JUMPDEST PUSH2 0x161A DUP5 DUP5 DUP1 DUP1 PUSH1 0x1F ADD PUSH1 0x20 DUP1 SWAP2 DIV MUL PUSH1 0x20 ADD PUSH1 0x40 MLOAD SWAP1 DUP2 ADD PUSH1 0x40 MSTORE DUP1 SWAP4 SWAP3 SWAP2 SWAP1 DUP2 DUP2 MSTORE PUSH1 0x20 ADD DUP4 DUP4 DUP1 DUP3 DUP5 CALLDATACOPY PUSH1 0x0 SWAP3 ADD SWAP2 SWAP1 SWAP2 MSTORE POP POP PUSH1 0x40 DUP1 MLOAD PUSH1 0x20 PUSH1 0x1F DUP9 ADD DUP2 SWAP1 DIV DUP2 MUL DUP3 ADD DUP2 ADD SWAP1 SWAP3 MSTORE DUP7 DUP2 MSTORE SWAP3 POP DUP7 SWAP2 POP DUP6 SWAP1 DUP2 SWAP1 DUP5 ADD DUP4 DUP3 DUP1 DUP3 DUP5 CALLDATACOPY PUSH1 0x0 SWAP3 ADD SWAP2 SWAP1 SWAP2 MSTORE POP PUSH2 0x2B13 SWAP3 POP POP POP JUMP JUMPDEST PUSH1 0x60 PUSH2 0x16D DUP1 SLOAD PUSH2 0x829 SWAP1 PUSH2 0x3668 JUMP JUMPDEST PUSH1 0x60 PUSH1 0x0 PUSH2 0x2439 DUP4 PUSH2 0x2B88 JUMP JUMPDEST PUSH1 0x1 ADD SWAP1 POP PUSH1 0x0 DUP2 PUSH8 0xFFFFFFFFFFFFFFFF DUP2 GT ISZERO PUSH2 0x2459 JUMPI PUSH2 0x2459 PUSH2 0x3376 JUMP JUMPDEST PUSH1 0x40 MLOAD SWAP1 DUP1 DUP3 MSTORE DUP1 PUSH1 0x1F ADD PUSH1 0x1F NOT AND PUSH1 0x20 ADD DUP3 ADD PUSH1 0x40 MSTORE DUP1 ISZERO PUSH2 0x2483 JUMPI PUSH1 0x20 DUP3 ADD DUP2 DUP1 CALLDATASIZE DUP4 CALLDATACOPY ADD SWAP1 POP JUMPDEST POP SWAP1 POP DUP2 DUP2 ADD PUSH1 0x20 ADD JUMPDEST PUSH1 0x0 NOT ADD PUSH32 0x3031323334353637383961626364656600000000000000000000000000000000 PUSH1 0xA DUP7 MOD BYTE DUP2 MSTORE8 PUSH1 0xA DUP6 DIV SWAP5 POP DUP5 PUSH2 0x248D JUMPI POP SWAP4 SWAP3 POP POP POP JUMP JUMPDEST PUSH2 0x133 SLOAD PUSH1 0x0 SWAP1 PUSH2 0x24DF SWAP1 PUSH1 0x1 SWAP1 PUSH2 0x38C4 JUMP JUMPDEST PUSH1 0x0 DUP4 DUP2 MSTORE PUSH2 0x134 PUSH1 0x20 MSTORE PUSH1 0x40 DUP2 KECCAK256 SLOAD PUSH2 0x133 DUP1 SLOAD SWAP4 SWAP5 POP SWAP1 SWAP3 DUP5 SWAP1 DUP2 LT PUSH2 0x2509 JUMPI PUSH2 0x2509 PUSH2 0x38EA JUMP JUMPDEST SWAP1 PUSH1 0x0 MSTORE PUSH1 0x20 PUSH1 0x0 KECCAK256 ADD SLOAD SWAP1 POP DUP1 PUSH2 0x133 DUP4 DUP2 SLOAD DUP2 LT PUSH2 0x252B JUMPI PUSH2 0x252B PUSH2 0x38EA JUMP JUMPDEST PUSH1 0x0 SWAP2 DUP3 MSTORE PUSH1 0x20 DUP1 DUP4 KECCAK256 SWAP1 SWAP2 ADD SWAP3 SWAP1 SWAP3 SSTORE DUP3 DUP2 MSTORE PUSH2 0x134 SWAP1 SWAP2 MSTORE PUSH1 0x40 DUP1 DUP3 KECCAK256 DUP5 SWAP1 SSTORE DUP6 DUP3 MSTORE DUP2 KECCAK256 SSTORE PUSH2 0x133 DUP1 SLOAD DUP1 PUSH2 0x2565 JUMPI PUSH2 0x2565 PUSH2 0x3AAE JUMP JUMPDEST PUSH1 0x1 SWAP1 SUB DUP2 DUP2 SWAP1 PUSH1 0x0 MSTORE PUSH1 0x20 PUSH1 0x0 KECCAK256 ADD PUSH1 0x0 SWAP1 SSTORE SWAP1 SSTORE POP POP POP POP JUMP JUMPDEST PUSH1 0x1 PUSH1 0x1 PUSH1 0xA0 SHL SUB DUP3 AND PUSH2 0x25BA JUMPI PUSH2 0x2598 DUP2 PUSH2 0x2C6A JUMP JUMPDEST PUSH1 0x0 DUP2 DUP2 MSTORE PUSH1 0x97 PUSH1 0x20 MSTORE PUSH1 0x40 SWAP1 KECCAK256 SLOAD PUSH2 0x111A SWAP1 PUSH1 0x1 PUSH1 0x1 PUSH1 0xA0 SHL SUB AND DUP3 PUSH2 0x2CFD JUMP JUMPDEST PUSH2 0x2602 DUP2 PUSH1 0xCB DUP1 SLOAD PUSH1 0x0 DUP4 DUP2 MSTORE PUSH1 0xCC PUSH1 0x20 MSTORE PUSH1 0x40 DUP2 KECCAK256 DUP3 SWAP1 SSTORE PUSH1 0x1 DUP3 ADD DUP4 SSTORE SWAP2 SWAP1 SWAP2 MSTORE PUSH32 0xA7CE836D032B2BF62B7E2097A8E0A6D8AEB35405AD15271E96D3B0188A1D06FB ADD SSTORE JUMP JUMPDEST PUSH1 0x1 PUSH1 0x1 PUSH1 0xA0 SHL SUB SWAP2 SWAP1 SWAP2 AND PUSH1 0x0 SWAP1 DUP2 MSTORE PUSH1 0xCD PUSH1 0x20 SWAP1 DUP2 MSTORE PUSH1 0x40 DUP1 DUP4 KECCAK256 SLOAD PUSH1 0xC9 DUP4 MSTORE DUP2 DUP5 KECCAK256 DUP2 DUP6 MSTORE DUP4 MSTORE DUP2 DUP5 KECCAK256 DUP6 SWAP1 SSTORE SWAP4 DUP4 MSTORE PUSH1 0xCA SWAP1 SWAP2 MSTORE SWAP1 KECCAK256 SSTORE JUMP JUMPDEST PUSH1 0x1 PUSH1 0x1 PUSH1 0xA0 SHL SUB DUP3 AND ISZERO PUSH2 0x26A7 JUMPI TIMESTAMP DUP2 PUSH8 0xFFFFFFFFFFFFFFFF AND GT PUSH2 0x26A7 JUMPI PUSH1 0x40 MLOAD PUSH3 0x461BCD PUSH1 0xE5 SHL DUP2 MSTORE PUSH1 0x20 PUSH1 0x4 DUP3 ADD MSTORE PUSH1 0x11 PUSH1 0x24 DUP3 ADD MSTORE PUSH32 0x457870697265642074696D657374616D70000000000000000000000000000000 PUSH1 0x44 DUP3 ADD MSTORE PUSH1 0x64 ADD PUSH2 0x963 JUMP JUMPDEST PUSH1 0x0 DUP4 DUP2 MSTORE PUSH1 0x97 PUSH1 0x20 MSTORE PUSH1 0x40 SWAP1 KECCAK256 DUP1 SLOAD PUSH1 0x1 PUSH1 0x1 PUSH1 0xA0 SHL SUB NOT AND PUSH1 0x1 PUSH1 0x1 PUSH1 0xA0 SHL SUB DUP5 AND SWAP1 DUP2 OR DUP3 SSTORE PUSH2 0x26FF JUMPI DUP1 SLOAD PUSH32 0xFFFFFFFF0000000000000000FFFFFFFFFFFFFFFFFFFFFFFFFFFFFFFFFFFFFFFF AND DUP2 SSTORE PUSH2 0x2738 JUMP JUMPDEST DUP1 SLOAD PUSH32 0xFFFFFFFF0000000000000000FFFFFFFFFFFFFFFFFFFFFFFFFFFFFFFFFFFFFFFF AND PUSH1 0x1 PUSH1 0xA0 SHL PUSH8 0xFFFFFFFFFFFFFFFF DUP5 AND MUL OR DUP2 SSTORE JUMPDEST PUSH1 0x40 MLOAD PUSH8 0xFFFFFFFFFFFFFFFF DUP4 AND DUP2 MSTORE PUSH1 0x1 PUSH1 0x1 PUSH1 0xA0 SHL SUB DUP5 AND SWAP1 DUP6 SWAP1 PUSH32 0x4E06B4E7000E659094299B3533B47B6AA8AD048E95E872D23D1F4EE55AF89CFE SWAP1 PUSH1 0x20 ADD PUSH1 0x40 MLOAD DUP1 SWAP2 SUB SWAP1 LOG3 POP POP POP POP JUMP JUMPDEST PUSH1 0x0 PUSH1 0x1 PUSH1 0x1 PUSH1 0xE0 SHL SUB NOT DUP3 AND PUSH32 0x80AC58CD00000000000000000000000000000000000000000000000000000000 EQ DUP1 PUSH2 0x27EB JUMPI POP PUSH1 0x1 PUSH1 0x1 PUSH1 0xE0 SHL SUB NOT DUP3 AND PUSH32 0x5B5E139F00000000000000000000000000000000000000000000000000000000 EQ JUMPDEST DUP1 PUSH2 0x814 JUMPI POP PUSH32 0x1FFC9A700000000000000000000000000000000000000000000000000000000 PUSH1 0x1 PUSH1 0x1 PUSH1 0xE0 SHL SUB NOT DUP4 AND EQ PUSH2 0x814 JUMP JUMPDEST PUSH1 0x1 PUSH1 0x1 PUSH1 0xA0 SHL SUB DUP3 AND PUSH2 0x2879 JUMPI PUSH1 0x40 MLOAD PUSH3 0x461BCD PUSH1 0xE5 SHL DUP2 MSTORE PUSH1 0x20 PUSH1 0x4 DUP3 ADD DUP2 SWAP1 MSTORE PUSH1 0x24 DUP3 ADD MSTORE PUSH32 0x4552433732313A206D696E7420746F20746865207A65726F2061646472657373 PUSH1 0x44 DUP3 ADD MSTORE PUSH1 0x64 ADD PUSH2 0x963 JUMP JUMPDEST PUSH1 0x0 DUP2 DUP2 MSTORE PUSH1 0x67 PUSH1 0x20 MSTORE PUSH1 0x40 SWAP1 KECCAK256 SLOAD PUSH1 0x1 PUSH1 0x1 PUSH1 0xA0 SHL SUB AND ISZERO PUSH2 0x28DE JUMPI PUSH1 0x40 MLOAD PUSH3 0x461BCD PUSH1 0xE5 SHL DUP2 MSTORE PUSH1 0x20 PUSH1 0x4 DUP3 ADD MSTORE PUSH1 0x1C PUSH1 0x24 DUP3 ADD MSTORE PUSH32 0x4552433732313A20746F6B656E20616C7265616479206D696E74656400000000 PUSH1 0x44 DUP3 ADD MSTORE PUSH1 0x64 ADD PUSH2 0x963 JUMP JUMPDEST PUSH2 0x28EC PUSH1 0x0 DUP4 DUP4 PUSH1 0x1 PUSH2 0x2DA8 JUMP JUMPDEST PUSH1 0x0 DUP2 DUP2 MSTORE PUSH1 0x67 PUSH1 0x20 MSTORE PUSH1 0x40 SWAP1 KECCAK256 SLOAD PUSH1 0x1 PUSH1 0x1 PUSH1 0xA0 SHL SUB AND ISZERO PUSH2 0x2951 JUMPI PUSH1 0x40 MLOAD PUSH3 0x461BCD PUSH1 0xE5 SHL DUP2 MSTORE PUSH1 0x20 PUSH1 0x4 DUP3 ADD MSTORE PUSH1 0x1C PUSH1 0x24 DUP3 ADD MSTORE PUSH32 0x4552433732313A20746F6B656E20616C7265616479206D696E74656400000000 PUSH1 0x44 DUP3 ADD MSTORE PUSH1 0x64 ADD PUSH2 0x963 JUMP JUMPDEST PUSH1 0x1 PUSH1 0x1 PUSH1 0xA0 SHL SUB DUP3 AND PUSH1 0x0 DUP2 DUP2 MSTORE PUSH1 0x68 PUSH1 0x20 SWAP1 DUP2 MSTORE PUSH1 0x40 DUP1 DUP4 KECCAK256 DUP1 SLOAD PUSH1 0x1 ADD SWAP1 SSTORE DUP5 DUP4 MSTORE PUSH1 0x67 SWAP1 SWAP2 MSTORE DUP1 DUP3 KECCAK256 DUP1 SLOAD PUSH1 0x1 PUSH1 0x1 PUSH1 0xA0 SHL SUB NOT AND DUP5 OR SWAP1 SSTORE MLOAD DUP4 SWAP3 SWAP2 SWAP1 PUSH32 0xDDF252AD1BE2C89B69C2B068FC378DAA952BA7F163C4A11628F55A4DF523B3EF SWAP1 DUP3 SWAP1 LOG4 POP POP JUMP JUMPDEST PUSH1 0x0 PUSH1 0x1 PUSH1 0x1 PUSH1 0xA0 SHL SUB DUP5 AND EXTCODESIZE ISZERO PUSH2 0x2B08 JUMPI PUSH1 0x40 MLOAD PUSH4 0xA85BD01 PUSH1 0xE1 SHL DUP2 MSTORE PUSH1 0x1 PUSH1 0x1 PUSH1 0xA0 SHL SUB DUP6 AND SWAP1 PUSH4 0x150B7A02 SWAP1 PUSH2 0x2A00 SWAP1 CALLER SWAP1 DUP10 SWAP1 DUP9 SWAP1 DUP9 SWAP1 PUSH1 0x4 ADD PUSH2 0x3AC4 JUMP JUMPDEST PUSH1 0x20 PUSH1 0x40 MLOAD DUP1 DUP4 SUB DUP2 PUSH1 0x0 DUP8 GAS CALL SWAP3 POP POP POP DUP1 ISZERO PUSH2 0x2A3B JUMPI POP PUSH1 0x40 DUP1 MLOAD PUSH1 0x1F RETURNDATASIZE SWAP1 DUP2 ADD PUSH1 0x1F NOT AND DUP3 ADD SWAP1 SWAP3 MSTORE PUSH2 0x2A38 SWAP2 DUP2 ADD SWAP1 PUSH2 0x3B00 JUMP JUMPDEST PUSH1 0x1 JUMPDEST PUSH2 0x2AEE JUMPI RETURNDATASIZE DUP1 DUP1 ISZERO PUSH2 0x2A69 JUMPI PUSH1 0x40 MLOAD SWAP2 POP PUSH1 0x1F NOT PUSH1 0x3F RETURNDATASIZE ADD AND DUP3 ADD PUSH1 0x40 MSTORE RETURNDATASIZE DUP3 MSTORE RETURNDATASIZE PUSH1 0x0 PUSH1 0x20 DUP5 ADD RETURNDATACOPY PUSH2 0x2A6E JUMP JUMPDEST PUSH1 0x60 SWAP2 POP JUMPDEST POP DUP1 MLOAD PUSH1 0x0 SUB PUSH2 0x2AE6 JUMPI PUSH1 0x40 MLOAD PUSH3 0x461BCD PUSH1 0xE5 SHL DUP2 MSTORE PUSH1 0x20 PUSH1 0x4 DUP3 ADD MSTORE PUSH1 0x32 PUSH1 0x24 DUP3 ADD MSTORE PUSH32 0x4552433732313A207472616E7366657220746F206E6F6E204552433732315265 PUSH1 0x44 DUP3 ADD MSTORE PUSH32 0x63656976657220696D706C656D656E7465720000000000000000000000000000 PUSH1 0x64 DUP3 ADD MSTORE PUSH1 0x84 ADD PUSH2 0x963 JUMP JUMPDEST DUP1 MLOAD DUP2 PUSH1 0x20 ADD REVERT JUMPDEST PUSH1 0x1 PUSH1 0x1 PUSH1 0xE0 SHL SUB NOT AND PUSH4 0xA85BD01 PUSH1 0xE1 SHL EQ SWAP1 POP PUSH2 0x19DC JUMP JUMPDEST POP PUSH1 0x1 SWAP5 SWAP4 POP POP POP POP JUMP JUMPDEST PUSH1 0x0 SLOAD PUSH2 0x100 SWAP1 DIV PUSH1 0xFF AND PUSH2 0x2B7E JUMPI PUSH1 0x40 MLOAD PUSH3 0x461BCD PUSH1 0xE5 SHL DUP2 MSTORE PUSH1 0x20 PUSH1 0x4 DUP3 ADD MSTORE PUSH1 0x2B PUSH1 0x24 DUP3 ADD MSTORE PUSH32 0x496E697469616C697A61626C653A20636F6E7472616374206973206E6F742069 PUSH1 0x44 DUP3 ADD MSTORE PUSH11 0x6E697469616C697A696E67 PUSH1 0xA8 SHL PUSH1 0x64 DUP3 ADD MSTORE PUSH1 0x84 ADD PUSH2 0x963 JUMP JUMPDEST PUSH2 0x111A DUP3 DUP3 PUSH2 0x2DB4 JUMP JUMPDEST PUSH1 0x0 DUP1 PUSH27 0x184F03E93FF9F4DAA797ED6E38ED64BF6A1F010000000000000000 DUP4 LT PUSH2 0x2BD1 JUMPI PUSH27 0x184F03E93FF9F4DAA797ED6E38ED64BF6A1F010000000000000000 DUP4 DIV SWAP3 POP PUSH1 0x40 ADD JUMPDEST PUSH14 0x4EE2D6D415B85ACEF8100000000 DUP4 LT PUSH2 0x2BFD JUMPI PUSH14 0x4EE2D6D415B85ACEF8100000000 DUP4 DIV SWAP3 POP PUSH1 0x20 ADD JUMPDEST PUSH7 0x2386F26FC10000 DUP4 LT PUSH2 0x2C1B JUMPI PUSH7 0x2386F26FC10000 DUP4 DIV SWAP3 POP PUSH1 0x10 ADD JUMPDEST PUSH4 0x5F5E100 DUP4 LT PUSH2 0x2C33 JUMPI PUSH4 0x5F5E100 DUP4 DIV SWAP3 POP PUSH1 0x8 ADD JUMPDEST PUSH2 0x2710 DUP4 LT PUSH2 0x2C47 JUMPI PUSH2 0x2710 DUP4 DIV SWAP3 POP PUSH1 0x4 ADD JUMPDEST PUSH1 0x64 DUP4 LT PUSH2 0x2C59 JUMPI PUSH1 0x64 DUP4 DIV SWAP3 POP PUSH1 0x2 ADD JUMPDEST PUSH1 0xA DUP4 LT PUSH2 0x814 JUMPI PUSH1 0x1 ADD SWAP3 SWAP2 POP POP JUMP JUMPDEST PUSH1 0xCB SLOAD PUSH1 0x0 SWAP1 PUSH2 0x2C7C SWAP1 PUSH1 0x1 SWAP1 PUSH2 0x38C4 JUMP JUMPDEST PUSH1 0x0 DUP4 DUP2 MSTORE PUSH1 0xCC PUSH1 0x20 MSTORE PUSH1 0x40 DUP2 KECCAK256 SLOAD PUSH1 0xCB DUP1 SLOAD SWAP4 SWAP5 POP SWAP1 SWAP3 DUP5 SWAP1 DUP2 LT PUSH2 0x2CA4 JUMPI PUSH2 0x2CA4 PUSH2 0x38EA JUMP JUMPDEST SWAP1 PUSH1 0x0 MSTORE PUSH1 0x20 PUSH1 0x0 KECCAK256 ADD SLOAD SWAP1 POP DUP1 PUSH1 0xCB DUP4 DUP2 SLOAD DUP2 LT PUSH2 0x2CC5 JUMPI PUSH2 0x2CC5 PUSH2 0x38EA JUMP JUMPDEST PUSH1 0x0 SWAP2 DUP3 MSTORE PUSH1 0x20 DUP1 DUP4 KECCAK256 SWAP1 SWAP2 ADD SWAP3 SWAP1 SWAP3 SSTORE DUP3 DUP2 MSTORE PUSH1 0xCC SWAP1 SWAP2 MSTORE PUSH1 0x40 DUP1 DUP3 KECCAK256 DUP5 SWAP1 SSTORE DUP6 DUP3 MSTORE DUP2 KECCAK256 SSTORE PUSH1 0xCB DUP1 SLOAD DUP1 PUSH2 0x2565 JUMPI PUSH2 0x2565 PUSH2 0x3AAE JUMP JUMPDEST PUSH1 0x1 PUSH1 0x1 PUSH1 0xA0 SHL SUB DUP3 AND PUSH1 0x0 SWAP1 DUP2 MSTORE PUSH1 0xCD PUSH1 0x20 MSTORE PUSH1 0x40 DUP2 KECCAK256 SLOAD PUSH2 0x2D22 SWAP1 PUSH1 0x1 SWAP1 PUSH2 0x38C4 JUMP JUMPDEST PUSH1 0x0 DUP4 DUP2 MSTORE PUSH1 0xCA PUSH1 0x20 MSTORE PUSH1 0x40 SWAP1 KECCAK256 SLOAD SWAP1 SWAP2 POP DUP1 DUP3 EQ PUSH2 0x2D75 JUMPI PUSH1 0x1 PUSH1 0x1 PUSH1 0xA0 SHL SUB DUP5 AND PUSH1 0x0 SWAP1 DUP2 MSTORE PUSH1 0xC9 PUSH1 0x20 SWAP1 DUP2 MSTORE PUSH1 0x40 DUP1 DUP4 KECCAK256 DUP6 DUP5 MSTORE DUP3 MSTORE DUP1 DUP4 KECCAK256 SLOAD DUP5 DUP5 MSTORE DUP2 DUP5 KECCAK256 DUP2 SWAP1 SSTORE DUP4 MSTORE PUSH1 0xCA SWAP1 SWAP2 MSTORE SWAP1 KECCAK256 DUP2 SWAP1 SSTORE JUMPDEST POP PUSH1 0x0 SWAP2 DUP3 MSTORE PUSH1 0xCA PUSH1 0x20 SWAP1 DUP2 MSTORE PUSH1 0x40 DUP1 DUP5 KECCAK256 DUP5 SWAP1 SSTORE PUSH1 0x1 PUSH1 0x1 PUSH1 0xA0 SHL SUB SWAP1 SWAP5 AND DUP4 MSTORE PUSH1 0xC9 DUP2 MSTORE DUP4 DUP4 KECCAK256 SWAP2 DUP4 MSTORE MSTORE SWAP1 DUP2 KECCAK256 SSTORE JUMP JUMPDEST PUSH2 0x161A DUP5 DUP5 DUP5 DUP5 PUSH2 0x2E38 JUMP JUMPDEST PUSH1 0x0 SLOAD PUSH2 0x100 SWAP1 DIV PUSH1 0xFF AND PUSH2 0x2E1F JUMPI PUSH1 0x40 MLOAD PUSH3 0x461BCD PUSH1 0xE5 SHL DUP2 MSTORE PUSH1 0x20 PUSH1 0x4 DUP3 ADD MSTORE PUSH1 0x2B PUSH1 0x24 DUP3 ADD MSTORE PUSH32 0x496E697469616C697A61626C653A20636F6E7472616374206973206E6F742069 PUSH1 0x44 DUP3 ADD MSTORE PUSH11 0x6E697469616C697A696E67 PUSH1 0xA8 SHL PUSH1 0x64 DUP3 ADD MSTORE PUSH1 0x84 ADD PUSH2 0x963 JUMP JUMPDEST PUSH1 0x65 PUSH2 0x2E2B DUP4 DUP3 PUSH2 0x394E JUMP JUMPDEST POP PUSH1 0x66 PUSH2 0xA04 DUP3 DUP3 PUSH2 0x394E JUMP JUMPDEST PUSH2 0x2E44 DUP5 DUP5 DUP5 DUP5 PUSH2 0x2F7B JUMP JUMPDEST PUSH1 0x1 DUP2 GT ISZERO PUSH2 0x2EBB JUMPI PUSH1 0x40 MLOAD PUSH3 0x461BCD PUSH1 0xE5 SHL DUP2 MSTORE PUSH1 0x20 PUSH1 0x4 DUP3 ADD MSTORE PUSH1 0x35 PUSH1 0x24 DUP3 ADD MSTORE PUSH32 0x455243373231456E756D657261626C653A20636F6E7365637574697665207472 PUSH1 0x44 DUP3 ADD MSTORE PUSH32 0x616E7366657273206E6F7420737570706F727465640000000000000000000000 PUSH1 0x64 DUP3 ADD MSTORE PUSH1 0x84 ADD PUSH2 0x963 JUMP JUMPDEST DUP2 PUSH1 0x1 PUSH1 0x1 PUSH1 0xA0 SHL SUB DUP6 AND PUSH2 0x2F19 JUMPI PUSH2 0x2F14 DUP2 PUSH2 0x101 DUP1 SLOAD PUSH1 0x0 DUP4 DUP2 MSTORE PUSH2 0x102 PUSH1 0x20 MSTORE PUSH1 0x40 DUP2 KECCAK256 DUP3 SWAP1 SSTORE PUSH1 0x1 DUP3 ADD DUP4 SSTORE SWAP2 SWAP1 SWAP2 MSTORE PUSH32 0x109EA3CEBB188B9C1B9FC5BB3920BE60DFDC8699098DFF92F3D80DAACA747689 ADD SSTORE JUMP JUMPDEST PUSH2 0x2F3C JUMP JUMPDEST DUP4 PUSH1 0x1 PUSH1 0x1 PUSH1 0xA0 SHL SUB AND DUP6 PUSH1 0x1 PUSH1 0x1 PUSH1 0xA0 SHL SUB AND EQ PUSH2 0x2F3C JUMPI PUSH2 0x2F3C DUP6 DUP3 PUSH2 0x3003 JUMP JUMPDEST PUSH1 0x1 PUSH1 0x1 PUSH1 0xA0 SHL SUB DUP5 AND PUSH2 0x2F58 JUMPI PUSH2 0x2F53 DUP2 PUSH2 0x30A3 JUMP JUMPDEST PUSH2 0xF20 JUMP JUMPDEST DUP5 PUSH1 0x1 PUSH1 0x1 PUSH1 0xA0 SHL SUB AND DUP5 PUSH1 0x1 PUSH1 0x1 PUSH1 0xA0 SHL SUB AND EQ PUSH2 0xF20 JUMPI PUSH2 0xF20 DUP5 DUP3 PUSH2 0x313C JUMP JUMPDEST PUSH1 0x1 DUP2 GT ISZERO PUSH2 0x161A JUMPI PUSH1 0x1 PUSH1 0x1 PUSH1 0xA0 SHL SUB DUP5 AND ISZERO PUSH2 0x2FC1 JUMPI PUSH1 0x1 PUSH1 0x1 PUSH1 0xA0 SHL SUB DUP5 AND PUSH1 0x0 SWAP1 DUP2 MSTORE PUSH1 0x68 PUSH1 0x20 MSTORE PUSH1 0x40 DUP2 KECCAK256 DUP1 SLOAD DUP4 SWAP3 SWAP1 PUSH2 0x2FBB SWAP1 DUP5 SWAP1 PUSH2 0x38C4 JUMP JUMPDEST SWAP1 SWAP2 SSTORE POP POP JUMPDEST PUSH1 0x1 PUSH1 0x1 PUSH1 0xA0 SHL SUB DUP4 AND ISZERO PUSH2 0x161A JUMPI PUSH1 0x1 PUSH1 0x1 PUSH1 0xA0 SHL SUB DUP4 AND PUSH1 0x0 SWAP1 DUP2 MSTORE PUSH1 0x68 PUSH1 0x20 MSTORE PUSH1 0x40 DUP2 KECCAK256 DUP1 SLOAD DUP4 SWAP3 SWAP1 PUSH2 0x2FF8 SWAP1 DUP5 SWAP1 PUSH2 0x38D7 JUMP JUMPDEST SWAP1 SWAP2 SSTORE POP POP POP POP POP POP JUMP JUMPDEST PUSH1 0x0 PUSH1 0x1 PUSH2 0x3010 DUP5 PUSH2 0x1432 JUMP JUMPDEST PUSH2 0x301A SWAP2 SWAP1 PUSH2 0x38C4 JUMP JUMPDEST PUSH1 0x0 DUP4 DUP2 MSTORE PUSH2 0x100 PUSH1 0x20 MSTORE PUSH1 0x40 SWAP1 KECCAK256 SLOAD SWAP1 SWAP2 POP DUP1 DUP3 EQ PUSH2 0x306F JUMPI PUSH1 0x1 PUSH1 0x1 PUSH1 0xA0 SHL SUB DUP5 AND PUSH1 0x0 SWAP1 DUP2 MSTORE PUSH1 0xFF PUSH1 0x20 SWAP1 DUP2 MSTORE PUSH1 0x40 DUP1 DUP4 KECCAK256 DUP6 DUP5 MSTORE DUP3 MSTORE DUP1 DUP4 KECCAK256 SLOAD DUP5 DUP5 MSTORE DUP2 DUP5 KECCAK256 DUP2 SWAP1 SSTORE DUP4 MSTORE PUSH2 0x100 SWAP1 SWAP2 MSTORE SWAP1 KECCAK256 DUP2 SWAP1 SSTORE JUMPDEST POP PUSH1 0x0 SWAP2 DUP3 MSTORE PUSH2 0x100 PUSH1 0x20 SWAP1 DUP2 MSTORE PUSH1 0x40 DUP1 DUP5 KECCAK256 DUP5 SWAP1 SSTORE PUSH1 0x1 PUSH1 0x1 PUSH1 0xA0 SHL SUB SWAP1 SWAP5 AND DUP4 MSTORE PUSH1 0xFF DUP2 MSTORE DUP4 DUP4 KECCAK256 SWAP2 DUP4 MSTORE MSTORE SWAP1 DUP2 KECCAK256 SSTORE JUMP JUMPDEST PUSH2 0x101 SLOAD PUSH1 0x0 SWAP1 PUSH2 0x30B6 SWAP1 PUSH1 0x1 SWAP1 PUSH2 0x38C4 JUMP JUMPDEST PUSH1 0x0 DUP4 DUP2 MSTORE PUSH2 0x102 PUSH1 0x20 MSTORE PUSH1 0x40 DUP2 KECCAK256 SLOAD PUSH2 0x101 DUP1 SLOAD SWAP4 SWAP5 POP SWAP1 SWAP3 DUP5 SWAP1 DUP2 LT PUSH2 0x30E0 JUMPI PUSH2 0x30E0 PUSH2 0x38EA JUMP JUMPDEST SWAP1 PUSH1 0x0 MSTORE PUSH1 0x20 PUSH1 0x0 KECCAK256 ADD SLOAD SWAP1 POP DUP1 PUSH2 0x101 DUP4 DUP2 SLOAD DUP2 LT PUSH2 0x3102 JUMPI PUSH2 0x3102 PUSH2 0x38EA JUMP JUMPDEST PUSH1 0x0 SWAP2 DUP3 MSTORE PUSH1 0x20 DUP1 DUP4 KECCAK256 SWAP1 SWAP2 ADD SWAP3 SWAP1 SWAP3 SSTORE DUP3 DUP2 MSTORE PUSH2 0x102 SWAP1 SWAP2 MSTORE PUSH1 0x40 DUP1 DUP3 KECCAK256 DUP5 SWAP1 SSTORE DUP6 DUP3 MSTORE DUP2 KECCAK256 SSTORE PUSH2 0x101 DUP1 SLOAD DUP1 PUSH2 0x2565 JUMPI PUSH2 0x2565 PUSH2 0x3AAE JUMP JUMPDEST PUSH1 0x0 PUSH2 0x3147 DUP4 PUSH2 0x1432 JUMP JUMPDEST PUSH1 0x1 PUSH1 0x1 PUSH1 0xA0 SHL SUB SWAP1 SWAP4 AND PUSH1 0x0 SWAP1 DUP2 MSTORE PUSH1 0xFF PUSH1 0x20 SWAP1 DUP2 MSTORE PUSH1 0x40 DUP1 DUP4 KECCAK256 DUP7 DUP5 MSTORE DUP3 MSTORE DUP1 DUP4 KECCAK256 DUP6 SWAP1 SSTORE SWAP4 DUP3 MSTORE PUSH2 0x100 SWAP1 MSTORE SWAP2 SWAP1 SWAP2 KECCAK256 SWAP2 SWAP1 SWAP2 SSTORE POP JUMP JUMPDEST PUSH1 0x1 PUSH1 0x1 PUSH1 0xE0 SHL SUB NOT DUP2 AND DUP2 EQ PUSH2 0xF7B JUMPI PUSH1 0x0 DUP1 REVERT JUMPDEST PUSH1 0x0 PUSH1 0x20 DUP3 DUP5 SUB SLT ISZERO PUSH2 0x31A9 JUMPI PUSH1 0x0 DUP1 REVERT JUMPDEST DUP2 CALLDATALOAD PUSH2 0xDAE DUP2 PUSH2 0x3181 JUMP JUMPDEST PUSH1 0x0 JUMPDEST DUP4 DUP2 LT ISZERO PUSH2 0x31CF JUMPI DUP2 DUP2 ADD MLOAD DUP4 DUP3 ADD MSTORE PUSH1 0x20 ADD PUSH2 0x31B7 JUMP JUMPDEST POP POP PUSH1 0x0 SWAP2 ADD MSTORE JUMP JUMPDEST PUSH1 0x0 DUP2 MLOAD DUP1 DUP5 MSTORE PUSH2 0x31F0 DUP2 PUSH1 0x20 DUP7 ADD PUSH1 0x20 DUP7 ADD PUSH2 0x31B4 JUMP JUMPDEST PUSH1 0x1F ADD PUSH1 0x1F NOT AND SWAP3 SWAP1 SWAP3 ADD PUSH1 0x20 ADD SWAP3 SWAP2 POP POP JUMP JUMPDEST PUSH1 0x20 DUP2 MSTORE PUSH1 0x0 PUSH2 0xDAE PUSH1 0x20 DUP4 ADD DUP5 PUSH2 0x31D8 JUMP JUMPDEST PUSH1 0x0 PUSH1 0x20 DUP3 DUP5 SUB SLT ISZERO PUSH2 0x3229 JUMPI PUSH1 0x0 DUP1 REVERT JUMPDEST POP CALLDATALOAD SWAP2 SWAP1 POP JUMP JUMPDEST DUP1 CALLDATALOAD PUSH1 0x1 PUSH1 0x1 PUSH1 0xA0 SHL SUB DUP2 AND DUP2 EQ PUSH2 0x3247 JUMPI PUSH1 0x0 DUP1 REVERT JUMPDEST SWAP2 SWAP1 POP JUMP JUMPDEST PUSH1 0x0 DUP1 PUSH1 0x40 DUP4 DUP6 SUB SLT ISZERO PUSH2 0x325F JUMPI PUSH1 0x0 DUP1 REVERT JUMPDEST PUSH2 0x3268 DUP4 PUSH2 0x3230 JUMP JUMPDEST SWAP5 PUSH1 0x20 SWAP4 SWAP1 SWAP4 ADD CALLDATALOAD SWAP4 POP POP POP JUMP JUMPDEST PUSH1 0x0 PUSH1 0x20 DUP3 DUP5 SUB SLT ISZERO PUSH2 0x3288 JUMPI PUSH1 0x0 DUP1 REVERT JUMPDEST PUSH2 0xDAE DUP3 PUSH2 0x3230 JUMP JUMPDEST DUP1 CALLDATALOAD PUSH4 0xFFFFFFFF DUP2 AND DUP2 EQ PUSH2 0x3247 JUMPI PUSH1 0x0 DUP1 REVERT JUMPDEST PUSH1 0x0 DUP1 PUSH1 0x0 PUSH1 0x60 DUP5 DUP7 SUB SLT ISZERO PUSH2 0x32BA JUMPI PUSH1 0x0 DUP1 REVERT JUMPDEST DUP4 CALLDATALOAD SWAP3 POP PUSH2 0x32CA PUSH1 0x20 DUP6 ADD PUSH2 0x3291 JUMP JUMPDEST SWAP2 POP PUSH1 0x40 DUP5 ADD CALLDATALOAD PUSH1 0x1 PUSH1 0x1 PUSH1 0x80 SHL SUB DUP2 AND DUP2 EQ PUSH2 0x32E6 JUMPI PUSH1 0x0 DUP1 REVERT JUMPDEST DUP1 SWAP2 POP POP SWAP3 POP SWAP3 POP SWAP3 JUMP JUMPDEST PUSH1 0x0 DUP1 PUSH1 0x0 PUSH1 0x60 DUP5 DUP7 SUB SLT ISZERO PUSH2 0x3306 JUMPI PUSH1 0x0 DUP1 REVERT JUMPDEST PUSH2 0x330F DUP5 PUSH2 0x3230 JUMP JUMPDEST SWAP3 POP PUSH2 0x331D PUSH1 0x20 DUP6 ADD PUSH2 0x3230 JUMP JUMPDEST SWAP2 POP PUSH1 0x40 DUP5 ADD CALLDATALOAD SWAP1 POP SWAP3 POP SWAP3 POP SWAP3 JUMP JUMPDEST PUSH1 0x0 DUP1 DUP4 PUSH1 0x1F DUP5 ADD SLT PUSH2 0x333F JUMPI PUSH1 0x0 DUP1 REVERT JUMPDEST POP DUP2 CALLDATALOAD PUSH8 0xFFFFFFFFFFFFFFFF DUP2 GT ISZERO PUSH2 0x3357 JUMPI PUSH1 0x0 DUP1 REVERT JUMPDEST PUSH1 0x20 DUP4 ADD SWAP2 POP DUP4 PUSH1 0x20 DUP3 DUP6 ADD ADD GT ISZERO PUSH2 0x336F JUMPI PUSH1 0x0 DUP1 REVERT JUMPDEST SWAP3 POP SWAP3 SWAP1 POP JUMP JUMPDEST PUSH4 0x4E487B71 PUSH1 0xE0 SHL PUSH1 0x0 MSTORE PUSH1 0x41 PUSH1 0x4 MSTORE PUSH1 0x24 PUSH1 0x0 REVERT JUMPDEST PUSH1 0x0 PUSH8 0xFFFFFFFFFFFFFFFF DUP1 DUP5 GT ISZERO PUSH2 0x33A7 JUMPI PUSH2 0x33A7 PUSH2 0x3376 JUMP JUMPDEST PUSH1 0x40 MLOAD PUSH1 0x1F DUP6 ADD PUSH1 0x1F NOT SWAP1 DUP2 AND PUSH1 0x3F ADD AND DUP2 ADD SWAP1 DUP3 DUP3 GT DUP2 DUP4 LT OR ISZERO PUSH2 0x33CF JUMPI PUSH2 0x33CF PUSH2 0x3376 JUMP JUMPDEST DUP2 PUSH1 0x40 MSTORE DUP1 SWAP4 POP DUP6 DUP2 MSTORE DUP7 DUP7 DUP7 ADD GT ISZERO PUSH2 0x33E8 JUMPI PUSH1 0x0 DUP1 REVERT JUMPDEST DUP6 DUP6 PUSH1 0x20 DUP4 ADD CALLDATACOPY PUSH1 0x0 PUSH1 0x20 DUP8 DUP4 ADD ADD MSTORE POP POP POP SWAP4 SWAP3 POP POP POP JUMP JUMPDEST PUSH1 0x0 DUP3 PUSH1 0x1F DUP4 ADD SLT PUSH2 0x3413 JUMPI PUSH1 0x0 DUP1 REVERT JUMPDEST PUSH2 0xDAE DUP4 DUP4 CALLDATALOAD PUSH1 0x20 DUP6 ADD PUSH2 0x338C JUMP JUMPDEST PUSH1 0x0 DUP1 PUSH1 0x0 DUP1 PUSH1 0x0 DUP1 PUSH1 0x0 DUP1 PUSH1 0x0 DUP1 PUSH1 0x0 DUP1 PUSH2 0x140 DUP14 DUP16 SUB SLT ISZERO PUSH2 0x3445 JUMPI PUSH1 0x0 DUP1 REVERT JUMPDEST PUSH8 0xFFFFFFFFFFFFFFFF DUP14 CALLDATALOAD GT ISZERO PUSH2 0x345B JUMPI PUSH1 0x0 DUP1 REVERT JUMPDEST PUSH2 0x3468 DUP15 DUP15 CALLDATALOAD DUP16 ADD PUSH2 0x332D JUMP JUMPDEST SWAP1 SWAP13 POP SWAP11 POP PUSH8 0xFFFFFFFFFFFFFFFF PUSH1 0x20 DUP15 ADD CALLDATALOAD GT ISZERO PUSH2 0x3486 JUMPI PUSH1 0x0 DUP1 REVERT JUMPDEST PUSH2 0x3496 DUP15 PUSH1 0x20 DUP16 ADD CALLDATALOAD DUP16 ADD PUSH2 0x332D JUMP JUMPDEST SWAP1 SWAP11 POP SWAP9 POP PUSH2 0x34A7 PUSH1 0x40 DUP15 ADD PUSH2 0x3291 JUMP JUMPDEST SWAP8 POP PUSH2 0x34B5 PUSH1 0x60 DUP15 ADD PUSH2 0x3291 JUMP JUMPDEST SWAP7 POP PUSH2 0x34C3 PUSH1 0x80 DUP15 ADD PUSH2 0x3291 JUMP JUMPDEST SWAP6 POP PUSH2 0x34D1 PUSH1 0xA0 DUP15 ADD PUSH2 0x3291 JUMP JUMPDEST SWAP5 POP PUSH2 0x34DF PUSH1 0xC0 DUP15 ADD PUSH2 0x3230 JUMP JUMPDEST SWAP4 POP PUSH2 0x34ED PUSH1 0xE0 DUP15 ADD PUSH2 0x3230 JUMP JUMPDEST SWAP3 POP PUSH2 0x34FC PUSH2 0x100 DUP15 ADD PUSH2 0x3230 JUMP JUMPDEST SWAP2 POP PUSH8 0xFFFFFFFFFFFFFFFF PUSH2 0x120 DUP15 ADD CALLDATALOAD GT ISZERO PUSH2 0x3518 JUMPI PUSH1 0x0 DUP1 REVERT JUMPDEST PUSH2 0x3529 DUP15 PUSH2 0x120 DUP16 ADD CALLDATALOAD DUP16 ADD PUSH2 0x3402 JUMP JUMPDEST SWAP1 POP SWAP3 SWAP6 SWAP9 SWAP12 POP SWAP3 SWAP6 SWAP9 SWAP12 POP SWAP3 SWAP6 SWAP9 SWAP12 JUMP JUMPDEST PUSH1 0x0 DUP1 PUSH1 0x40 DUP4 DUP6 SUB SLT ISZERO PUSH2 0x354E JUMPI PUSH1 0x0 DUP1 REVERT JUMPDEST PUSH2 0x3557 DUP4 PUSH2 0x3230 JUMP JUMPDEST SWAP2 POP PUSH1 0x20 DUP4 ADD CALLDATALOAD DUP1 ISZERO ISZERO DUP2 EQ PUSH2 0x356C JUMPI PUSH1 0x0 DUP1 REVERT JUMPDEST DUP1 SWAP2 POP POP SWAP3 POP SWAP3 SWAP1 POP JUMP JUMPDEST PUSH1 0x0 DUP1 PUSH1 0x0 DUP1 PUSH1 0x80 DUP6 DUP8 SUB SLT ISZERO PUSH2 0x358D JUMPI PUSH1 0x0 DUP1 REVERT JUMPDEST PUSH2 0x3596 DUP6 PUSH2 0x3230 JUMP JUMPDEST SWAP4 POP PUSH2 0x35A4 PUSH1 0x20 DUP7 ADD PUSH2 0x3230 JUMP JUMPDEST SWAP3 POP PUSH1 0x40 DUP6 ADD CALLDATALOAD SWAP2 POP PUSH1 0x60 DUP6 ADD CALLDATALOAD PUSH8 0xFFFFFFFFFFFFFFFF DUP2 GT ISZERO PUSH2 0x35C7 JUMPI PUSH1 0x0 DUP1 REVERT JUMPDEST DUP6 ADD PUSH1 0x1F DUP2 ADD DUP8 SGT PUSH2 0x35D8 JUMPI PUSH1 0x0 DUP1 REVERT JUMPDEST PUSH2 0x35E7 DUP8 DUP3 CALLDATALOAD PUSH1 0x20 DUP5 ADD PUSH2 0x338C JUMP JUMPDEST SWAP2 POP POP SWAP3 SWAP6 SWAP2 SWAP5 POP SWAP3 POP JUMP JUMPDEST PUSH1 0x0 DUP1 PUSH1 0x0 PUSH1 0x60 DUP5 DUP7 SUB SLT ISZERO PUSH2 0x3608 JUMPI PUSH1 0x0 DUP1 REVERT JUMPDEST DUP4 CALLDATALOAD SWAP3 POP PUSH2 0x3618 PUSH1 0x20 DUP6 ADD PUSH2 0x3230 JUMP JUMPDEST SWAP2 POP PUSH1 0x40 DUP5 ADD CALLDATALOAD PUSH8 0xFFFFFFFFFFFFFFFF DUP2 AND DUP2 EQ PUSH2 0x32E6 JUMPI PUSH1 0x0 DUP1 REVERT JUMPDEST PUSH1 0x0 DUP1 PUSH1 0x40 DUP4 DUP6 SUB SLT ISZERO PUSH2 0x3648 JUMPI PUSH1 0x0 DUP1 REVERT JUMPDEST PUSH2 0x3651 DUP4 PUSH2 0x3230 JUMP JUMPDEST SWAP2 POP PUSH2 0x365F PUSH1 0x20 DUP5 ADD PUSH2 0x3230 JUMP JUMPDEST SWAP1 POP SWAP3 POP SWAP3 SWAP1 POP JUMP JUMPDEST PUSH1 0x1 DUP2 DUP2 SHR SWAP1 DUP3 AND DUP1 PUSH2 0x367C JUMPI PUSH1 0x7F DUP3 AND SWAP2 POP JUMPDEST PUSH1 0x20 DUP3 LT DUP2 SUB PUSH2 0x369C JUMPI PUSH4 0x4E487B71 PUSH1 0xE0 SHL PUSH1 0x0 MSTORE PUSH1 0x22 PUSH1 0x4 MSTORE PUSH1 0x24 PUSH1 0x0 REVERT JUMPDEST POP SWAP2 SWAP1 POP JUMP JUMPDEST DUP1 MLOAD PUSH10 0xFFFFFFFFFFFFFFFFFFFF DUP2 AND DUP2 EQ PUSH2 0x3247 JUMPI PUSH1 0x0 DUP1 REVERT JUMPDEST PUSH1 0x0 DUP1 PUSH1 0x0 DUP1 PUSH1 0x0 PUSH1 0xA0 DUP7 DUP9 SUB SLT ISZERO PUSH2 0x36D4 JUMPI PUSH1 0x0 DUP1 REVERT JUMPDEST PUSH2 0x36DD DUP7 PUSH2 0x36A2 JUMP JUMPDEST SWAP5 POP PUSH1 0x20 DUP7 ADD MLOAD SWAP4 POP PUSH1 0x40 DUP7 ADD MLOAD SWAP3 POP PUSH1 0x60 DUP7 ADD MLOAD SWAP2 POP PUSH2 0x3700 PUSH1 0x80 DUP8 ADD PUSH2 0x36A2 JUMP JUMPDEST SWAP1 POP SWAP3 SWAP6 POP SWAP3 SWAP6 SWAP1 SWAP4 POP JUMP JUMPDEST PUSH4 0x4E487B71 PUSH1 0xE0 SHL PUSH1 0x0 MSTORE PUSH1 0x1 PUSH1 0x4 MSTORE PUSH1 0x24 PUSH1 0x0 REVERT JUMPDEST PUSH1 0x0 PUSH1 0x20 DUP3 DUP5 SUB SLT ISZERO PUSH2 0x3734 JUMPI PUSH1 0x0 DUP1 REVERT JUMPDEST DUP2 MLOAD PUSH1 0xFF DUP2 AND DUP2 EQ PUSH2 0xDAE JUMPI PUSH1 0x0 DUP1 REVERT JUMPDEST PUSH4 0x4E487B71 PUSH1 0xE0 SHL PUSH1 0x0 MSTORE PUSH1 0x11 PUSH1 0x4 MSTORE PUSH1 0x24 PUSH1 0x0 REVERT JUMPDEST PUSH1 0x1 DUP2 DUP2 JUMPDEST DUP1 DUP6 GT ISZERO PUSH2 0x3796 JUMPI DUP2 PUSH1 0x0 NOT DIV DUP3 GT ISZERO PUSH2 0x377C JUMPI PUSH2 0x377C PUSH2 0x3745 JUMP JUMPDEST DUP1 DUP6 AND ISZERO PUSH2 0x3789 JUMPI SWAP2 DUP2 MUL SWAP2 JUMPDEST SWAP4 DUP5 SHR SWAP4 SWAP1 DUP1 MUL SWAP1 PUSH2 0x3760 JUMP JUMPDEST POP SWAP3 POP SWAP3 SWAP1 POP JUMP JUMPDEST PUSH1 0x0 DUP3 PUSH2 0x37AD JUMPI POP PUSH1 0x1 PUSH2 0x814 JUMP JUMPDEST DUP2 PUSH2 0x37BA JUMPI POP PUSH1 0x0 PUSH2 0x814 JUMP JUMPDEST DUP2 PUSH1 0x1 DUP2 EQ PUSH2 0x37D0 JUMPI PUSH1 0x2 DUP2 EQ PUSH2 0x37DA JUMPI PUSH2 0x37F6 JUMP JUMPDEST PUSH1 0x1 SWAP2 POP POP PUSH2 0x814 JUMP JUMPDEST PUSH1 0xFF DUP5 GT ISZERO PUSH2 0x37EB JUMPI PUSH2 0x37EB PUSH2 0x3745 JUMP JUMPDEST POP POP PUSH1 0x1 DUP3 SHL PUSH2 0x814 JUMP JUMPDEST POP PUSH1 0x20 DUP4 LT PUSH2 0x133 DUP4 LT AND PUSH1 0x4E DUP5 LT PUSH1 0xB DUP5 LT AND OR ISZERO PUSH2 0x3819 JUMPI POP DUP2 DUP2 EXP PUSH2 0x814 JUMP JUMPDEST PUSH2 0x3823 DUP4 DUP4 PUSH2 0x375B JUMP JUMPDEST DUP1 PUSH1 0x0 NOT DIV DUP3 GT ISZERO PUSH2 0x3837 JUMPI PUSH2 0x3837 PUSH2 0x3745 JUMP JUMPDEST MUL SWAP4 SWAP3 POP POP POP JUMP JUMPDEST PUSH1 0x0 PUSH2 0xDAE PUSH1 0xFF DUP5 AND DUP4 PUSH2 0x379E JUMP JUMPDEST PUSH1 0x0 DUP3 PUSH2 0x386B JUMPI PUSH4 0x4E487B71 PUSH1 0xE0 SHL PUSH1 0x0 MSTORE PUSH1 0x12 PUSH1 0x4 MSTORE PUSH1 0x24 PUSH1 0x0 REVERT JUMPDEST POP DIV SWAP1 JUMP JUMPDEST DUP1 DUP3 MUL DUP2 ISZERO DUP3 DUP3 DIV DUP5 EQ OR PUSH2 0x814 JUMPI PUSH2 0x814 PUSH2 0x3745 JUMP JUMPDEST PUSH2 0xFFFF DUP3 DUP2 AND DUP3 DUP3 AND SUB SWAP1 DUP1 DUP3 GT ISZERO PUSH2 0x38A2 JUMPI PUSH2 0x38A2 PUSH2 0x3745 JUMP JUMPDEST POP SWAP3 SWAP2 POP POP JUMP JUMPDEST PUSH2 0xFFFF DUP2 DUP2 AND DUP4 DUP3 AND ADD SWAP1 DUP1 DUP3 GT ISZERO PUSH2 0x38A2 JUMPI PUSH2 0x38A2 PUSH2 0x3745 JUMP JUMPDEST DUP2 DUP2 SUB DUP2 DUP2 GT ISZERO PUSH2 0x814 JUMPI PUSH2 0x814 PUSH2 0x3745 JUMP JUMPDEST DUP1 DUP3 ADD DUP1 DUP3 GT ISZERO PUSH2 0x814 JUMPI PUSH2 0x814 PUSH2 0x3745 JUMP JUMPDEST PUSH4 0x4E487B71 PUSH1 0xE0 SHL PUSH1 0x0 MSTORE PUSH1 0x32 PUSH1 0x4 MSTORE PUSH1 0x24 PUSH1 0x0 REVERT JUMPDEST PUSH1 0x1F DUP3 GT ISZERO PUSH2 0xA04 JUMPI PUSH1 0x0 DUP2 DUP2 MSTORE PUSH1 0x20 DUP2 KECCAK256 PUSH1 0x1F DUP6 ADD PUSH1 0x5 SHR DUP2 ADD PUSH1 0x20 DUP7 LT ISZERO PUSH2 0x3927 JUMPI POP DUP1 JUMPDEST PUSH1 0x1F DUP6 ADD PUSH1 0x5 SHR DUP3 ADD SWAP2 POP JUMPDEST DUP2 DUP2 LT ISZERO PUSH2 0x3946 JUMPI DUP3 DUP2 SSTORE PUSH1 0x1 ADD PUSH2 0x3933 JUMP JUMPDEST POP POP POP POP POP POP JUMP JUMPDEST DUP2 MLOAD PUSH8 0xFFFFFFFFFFFFFFFF DUP2 GT ISZERO PUSH2 0x3968 JUMPI PUSH2 0x3968 PUSH2 0x3376 JUMP JUMPDEST PUSH2 0x397C DUP2 PUSH2 0x3976 DUP5 SLOAD PUSH2 0x3668 JUMP JUMPDEST DUP5 PUSH2 0x3900 JUMP JUMPDEST PUSH1 0x20 DUP1 PUSH1 0x1F DUP4 GT PUSH1 0x1 DUP2 EQ PUSH2 0x39B1 JUMPI PUSH1 0x0 DUP5 ISZERO PUSH2 0x3999 JUMPI POP DUP6 DUP4 ADD MLOAD JUMPDEST PUSH1 0x0 NOT PUSH1 0x3 DUP7 SWAP1 SHL SHR NOT AND PUSH1 0x1 DUP6 SWAP1 SHL OR DUP6 SSTORE PUSH2 0x3946 JUMP JUMPDEST PUSH1 0x0 DUP6 DUP2 MSTORE PUSH1 0x20 DUP2 KECCAK256 PUSH1 0x1F NOT DUP7 AND SWAP2 JUMPDEST DUP3 DUP2 LT ISZERO PUSH2 0x39E0 JUMPI DUP9 DUP7 ADD MLOAD DUP3 SSTORE SWAP5 DUP5 ADD SWAP5 PUSH1 0x1 SWAP1 SWAP2 ADD SWAP1 DUP5 ADD PUSH2 0x39C1 JUMP JUMPDEST POP DUP6 DUP3 LT ISZERO PUSH2 0x39FE JUMPI DUP8 DUP6 ADD MLOAD PUSH1 0x0 NOT PUSH1 0x3 DUP9 SWAP1 SHL PUSH1 0xF8 AND SHR NOT AND DUP2 SSTORE JUMPDEST POP POP POP POP POP PUSH1 0x1 SWAP1 DUP2 SHL ADD SWAP1 SSTORE POP JUMP JUMPDEST PUSH1 0x0 DUP3 MLOAD PUSH2 0x3A20 DUP2 DUP5 PUSH1 0x20 DUP8 ADD PUSH2 0x31B4 JUMP JUMPDEST PUSH32 0x2E6A736F6E3F616C743D6D656469610000000000000000000000000000000000 SWAP3 ADD SWAP2 DUP3 MSTORE POP PUSH1 0xF ADD SWAP2 SWAP1 POP JUMP JUMPDEST PUSH1 0x0 DUP4 MLOAD PUSH2 0x3A61 DUP2 DUP5 PUSH1 0x20 DUP9 ADD PUSH2 0x31B4 JUMP JUMPDEST DUP4 MLOAD SWAP1 DUP4 ADD SWAP1 PUSH2 0x3A75 DUP2 DUP4 PUSH1 0x20 DUP9 ADD PUSH2 0x31B4 JUMP JUMPDEST ADD SWAP5 SWAP4 POP POP POP POP JUMP JUMPDEST PUSH1 0x0 PUSH1 0x1 DUP3 ADD PUSH2 0x3A90 JUMPI PUSH2 0x3A90 PUSH2 0x3745 JUMP JUMPDEST POP PUSH1 0x1 ADD SWAP1 JUMP JUMPDEST PUSH1 0x0 DUP2 PUSH2 0x3AA6 JUMPI PUSH2 0x3AA6 PUSH2 0x3745 JUMP JUMPDEST POP PUSH1 0x0 NOT ADD SWAP1 JUMP JUMPDEST PUSH4 0x4E487B71 PUSH1 0xE0 SHL PUSH1 0x0 MSTORE PUSH1 0x31 PUSH1 0x4 MSTORE PUSH1 0x24 PUSH1 0x0 REVERT JUMPDEST PUSH1 0x0 PUSH1 0x1 PUSH1 0x1 PUSH1 0xA0 SHL SUB DUP1 DUP8 AND DUP4 MSTORE DUP1 DUP7 AND PUSH1 0x20 DUP5 ADD MSTORE POP DUP4 PUSH1 0x40 DUP4 ADD MSTORE PUSH1 0x80 PUSH1 0x60 DUP4 ADD MSTORE PUSH2 0x3AF6 PUSH1 0x80 DUP4 ADD DUP5 PUSH2 0x31D8 JUMP JUMPDEST SWAP7 SWAP6 POP POP POP POP POP POP JUMP JUMPDEST PUSH1 0x0 PUSH1 0x20 DUP3 DUP5 SUB SLT ISZERO PUSH2 0x3B12 JUMPI PUSH1 0x0 DUP1 REVERT JUMPDEST DUP2 MLOAD PUSH2 0xDAE DUP2 PUSH2 0x3181 JUMP INVALID LOG2 PUSH5 0x6970667358 0x22 SLT KECCAK256 0x1E SGT DUP5 0x27 SWAP13 CREATE DUP16 PUSH13 0xCB018627ACAC7916DB339F3BB2 0xB7 0x2C 0x29 LOG3 DELEGATECALL ORIGIN 0xDE 0xED 0xF6 0x2E MSIZE PUSH5 0x736F6C6343 STOP ADDMOD GT STOP CALLER "},"methodIdentifiers":{"approve(address,uint256)":"095ea7b3","balanceOf(address)":"70a08231","balances(address)":"27e235e3","cancelOfferForRent(uint256)":"d3d72617","contentSubscriptionDuration()":"11daca27","contentSubscriptionPrice()":"63dd96c4","expiresAt(uint256)":"17c95709","getApproved(uint256)":"081812fc","getAvailableTokenCount()":"d5370904","getAvailableTokenIdAtIndex(uint256)":"47906905","getRentingConditions(uint256)":"abb302ad","initialize(string,string,uint32,uint32,uint32,uint32,address,address,address,string)":"5f3fd7bc","isApprovedForAll(address,address)":"e985e9c5","minRentDuration()":"55673d07","minRentPrice()":"c25a2c65","mint()":"1249c58b","name()":"06fdde03","offerForRent(uint256,uint32,uint128)":"22f3bb3e","ownerOf(uint256)":"6352211e","reclaim(uint256)":"2dabbeed","rent(uint256)":"7456be7d","safeTransferFrom(address,address,uint256)":"42842e0e","safeTransferFrom(address,address,uint256,bytes)":"b88d4fde","setApprovalForAll(address,bool)":"a22cb465","setUser(uint256,address,uint64)":"e030565e","supportsInterface(bytes4)":"01ffc9a7","symbol()":"95d89b41","tokenByIndex(uint256)":"4f6ccce7","tokenOfOwnerByIndex(address,uint256)":"2f745c59","tokenOfUserByIndex(address,uint256)":"1d350ef8","tokenURI(uint256)":"c87b56dd","totalSupply()":"18160ddd","transferFrom(address,address,uint256)":"23b872dd","usedBalanceOf(address)":"227773c0","userExpires(uint256)":"8fc88c48","userOf(uint256)":"c2f1f14a","withdraw()":"3ccfd60b"}},"storageLayout":{"storage":[{"astId":52,"contract":"contracts/Subscription.sol:Subscription","label":"_initialized","offset":0,"slot":"0","type":"t_uint8"},{"astId":55,"contract":"contracts/Subscription.sol:Subscription","label":"_initializing","offset":1,"slot":"0","type":"t_bool"},{"astId":2075,"contract":"contracts/Subscription.sol:Subscription","label":"__gap","offset":0,"slot":"1","type":"t_array(t_uint256)50_storage"},{"astId":2368,"contract":"contracts/Subscription.sol:Subscription","label":"__gap","offset":0,"slot":"51","type":"t_array(t_uint256)50_storage"},{"astId":243,"contract":"contracts/Subscription.sol:Subscription","label":"_name","offset":0,"slot":"101","type":"t_string_storage"},{"astId":245,"contract":"contracts/Subscription.sol:Subscription","label":"_symbol","offset":0,"slot":"102","type":"t_string_storage"},{"astId":249,"contract":"contracts/Subscription.sol:Subscription","label":"_owners","offset":0,"slot":"103","type":"t_mapping(t_uint256,t_address)"},{"astId":253,"contract":"contracts/Subscription.sol:Subscription","label":"_balances","offset":0,"slot":"104","type":"t_mapping(t_address,t_uint256)"},{"astId":257,"contract":"contracts/Subscription.sol:Subscription","label":"_tokenApprovals","offset":0,"slot":"105","type":"t_mapping(t_uint256,t_address)"},{"astId":263,"contract":"contracts/Subscription.sol:Subscription","label":"_operatorApprovals","offset":0,"slot":"106","type":"t_mapping(t_address,t_mapping(t_address,t_bool))"},{"astId":1183,"contract":"contracts/Subscription.sol:Subscription","label":"__gap","offset":0,"slot":"107","type":"t_array(t_uint256)44_storage"},{"astId":3611,"contract":"contracts/Subscription.sol:Subscription","label":"_users","offset":0,"slot":"151","type":"t_mapping(t_uint256,t_struct(UserInfo)3606_storage)"},{"astId":3615,"contract":"contracts/Subscription.sol:Subscription","label":"__gap","offset":0,"slot":"152","type":"t_array(t_uint256)49_storage"},{"astId":3260,"contract":"contracts/Subscription.sol:Subscription","label":"_usedTokens","offset":0,"slot":"201","type":"t_mapping(t_address,t_mapping(t_uint256,t_uint256))"},{"astId":3264,"contract":"contracts/Subscription.sol:Subscription","label":"_usedTokensIndex","offset":0,"slot":"202","type":"t_mapping(t_uint256,t_uint256)"},{"astId":3267,"contract":"contracts/Subscription.sol:Subscription","label":"_allUsedTokens","offset":0,"slot":"203","type":"t_array(t_uint256)dyn_storage"},{"astId":3271,"contract":"contracts/Subscription.sol:Subscription","label":"_allUsedTokensIndex","offset":0,"slot":"204","type":"t_mapping(t_uint256,t_uint256)"},{"astId":3275,"contract":"contracts/Subscription.sol:Subscription","label":"_usedBalances","offset":0,"slot":"205","type":"t_mapping(t_address,t_uint256)"},{"astId":3279,"contract":"contracts/Subscription.sol:Subscription","label":"__gap","offset":0,"slot":"206","type":"t_array(t_uint256)49_storage"},{"astId":1348,"contract":"contracts/Subscription.sol:Subscription","label":"_ownedTokens","offset":0,"slot":"255","type":"t_mapping(t_address,t_mapping(t_uint256,t_uint256))"},{"astId":1352,"contract":"contracts/Subscription.sol:Subscription","label":"_ownedTokensIndex","offset":0,"slot":"256","type":"t_mapping(t_uint256,t_uint256)"},{"astId":1355,"contract":"contracts/Subscription.sol:Subscription","label":"_allTokens","offset":0,"slot":"257","type":"t_array(t_uint256)dyn_storage"},{"astId":1359,"contract":"contracts/Subscription.sol:Subscription","label":"_allTokensIndex","offset":0,"slot":"258","type":"t_mapping(t_uint256,t_uint256)"},{"astId":1691,"contract":"contracts/Subscription.sol:Subscription","label":"__gap","offset":0,"slot":"259","type":"t_array(t_uint256)46_storage"},{"astId":3825,"contract":"contracts/Subscription.sol:Subscription","label":"_rentingConditions","offset":0,"slot":"305","type":"t_mapping(t_uint256,t_struct(RentingConditions)3820_storage)"},{"astId":3827,"contract":"contracts/Subscription.sol:Subscription","label":"minRentPrice","offset":0,"slot":"306","type":"t_uint32"},{"astId":3829,"contract":"contracts/Subscription.sol:Subscription","label":"minRentDuration","offset":4,"slot":"306","type":"t_uint32"},{"astId":3832,"contract":"contracts/Subscription.sol:Subscription","label":"_allAvailableForRenting","offset":0,"slot":"307","type":"t_array(t_uint256)dyn_storage"},{"astId":3836,"contract":"contracts/Subscription.sol:Subscription","label":"_allAvailableForRentingIndex","offset":0,"slot":"308","type":"t_mapping(t_uint256,t_uint256)"},{"astId":3840,"contract":"contracts/Subscription.sol:Subscription","label":"__gap","offset":0,"slot":"309","type":"t_array(t_uint256)49_storage"},{"astId":4081,"contract":"contracts/Subscription.sol:Subscription","label":"priceFeed","offset":0,"slot":"358","type":"t_contract(AggregatorV3Interface)45"},{"astId":4084,"contract":"contracts/Subscription.sol:Subscription","label":"_tokenIds","offset":0,"slot":"359","type":"t_struct(Counter)2082_storage"},{"astId":4086,"contract":"contracts/Subscription.sol:Subscription","label":"contentSubscriptionDuration","offset":0,"slot":"360","type":"t_uint32"},{"astId":4090,"contract":"contracts/Subscription.sol:Subscription","label":"_expirations","offset":0,"slot":"361","type":"t_mapping(t_uint256,t_uint256)"},{"astId":4092,"contract":"contracts/Subscription.sol:Subscription","label":"contentSubscriptionPrice","offset":0,"slot":"362","type":"t_uint32"},{"astId":4094,"contract":"contracts/Subscription.sol:Subscription","label":"_allowedSlippage","offset":4,"slot":"362","type":"t_uint8"},{"astId":4096,"contract":"contracts/Subscription.sol:Subscription","label":"_contentProvider","offset":5,"slot":"362","type":"t_address"},{"astId":4098,"contract":"contracts/Subscription.sol:Subscription","label":"_marketplaceProvider","offset":0,"slot":"363","type":"t_address"},{"astId":4102,"contract":"contracts/Subscription.sol:Subscription","label":"balances","offset":0,"slot":"364","type":"t_mapping(t_address,t_uint256)"},{"astId":4104,"contract":"contracts/Subscription.sol:Subscription","label":"_baseUri","offset":0,"slot":"365","type":"t_string_storage"}],"types":{"t_address":{"encoding":"inplace","label":"address","numberOfBytes":"20"},"t_array(t_uint256)44_storage":{"base":"t_uint256","encoding":"inplace","label":"uint256[44]","numberOfBytes":"1408"},"t_array(t_uint256)46_storage":{"base":"t_uint256","encoding":"inplace","label":"uint256[46]","numberOfBytes":"1472"},"t_array(t_uint256)49_storage":{"base":"t_uint256","encoding":"inplace","label":"uint256[49]","numberOfBytes":"1568"},"t_array(t_uint256)50_storage":{"base":"t_uint256","encoding":"inplace","label":"uint256[50]","numberOfBytes":"1600"},"t_array(t_uint256)dyn_storage":{"base":"t_uint256","encoding":"dynamic_array","label":"uint256[]","numberOfBytes":"32"},"t_bool":{"encoding":"inplace","label":"bool","numberOfBytes":"1"},"t_contract(AggregatorV3Interface)45":{"encoding":"inplace","label":"contract AggregatorV3Interface","numberOfBytes":"20"},"t_mapping(t_address,t_bool)":{"encoding":"mapping","key":"t_address","label":"mapping(address => bool)","numberOfBytes":"32","value":"t_bool"},"t_mapping(t_address,t_mapping(t_address,t_bool))":{"encoding":"mapping","key":"t_address","label":"mapping(address => mapping(address => bool))","numberOfBytes":"32","value":"t_mapping(t_address,t_bool)"},"t_mapping(t_address,t_mapping(t_uint256,t_uint256))":{"encoding":"mapping","key":"t_address","label":"mapping(address => mapping(uint256 => uint256))","numberOfBytes":"32","value":"t_mapping(t_uint256,t_uint256)"},"t_mapping(t_address,t_uint256)":{"encoding":"mapping","key":"t_address","label":"mapping(address => uint256)","numberOfBytes":"32","value":"t_uint256"},"t_mapping(t_uint256,t_address)":{"encoding":"mapping","key":"t_uint256","label":"mapping(uint256 => address)","numberOfBytes":"32","value":"t_address"},"t_mapping(t_uint256,t_struct(RentingConditions)3820_storage)":{"encoding":"mapping","key":"t_uint256","label":"mapping(uint256 => struct Marketplace.RentingConditions)","numberOfBytes":"32","value":"t_struct(RentingConditions)3820_storage"},"t_mapping(t_uint256,t_struct(UserInfo)3606_storage)":{"encoding":"mapping","key":"t_uint256","label":"mapping(uint256 => struct ERC4907Upgradeable.UserInfo)","numberOfBytes":"32","value":"t_struct(UserInfo)3606_storage"},"t_mapping(t_uint256,t_uint256)":{"encoding":"mapping","key":"t_uint256","label":"mapping(uint256 => uint256)","numberOfBytes":"32","value":"t_uint256"},"t_string_storage":{"encoding":"bytes","label":"string","numberOfBytes":"32"},"t_struct(Counter)2082_storage":{"encoding":"inplace","label":"struct CountersUpgradeable.Counter","members":[{"astId":2081,"contract":"contracts/Subscription.sol:Subscription","label":"_value","offset":0,"slot":"0","type":"t_uint256"}],"numberOfBytes":"32"},"t_struct(RentingConditions)3820_storage":{"encoding":"inplace","label":"struct Marketplace.RentingConditions","members":[{"astId":3815,"contract":"contracts/Subscription.sol:Subscription","label":"price","offset":0,"slot":"0","type":"t_uint32"},{"astId":3817,"contract":"contracts/Subscription.sol:Subscription","label":"duration","offset":4,"slot":"0","type":"t_uint128"},{"astId":3819,"contract":"contracts/Subscription.sol:Subscription","label":"createdAt","offset":0,"slot":"1","type":"t_uint256"}],"numberOfBytes":"64"},"t_struct(UserInfo)3606_storage":{"encoding":"inplace","label":"struct ERC4907Upgradeable.UserInfo","members":[{"astId":3603,"contract":"contracts/Subscription.sol:Subscription","label":"user","offset":0,"slot":"0","type":"t_address"},{"astId":3605,"contract":"contracts/Subscription.sol:Subscription","label":"expires","offset":20,"slot":"0","type":"t_uint64"}],"numberOfBytes":"32"},"t_uint128":{"encoding":"inplace","label":"uint128","numberOfBytes":"16"},"t_uint256":{"encoding":"inplace","label":"uint256","numberOfBytes":"32"},"t_uint32":{"encoding":"inplace","label":"uint32","numberOfBytes":"4"},"t_uint64":{"encoding":"inplace","label":"uint64","numberOfBytes":"8"},"t_uint8":{"encoding":"inplace","label":"uint8","numberOfBytes":"1"}}}}}}