{
  "_format": "hh-sol-artifact-1",
  "contractName": "Subscription",
  "sourceName": "contracts/Subscription.sol",
  "abi": [
    {
      "anonymous": false,
      "inputs": [
        {
          "indexed": true,
          "internalType": "address",
          "name": "owner",
          "type": "address"
        },
        {
          "indexed": true,
          "internalType": "address",
          "name": "approved",
          "type": "address"
        },
        {
          "indexed": true,
          "internalType": "uint256",
          "name": "tokenId",
          "type": "uint256"
        }
      ],
      "name": "Approval",
      "type": "event"
    },
    {
      "anonymous": false,
      "inputs": [
        {
          "indexed": true,
          "internalType": "address",
          "name": "owner",
          "type": "address"
        },
        {
          "indexed": true,
          "internalType": "address",
          "name": "operator",
          "type": "address"
        },
        {
          "indexed": false,
          "internalType": "bool",
          "name": "approved",
          "type": "bool"
        }
      ],
      "name": "ApprovalForAll",
      "type": "event"
    },
    {
      "anonymous": false,
      "inputs": [
        {
          "indexed": false,
          "internalType": "uint8",
          "name": "version",
          "type": "uint8"
        }
      ],
      "name": "Initialized",
      "type": "event"
    },
    {
      "anonymous": false,
      "inputs": [
        {
          "indexed": false,
          "internalType": "uint256",
          "name": "tokenId",
          "type": "uint256"
        }
      ],
      "name": "RentOfferCancelled",
      "type": "event"
    },
    {
      "anonymous": false,
      "inputs": [
        {
          "indexed": false,
          "internalType": "uint256",
          "name": "tokenId",
          "type": "uint256"
        }
      ],
      "name": "RentOfferCreated",
      "type": "event"
    },
    {
      "anonymous": false,
      "inputs": [
        {
          "indexed": true,
          "internalType": "address",
          "name": "from",
          "type": "address"
        },
        {
          "indexed": true,
          "internalType": "address",
          "name": "to",
          "type": "address"
        },
        {
          "indexed": true,
          "internalType": "uint256",
          "name": "tokenId",
          "type": "uint256"
        }
      ],
      "name": "Transfer",
      "type": "event"
    },
    {
      "anonymous": false,
      "inputs": [
        {
          "indexed": true,
          "internalType": "uint256",
          "name": "tokenId",
          "type": "uint256"
        },
        {
          "indexed": true,
          "internalType": "address",
          "name": "user",
          "type": "address"
        },
        {
          "indexed": false,
          "internalType": "uint64",
          "name": "expires",
          "type": "uint64"
        }
      ],
      "name": "UpdateUser",
      "type": "event"
    },
    {
      "inputs": [
        {
          "internalType": "address",
          "name": "to",
          "type": "address"
        },
        {
          "internalType": "uint256",
          "name": "tokenId",
          "type": "uint256"
        }
      ],
      "name": "approve",
      "outputs": [],
      "stateMutability": "nonpayable",
      "type": "function"
    },
    {
      "inputs": [
        {
          "internalType": "address",
          "name": "owner",
          "type": "address"
        }
      ],
      "name": "balanceOf",
      "outputs": [
        {
          "internalType": "uint256",
          "name": "",
          "type": "uint256"
        }
      ],
      "stateMutability": "view",
      "type": "function"
    },
    {
      "inputs": [
        {
          "internalType": "address",
          "name": "",
          "type": "address"
        }
      ],
      "name": "balances",
      "outputs": [
        {
          "internalType": "uint256",
          "name": "",
          "type": "uint256"
        }
      ],
      "stateMutability": "view",
      "type": "function"
    },
    {
      "inputs": [
        {
          "internalType": "uint256",
          "name": "tokenId",
          "type": "uint256"
        }
      ],
      "name": "cancelOfferForRent",
      "outputs": [],
      "stateMutability": "nonpayable",
      "type": "function"
    },
    {
      "inputs": [],
      "name": "contentSubscriptionDuration",
      "outputs": [
        {
          "internalType": "uint32",
          "name": "",
          "type": "uint32"
        }
      ],
      "stateMutability": "view",
      "type": "function"
    },
    {
      "inputs": [],
      "name": "contentSubscriptionPrice",
      "outputs": [
        {
          "internalType": "uint32",
          "name": "",
          "type": "uint32"
        }
      ],
      "stateMutability": "view",
      "type": "function"
    },
    {
      "inputs": [
        {
          "internalType": "uint256",
          "name": "tokenId",
          "type": "uint256"
        }
      ],
      "name": "expiresAt",
      "outputs": [
        {
          "internalType": "uint256",
          "name": "",
          "type": "uint256"
        }
      ],
      "stateMutability": "view",
      "type": "function"
    },
    {
      "inputs": [
        {
          "internalType": "uint256",
          "name": "tokenId",
          "type": "uint256"
        }
      ],
      "name": "getApproved",
      "outputs": [
        {
          "internalType": "address",
          "name": "",
          "type": "address"
        }
      ],
      "stateMutability": "view",
      "type": "function"
    },
    {
      "inputs": [],
      "name": "getAvailableTokenCount",
      "outputs": [
        {
          "internalType": "uint256",
          "name": "",
          "type": "uint256"
        }
      ],
      "stateMutability": "view",
      "type": "function"
    },
    {
      "inputs": [
        {
          "internalType": "uint256",
          "name": "index",
          "type": "uint256"
        }
      ],
      "name": "getAvailableTokenIdAtIndex",
      "outputs": [
        {
          "internalType": "uint256",
          "name": "",
          "type": "uint256"
        }
      ],
      "stateMutability": "view",
      "type": "function"
    },
    {
      "inputs": [
        {
          "internalType": "uint256",
          "name": "tokenId",
          "type": "uint256"
        }
      ],
      "name": "getRentingConditions",
      "outputs": [
        {
          "components": [
            {
              "internalType": "uint32",
              "name": "price",
              "type": "uint32"
            },
            {
              "internalType": "uint128",
              "name": "duration",
              "type": "uint128"
            },
            {
              "internalType": "uint256",
              "name": "createdAt",
              "type": "uint256"
            }
          ],
          "internalType": "struct Marketplace.RentingConditions",
          "name": "",
          "type": "tuple"
        }
      ],
      "stateMutability": "view",
      "type": "function"
    },
    {
      "inputs": [
        {
          "internalType": "string",
          "name": "name_",
          "type": "string"
        },
        {
          "internalType": "string",
          "name": "symbol_",
          "type": "string"
        },
        {
          "internalType": "uint32",
          "name": "contentSubscriptionPrice_",
          "type": "uint32"
        },
        {
          "internalType": "uint32",
          "name": "contentSubscriptionDuration_",
          "type": "uint32"
        },
        {
          "internalType": "uint32",
          "name": "minRentPrice_",
          "type": "uint32"
        },
        {
          "internalType": "uint32",
          "name": "minRentDuration_",
          "type": "uint32"
        },
        {
          "internalType": "address",
          "name": "contentProvider_",
          "type": "address"
        },
        {
          "internalType": "address",
          "name": "marketplaceProvider_",
          "type": "address"
        },
        {
          "internalType": "address",
          "name": "priceFeedAddress_",
          "type": "address"
        },
        {
          "internalType": "string",
          "name": "baseUri_",
          "type": "string"
        }
      ],
      "name": "initialize",
      "outputs": [],
      "stateMutability": "nonpayable",
      "type": "function"
    },
    {
      "inputs": [
        {
          "internalType": "address",
          "name": "owner",
          "type": "address"
        },
        {
          "internalType": "address",
          "name": "operator",
          "type": "address"
        }
      ],
      "name": "isApprovedForAll",
      "outputs": [
        {
          "internalType": "bool",
          "name": "",
          "type": "bool"
        }
      ],
      "stateMutability": "view",
      "type": "function"
    },
    {
      "inputs": [],
      "name": "minRentDuration",
      "outputs": [
        {
          "internalType": "uint32",
          "name": "",
          "type": "uint32"
        }
      ],
      "stateMutability": "view",
      "type": "function"
    },
    {
      "inputs": [],
      "name": "minRentPrice",
      "outputs": [
        {
          "internalType": "uint32",
          "name": "",
          "type": "uint32"
        }
      ],
      "stateMutability": "view",
      "type": "function"
    },
    {
      "inputs": [],
      "name": "mint",
      "outputs": [],
      "stateMutability": "payable",
      "type": "function"
    },
    {
      "inputs": [],
      "name": "name",
      "outputs": [
        {
          "internalType": "string",
          "name": "",
          "type": "string"
        }
      ],
      "stateMutability": "view",
      "type": "function"
    },
    {
      "inputs": [
        {
          "internalType": "uint256",
          "name": "tokenId",
          "type": "uint256"
        },
        {
          "internalType": "uint32",
          "name": "price",
          "type": "uint32"
        },
        {
          "internalType": "uint128",
          "name": "duration",
          "type": "uint128"
        }
      ],
      "name": "offerForRent",
      "outputs": [],
      "stateMutability": "nonpayable",
      "type": "function"
    },
    {
      "inputs": [
        {
          "internalType": "uint256",
          "name": "tokenId",
          "type": "uint256"
        }
      ],
      "name": "ownerOf",
      "outputs": [
        {
          "internalType": "address",
          "name": "",
          "type": "address"
        }
      ],
      "stateMutability": "view",
      "type": "function"
    },
    {
      "inputs": [
        {
          "internalType": "uint256",
          "name": "tokenId",
          "type": "uint256"
        }
      ],
      "name": "reclaim",
      "outputs": [],
      "stateMutability": "nonpayable",
      "type": "function"
    },
    {
      "inputs": [
        {
          "internalType": "uint256",
          "name": "tokenId",
          "type": "uint256"
        }
      ],
      "name": "rent",
      "outputs": [],
      "stateMutability": "payable",
      "type": "function"
    },
    {
      "inputs": [
        {
          "internalType": "address",
          "name": "",
          "type": "address"
        },
        {
          "internalType": "address",
          "name": "",
          "type": "address"
        },
        {
          "internalType": "uint256",
          "name": "",
          "type": "uint256"
        }
      ],
      "name": "safeTransferFrom",
      "outputs": [],
      "stateMutability": "pure",
      "type": "function"
    },
    {
      "inputs": [
        {
          "internalType": "address",
          "name": "",
          "type": "address"
        },
        {
          "internalType": "address",
          "name": "",
          "type": "address"
        },
        {
          "internalType": "uint256",
          "name": "",
          "type": "uint256"
        },
        {
          "internalType": "bytes",
          "name": "",
          "type": "bytes"
        }
      ],
      "name": "safeTransferFrom",
      "outputs": [],
      "stateMutability": "pure",
      "type": "function"
    },
    {
      "inputs": [
        {
          "internalType": "address",
          "name": "operator",
          "type": "address"
        },
        {
          "internalType": "bool",
          "name": "approved",
          "type": "bool"
        }
      ],
      "name": "setApprovalForAll",
      "outputs": [],
      "stateMutability": "nonpayable",
      "type": "function"
    },
    {
      "inputs": [
        {
          "internalType": "uint256",
          "name": "tokenId",
          "type": "uint256"
        },
        {
          "internalType": "address",
          "name": "user",
          "type": "address"
        },
        {
          "internalType": "uint64",
          "name": "expires",
          "type": "uint64"
        }
      ],
      "name": "setUser",
      "outputs": [],
      "stateMutability": "nonpayable",
      "type": "function"
    },
    {
      "inputs": [
        {
          "internalType": "bytes4",
          "name": "interfaceId",
          "type": "bytes4"
        }
      ],
      "name": "supportsInterface",
      "outputs": [
        {
          "internalType": "bool",
          "name": "",
          "type": "bool"
        }
      ],
      "stateMutability": "view",
      "type": "function"
    },
    {
      "inputs": [],
      "name": "symbol",
      "outputs": [
        {
          "internalType": "string",
          "name": "",
          "type": "string"
        }
      ],
      "stateMutability": "view",
      "type": "function"
    },
    {
      "inputs": [
        {
          "internalType": "uint256",
          "name": "index",
          "type": "uint256"
        }
      ],
      "name": "tokenByIndex",
      "outputs": [
        {
          "internalType": "uint256",
          "name": "",
          "type": "uint256"
        }
      ],
      "stateMutability": "view",
      "type": "function"
    },
    {
      "inputs": [
        {
          "internalType": "address",
          "name": "owner",
          "type": "address"
        },
        {
          "internalType": "uint256",
          "name": "index",
          "type": "uint256"
        }
      ],
      "name": "tokenOfOwnerByIndex",
      "outputs": [
        {
          "internalType": "uint256",
          "name": "",
          "type": "uint256"
        }
      ],
      "stateMutability": "view",
      "type": "function"
    },
    {
      "inputs": [
        {
          "internalType": "address",
          "name": "user",
          "type": "address"
        },
        {
          "internalType": "uint256",
          "name": "index",
          "type": "uint256"
        }
      ],
      "name": "tokenOfUserByIndex",
      "outputs": [
        {
          "internalType": "uint256",
          "name": "",
          "type": "uint256"
        }
      ],
      "stateMutability": "view",
      "type": "function"
    },
    {
      "inputs": [
        {
          "internalType": "uint256",
          "name": "tokenId",
          "type": "uint256"
        }
      ],
      "name": "tokenURI",
      "outputs": [
        {
          "internalType": "string",
          "name": "",
          "type": "string"
        }
      ],
      "stateMutability": "view",
      "type": "function"
    },
    {
      "inputs": [],
      "name": "totalSupply",
      "outputs": [
        {
          "internalType": "uint256",
          "name": "",
          "type": "uint256"
        }
      ],
      "stateMutability": "view",
      "type": "function"
    },
    {
      "inputs": [
        {
          "internalType": "address",
          "name": "",
          "type": "address"
        },
        {
          "internalType": "address",
          "name": "",
          "type": "address"
        },
        {
          "internalType": "uint256",
          "name": "",
          "type": "uint256"
        }
      ],
      "name": "transferFrom",
      "outputs": [],
      "stateMutability": "pure",
      "type": "function"
    },
    {
      "inputs": [
        {
          "internalType": "address",
          "name": "user",
          "type": "address"
        }
      ],
      "name": "usedBalanceOf",
      "outputs": [
        {
          "internalType": "uint256",
          "name": "",
          "type": "uint256"
        }
      ],
      "stateMutability": "view",
      "type": "function"
    },
    {
      "inputs": [
        {
          "internalType": "uint256",
          "name": "tokenId",
          "type": "uint256"
        }
      ],
      "name": "userExpires",
      "outputs": [
        {
          "internalType": "uint256",
          "name": "",
          "type": "uint256"
        }
      ],
      "stateMutability": "view",
      "type": "function"
    },
    {
      "inputs": [
        {
          "internalType": "uint256",
          "name": "tokenId",
          "type": "uint256"
        }
      ],
      "name": "userOf",
      "outputs": [
        {
          "internalType": "address",
          "name": "",
          "type": "address"
        }
      ],
      "stateMutability": "view",
      "type": "function"
    },
    {
      "inputs": [],
      "name": "withdraw",
      "outputs": [],
      "stateMutability": "nonpayable",
      "type": "function"
    }
  ],
  "bytecode": "0x608060405234801561001057600080fd5b50613b53806100206000396000f3fe60806040526004361061026a5760003560e01c80634f6ccce711610153578063a22cb465116100cb578063c87b56dd1161007f578063d537090411610064578063d53709041461078a578063e030565e146107a0578063e985e9c5146107c057600080fd5b8063c87b56dd1461074a578063d3d726171461076a57600080fd5b8063b88d4fde116100b0578063b88d4fde146106db578063c25a2c65146106f6578063c2f1f14a1461071457600080fd5b8063a22cb46514610610578063abb302ad1461063057600080fd5b806363dd96c4116101225780637456be7d116101075780637456be7d146105aa5780638fc88c48146105bd57806395d89b41146105fb57600080fd5b806363dd96c41461056c57806370a082311461058a57600080fd5b80634f6ccce7146104e657806355673d07146105065780635f3fd7bc1461052c5780636352211e1461054c57600080fd5b8063227773c0116101e65780632dabbeed116101b55780633ccfd60b1161019a5780633ccfd60b146104b157806342842e0e1461042357806347906905146104c657600080fd5b80632dabbeed146104715780632f745c591461049157600080fd5b8063227773c0146103cd57806322f3bb3e1461040357806323b872dd1461042357806327e235e31461044357600080fd5b806311daca271161023d57806317c957091161022257806317c957091461035b57806318160ddd146103975780631d350ef8146103ad57600080fd5b806311daca27146103205780631249c58b1461035357600080fd5b806301ffc9a71461026f57806306fdde03146102a4578063081812fc146102c6578063095ea7b3146102fe575b600080fd5b34801561027b57600080fd5b5061028f61028a366004613197565b610809565b60405190151581526020015b60405180910390f35b3480156102b057600080fd5b506102b961081a565b60405161029b9190613204565b3480156102d257600080fd5b506102e66102e1366004613217565b6108ac565b6040516001600160a01b03909116815260200161029b565b34801561030a57600080fd5b5061031e61031936600461324c565b6108d3565b005b34801561032c57600080fd5b506101685461033e9063ffffffff1681565b60405163ffffffff909116815260200161029b565b61031e610a09565b34801561036757600080fd5b50610389610376366004613217565b6000908152610169602052604090205490565b60405190815260200161029b565b3480156103a357600080fd5b5061010154610389565b3480156103b957600080fd5b506103896103c836600461324c565b610cff565b3480156103d957600080fd5b506103896103e8366004613276565b6001600160a01b0316600090815260cd602052604090205490565b34801561040f57600080fd5b5061031e61041e3660046132a5565b610db5565b34801561042f57600080fd5b5061031e61043e3660046132f1565b610f27565b34801561044f57600080fd5b5061038961045e366004613276565b61016c6020526000908152604090205481565b34801561047d57600080fd5b5061031e61048c366004613217565b610f6f565b34801561049d57600080fd5b506103896104ac36600461324c565b610f7e565b3480156104bd57600080fd5b5061031e611014565b3480156104d257600080fd5b506103896104e1366004613217565b61111e565b3480156104f257600080fd5b50610389610501366004613217565b611146565b34801561051257600080fd5b506101325461033e90640100000000900463ffffffff1681565b34801561053857600080fd5b5061031e610547366004613422565b6111da565b34801561055857600080fd5b506102e6610567366004613217565b6113cd565b34801561057857600080fd5b5061016a5461033e9063ffffffff1681565b34801561059657600080fd5b506103896105a5366004613276565b611432565b61031e6105b8366004613217565b6114cc565b3480156105c957600080fd5b506103896105d8366004613217565b600090815260976020526040902054600160a01b900467ffffffffffffffff1690565b34801561060757600080fd5b506102b9611620565b34801561061c57600080fd5b5061031e61062b36600461353b565b61162f565b34801561063c57600080fd5b506106aa61064b366004613217565b60408051606080820183526000808352602080840182905292840181905293845261013182529282902082519384018352805463ffffffff8116855264010000000090046001600160801b031691840191909152600101549082015290565b60408051825163ffffffff1681526020808401516001600160801b031690820152918101519082015260600161029b565b3480156106e757600080fd5b5061031e61043e366004613577565b34801561070257600080fd5b506101325461033e9063ffffffff1681565b34801561072057600080fd5b506102e661072f366004613217565b6000908152609760205260409020546001600160a01b031690565b34801561075657600080fd5b506102b9610765366004613217565b61163a565b34801561077657600080fd5b5061031e610785366004613217565b61166b565b34801561079657600080fd5b5061013354610389565b3480156107ac57600080fd5b5061031e6107bb3660046135f3565b6116d8565b3480156107cc57600080fd5b5061028f6107db366004613635565b6001600160a01b039182166000908152606a6020908152604080832093909416825291909152205460ff1690565b60006108148261183b565b92915050565b60606065805461082990613668565b80601f016020809104026020016040519081016040528092919081815260200182805461085590613668565b80156108a25780601f10610877576101008083540402835291602001916108a2565b820191906000526020600020905b81548152906001019060200180831161088557829003601f168201915b5050505050905090565b60006108b782611879565b506000908152606960205260409020546001600160a01b031690565b60006108de826113cd565b9050806001600160a01b0316836001600160a01b03160361096c5760405162461bcd60e51b815260206004820152602160248201527f4552433732313a20617070726f76616c20746f2063757272656e74206f776e6560448201527f720000000000000000000000000000000000000000000000000000000000000060648201526084015b60405180910390fd5b336001600160a01b0382161480610988575061098881336107db565b6109fa5760405162461bcd60e51b815260206004820152603d60248201527f4552433732313a20617070726f76652063616c6c6572206973206e6f7420746f60448201527f6b656e206f776e6572206f7220617070726f76656420666f7220616c6c0000006064820152608401610963565b610a0483836118dd565b505050565b6101665460408051633fabe5a360e21b815290516000926001600160a01b03169163feaf968c9160048083019260a09291908290030181865afa158015610a54573d6000803e3d6000fd5b505050506040513d601f19601f82011682018060405250810190610a7891906136bc565b50505091505060008113610a8e57610a8e61370c565b610166546040805163313ce56760e01b815290516000926001600160a01b03169163313ce5679160048083019260209291908290030181865afa158015610ad9573d6000803e3d6000fd5b505050506040513d601f19601f82011682018060405250810190610afd9190613722565b905060006064610b0e83600a61383f565b610b18908561384e565b61016a54610b349063ffffffff16670de0b6b3a7640000613870565b610b3e919061384e565b610b48919061384e565b61016a549091506000906103e890610b6b90640100000000900460ff1682613887565b610b799061ffff1684613870565b610b83919061384e565b61016a549091506000906103e890610ba690640100000000900460ff16826138a9565b610bb49061ffff1685613870565b610bbe919061384e565b9050813410158015610bd05750803411155b610c1c5760405162461bcd60e51b815260206004820152601160248201527f546f6f206d75636820736c6970706167650000000000000000000000000000006044820152606401610963565b60006103e8610c2c601934613870565b610c36919061384e565b90506000610c4482346138c4565b61016b546001600160a01b0316600090815261016c6020526040812080549293508492909190610c759084906138d7565b909155505061016a546501000000000090046001600160a01b0316600090815261016c602052604081208054839290610caf9084906138d7565b90915550506101675461016854610ccc9063ffffffff16426138d7565b60008281526101696020526040902055610ce6338261194b565b610cf561016780546001019055565b5050505050505050565b6001600160a01b038216600090815260cd60205260408120548210610d7a5760405162461bcd60e51b815260206004820152602b60248201527f45524334393037456e756d657261626c653a207573657220696e646578206f7560448201526a74206f6620626f756e647360a81b6064820152608401610963565b6001600160a01b038316600090815260c96020908152604080832085845290915281205490819003610dae57610dae61370c565b9392505050565b610dc0335b84611965565b610e1a5760405162461bcd60e51b815260206004820152602560248201527f43616c6c6572206973206e6f7420746f6b656e206f776e6572206f72206170706044820152641c9bdd995960da1b6064820152608401610963565b6000838152609760205260409020546001600160a01b031615610e6e5760405162461bcd60e51b815260206004820152600c60248201526b105b1c9958591e481d5cd95960a21b6044820152606401610963565b6000610e836001600160801b038316426138d7565b6000858152610169602052604090205490915067ffffffffffffffff82168111610f155760405162461bcd60e51b815260206004820152602c60248201527f537562736372697074696f6e2077696c6c20657870697265206265666f72652060448201527f72656e74206578706972657300000000000000000000000000000000000000006064820152608401610963565b610f208585856119e4565b5050505050565b60405162461bcd60e51b815260206004820152600b60248201527f4e6f7420616c6c6f7765640000000000000000000000000000000000000000006044820152606401610963565b610f7b816000806116d8565b50565b6000610f8983611432565b8210610feb5760405162461bcd60e51b815260206004820152602b60248201527f455243373231456e756d657261626c653a206f776e657220696e646578206f7560448201526a74206f6620626f756e647360a81b6064820152608401610963565b506001600160a01b0391909116600090815260ff60209081526040808320938352929052205490565b33600090815261016c6020526040902054806110725760405162461bcd60e51b815260206004820152601360248201527f4e6f7468696e6720746f207769746864726177000000000000000000000000006044820152606401610963565b33600081815261016c60205260408082208290555190919083908381818185875af1925050503d80600081146110c4576040519150601f19603f3d011682016040523d82523d6000602084013e6110c9565b606091505b505090508061111a5760405162461bcd60e51b815260206004820152601460248201527f4661696c656420746f2073656e642045746865720000000000000000000000006044820152606401610963565b5050565b60006101338281548110611134576111346138ea565b90600052602060002001549050919050565b60006111526101015490565b82106111c65760405162461bcd60e51b815260206004820152602c60248201527f455243373231456e756d657261626c653a20676c6f62616c20696e646578206f60448201527f7574206f6620626f756e647300000000000000000000000000000000000000006064820152608401610963565b6101018281548110611134576111346138ea565b600054610100900460ff16158080156111fa5750600054600160ff909116105b806112145750303b158015611214575060005460ff166001145b6112865760405162461bcd60e51b815260206004820152602e60248201527f496e697469616c697a61626c653a20636f6e747261637420697320616c72656160448201527f647920696e697469616c697a65640000000000000000000000000000000000006064820152608401610963565b6000805460ff1916600117905580156112a9576000805461ff0019166101001790555b6112b58d8d8d8d611b92565b6112bf8787611c09565b61016a8054610168805463ffffffff191663ffffffff8c81169190911790915561016b80546001600160a01b03199081166001600160a01b038a8116919091179092556101668054909116888316179055908c167fffffffffffffff0000000000000000000000000000000000000000ff000000009092169190911765010000000000918816919091021764ff00000000191664050000000017905561016d611368838261394e565b5061137861016780546001019055565b80156113be576000805461ff0019169055604051600181527f7f26b83ff96e1f2b6a682f133852f6798a09c465da95921460cefb38474024989060200160405180910390a15b50505050505050505050505050565b6000818152606760205260408120546001600160a01b0316806108145760405162461bcd60e51b815260206004820152601860248201527f4552433732313a20696e76616c696420746f6b656e20494400000000000000006044820152606401610963565b60006001600160a01b0382166114b05760405162461bcd60e51b815260206004820152602960248201527f4552433732313a2061646472657373207a65726f206973206e6f74206120766160448201527f6c6964206f776e657200000000000000000000000000000000000000000000006064820152608401610963565b506001600160a01b031660009081526068602052604090205490565b6000818152610131602090815260408083208151606081018352815463ffffffff8116825264010000000090046001600160801b031693810193909352600101549082018190529091036115625760405162461bcd60e51b815260206004820152601960248201527f4e6f7420617661696c61626c6520666f722072656e74696e67000000000000006044820152606401610963565b600081602001516001600160801b03164261157d91906138d7565b6000848152610169602052604090205490915067ffffffffffffffff8216811161160f5760405162461bcd60e51b815260206004820152602860248201527f537562736372697074696f6e2065787069726573206265666f72652072656e7460448201527f20657870697265730000000000000000000000000000000000000000000000006064820152608401610963565b61161a8433846116d8565b50505050565b60606066805461082990613668565b61111a338383611ca5565b606061164582611d73565b6040516020016116559190613a0e565b6040516020818303038152906040529050919050565b6116753382611965565b6116cf5760405162461bcd60e51b815260206004820152602560248201527f43616c6c6572206973206e6f7420746f6b656e206f776e6572206f72206170706044820152641c9bdd995960da1b6064820152608401610963565b610f7b81611dd9565b6116e1836113cd565b6001600160a01b0316826001600160a01b0316036117415760405162461bcd60e51b815260206004820152601960248201527f43616e6e6f742075736520796f7572206f776e20746f6b656e000000000000006044820152606401610963565b600083815260976020526040902054600160a01b900467ffffffffffffffff1642101561179f5760405162461bcd60e51b815260206004820152600c60248201526b105b1c9958591e481d5cd95960a21b6044820152606401610963565b6001600160a01b038216611815576117b633610dba565b6118105760405162461bcd60e51b815260206004820152602560248201527f43616c6c6572206973206e6f7420746f6b656e206f776e6572206f72206170706044820152641c9bdd995960da1b6064820152608401610963565b611830565b61181e83611e18565b611827836120c7565b611830836121c5565b610a048383836121ef565b60006001600160e01b031982167f780e9d63000000000000000000000000000000000000000000000000000000001480610814575061081482612277565b6000818152606760205260409020546001600160a01b0316610f7b5760405162461bcd60e51b815260206004820152601860248201527f4552433732313a20696e76616c696420746f6b656e20494400000000000000006044820152606401610963565b600081815260696020526040902080546001600160a01b0319166001600160a01b0384169081179091558190611912826113cd565b6001600160a01b03167f8c5be1e5ebec7d5bd14f71427d1e84f3dd0314c0f7b2291e5b200ac8c7c3b92560405160405180910390a45050565b61111a8282604051806020016040528060008152506122b5565b600080611971836113cd565b9050806001600160a01b0316846001600160a01b031614806119b857506001600160a01b038082166000908152606a602090815260408083209388168352929052205460ff165b806119dc5750836001600160a01b03166119d1846108ac565b6001600160a01b0316145b949350505050565b6101325463ffffffff9081169083161015611a415760405162461bcd60e51b815260206004820152600d60248201527f507269636520746f6f206c6f77000000000000000000000000000000000000006044820152606401610963565b61013254640100000000900463ffffffff166001600160801b0382161015611aab5760405162461bcd60e51b815260206004820152601060248201527f4475726174696f6e20746f6f206c6f77000000000000000000000000000000006044820152606401610963565b6040805160608101825263ffffffff84811682526001600160801b0384811660208085019182524285870190815260008a8152610131835287812087518154955197166001600160a01b031990951694909417640100000000969095169590950293909317825591516001918201556101338054610134909352948320829055810184559290527f92e985329fb94cc1b424ebb0f7f2929b6d27383ca94c0ec71c44fb48bdf96d2c9091018490556040518481527fc8bf25b5dc60208595c2afecaf7a3b5852ecdb7917ab66a44def586c13a282a79060200160405180910390a150505050565b600054610100900460ff16611bfd5760405162461bcd60e51b815260206004820152602b60248201527f496e697469616c697a61626c653a20636f6e7472616374206973206e6f74206960448201526a6e697469616c697a696e6760a81b6064820152608401610963565b61161a8484848461233e565b600054610100900460ff16611c745760405162461bcd60e51b815260206004820152602b60248201527f496e697469616c697a61626c653a20636f6e7472616374206973206e6f74206960448201526a6e697469616c697a696e6760a81b6064820152608401610963565b610132805463ffffffff9283166401000000000267ffffffffffffffff199091169290931691909117919091179055565b816001600160a01b0316836001600160a01b031603611d065760405162461bcd60e51b815260206004820152601960248201527f4552433732313a20617070726f766520746f2063616c6c6572000000000000006044820152606401610963565b6001600160a01b038381166000818152606a6020908152604080832094871680845294825291829020805460ff191686151590811790915591519182527f17307eab39ab6107e8899845ad3d59bd9653f200f220920489ca2b5937696c31910160405180910390a3505050565b6060611d7e82611879565b6000611d8861241c565b90506000815111611da85760405180602001604052806000815250610dae565b80611db28461242c565b604051602001611dc3929190613a4f565b6040516020818303038152906040529392505050565b611de2816121c5565b6040518181527f4ee8bdb37621a2594d4cb695cc7b6ecddd0eaa9d9d972acd674f3fca50aee7f29060200160405180910390a150565b60003411611e685760405162461bcd60e51b815260206004820152601160248201527f4e6f2076616c75652072656365697665640000000000000000000000000000006044820152606401610963565b6000818152610131602090815260408083208151606081018352815463ffffffff8116825264010000000090046001600160801b0316938101939093526001015482820152610166548151633fabe5a360e21b815291519293926001600160a01b039091169163feaf968c9160048083019260a09291908290030181865afa158015611ef8573d6000803e3d6000fd5b505050506040513d601f19601f82011682018060405250810190611f1c91906136bc565b50505091505060008113611f3257611f3261370c565b610166546040805163313ce56760e01b815290516000926001600160a01b03169163313ce5679160048083019260209291908290030181865afa158015611f7d573d6000803e3d6000fd5b505050506040513d601f19601f82011682018060405250810190611fa19190613722565b905060006064611fb283600a61383f565b611fbc908561384e565b8551611fd69063ffffffff16670de0b6b3a7640000613870565b611fe0919061384e565b611fea919061384e565b61016a549091506000906103e89061200d90640100000000900460ff1682613887565b61201b9061ffff1684613870565b612025919061384e565b61016a549091506000906103e89061204890640100000000900460ff16826138a9565b6120569061ffff1685613870565b612060919061384e565b90508134101580156120725750803411155b6120be5760405162461bcd60e51b815260206004820152601160248201527f546f6f206d75636820736c6970706167650000000000000000000000000000006044820152606401610963565b50505050505050565b60006120d2826113cd565b9050600060646120e3600f34613870565b6120ed919061384e565b9050600060646120fe600f34613870565b612108919061384e565b9050600061211682846138d7565b61212090346138c4565b61016a546501000000000090046001600160a01b0316600090815261016c602052604081208054929350859290919061215a9084906138d7565b909155505061016b546001600160a01b0316600090815261016c60205260408120805484929061218b9084906138d7565b90915550506001600160a01b038416600090815261016c6020526040812080548392906121b99084906138d7565b90915550505050505050565b60008181526101316020526040812080546001600160a01b031916815560010155610f7b816124cc565b6121f98284612581565b6001600160a01b03821615612236576001600160a01b038216600090815260cd6020526040812080549161222c83613a7e565b919050555061226c565b6000838152609760209081526040808320546001600160a01b0316835260cd909152812080549161226683613a97565b91905055505b610a0483838361263f565b60006001600160e01b031982167fad092b5c000000000000000000000000000000000000000000000000000000001480610814575061081482612788565b6122bf8383612823565b6122cc60008484846129bc565b610a045760405162461bcd60e51b815260206004820152603260248201527f4552433732313a207472616e7366657220746f206e6f6e20455243373231526560448201527f63656976657220696d706c656d656e74657200000000000000000000000000006064820152608401610963565b600054610100900460ff166123a95760405162461bcd60e51b815260206004820152602b60248201527f496e697469616c697a61626c653a20636f6e7472616374206973206e6f74206960448201526a6e697469616c697a696e6760a81b6064820152608401610963565b61161a84848080601f01602080910402602001604051908101604052809392919081815260200183838082843760009201919091525050604080516020601f88018190048102820181019092528681529250869150859081908401838280828437600092019190915250612b1392505050565b606061016d805461082990613668565b6060600061243983612b88565b600101905060008167ffffffffffffffff81111561245957612459613376565b6040519080825280601f01601f191660200182016040528015612483576020820181803683370190505b5090508181016020015b600019017f3031323334353637383961626364656600000000000000000000000000000000600a86061a8153600a850494508461248d57509392505050565b610133546000906124df906001906138c4565b600083815261013460205260408120546101338054939450909284908110612509576125096138ea565b9060005260206000200154905080610133838154811061252b5761252b6138ea565b6000918252602080832090910192909255828152610134909152604080822084905585825281205561013380548061256557612565613aae565b6001900381819060005260206000200160009055905550505050565b6001600160a01b0382166125ba5761259881612c6a565b60008181526097602052604090205461111a906001600160a01b031682612cfd565b6126028160cb8054600083815260cc60205260408120829055600182018355919091527fa7ce836d032b2bf62b7e2097a8e0a6d8aeb35405ad15271e96d3b0188a1d06fb0155565b6001600160a01b0391909116600090815260cd602090815260408083205460c98352818420818552835281842085905593835260ca909152902055565b6001600160a01b038216156126a757428167ffffffffffffffff16116126a75760405162461bcd60e51b815260206004820152601160248201527f457870697265642074696d657374616d700000000000000000000000000000006044820152606401610963565b600083815260976020526040902080546001600160a01b0319166001600160a01b03841690811782556126ff5780547fffffffff0000000000000000ffffffffffffffffffffffffffffffffffffffff168155612738565b80547fffffffff0000000000000000ffffffffffffffffffffffffffffffffffffffff16600160a01b67ffffffffffffffff8416021781555b60405167ffffffffffffffff831681526001600160a01b0384169085907f4e06b4e7000e659094299b3533b47b6aa8ad048e95e872d23d1f4ee55af89cfe9060200160405180910390a350505050565b60006001600160e01b031982167f80ac58cd0000000000000000000000000000000000000000000000000000000014806127eb57506001600160e01b031982167f5b5e139f00000000000000000000000000000000000000000000000000000000145b8061081457507f01ffc9a7000000000000000000000000000000000000000000000000000000006001600160e01b0319831614610814565b6001600160a01b0382166128795760405162461bcd60e51b815260206004820181905260248201527f4552433732313a206d696e7420746f20746865207a65726f20616464726573736044820152606401610963565b6000818152606760205260409020546001600160a01b0316156128de5760405162461bcd60e51b815260206004820152601c60248201527f4552433732313a20746f6b656e20616c7265616479206d696e746564000000006044820152606401610963565b6128ec600083836001612da8565b6000818152606760205260409020546001600160a01b0316156129515760405162461bcd60e51b815260206004820152601c60248201527f4552433732313a20746f6b656e20616c7265616479206d696e746564000000006044820152606401610963565b6001600160a01b038216600081815260686020908152604080832080546001019055848352606790915280822080546001600160a01b0319168417905551839291907fddf252ad1be2c89b69c2b068fc378daa952ba7f163c4a11628f55a4df523b3ef908290a45050565b60006001600160a01b0384163b15612b0857604051630a85bd0160e11b81526001600160a01b0385169063150b7a0290612a00903390899088908890600401613ac4565b6020604051808303816000875af1925050508015612a3b575060408051601f3d908101601f19168201909252612a3891810190613b00565b60015b612aee573d808015612a69576040519150601f19603f3d011682016040523d82523d6000602084013e612a6e565b606091505b508051600003612ae65760405162461bcd60e51b815260206004820152603260248201527f4552433732313a207472616e7366657220746f206e6f6e20455243373231526560448201527f63656976657220696d706c656d656e74657200000000000000000000000000006064820152608401610963565b805181602001fd5b6001600160e01b031916630a85bd0160e11b1490506119dc565b506001949350505050565b600054610100900460ff16612b7e5760405162461bcd60e51b815260206004820152602b60248201527f496e697469616c697a61626c653a20636f6e7472616374206973206e6f74206960448201526a6e697469616c697a696e6760a81b6064820152608401610963565b61111a8282612db4565b6000807a184f03e93ff9f4daa797ed6e38ed64bf6a1f0100000000000000008310612bd1577a184f03e93ff9f4daa797ed6e38ed64bf6a1f010000000000000000830492506040015b6d04ee2d6d415b85acef81000000008310612bfd576d04ee2d6d415b85acef8100000000830492506020015b662386f26fc100008310612c1b57662386f26fc10000830492506010015b6305f5e1008310612c33576305f5e100830492506008015b6127108310612c4757612710830492506004015b60648310612c59576064830492506002015b600a83106108145760010192915050565b60cb54600090612c7c906001906138c4565b600083815260cc602052604081205460cb8054939450909284908110612ca457612ca46138ea565b906000526020600020015490508060cb8381548110612cc557612cc56138ea565b600091825260208083209091019290925582815260cc909152604080822084905585825281205560cb80548061256557612565613aae565b6001600160a01b038216600090815260cd6020526040812054612d22906001906138c4565b600083815260ca6020526040902054909150808214612d75576001600160a01b038416600090815260c960209081526040808320858452825280832054848452818420819055835260ca90915290208190555b50600091825260ca602090815260408084208490556001600160a01b03909416835260c981528383209183525290812055565b61161a84848484612e38565b600054610100900460ff16612e1f5760405162461bcd60e51b815260206004820152602b60248201527f496e697469616c697a61626c653a20636f6e7472616374206973206e6f74206960448201526a6e697469616c697a696e6760a81b6064820152608401610963565b6065612e2b838261394e565b506066610a04828261394e565b612e4484848484612f7b565b6001811115612ebb5760405162461bcd60e51b815260206004820152603560248201527f455243373231456e756d657261626c653a20636f6e736563757469766520747260448201527f616e7366657273206e6f7420737570706f7274656400000000000000000000006064820152608401610963565b816001600160a01b038516612f1957612f14816101018054600083815261010260205260408120829055600182018355919091527f109ea3cebb188b9c1b9fc5bb3920be60dfdc8699098dff92f3d80daaca7476890155565b612f3c565b836001600160a01b0316856001600160a01b031614612f3c57612f3c8582613003565b6001600160a01b038416612f5857612f53816130a3565b610f20565b846001600160a01b0316846001600160a01b031614610f2057610f20848261313c565b600181111561161a576001600160a01b03841615612fc1576001600160a01b03841660009081526068602052604081208054839290612fbb9084906138c4565b90915550505b6001600160a01b0383161561161a576001600160a01b03831660009081526068602052604081208054839290612ff89084906138d7565b909155505050505050565b6000600161301084611432565b61301a91906138c4565b6000838152610100602052604090205490915080821461306f576001600160a01b038416600090815260ff60209081526040808320858452825280832054848452818420819055835261010090915290208190555b506000918252610100602090815260408084208490556001600160a01b03909416835260ff81528383209183525290812055565b610101546000906130b6906001906138c4565b6000838152610102602052604081205461010180549394509092849081106130e0576130e06138ea565b90600052602060002001549050806101018381548110613102576131026138ea565b6000918252602080832090910192909255828152610102909152604080822084905585825281205561010180548061256557612565613aae565b600061314783611432565b6001600160a01b03909316600090815260ff6020908152604080832086845282528083208590559382526101009052919091209190915550565b6001600160e01b031981168114610f7b57600080fd5b6000602082840312156131a957600080fd5b8135610dae81613181565b60005b838110156131cf5781810151838201526020016131b7565b50506000910152565b600081518084526131f08160208601602086016131b4565b601f01601f19169290920160200192915050565b602081526000610dae60208301846131d8565b60006020828403121561322957600080fd5b5035919050565b80356001600160a01b038116811461324757600080fd5b919050565b6000806040838503121561325f57600080fd5b61326883613230565b946020939093013593505050565b60006020828403121561328857600080fd5b610dae82613230565b803563ffffffff8116811461324757600080fd5b6000806000606084860312156132ba57600080fd5b833592506132ca60208501613291565b915060408401356001600160801b03811681146132e657600080fd5b809150509250925092565b60008060006060848603121561330657600080fd5b61330f84613230565b925061331d60208501613230565b9150604084013590509250925092565b60008083601f84011261333f57600080fd5b50813567ffffffffffffffff81111561335757600080fd5b60208301915083602082850101111561336f57600080fd5b9250929050565b634e487b7160e01b600052604160045260246000fd5b600067ffffffffffffffff808411156133a7576133a7613376565b604051601f8501601f19908116603f011681019082821181831017156133cf576133cf613376565b816040528093508581528686860111156133e857600080fd5b858560208301376000602087830101525050509392505050565b600082601f83011261341357600080fd5b610dae8383356020850161338c565b6000806000806000806000806000806000806101408d8f03121561344557600080fd5b67ffffffffffffffff8d35111561345b57600080fd5b6134688e8e358f0161332d565b909c509a5067ffffffffffffffff60208e0135111561348657600080fd5b6134968e60208f01358f0161332d565b909a5098506134a760408e01613291565b97506134b560608e01613291565b96506134c360808e01613291565b95506134d160a08e01613291565b94506134df60c08e01613230565b93506134ed60e08e01613230565b92506134fc6101008e01613230565b915067ffffffffffffffff6101208e0135111561351857600080fd5b6135298e6101208f01358f01613402565b90509295989b509295989b509295989b565b6000806040838503121561354e57600080fd5b61355783613230565b91506020830135801515811461356c57600080fd5b809150509250929050565b6000806000806080858703121561358d57600080fd5b61359685613230565b93506135a460208601613230565b925060408501359150606085013567ffffffffffffffff8111156135c757600080fd5b8501601f810187136135d857600080fd5b6135e78782356020840161338c565b91505092959194509250565b60008060006060848603121561360857600080fd5b8335925061361860208501613230565b9150604084013567ffffffffffffffff811681146132e657600080fd5b6000806040838503121561364857600080fd5b61365183613230565b915061365f60208401613230565b90509250929050565b600181811c9082168061367c57607f821691505b60208210810361369c57634e487b7160e01b600052602260045260246000fd5b50919050565b805169ffffffffffffffffffff8116811461324757600080fd5b600080600080600060a086880312156136d457600080fd5b6136dd866136a2565b9450602086015193506040860151925060608601519150613700608087016136a2565b90509295509295909350565b634e487b7160e01b600052600160045260246000fd5b60006020828403121561373457600080fd5b815160ff81168114610dae57600080fd5b634e487b7160e01b600052601160045260246000fd5b600181815b8085111561379657816000190482111561377c5761377c613745565b8085161561378957918102915b93841c9390800290613760565b509250929050565b6000826137ad57506001610814565b816137ba57506000610814565b81600181146137d057600281146137da576137f6565b6001915050610814565b60ff8411156137eb576137eb613745565b50506001821b610814565b5060208310610133831016604e8410600b8410161715613819575081810a610814565b613823838361375b565b806000190482111561383757613837613745565b029392505050565b6000610dae60ff84168361379e565b60008261386b57634e487b7160e01b600052601260045260246000fd5b500490565b808202811582820484141761081457610814613745565b61ffff8281168282160390808211156138a2576138a2613745565b5092915050565b61ffff8181168382160190808211156138a2576138a2613745565b8181038181111561081457610814613745565b8082018082111561081457610814613745565b634e487b7160e01b600052603260045260246000fd5b601f821115610a0457600081815260208120601f850160051c810160208610156139275750805b601f850160051c820191505b8181101561394657828155600101613933565b505050505050565b815167ffffffffffffffff81111561396857613968613376565b61397c816139768454613668565b84613900565b602080601f8311600181146139b157600084156139995750858301515b600019600386901b1c1916600185901b178555613946565b600085815260208120601f198616915b828110156139e0578886015182559484019460019091019084016139c1565b50858210156139fe5787850151600019600388901b60f8161c191681555b5050505050600190811b01905550565b60008251613a208184602087016131b4565b7f2e6a736f6e3f616c743d6d656469610000000000000000000000000000000000920191825250600f01919050565b60008351613a618184602088016131b4565b835190830190613a758183602088016131b4565b01949350505050565b600060018201613a9057613a90613745565b5060010190565b600081613aa657613aa6613745565b506000190190565b634e487b7160e01b600052603160045260246000fd5b60006001600160a01b03808716835280861660208401525083604083015260806060830152613af660808301846131d8565b9695505050505050565b600060208284031215613b1257600080fd5b8151610dae8161318156fea26469706673582212201e1384279cf08f6ccb018627acac7916db339f3bb2b72c29a3f432deedf62e5964736f6c63430008110033",
  "linkReferences": {},
  "deployedLinkReferences": {}
}