{
  "_format": "hh-sol-artifact-1",
  "contractName": "Subscription",
  "sourceName": "contracts/Subscription.sol",
  "abi": [
    {
      "anonymous": false,
      "inputs": [
        {
          "indexed": true,
          "internalType": "address",
          "name": "owner",
          "type": "address"
        },
        {
          "indexed": true,
          "internalType": "address",
          "name": "approved",
          "type": "address"
        },
        {
          "indexed": true,
          "internalType": "uint256",
          "name": "tokenId",
          "type": "uint256"
        }
      ],
      "name": "Approval",
      "type": "event"
    },
    {
      "anonymous": false,
      "inputs": [
        {
          "indexed": true,
          "internalType": "address",
          "name": "owner",
          "type": "address"
        },
        {
          "indexed": true,
          "internalType": "address",
          "name": "operator",
          "type": "address"
        },
        {
          "indexed": false,
          "internalType": "bool",
          "name": "approved",
          "type": "bool"
        }
      ],
      "name": "ApprovalForAll",
      "type": "event"
    },
    {
      "anonymous": false,
      "inputs": [
        {
          "indexed": false,
          "internalType": "uint8",
          "name": "version",
          "type": "uint8"
        }
      ],
      "name": "Initialized",
      "type": "event"
    },
    {
      "anonymous": false,
      "inputs": [
        {
          "indexed": false,
          "internalType": "uint256",
          "name": "tokenId",
          "type": "uint256"
        }
      ],
      "name": "RentOfferCancelled",
      "type": "event"
    },
    {
      "anonymous": false,
      "inputs": [
        {
          "indexed": false,
          "internalType": "uint256",
          "name": "tokenId",
          "type": "uint256"
        }
      ],
      "name": "RentOfferCreated",
      "type": "event"
    },
    {
      "anonymous": false,
      "inputs": [
        {
          "indexed": true,
          "internalType": "address",
          "name": "from",
          "type": "address"
        },
        {
          "indexed": true,
          "internalType": "address",
          "name": "to",
          "type": "address"
        },
        {
          "indexed": true,
          "internalType": "uint256",
          "name": "tokenId",
          "type": "uint256"
        }
      ],
      "name": "Transfer",
      "type": "event"
    },
    {
      "anonymous": false,
      "inputs": [
        {
          "indexed": true,
          "internalType": "uint256",
          "name": "tokenId",
          "type": "uint256"
        },
        {
          "indexed": true,
          "internalType": "address",
          "name": "user",
          "type": "address"
        },
        {
          "indexed": false,
          "internalType": "uint64",
          "name": "expires",
          "type": "uint64"
        }
      ],
      "name": "UpdateUser",
      "type": "event"
    },
    {
      "inputs": [
        {
          "internalType": "address",
          "name": "to",
          "type": "address"
        },
        {
          "internalType": "uint256",
          "name": "tokenId",
          "type": "uint256"
        }
      ],
      "name": "approve",
      "outputs": [],
      "stateMutability": "nonpayable",
      "type": "function"
    },
    {
      "inputs": [
        {
          "internalType": "address",
          "name": "owner",
          "type": "address"
        }
      ],
      "name": "balanceOf",
      "outputs": [
        {
          "internalType": "uint256",
          "name": "",
          "type": "uint256"
        }
      ],
      "stateMutability": "view",
      "type": "function"
    },
    {
      "inputs": [
        {
          "internalType": "address",
          "name": "",
          "type": "address"
        }
      ],
      "name": "balances",
      "outputs": [
        {
          "internalType": "uint256",
          "name": "",
          "type": "uint256"
        }
      ],
      "stateMutability": "view",
      "type": "function"
    },
    {
      "inputs": [
        {
          "internalType": "uint256",
          "name": "tokenId",
          "type": "uint256"
        }
      ],
      "name": "cancelOfferForRent",
      "outputs": [],
      "stateMutability": "nonpayable",
      "type": "function"
    },
    {
      "inputs": [],
      "name": "contentSubscriptionPrice",
      "outputs": [
        {
          "internalType": "uint32",
          "name": "",
          "type": "uint32"
        }
      ],
      "stateMutability": "view",
      "type": "function"
    },
    {
      "inputs": [
        {
          "internalType": "uint256",
          "name": "tokenId",
          "type": "uint256"
        }
      ],
      "name": "expiresAt",
      "outputs": [
        {
          "internalType": "uint256",
          "name": "",
          "type": "uint256"
        }
      ],
      "stateMutability": "view",
      "type": "function"
    },
    {
      "inputs": [
        {
          "internalType": "uint256",
          "name": "tokenId",
          "type": "uint256"
        }
      ],
      "name": "getApproved",
      "outputs": [
        {
          "internalType": "address",
          "name": "",
          "type": "address"
        }
      ],
      "stateMutability": "view",
      "type": "function"
    },
    {
      "inputs": [],
      "name": "getAvailableTokenCount",
      "outputs": [
        {
          "internalType": "uint256",
          "name": "",
          "type": "uint256"
        }
      ],
      "stateMutability": "view",
      "type": "function"
    },
    {
      "inputs": [
        {
          "internalType": "uint256",
          "name": "index",
          "type": "uint256"
        }
      ],
      "name": "getAvailableTokenIdAtIndex",
      "outputs": [
        {
          "internalType": "uint256",
          "name": "",
          "type": "uint256"
        }
      ],
      "stateMutability": "view",
      "type": "function"
    },
    {
      "inputs": [
        {
          "internalType": "uint256",
          "name": "tokenId",
          "type": "uint256"
        }
      ],
      "name": "getRentingConditions",
      "outputs": [
        {
          "components": [
            {
              "internalType": "uint32",
              "name": "price",
              "type": "uint32"
            },
            {
              "internalType": "uint128",
              "name": "duration",
              "type": "uint128"
            },
            {
              "internalType": "uint256",
              "name": "createdAt",
              "type": "uint256"
            }
          ],
          "internalType": "struct Marketplace.RentingConditions",
          "name": "",
          "type": "tuple"
        }
      ],
      "stateMutability": "view",
      "type": "function"
    },
    {
      "inputs": [
        {
          "internalType": "string",
          "name": "name_",
          "type": "string"
        },
        {
          "internalType": "string",
          "name": "symbol_",
          "type": "string"
        },
        {
          "internalType": "uint32",
          "name": "contentSubscriptionPrice_",
          "type": "uint32"
        },
        {
          "internalType": "uint32",
          "name": "minRentPrice_",
          "type": "uint32"
        },
        {
          "internalType": "uint32",
          "name": "minRentDuration_",
          "type": "uint32"
        },
        {
          "internalType": "address",
          "name": "contentProvider_",
          "type": "address"
        },
        {
          "internalType": "address",
          "name": "marketplaceProvider_",
          "type": "address"
        },
        {
          "internalType": "address",
          "name": "priceFeedAddress_",
          "type": "address"
        }
      ],
      "name": "initialize",
      "outputs": [],
      "stateMutability": "nonpayable",
      "type": "function"
    },
    {
      "inputs": [
        {
          "internalType": "address",
          "name": "owner",
          "type": "address"
        },
        {
          "internalType": "address",
          "name": "operator",
          "type": "address"
        }
      ],
      "name": "isApprovedForAll",
      "outputs": [
        {
          "internalType": "bool",
          "name": "",
          "type": "bool"
        }
      ],
      "stateMutability": "view",
      "type": "function"
    },
    {
      "inputs": [],
      "name": "minRentDuration",
      "outputs": [
        {
          "internalType": "uint32",
          "name": "",
          "type": "uint32"
        }
      ],
      "stateMutability": "view",
      "type": "function"
    },
    {
      "inputs": [],
      "name": "minRentPrice",
      "outputs": [
        {
          "internalType": "uint32",
          "name": "",
          "type": "uint32"
        }
      ],
      "stateMutability": "view",
      "type": "function"
    },
    {
      "inputs": [],
      "name": "mint",
      "outputs": [],
      "stateMutability": "payable",
      "type": "function"
    },
    {
      "inputs": [],
      "name": "name",
      "outputs": [
        {
          "internalType": "string",
          "name": "",
          "type": "string"
        }
      ],
      "stateMutability": "view",
      "type": "function"
    },
    {
      "inputs": [
        {
          "internalType": "uint256",
          "name": "tokenId",
          "type": "uint256"
        },
        {
          "internalType": "uint32",
          "name": "price",
          "type": "uint32"
        },
        {
          "internalType": "uint128",
          "name": "duration",
          "type": "uint128"
        }
      ],
      "name": "offerForRent",
      "outputs": [],
      "stateMutability": "nonpayable",
      "type": "function"
    },
    {
      "inputs": [
        {
          "internalType": "uint256",
          "name": "tokenId",
          "type": "uint256"
        }
      ],
      "name": "ownerOf",
      "outputs": [
        {
          "internalType": "address",
          "name": "",
          "type": "address"
        }
      ],
      "stateMutability": "view",
      "type": "function"
    },
    {
      "inputs": [
        {
          "internalType": "uint256",
          "name": "tokenId",
          "type": "uint256"
        }
      ],
      "name": "reclaim",
      "outputs": [],
      "stateMutability": "nonpayable",
      "type": "function"
    },
    {
      "inputs": [
        {
          "internalType": "uint256",
          "name": "tokenId",
          "type": "uint256"
        }
      ],
      "name": "rent",
      "outputs": [],
      "stateMutability": "payable",
      "type": "function"
    },
    {
      "inputs": [
        {
          "internalType": "address",
          "name": "",
          "type": "address"
        },
        {
          "internalType": "address",
          "name": "",
          "type": "address"
        },
        {
          "internalType": "uint256",
          "name": "",
          "type": "uint256"
        }
      ],
      "name": "safeTransferFrom",
      "outputs": [],
      "stateMutability": "pure",
      "type": "function"
    },
    {
      "inputs": [
        {
          "internalType": "address",
          "name": "",
          "type": "address"
        },
        {
          "internalType": "address",
          "name": "",
          "type": "address"
        },
        {
          "internalType": "uint256",
          "name": "",
          "type": "uint256"
        },
        {
          "internalType": "bytes",
          "name": "",
          "type": "bytes"
        }
      ],
      "name": "safeTransferFrom",
      "outputs": [],
      "stateMutability": "pure",
      "type": "function"
    },
    {
      "inputs": [
        {
          "internalType": "address",
          "name": "operator",
          "type": "address"
        },
        {
          "internalType": "bool",
          "name": "approved",
          "type": "bool"
        }
      ],
      "name": "setApprovalForAll",
      "outputs": [],
      "stateMutability": "nonpayable",
      "type": "function"
    },
    {
      "inputs": [
        {
          "internalType": "uint256",
          "name": "tokenId",
          "type": "uint256"
        },
        {
          "internalType": "address",
          "name": "user",
          "type": "address"
        },
        {
          "internalType": "uint64",
          "name": "expires",
          "type": "uint64"
        }
      ],
      "name": "setUser",
      "outputs": [],
      "stateMutability": "nonpayable",
      "type": "function"
    },
    {
      "inputs": [
        {
          "internalType": "bytes4",
          "name": "interfaceId",
          "type": "bytes4"
        }
      ],
      "name": "supportsInterface",
      "outputs": [
        {
          "internalType": "bool",
          "name": "",
          "type": "bool"
        }
      ],
      "stateMutability": "view",
      "type": "function"
    },
    {
      "inputs": [],
      "name": "symbol",
      "outputs": [
        {
          "internalType": "string",
          "name": "",
          "type": "string"
        }
      ],
      "stateMutability": "view",
      "type": "function"
    },
    {
      "inputs": [
        {
          "internalType": "uint256",
          "name": "index",
          "type": "uint256"
        }
      ],
      "name": "tokenByIndex",
      "outputs": [
        {
          "internalType": "uint256",
          "name": "",
          "type": "uint256"
        }
      ],
      "stateMutability": "view",
      "type": "function"
    },
    {
      "inputs": [
        {
          "internalType": "address",
          "name": "owner",
          "type": "address"
        },
        {
          "internalType": "uint256",
          "name": "index",
          "type": "uint256"
        }
      ],
      "name": "tokenOfOwnerByIndex",
      "outputs": [
        {
          "internalType": "uint256",
          "name": "",
          "type": "uint256"
        }
      ],
      "stateMutability": "view",
      "type": "function"
    },
    {
      "inputs": [
        {
          "internalType": "address",
          "name": "user",
          "type": "address"
        },
        {
          "internalType": "uint256",
          "name": "index",
          "type": "uint256"
        }
      ],
      "name": "tokenOfUserByIndex",
      "outputs": [
        {
          "internalType": "uint256",
          "name": "",
          "type": "uint256"
        }
      ],
      "stateMutability": "view",
      "type": "function"
    },
    {
      "inputs": [
        {
          "internalType": "uint256",
          "name": "tokenId",
          "type": "uint256"
        }
      ],
      "name": "tokenURI",
      "outputs": [
        {
          "internalType": "string",
          "name": "",
          "type": "string"
        }
      ],
      "stateMutability": "view",
      "type": "function"
    },
    {
      "inputs": [],
      "name": "totalSupply",
      "outputs": [
        {
          "internalType": "uint256",
          "name": "",
          "type": "uint256"
        }
      ],
      "stateMutability": "view",
      "type": "function"
    },
    {
      "inputs": [
        {
          "internalType": "address",
          "name": "",
          "type": "address"
        },
        {
          "internalType": "address",
          "name": "",
          "type": "address"
        },
        {
          "internalType": "uint256",
          "name": "",
          "type": "uint256"
        }
      ],
      "name": "transferFrom",
      "outputs": [],
      "stateMutability": "pure",
      "type": "function"
    },
    {
      "inputs": [
        {
          "internalType": "address",
          "name": "user",
          "type": "address"
        }
      ],
      "name": "usedBalanceOf",
      "outputs": [
        {
          "internalType": "uint256",
          "name": "",
          "type": "uint256"
        }
      ],
      "stateMutability": "view",
      "type": "function"
    },
    {
      "inputs": [
        {
          "internalType": "uint256",
          "name": "tokenId",
          "type": "uint256"
        }
      ],
      "name": "userExpires",
      "outputs": [
        {
          "internalType": "uint256",
          "name": "",
          "type": "uint256"
        }
      ],
      "stateMutability": "view",
      "type": "function"
    },
    {
      "inputs": [
        {
          "internalType": "uint256",
          "name": "tokenId",
          "type": "uint256"
        }
      ],
      "name": "userOf",
      "outputs": [
        {
          "internalType": "address",
          "name": "",
          "type": "address"
        }
      ],
      "stateMutability": "view",
      "type": "function"
    },
    {
      "inputs": [],
      "name": "withdraw",
      "outputs": [],
      "stateMutability": "nonpayable",
      "type": "function"
    }
  ],
  "bytecode": "0x608060405234801561001057600080fd5b50615ec680620000216000396000f3fe60806040526004361061020f5760003560e01c806355673d0711610118578063abb302ad116100a0578063c87b56dd1161006f578063c87b56dd146107f1578063d3d726171461082e578063d537090414610857578063e030565e14610882578063e985e9c5146108ab5761020f565b8063abb302ad14610723578063b88d4fde14610760578063c25a2c6514610789578063c2f1f14a146107b45761020f565b80637456be7d116100e75780637456be7d1461064d5780638fc88c481461066957806395d89b41146106a6578063a1327926146106d1578063a22cb465146106fa5761020f565b806355673d071461057d5780636352211e146105a857806363dd96c4146105e557806370a08231146106105761020f565b806322f3bb3e1161019b5780632f745c591161016a5780632f745c59146104865780633ccfd60b146104c357806342842e0e146104da57806347906905146105035780634f6ccce7146105405761020f565b806322f3bb3e146103ce57806323b872dd146103f757806327e235e3146104205780632dabbeed1461045d5761020f565b80631249c58b116101e25780631249c58b146102e257806317c95709146102ec57806318160ddd146103295780631d350ef814610354578063227773c0146103915761020f565b806301ffc9a71461021457806306fdde0314610251578063081812fc1461027c578063095ea7b3146102b9575b600080fd5b34801561022057600080fd5b5061023b60048036038101906102369190614086565b6108e8565b60405161024891906140ce565b60405180910390f35b34801561025d57600080fd5b506102666108fa565b6040516102739190614179565b60405180910390f35b34801561028857600080fd5b506102a3600480360381019061029e91906141d1565b61098c565b6040516102b0919061423f565b60405180910390f35b3480156102c557600080fd5b506102e060048036038101906102db9190614286565b6109d2565b005b6102ea610ae9565b005b3480156102f857600080fd5b50610313600480360381019061030e91906141d1565b610e08565b60405161032091906142d5565b60405180910390f35b34801561033557600080fd5b5061033e610e25565b60405161034b91906142d5565b60405180910390f35b34801561036057600080fd5b5061037b60048036038101906103769190614286565b610e32565b60405161038891906142d5565b60405180910390f35b34801561039d57600080fd5b506103b860048036038101906103b391906142f0565b610eee565b6040516103c591906142d5565b60405180910390f35b3480156103da57600080fd5b506103f560048036038101906103f091906143a1565b610f37565b005b34801561040357600080fd5b5061041e600480360381019061041991906143f4565b6111d0565b005b34801561042c57600080fd5b50610447600480360381019061044291906142f0565b61120b565b60405161045491906142d5565b60405180910390f35b34801561046957600080fd5b50610484600480360381019061047f91906141d1565b611223565b005b34801561049257600080fd5b506104ad60048036038101906104a89190614286565b611232565b6040516104ba91906142d5565b60405180910390f35b3480156104cf57600080fd5b506104d86112d7565b005b3480156104e657600080fd5b5061050160048036038101906104fc91906143f4565b611453565b005b34801561050f57600080fd5b5061052a600480360381019061052591906141d1565b61148e565b60405161053791906142d5565b60405180910390f35b34801561054c57600080fd5b50610567600480360381019061056291906141d1565b6114b6565b60405161057491906142d5565b60405180910390f35b34801561058957600080fd5b50610592611527565b60405161059f9190614456565b60405180910390f35b3480156105b457600080fd5b506105cf60048036038101906105ca91906141d1565b61153d565b6040516105dc919061423f565b60405180910390f35b3480156105f157600080fd5b506105fa6115c3565b6040516106079190614456565b60405180910390f35b34801561061c57600080fd5b50610637600480360381019061063291906142f0565b6115d9565b60405161064491906142d5565b60405180910390f35b610667600480360381019061066291906141d1565b611690565b005b34801561067557600080fd5b50610690600480360381019061068b91906141d1565b6117a9565b60405161069d91906142d5565b60405180910390f35b3480156106b257600080fd5b506106bb6117e7565b6040516106c89190614179565b60405180910390f35b3480156106dd57600080fd5b506106f860048036038101906106f391906144d6565b611879565b005b34801561070657600080fd5b50610721600480360381019061071c91906145f9565b611ad9565b005b34801561072f57600080fd5b5061074a600480360381019061074591906141d1565b611aef565b60405161075791906146a8565b60405180910390f35b34801561076c57600080fd5b50610787600480360381019061078291906147f3565b611b96565b005b34801561079557600080fd5b5061079e611bd1565b6040516107ab9190614456565b60405180910390f35b3480156107c057600080fd5b506107db60048036038101906107d691906141d1565b611be7565b6040516107e8919061423f565b60405180910390f35b3480156107fd57600080fd5b50610818600480360381019061081391906141d1565b611c27565b6040516108259190614179565b60405180910390f35b34801561083a57600080fd5b50610855600480360381019061085091906141d1565b611c8f565b005b34801561086357600080fd5b5061086c611d22565b60405161087991906142d5565b60405180910390f35b34801561088e57600080fd5b506108a960048036038101906108a491906148b6565b611d2f565b005b3480156108b757600080fd5b506108d260048036038101906108cd9190614909565b611ea5565b6040516108df91906140ce565b60405180910390f35b60006108f382611f39565b9050919050565b60606065805461090990614978565b80601f016020809104026020016040519081016040528092919081815260200182805461093590614978565b80156109825780601f1061095757610100808354040283529160200191610982565b820191906000526020600020905b81548152906001019060200180831161096557829003601f168201915b5050505050905090565b600061099782611fb3565b6069600083815260200190815260200160002060009054906101000a900473ffffffffffffffffffffffffffffffffffffffff169050919050565b60006109dd8261153d565b90508073ffffffffffffffffffffffffffffffffffffffff168373ffffffffffffffffffffffffffffffffffffffff1603610a4d576040517f08c379a0000000000000000000000000000000000000000000000000000000008152600401610a4490614a1b565b60405180910390fd5b8073ffffffffffffffffffffffffffffffffffffffff16610a6c611ffe565b73ffffffffffffffffffffffffffffffffffffffff161480610a9b5750610a9a81610a95611ffe565b611ea5565b5b610ada576040517f08c379a0000000000000000000000000000000000000000000000000000000008152600401610ad190614aad565b60405180910390fd5b610ae48383612006565b505050565b600060d360009054906101000a900473ffffffffffffffffffffffffffffffffffffffff1673ffffffffffffffffffffffffffffffffffffffff1663feaf968c6040518163ffffffff1660e01b815260040160a060405180830381865afa158015610b58573d6000803e3d6000fd5b505050506040513d601f19601f82011682018060405250810190610b7c9190614b5a565b50505091505060008113610b9357610b92614bd5565b5b6000606460d660009054906101000a900463ffffffff1663ffffffff1683610bbb9190614c33565b610bc59190614ca4565b905060006103e860d660049054906101000a900460ff1660ff166103e8610bec9190614ce3565b61ffff1683610bfb9190614c33565b610c059190614ca4565b905060006103e860d660049054906101000a900460ff1660ff166103e8610c2c9190614d19565b61ffff1684610c3b9190614c33565b610c459190614ca4565b9050813410158015610c575750803411155b610c96576040517f08c379a0000000000000000000000000000000000000000000000000000000008152600401610c8d90614d9b565b60405180910390fd5b60006103e8601960ff1634610cab9190614c33565b610cb59190614ca4565b905060008134610cc59190614dbb565b90508160d8600060d760009054906101000a900473ffffffffffffffffffffffffffffffffffffffff1673ffffffffffffffffffffffffffffffffffffffff1673ffffffffffffffffffffffffffffffffffffffff1681526020019081526020016000206000828254610d389190614def565b925050819055508060d8600060d660059054906101000a900473ffffffffffffffffffffffffffffffffffffffff1673ffffffffffffffffffffffffffffffffffffffff1673ffffffffffffffffffffffffffffffffffffffff1681526020019081526020016000206000828254610db09190614def565b925050819055506000610dc360d46120bf565b905062278d0042610dd49190614def565b60d5600083815260200190815260200160002081905550610df533826120cd565b610dff60d46120eb565b50505050505050565b600060d56000838152602001908152602001600020549050919050565b6000609f80549050905090565b6000610e3d83610eee565b8210610e7e576040517f08c379a0000000000000000000000000000000000000000000000000000000008152600401610e7590614e95565b60405180910390fd5b6000609860008573ffffffffffffffffffffffffffffffffffffffff1673ffffffffffffffffffffffffffffffffffffffff168152602001908152602001600020600084815260200190815260200160002054905060008103610ee457610ee3614bd5565b5b8091505092915050565b6000609c60008373ffffffffffffffffffffffffffffffffffffffff1673ffffffffffffffffffffffffffffffffffffffff168152602001908152602001600020549050919050565b610f48610f42611ffe565b84612101565b610f87576040517f08c379a0000000000000000000000000000000000000000000000000000000008152600401610f7e90614f27565b60405180910390fd5b600073ffffffffffffffffffffffffffffffffffffffff16610fa884611be7565b73ffffffffffffffffffffffffffffffffffffffff1614610ffe576040517f08c379a0000000000000000000000000000000000000000000000000000000008152600401610ff590614f93565b60405180910390fd5b60d060009054906101000a900463ffffffff1663ffffffff168263ffffffff16101561105f576040517f08c379a000000000000000000000000000000000000000000000000000000000815260040161105690614fff565b60405180910390fd5b60d060049054906101000a900463ffffffff1663ffffffff16816fffffffffffffffffffffffffffffffff1610156110cc576040517f08c379a00000000000000000000000000000000000000000000000000000000081526004016110c39061506b565b60405180910390fd5b600060405180606001604052808463ffffffff168152602001836fffffffffffffffffffffffffffffffff1681526020014281525090508060cf600086815260200190815260200160002060008201518160000160006101000a81548163ffffffff021916908363ffffffff16021790555060208201518160000160046101000a8154816fffffffffffffffffffffffffffffffff02191690836fffffffffffffffffffffffffffffffff1602179055506040820151816001015590505061119384612196565b7fc8bf25b5dc60208595c2afecaf7a3b5852ecdb7917ab66a44def586c13a282a7846040516111c291906142d5565b60405180910390a150505050565b6040517f08c379a0000000000000000000000000000000000000000000000000000000008152600401611202906150d7565b60405180910390fd5b60d86020528060005260406000206000915090505481565b61122f81600080611d2f565b50565b600061123d836115d9565b821061127e576040517f08c379a000000000000000000000000000000000000000000000000000000000815260040161127590615169565b60405180910390fd5b609d60008473ffffffffffffffffffffffffffffffffffffffff1673ffffffffffffffffffffffffffffffffffffffff168152602001908152602001600020600083815260200190815260200160002054905092915050565b600060d860003373ffffffffffffffffffffffffffffffffffffffff1673ffffffffffffffffffffffffffffffffffffffff1681526020019081526020016000205490506000811161135e576040517f08c379a0000000000000000000000000000000000000000000000000000000008152600401611355906151d5565b60405180910390fd5b600060d860003373ffffffffffffffffffffffffffffffffffffffff1673ffffffffffffffffffffffffffffffffffffffff1681526020019081526020016000208190555060003373ffffffffffffffffffffffffffffffffffffffff16826040516113c990615226565b60006040518083038185875af1925050503d8060008114611406576040519150601f19603f3d011682016040523d82523d6000602084013e61140b565b606091505b505090508061144f576040517f08c379a000000000000000000000000000000000000000000000000000000000815260040161144690615287565b60405180910390fd5b5050565b6040517f08c379a0000000000000000000000000000000000000000000000000000000008152600401611485906150d7565b60405180910390fd5b600060d182815481106114a4576114a36152a7565b5b90600052602060002001549050919050565b60006114c0610e25565b8210611501576040517f08c379a00000000000000000000000000000000000000000000000000000000081526004016114f890615348565b60405180910390fd5b609f8281548110611515576115146152a7565b5b90600052602060002001549050919050565b60d060049054906101000a900463ffffffff1681565b600080611549836121df565b9050600073ffffffffffffffffffffffffffffffffffffffff168173ffffffffffffffffffffffffffffffffffffffff16036115ba576040517f08c379a00000000000000000000000000000000000000000000000000000000081526004016115b1906153b4565b60405180910390fd5b80915050919050565b60d660009054906101000a900463ffffffff1681565b60008073ffffffffffffffffffffffffffffffffffffffff168273ffffffffffffffffffffffffffffffffffffffff1603611649576040517f08c379a000000000000000000000000000000000000000000000000000000000815260040161164090615446565b60405180910390fd5b606860008373ffffffffffffffffffffffffffffffffffffffff1673ffffffffffffffffffffffffffffffffffffffff168152602001908152602001600020549050919050565b600060cf60008381526020019081526020016000206040518060600160405290816000820160009054906101000a900463ffffffff1663ffffffff1663ffffffff1681526020016000820160049054906101000a90046fffffffffffffffffffffffffffffffff166fffffffffffffffffffffffffffffffff166fffffffffffffffffffffffffffffffff16815260200160018201548152505090506000816040015103611773576040517f08c379a000000000000000000000000000000000000000000000000000000000815260040161176a906154b2565b60405180910390fd5b600081602001516fffffffffffffffffffffffffffffffff16426117979190614def565b90506117a4833383611d2f565b505050565b60006097600083815260200190815260200160002060000160149054906101000a900467ffffffffffffffff1667ffffffffffffffff169050919050565b6060606680546117f690614978565b80601f016020809104026020016040519081016040528092919081815260200182805461182290614978565b801561186f5780601f106118445761010080835404028352916020019161186f565b820191906000526020600020905b81548152906001019060200180831161185257829003601f168201915b5050505050905090565b60008060019054906101000a900460ff161590508080156118aa5750600160008054906101000a900460ff1660ff16105b806118d757506118b93061221c565b1580156118d65750600160008054906101000a900460ff1660ff16145b5b611916576040517f08c379a000000000000000000000000000000000000000000000000000000000815260040161190d90615544565b60405180910390fd5b60016000806101000a81548160ff021916908360ff1602179055508015611953576001600060016101000a81548160ff0219169083151502179055505b61195f8b8b8b8b61223f565b61196986866122a0565b8660d660006101000a81548163ffffffff021916908363ffffffff1602179055508360d660056101000a81548173ffffffffffffffffffffffffffffffffffffffff021916908373ffffffffffffffffffffffffffffffffffffffff1602179055508260d760006101000a81548173ffffffffffffffffffffffffffffffffffffffff021916908373ffffffffffffffffffffffffffffffffffffffff1602179055508160d360006101000a81548173ffffffffffffffffffffffffffffffffffffffff021916908373ffffffffffffffffffffffffffffffffffffffff160217905550600560d660046101000a81548160ff021916908360ff160217905550611a7360d46120eb565b8015611acc5760008060016101000a81548160ff0219169083151502179055507f7f26b83ff96e1f2b6a682f133852f6798a09c465da95921460cefb38474024986001604051611ac391906155b6565b60405180910390a15b5050505050505050505050565b611aeb611ae4611ffe565b8383612335565b5050565b611af7613fe1565b60cf60008381526020019081526020016000206040518060600160405290816000820160009054906101000a900463ffffffff1663ffffffff1663ffffffff1681526020016000820160049054906101000a90046fffffffffffffffffffffffffffffffff166fffffffffffffffffffffffffffffffff166fffffffffffffffffffffffffffffffff1681526020016001820154815250509050919050565b6040517f08c379a0000000000000000000000000000000000000000000000000000000008152600401611bc8906150d7565b60405180910390fd5b60d060009054906101000a900463ffffffff1681565b60006097600083815260200190815260200160002060000160009054906101000a900473ffffffffffffffffffffffffffffffffffffffff169050919050565b6060611c3282611fb3565b6000611c3c6124a1565b90506000815111611c5c5760405180602001604052806000815250611c87565b80611c66846124b8565b604051602001611c7792919061560d565b6040516020818303038152906040525b915050919050565b611ca0611c9a611ffe565b82612101565b611cdf576040517f08c379a0000000000000000000000000000000000000000000000000000000008152600401611cd690614f27565b60405180910390fd5b611ce881612586565b7f4ee8bdb37621a2594d4cb695cc7b6ecddd0eaa9d9d972acd674f3fca50aee7f281604051611d1791906142d5565b60405180910390a150565b600060d180549050905090565b611d388361153d565b73ffffffffffffffffffffffffffffffffffffffff168273ffffffffffffffffffffffffffffffffffffffff1603611da5576040517f08c379a0000000000000000000000000000000000000000000000000000000008152600401611d9c9061567d565b60405180910390fd5b611dae836117a9565b421015611df0576040517f08c379a0000000000000000000000000000000000000000000000000000000008152600401611de790614f93565b60405180910390fd5b600073ffffffffffffffffffffffffffffffffffffffff168273ffffffffffffffffffffffffffffffffffffffff1603611e7957611e35611e2f611ffe565b84612101565b611e74576040517f08c379a0000000000000000000000000000000000000000000000000000000008152600401611e6b90614f27565b60405180910390fd5b611e95565b611e82836125ea565b611e8b83612870565b611e9483612586565b5b611ea0838383612a25565b505050565b6000606a60008473ffffffffffffffffffffffffffffffffffffffff1673ffffffffffffffffffffffffffffffffffffffff16815260200190815260200160002060008373ffffffffffffffffffffffffffffffffffffffff1673ffffffffffffffffffffffffffffffffffffffff16815260200190815260200160002060009054906101000a900460ff16905092915050565b60007f780e9d63000000000000000000000000000000000000000000000000000000007bffffffffffffffffffffffffffffffffffffffffffffffffffffffff1916827bffffffffffffffffffffffffffffffffffffffffffffffffffffffff19161480611fac5750611fab82612b2b565b5b9050919050565b611fbc81612ba5565b611ffb576040517f08c379a0000000000000000000000000000000000000000000000000000000008152600401611ff2906153b4565b60405180910390fd5b50565b600033905090565b816069600083815260200190815260200160002060006101000a81548173ffffffffffffffffffffffffffffffffffffffff021916908373ffffffffffffffffffffffffffffffffffffffff160217905550808273ffffffffffffffffffffffffffffffffffffffff166120798361153d565b73ffffffffffffffffffffffffffffffffffffffff167f8c5be1e5ebec7d5bd14f71427d1e84f3dd0314c0f7b2291e5b200ac8c7c3b92560405160405180910390a45050565b600081600001549050919050565b6120e7828260405180602001604052806000815250612be6565b5050565b6001816000016000828254019250508190555050565b60008061210d8361153d565b90508073ffffffffffffffffffffffffffffffffffffffff168473ffffffffffffffffffffffffffffffffffffffff16148061214f575061214e8185611ea5565b5b8061218d57508373ffffffffffffffffffffffffffffffffffffffff166121758461098c565b73ffffffffffffffffffffffffffffffffffffffff16145b91505092915050565b60d18054905060d260008381526020019081526020016000208190555060d181908060018154018082558091505060019003906000526020600020016000909190919091505550565b60006067600083815260200190815260200160002060009054906101000a900473ffffffffffffffffffffffffffffffffffffffff169050919050565b6000808273ffffffffffffffffffffffffffffffffffffffff163b119050919050565b600060019054906101000a900460ff1661228e576040517f08c379a00000000000000000000000000000000000000000000000000000000081526004016122859061570f565b60405180910390fd5b61229a84848484612c41565b50505050565b600060019054906101000a900460ff166122ef576040517f08c379a00000000000000000000000000000000000000000000000000000000081526004016122e69061570f565b60405180910390fd5b8160d060006101000a81548163ffffffff021916908363ffffffff1602179055508060d060046101000a81548163ffffffff021916908363ffffffff1602179055505050565b8173ffffffffffffffffffffffffffffffffffffffff168373ffffffffffffffffffffffffffffffffffffffff16036123a3576040517f08c379a000000000000000000000000000000000000000000000000000000000815260040161239a9061577b565b60405180910390fd5b80606a60008573ffffffffffffffffffffffffffffffffffffffff1673ffffffffffffffffffffffffffffffffffffffff16815260200190815260200160002060008473ffffffffffffffffffffffffffffffffffffffff1673ffffffffffffffffffffffffffffffffffffffff16815260200190815260200160002060006101000a81548160ff0219169083151502179055508173ffffffffffffffffffffffffffffffffffffffff168373ffffffffffffffffffffffffffffffffffffffff167f17307eab39ab6107e8899845ad3d59bd9653f200f220920489ca2b5937696c318360405161249491906140ce565b60405180910390a3505050565b606060405180602001604052806000815250905090565b6060600060016124c784612d28565b01905060008167ffffffffffffffff8111156124e6576124e56146c8565b5b6040519080825280601f01601f1916602001820160405280156125185781602001600182028036833780820191505090505b509050600082602001820190505b60011561257b578080600190039150507f3031323334353637383961626364656600000000000000000000000000000000600a86061a8153600a858161256f5761256e614c75565b5b04945060008503612526575b819350505050919050565b60cf6000828152602001908152602001600020600080820160006101000a81549063ffffffff02191690556000820160046101000a8154906fffffffffffffffffffffffffffffffff0219169055600182016000905550506125e781612e7b565b50565b6000341161262d576040517f08c379a0000000000000000000000000000000000000000000000000000000008152600401612624906157e7565b60405180910390fd5b600060cf60008381526020019081526020016000206040518060600160405290816000820160009054906101000a900463ffffffff1663ffffffff1663ffffffff1681526020016000820160049054906101000a90046fffffffffffffffffffffffffffffffff166fffffffffffffffffffffffffffffffff166fffffffffffffffffffffffffffffffff1681526020016001820154815250509050600060d360009054906101000a900473ffffffffffffffffffffffffffffffffffffffff1673ffffffffffffffffffffffffffffffffffffffff1663feaf968c6040518163ffffffff1660e01b815260040160a060405180830381865afa158015612738573d6000803e3d6000fd5b505050506040513d601f19601f8201168201806040525081019061275c9190614b5a565b5050509150506000811361277357612772614bd5565b5b60006064836000015163ffffffff168361278d9190614c33565b6127979190614ca4565b905060006103e860d660049054906101000a900460ff1660ff166103e86127be9190614ce3565b61ffff16836127cd9190614c33565b6127d79190614ca4565b905060006103e860d660049054906101000a900460ff1660ff166103e86127fe9190614d19565b61ffff168461280d9190614c33565b6128179190614ca4565b90508134101580156128295750803411155b612868576040517f08c379a000000000000000000000000000000000000000000000000000000000815260040161285f90614d9b565b60405180910390fd5b505050505050565b600061287b8261153d565b905060006064600f60ff16346128919190614c33565b61289b9190614ca4565b905060006064600f60ff16346128b19190614c33565b6128bb9190614ca4565b9050600081836128cb9190614def565b346128d69190614dbb565b90508260d8600060d660059054906101000a900473ffffffffffffffffffffffffffffffffffffffff1673ffffffffffffffffffffffffffffffffffffffff1673ffffffffffffffffffffffffffffffffffffffff16815260200190815260200160002060008282546129499190614def565b925050819055508160d8600060d760009054906101000a900473ffffffffffffffffffffffffffffffffffffffff1673ffffffffffffffffffffffffffffffffffffffff1673ffffffffffffffffffffffffffffffffffffffff16815260200190815260200160002060008282546129c19190614def565b925050819055508060d860008673ffffffffffffffffffffffffffffffffffffffff1673ffffffffffffffffffffffffffffffffffffffff1681526020019081526020016000206000828254612a179190614def565b925050819055505050505050565b612a2f8284612f4c565b600073ffffffffffffffffffffffffffffffffffffffff168273ffffffffffffffffffffffffffffffffffffffff1614612abd57609c60008373ffffffffffffffffffffffffffffffffffffffff1673ffffffffffffffffffffffffffffffffffffffff1681526020019081526020016000206000815480929190612ab390615807565b9190505550612b1b565b609c6000612aca85611be7565b73ffffffffffffffffffffffffffffffffffffffff1673ffffffffffffffffffffffffffffffffffffffff1681526020019081526020016000206000815480929190612b159061584f565b91905055505b612b26838383612fb8565b505050565b60007fad092b5c000000000000000000000000000000000000000000000000000000007bffffffffffffffffffffffffffffffffffffffffffffffffffffffff1916827bffffffffffffffffffffffffffffffffffffffffffffffffffffffff19161480612b9e5750612b9d82613179565b5b9050919050565b60008073ffffffffffffffffffffffffffffffffffffffff16612bc7836121df565b73ffffffffffffffffffffffffffffffffffffffff1614159050919050565b612bf0838361325b565b612bfd6000848484613478565b612c3c576040517f08c379a0000000000000000000000000000000000000000000000000000000008152600401612c33906158ea565b60405180910390fd5b505050565b600060019054906101000a900460ff16612c90576040517f08c379a0000000000000000000000000000000000000000000000000000000008152600401612c879061570f565b60405180910390fd5b612d2284848080601f016020809104026020016040519081016040528093929190818152602001838380828437600081840152601f19601f8201169050808301925050505050505083838080601f016020809104026020016040519081016040528093929190818152602001838380828437600081840152601f19601f820116905080830192505050505050506135ff565b50505050565b600080600090507a184f03e93ff9f4daa797ed6e38ed64bf6a1f0100000000000000008310612d86577a184f03e93ff9f4daa797ed6e38ed64bf6a1f0100000000000000008381612d7c57612d7b614c75565b5b0492506040810190505b6d04ee2d6d415b85acef81000000008310612dc3576d04ee2d6d415b85acef81000000008381612db957612db8614c75565b5b0492506020810190505b662386f26fc100008310612df257662386f26fc100008381612de857612de7614c75565b5b0492506010810190505b6305f5e1008310612e1b576305f5e1008381612e1157612e10614c75565b5b0492506008810190505b6127108310612e40576127108381612e3657612e35614c75565b5b0492506004810190505b60648310612e635760648381612e5957612e58614c75565b5b0492506002810190505b600a8310612e72576001810190505b80915050919050565b6000600160d180549050612e8f9190614dbb565b9050600060d26000848152602001908152602001600020549050600060d18381548110612ebf57612ebe6152a7565b5b906000526020600020015490508060d18381548110612ee157612ee06152a7565b5b90600052602060002001819055508160d260008381526020019081526020016000208190555060d260008581526020019081526020016000206000905560d1805480612f3057612f2f61590a565b5b6001900381819060005260206000200160009055905550505050565b600073ffffffffffffffffffffffffffffffffffffffff168273ffffffffffffffffffffffffffffffffffffffff1603612fa057612f898161365c565b612f9b612f9582611be7565b8261372d565b612fb4565b612fa98161389a565b612fb382826138e3565b5b5050565b600073ffffffffffffffffffffffffffffffffffffffff168273ffffffffffffffffffffffffffffffffffffffff161461303957428167ffffffffffffffff1611613038576040517f08c379a000000000000000000000000000000000000000000000000000000000815260040161302f90615985565b60405180910390fd5b5b6000609760008581526020019081526020016000209050828160000160006101000a81548173ffffffffffffffffffffffffffffffffffffffff021916908373ffffffffffffffffffffffffffffffffffffffff160217905550600073ffffffffffffffffffffffffffffffffffffffff168373ffffffffffffffffffffffffffffffffffffffff16036130f85760008160000160146101000a81548167ffffffffffffffff021916908367ffffffffffffffff160217905550613124565b818160000160146101000a81548167ffffffffffffffff021916908367ffffffffffffffff1602179055505b8273ffffffffffffffffffffffffffffffffffffffff16847f4e06b4e7000e659094299b3533b47b6aa8ad048e95e872d23d1f4ee55af89cfe8460405161316b91906159b4565b60405180910390a350505050565b60007f80ac58cd000000000000000000000000000000000000000000000000000000007bffffffffffffffffffffffffffffffffffffffffffffffffffffffff1916827bffffffffffffffffffffffffffffffffffffffffffffffffffffffff1916148061324457507f5b5e139f000000000000000000000000000000000000000000000000000000007bffffffffffffffffffffffffffffffffffffffffffffffffffffffff1916827bffffffffffffffffffffffffffffffffffffffffffffffffffffffff1916145b80613254575061325382613962565b5b9050919050565b600073ffffffffffffffffffffffffffffffffffffffff168273ffffffffffffffffffffffffffffffffffffffff16036132ca576040517f08c379a00000000000000000000000000000000000000000000000000000000081526004016132c190615a1b565b60405180910390fd5b6132d381612ba5565b15613313576040517f08c379a000000000000000000000000000000000000000000000000000000000815260040161330a90615a87565b60405180910390fd5b6133216000838360016139cc565b61332a81612ba5565b1561336a576040517f08c379a000000000000000000000000000000000000000000000000000000000815260040161336190615a87565b60405180910390fd5b6001606860008473ffffffffffffffffffffffffffffffffffffffff1673ffffffffffffffffffffffffffffffffffffffff16815260200190815260200160002060008282540192505081905550816067600083815260200190815260200160002060006101000a81548173ffffffffffffffffffffffffffffffffffffffff021916908373ffffffffffffffffffffffffffffffffffffffff160217905550808273ffffffffffffffffffffffffffffffffffffffff16600073ffffffffffffffffffffffffffffffffffffffff167fddf252ad1be2c89b69c2b068fc378daa952ba7f163c4a11628f55a4df523b3ef60405160405180910390a46134746000838360016139de565b5050565b60006134998473ffffffffffffffffffffffffffffffffffffffff1661221c565b156135f2578373ffffffffffffffffffffffffffffffffffffffff1663150b7a026134c2611ffe565b8786866040518563ffffffff1660e01b81526004016134e49493929190615afc565b6020604051808303816000875af192505050801561352057506040513d601f19601f8201168201806040525081019061351d9190615b5d565b60015b6135a2573d8060008114613550576040519150601f19603f3d011682016040523d82523d6000602084013e613555565b606091505b50600081510361359a576040517f08c379a0000000000000000000000000000000000000000000000000000000008152600401613591906158ea565b60405180910390fd5b805181602001fd5b63150b7a0260e01b7bffffffffffffffffffffffffffffffffffffffffffffffffffffffff1916817bffffffffffffffffffffffffffffffffffffffffffffffffffffffff1916149150506135f7565b600190505b949350505050565b600060019054906101000a900460ff1661364e576040517f08c379a00000000000000000000000000000000000000000000000000000000081526004016136459061570f565b60405180910390fd5b61365882826139e4565b5050565b60006001609a805490506136709190614dbb565b90506000609b60008481526020019081526020016000205490506000609a83815481106136a05761369f6152a7565b5b9060005260206000200154905080609a83815481106136c2576136c16152a7565b5b906000526020600020018190555081609b600083815260200190815260200160002081905550609b600085815260200190815260200160002060009055609a8054806137115761371061590a565b5b6001900381819060005260206000200160009055905550505050565b6000600161373a84610eee565b6137449190614dbb565b9050600060996000848152602001908152602001600020549050818114613829576000609860008673ffffffffffffffffffffffffffffffffffffffff1673ffffffffffffffffffffffffffffffffffffffff168152602001908152602001600020600084815260200190815260200160002054905080609860008773ffffffffffffffffffffffffffffffffffffffff1673ffffffffffffffffffffffffffffffffffffffff168152602001908152602001600020600084815260200190815260200160002081905550816099600083815260200190815260200160002081905550505b6099600084815260200190815260200160002060009055609860008573ffffffffffffffffffffffffffffffffffffffff1673ffffffffffffffffffffffffffffffffffffffff16815260200190815260200160002060008381526020019081526020016000206000905550505050565b609a80549050609b600083815260200190815260200160002081905550609a81908060018154018082558091505060019003906000526020600020016000909190919091505550565b60006138ee83610eee565b905081609860008573ffffffffffffffffffffffffffffffffffffffff1673ffffffffffffffffffffffffffffffffffffffff168152602001908152602001600020600083815260200190815260200160002081905550806099600084815260200190815260200160002081905550505050565b60007f01ffc9a7000000000000000000000000000000000000000000000000000000007bffffffffffffffffffffffffffffffffffffffffffffffffffffffff1916827bffffffffffffffffffffffffffffffffffffffffffffffffffffffff1916149050919050565b6139d884848484613a57565b50505050565b50505050565b600060019054906101000a900460ff16613a33576040517f08c379a0000000000000000000000000000000000000000000000000000000008152600401613a2a9061570f565b60405180910390fd5b8160659081613a429190615d2c565b508060669081613a529190615d2c565b505050565b613a6384848484613bb5565b6001811115613aa7576040517f08c379a0000000000000000000000000000000000000000000000000000000008152600401613a9e90615e70565b60405180910390fd5b6000829050600073ffffffffffffffffffffffffffffffffffffffff168573ffffffffffffffffffffffffffffffffffffffff1603613aee57613ae981613cdb565b613b2d565b8373ffffffffffffffffffffffffffffffffffffffff168573ffffffffffffffffffffffffffffffffffffffff1614613b2c57613b2b8582613d24565b5b5b600073ffffffffffffffffffffffffffffffffffffffff168473ffffffffffffffffffffffffffffffffffffffff1603613b6f57613b6a81613e91565b613bae565b8473ffffffffffffffffffffffffffffffffffffffff168473ffffffffffffffffffffffffffffffffffffffff1614613bad57613bac8482613f62565b5b5b5050505050565b6001811115613cd557600073ffffffffffffffffffffffffffffffffffffffff168473ffffffffffffffffffffffffffffffffffffffff1614613c495780606860008673ffffffffffffffffffffffffffffffffffffffff1673ffffffffffffffffffffffffffffffffffffffff1681526020019081526020016000206000828254613c419190614dbb565b925050819055505b600073ffffffffffffffffffffffffffffffffffffffff168373ffffffffffffffffffffffffffffffffffffffff1614613cd45780606860008573ffffffffffffffffffffffffffffffffffffffff1673ffffffffffffffffffffffffffffffffffffffff1681526020019081526020016000206000828254613ccc9190614def565b925050819055505b5b50505050565b609f8054905060a0600083815260200190815260200160002081905550609f81908060018154018082558091505060019003906000526020600020016000909190919091505550565b60006001613d31846115d9565b613d3b9190614dbb565b90506000609e6000848152602001908152602001600020549050818114613e20576000609d60008673ffffffffffffffffffffffffffffffffffffffff1673ffffffffffffffffffffffffffffffffffffffff168152602001908152602001600020600084815260200190815260200160002054905080609d60008773ffffffffffffffffffffffffffffffffffffffff1673ffffffffffffffffffffffffffffffffffffffff16815260200190815260200160002060008481526020019081526020016000208190555081609e600083815260200190815260200160002081905550505b609e600084815260200190815260200160002060009055609d60008573ffffffffffffffffffffffffffffffffffffffff1673ffffffffffffffffffffffffffffffffffffffff16815260200190815260200160002060008381526020019081526020016000206000905550505050565b60006001609f80549050613ea59190614dbb565b9050600060a060008481526020019081526020016000205490506000609f8381548110613ed557613ed46152a7565b5b9060005260206000200154905080609f8381548110613ef757613ef66152a7565b5b90600052602060002001819055508160a060008381526020019081526020016000208190555060a0600085815260200190815260200160002060009055609f805480613f4657613f4561590a565b5b6001900381819060005260206000200160009055905550505050565b6000613f6d836115d9565b905081609d60008573ffffffffffffffffffffffffffffffffffffffff1673ffffffffffffffffffffffffffffffffffffffff16815260200190815260200160002060008381526020019081526020016000208190555080609e600084815260200190815260200160002081905550505050565b6040518060600160405280600063ffffffff16815260200160006fffffffffffffffffffffffffffffffff168152602001600081525090565b6000604051905090565b600080fd5b600080fd5b60007fffffffff0000000000000000000000000000000000000000000000000000000082169050919050565b6140638161402e565b811461406e57600080fd5b50565b6000813590506140808161405a565b92915050565b60006020828403121561409c5761409b614024565b5b60006140aa84828501614071565b91505092915050565b60008115159050919050565b6140c8816140b3565b82525050565b60006020820190506140e360008301846140bf565b92915050565b600081519050919050565b600082825260208201905092915050565b60005b83811015614123578082015181840152602081019050614108565b60008484015250505050565b6000601f19601f8301169050919050565b600061414b826140e9565b61415581856140f4565b9350614165818560208601614105565b61416e8161412f565b840191505092915050565b600060208201905081810360008301526141938184614140565b905092915050565b6000819050919050565b6141ae8161419b565b81146141b957600080fd5b50565b6000813590506141cb816141a5565b92915050565b6000602082840312156141e7576141e6614024565b5b60006141f5848285016141bc565b91505092915050565b600073ffffffffffffffffffffffffffffffffffffffff82169050919050565b6000614229826141fe565b9050919050565b6142398161421e565b82525050565b60006020820190506142546000830184614230565b92915050565b6142638161421e565b811461426e57600080fd5b50565b6000813590506142808161425a565b92915050565b6000806040838503121561429d5761429c614024565b5b60006142ab85828601614271565b92505060206142bc858286016141bc565b9150509250929050565b6142cf8161419b565b82525050565b60006020820190506142ea60008301846142c6565b92915050565b60006020828403121561430657614305614024565b5b600061431484828501614271565b91505092915050565b600063ffffffff82169050919050565b6143368161431d565b811461434157600080fd5b50565b6000813590506143538161432d565b92915050565b60006fffffffffffffffffffffffffffffffff82169050919050565b61437e81614359565b811461438957600080fd5b50565b60008135905061439b81614375565b92915050565b6000806000606084860312156143ba576143b9614024565b5b60006143c8868287016141bc565b93505060206143d986828701614344565b92505060406143ea8682870161438c565b9150509250925092565b60008060006060848603121561440d5761440c614024565b5b600061441b86828701614271565b935050602061442c86828701614271565b925050604061443d868287016141bc565b9150509250925092565b6144508161431d565b82525050565b600060208201905061446b6000830184614447565b92915050565b600080fd5b600080fd5b600080fd5b60008083601f84011261449657614495614471565b5b8235905067ffffffffffffffff8111156144b3576144b2614476565b5b6020830191508360018202830111156144cf576144ce61447b565b5b9250929050565b6000806000806000806000806000806101008b8d0312156144fa576144f9614024565b5b60008b013567ffffffffffffffff81111561451857614517614029565b5b6145248d828e01614480565b9a509a505060208b013567ffffffffffffffff81111561454757614546614029565b5b6145538d828e01614480565b985098505060406145668d828e01614344565b96505060606145778d828e01614344565b95505060806145888d828e01614344565b94505060a06145998d828e01614271565b93505060c06145aa8d828e01614271565b92505060e06145bb8d828e01614271565b9150509295989b9194979a5092959850565b6145d6816140b3565b81146145e157600080fd5b50565b6000813590506145f3816145cd565b92915050565b600080604083850312156146105761460f614024565b5b600061461e85828601614271565b925050602061462f858286016145e4565b9150509250929050565b6146428161431d565b82525050565b61465181614359565b82525050565b6146608161419b565b82525050565b60608201600082015161467c6000850182614639565b50602082015161468f6020850182614648565b5060408201516146a26040850182614657565b50505050565b60006060820190506146bd6000830184614666565b92915050565b600080fd5b7f4e487b7100000000000000000000000000000000000000000000000000000000600052604160045260246000fd5b6147008261412f565b810181811067ffffffffffffffff8211171561471f5761471e6146c8565b5b80604052505050565b600061473261401a565b905061473e82826146f7565b919050565b600067ffffffffffffffff82111561475e5761475d6146c8565b5b6147678261412f565b9050602081019050919050565b82818337600083830152505050565b600061479661479184614743565b614728565b9050828152602081018484840111156147b2576147b16146c3565b5b6147bd848285614774565b509392505050565b600082601f8301126147da576147d9614471565b5b81356147ea848260208601614783565b91505092915050565b6000806000806080858703121561480d5761480c614024565b5b600061481b87828801614271565b945050602061482c87828801614271565b935050604061483d878288016141bc565b925050606085013567ffffffffffffffff81111561485e5761485d614029565b5b61486a878288016147c5565b91505092959194509250565b600067ffffffffffffffff82169050919050565b61489381614876565b811461489e57600080fd5b50565b6000813590506148b08161488a565b92915050565b6000806000606084860312156148cf576148ce614024565b5b60006148dd868287016141bc565b93505060206148ee86828701614271565b92505060406148ff868287016148a1565b9150509250925092565b600080604083850312156149205761491f614024565b5b600061492e85828601614271565b925050602061493f85828601614271565b9150509250929050565b7f4e487b7100000000000000000000000000000000000000000000000000000000600052602260045260246000fd5b6000600282049050600182168061499057607f821691505b6020821081036149a3576149a2614949565b5b50919050565b7f4552433732313a20617070726f76616c20746f2063757272656e74206f776e6560008201527f7200000000000000000000000000000000000000000000000000000000000000602082015250565b6000614a056021836140f4565b9150614a10826149a9565b604082019050919050565b60006020820190508181036000830152614a34816149f8565b9050919050565b7f4552433732313a20617070726f76652063616c6c6572206973206e6f7420746f60008201527f6b656e206f776e6572206f7220617070726f76656420666f7220616c6c000000602082015250565b6000614a97603d836140f4565b9150614aa282614a3b565b604082019050919050565b60006020820190508181036000830152614ac681614a8a565b9050919050565b600069ffffffffffffffffffff82169050919050565b614aec81614acd565b8114614af757600080fd5b50565b600081519050614b0981614ae3565b92915050565b6000819050919050565b614b2281614b0f565b8114614b2d57600080fd5b50565b600081519050614b3f81614b19565b92915050565b600081519050614b54816141a5565b92915050565b600080600080600060a08688031215614b7657614b75614024565b5b6000614b8488828901614afa565b9550506020614b9588828901614b30565b9450506040614ba688828901614b45565b9350506060614bb788828901614b45565b9250506080614bc888828901614afa565b9150509295509295909350565b7f4e487b7100000000000000000000000000000000000000000000000000000000600052600160045260246000fd5b7f4e487b7100000000000000000000000000000000000000000000000000000000600052601160045260246000fd5b6000614c3e8261419b565b9150614c498361419b565b9250828202614c578161419b565b91508282048414831517614c6e57614c6d614c04565b5b5092915050565b7f4e487b7100000000000000000000000000000000000000000000000000000000600052601260045260246000fd5b6000614caf8261419b565b9150614cba8361419b565b925082614cca57614cc9614c75565b5b828204905092915050565b600061ffff82169050919050565b6000614cee82614cd5565b9150614cf983614cd5565b9250828203905061ffff811115614d1357614d12614c04565b5b92915050565b6000614d2482614cd5565b9150614d2f83614cd5565b9250828201905061ffff811115614d4957614d48614c04565b5b92915050565b7f546f6f206d75636820736c697070616765000000000000000000000000000000600082015250565b6000614d856011836140f4565b9150614d9082614d4f565b602082019050919050565b60006020820190508181036000830152614db481614d78565b9050919050565b6000614dc68261419b565b9150614dd18361419b565b9250828203905081811115614de957614de8614c04565b5b92915050565b6000614dfa8261419b565b9150614e058361419b565b9250828201905080821115614e1d57614e1c614c04565b5b92915050565b7f45524334393037456e756d657261626c653a207573657220696e646578206f7560008201527f74206f6620626f756e6473000000000000000000000000000000000000000000602082015250565b6000614e7f602b836140f4565b9150614e8a82614e23565b604082019050919050565b60006020820190508181036000830152614eae81614e72565b9050919050565b7f43616c6c6572206973206e6f7420746f6b656e206f776e6572206f722061707060008201527f726f766564000000000000000000000000000000000000000000000000000000602082015250565b6000614f116025836140f4565b9150614f1c82614eb5565b604082019050919050565b60006020820190508181036000830152614f4081614f04565b9050919050565b7f416c726561647920757365640000000000000000000000000000000000000000600082015250565b6000614f7d600c836140f4565b9150614f8882614f47565b602082019050919050565b60006020820190508181036000830152614fac81614f70565b9050919050565b7f507269636520746f6f206c6f7700000000000000000000000000000000000000600082015250565b6000614fe9600d836140f4565b9150614ff482614fb3565b602082019050919050565b6000602082019050818103600083015261501881614fdc565b9050919050565b7f4475726174696f6e20746f6f206c6f7700000000000000000000000000000000600082015250565b60006150556010836140f4565b91506150608261501f565b602082019050919050565b6000602082019050818103600083015261508481615048565b9050919050565b7f4e6f7420616c6c6f776564000000000000000000000000000000000000000000600082015250565b60006150c1600b836140f4565b91506150cc8261508b565b602082019050919050565b600060208201905081810360008301526150f0816150b4565b9050919050565b7f455243373231456e756d657261626c653a206f776e657220696e646578206f7560008201527f74206f6620626f756e6473000000000000000000000000000000000000000000602082015250565b6000615153602b836140f4565b915061515e826150f7565b604082019050919050565b6000602082019050818103600083015261518281615146565b9050919050565b7f4e6f7468696e6720746f20776974686472617700000000000000000000000000600082015250565b60006151bf6013836140f4565b91506151ca82615189565b602082019050919050565b600060208201905081810360008301526151ee816151b2565b9050919050565b600081905092915050565b50565b60006152106000836151f5565b915061521b82615200565b600082019050919050565b600061523182615203565b9150819050919050565b7f4661696c656420746f2073656e64204574686572000000000000000000000000600082015250565b60006152716014836140f4565b915061527c8261523b565b602082019050919050565b600060208201905081810360008301526152a081615264565b9050919050565b7f4e487b7100000000000000000000000000000000000000000000000000000000600052603260045260246000fd5b7f455243373231456e756d657261626c653a20676c6f62616c20696e646578206f60008201527f7574206f6620626f756e64730000000000000000000000000000000000000000602082015250565b6000615332602c836140f4565b915061533d826152d6565b604082019050919050565b6000602082019050818103600083015261536181615325565b9050919050565b7f4552433732313a20696e76616c696420746f6b656e2049440000000000000000600082015250565b600061539e6018836140f4565b91506153a982615368565b602082019050919050565b600060208201905081810360008301526153cd81615391565b9050919050565b7f4552433732313a2061646472657373207a65726f206973206e6f74206120766160008201527f6c6964206f776e65720000000000000000000000000000000000000000000000602082015250565b60006154306029836140f4565b915061543b826153d4565b604082019050919050565b6000602082019050818103600083015261545f81615423565b9050919050565b7f4e6f7420617661696c61626c6520666f722072656e74696e6700000000000000600082015250565b600061549c6019836140f4565b91506154a782615466565b602082019050919050565b600060208201905081810360008301526154cb8161548f565b9050919050565b7f496e697469616c697a61626c653a20636f6e747261637420697320616c72656160008201527f647920696e697469616c697a6564000000000000000000000000000000000000602082015250565b600061552e602e836140f4565b9150615539826154d2565b604082019050919050565b6000602082019050818103600083015261555d81615521565b9050919050565b6000819050919050565b600060ff82169050919050565b6000819050919050565b60006155a061559b61559684615564565b61557b565b61556e565b9050919050565b6155b081615585565b82525050565b60006020820190506155cb60008301846155a7565b92915050565b600081905092915050565b60006155e7826140e9565b6155f181856155d1565b9350615601818560208601614105565b80840191505092915050565b600061561982856155dc565b915061562582846155dc565b91508190509392505050565b7f43616e6e6f742075736520796f7572206f776e20746f6b656e00000000000000600082015250565b60006156676019836140f4565b915061567282615631565b602082019050919050565b600060208201905081810360008301526156968161565a565b9050919050565b7f496e697469616c697a61626c653a20636f6e7472616374206973206e6f74206960008201527f6e697469616c697a696e67000000000000000000000000000000000000000000602082015250565b60006156f9602b836140f4565b91506157048261569d565b604082019050919050565b60006020820190508181036000830152615728816156ec565b9050919050565b7f4552433732313a20617070726f766520746f2063616c6c657200000000000000600082015250565b60006157656019836140f4565b91506157708261572f565b602082019050919050565b6000602082019050818103600083015261579481615758565b9050919050565b7f4e6f2076616c7565207265636569766564000000000000000000000000000000600082015250565b60006157d16011836140f4565b91506157dc8261579b565b602082019050919050565b60006020820190508181036000830152615800816157c4565b9050919050565b60006158128261419b565b91507fffffffffffffffffffffffffffffffffffffffffffffffffffffffffffffffff820361584457615843614c04565b5b600182019050919050565b600061585a8261419b565b91506000820361586d5761586c614c04565b5b600182039050919050565b7f4552433732313a207472616e7366657220746f206e6f6e20455243373231526560008201527f63656976657220696d706c656d656e7465720000000000000000000000000000602082015250565b60006158d46032836140f4565b91506158df82615878565b604082019050919050565b60006020820190508181036000830152615903816158c7565b9050919050565b7f4e487b7100000000000000000000000000000000000000000000000000000000600052603160045260246000fd5b7f457870697265642074696d657374616d70000000000000000000000000000000600082015250565b600061596f6011836140f4565b915061597a82615939565b602082019050919050565b6000602082019050818103600083015261599e81615962565b9050919050565b6159ae81614876565b82525050565b60006020820190506159c960008301846159a5565b92915050565b7f4552433732313a206d696e7420746f20746865207a65726f2061646472657373600082015250565b6000615a056020836140f4565b9150615a10826159cf565b602082019050919050565b60006020820190508181036000830152615a34816159f8565b9050919050565b7f4552433732313a20746f6b656e20616c7265616479206d696e74656400000000600082015250565b6000615a71601c836140f4565b9150615a7c82615a3b565b602082019050919050565b60006020820190508181036000830152615aa081615a64565b9050919050565b600081519050919050565b600082825260208201905092915050565b6000615ace82615aa7565b615ad88185615ab2565b9350615ae8818560208601614105565b615af18161412f565b840191505092915050565b6000608082019050615b116000830187614230565b615b1e6020830186614230565b615b2b60408301856142c6565b8181036060830152615b3d8184615ac3565b905095945050505050565b600081519050615b578161405a565b92915050565b600060208284031215615b7357615b72614024565b5b6000615b8184828501615b48565b91505092915050565b60008190508160005260206000209050919050565b60006020601f8301049050919050565b600082821b905092915050565b600060088302615bec7fffffffffffffffffffffffffffffffffffffffffffffffffffffffffffffffff82615baf565b615bf68683615baf565b95508019841693508086168417925050509392505050565b6000615c29615c24615c1f8461419b565b61557b565b61419b565b9050919050565b6000819050919050565b615c4383615c0e565b615c57615c4f82615c30565b848454615bbc565b825550505050565b600090565b615c6c615c5f565b615c77818484615c3a565b505050565b5b81811015615c9b57615c90600082615c64565b600181019050615c7d565b5050565b601f821115615ce057615cb181615b8a565b615cba84615b9f565b81016020851015615cc9578190505b615cdd615cd585615b9f565b830182615c7c565b50505b505050565b600082821c905092915050565b6000615d0360001984600802615ce5565b1980831691505092915050565b6000615d1c8383615cf2565b9150826002028217905092915050565b615d35826140e9565b67ffffffffffffffff811115615d4e57615d4d6146c8565b5b615d588254614978565b615d63828285615c9f565b600060209050601f831160018114615d965760008415615d84578287015190505b615d8e8582615d10565b865550615df6565b601f198416615da486615b8a565b60005b82811015615dcc57848901518255600182019150602085019450602081019050615da7565b86831015615de95784890151615de5601f891682615cf2565b8355505b6001600288020188555050505b505050505050565b7f455243373231456e756d657261626c653a20636f6e736563757469766520747260008201527f616e7366657273206e6f7420737570706f727465640000000000000000000000602082015250565b6000615e5a6035836140f4565b9150615e6582615dfe565b604082019050919050565b60006020820190508181036000830152615e8981615e4d565b905091905056fea2646970667358221220aac26c7442788341b2ea78fb7897f653a79f82fb47da52ab717b5851ecea322d64736f6c63430008110033",
  "linkReferences": {},
  "deployedLinkReferences": {}
}