{
  "_format": "hh-sol-artifact-1",
  "contractName": "Subscription",
  "sourceName": "contracts/Subscription.sol",
  "abi": [
    {
      "anonymous": false,
      "inputs": [
        {
          "indexed": true,
          "internalType": "address",
          "name": "owner",
          "type": "address"
        },
        {
          "indexed": true,
          "internalType": "address",
          "name": "approved",
          "type": "address"
        },
        {
          "indexed": true,
          "internalType": "uint256",
          "name": "tokenId",
          "type": "uint256"
        }
      ],
      "name": "Approval",
      "type": "event"
    },
    {
      "anonymous": false,
      "inputs": [
        {
          "indexed": true,
          "internalType": "address",
          "name": "owner",
          "type": "address"
        },
        {
          "indexed": true,
          "internalType": "address",
          "name": "operator",
          "type": "address"
        },
        {
          "indexed": false,
          "internalType": "bool",
          "name": "approved",
          "type": "bool"
        }
      ],
      "name": "ApprovalForAll",
      "type": "event"
    },
    {
      "anonymous": false,
      "inputs": [
        {
          "indexed": false,
          "internalType": "uint8",
          "name": "version",
          "type": "uint8"
        }
      ],
      "name": "Initialized",
      "type": "event"
    },
    {
      "anonymous": false,
      "inputs": [
        {
          "indexed": false,
          "internalType": "uint256",
          "name": "tokenId",
          "type": "uint256"
        }
      ],
      "name": "RentOfferCancelled",
      "type": "event"
    },
    {
      "anonymous": false,
      "inputs": [
        {
          "indexed": false,
          "internalType": "uint256",
          "name": "tokenId",
          "type": "uint256"
        }
      ],
      "name": "RentOfferCreated",
      "type": "event"
    },
    {
      "anonymous": false,
      "inputs": [
        {
          "indexed": true,
          "internalType": "address",
          "name": "from",
          "type": "address"
        },
        {
          "indexed": true,
          "internalType": "address",
          "name": "to",
          "type": "address"
        },
        {
          "indexed": true,
          "internalType": "uint256",
          "name": "tokenId",
          "type": "uint256"
        }
      ],
      "name": "Transfer",
      "type": "event"
    },
    {
      "anonymous": false,
      "inputs": [
        {
          "indexed": true,
          "internalType": "uint256",
          "name": "tokenId",
          "type": "uint256"
        },
        {
          "indexed": true,
          "internalType": "address",
          "name": "user",
          "type": "address"
        },
        {
          "indexed": false,
          "internalType": "uint64",
          "name": "expires",
          "type": "uint64"
        }
      ],
      "name": "UpdateUser",
      "type": "event"
    },
    {
      "anonymous": false,
      "inputs": [
        {
          "indexed": false,
          "internalType": "address",
          "name": "withdrawBy",
          "type": "address"
        },
        {
          "indexed": false,
          "internalType": "string",
          "name": "serviceName",
          "type": "string"
        }
      ],
      "name": "Withdraw",
      "type": "event"
    },
    {
      "inputs": [
        {
          "internalType": "address",
          "name": "to",
          "type": "address"
        },
        {
          "internalType": "uint256",
          "name": "tokenId",
          "type": "uint256"
        }
      ],
      "name": "approve",
      "outputs": [],
      "stateMutability": "nonpayable",
      "type": "function"
    },
    {
      "inputs": [
        {
          "internalType": "address",
          "name": "owner",
          "type": "address"
        }
      ],
      "name": "balanceOf",
      "outputs": [
        {
          "internalType": "uint256",
          "name": "",
          "type": "uint256"
        }
      ],
      "stateMutability": "view",
      "type": "function"
    },
    {
      "inputs": [
        {
          "internalType": "address",
          "name": "",
          "type": "address"
        }
      ],
      "name": "balances",
      "outputs": [
        {
          "internalType": "uint256",
          "name": "",
          "type": "uint256"
        }
      ],
      "stateMutability": "view",
      "type": "function"
    },
    {
      "inputs": [
        {
          "internalType": "uint256",
          "name": "tokenId",
          "type": "uint256"
        }
      ],
      "name": "cancelOfferForRent",
      "outputs": [],
      "stateMutability": "nonpayable",
      "type": "function"
    },
    {
      "inputs": [],
      "name": "contentSubscriptionDuration",
      "outputs": [
        {
          "internalType": "uint32",
          "name": "",
          "type": "uint32"
        }
      ],
      "stateMutability": "view",
      "type": "function"
    },
    {
      "inputs": [],
      "name": "contentSubscriptionPrice",
      "outputs": [
        {
          "internalType": "uint32",
          "name": "",
          "type": "uint32"
        }
      ],
      "stateMutability": "view",
      "type": "function"
    },
    {
      "inputs": [
        {
          "internalType": "uint256",
          "name": "tokenId",
          "type": "uint256"
        }
      ],
      "name": "expiresAt",
      "outputs": [
        {
          "internalType": "uint256",
          "name": "",
          "type": "uint256"
        }
      ],
      "stateMutability": "view",
      "type": "function"
    },
    {
      "inputs": [
        {
          "internalType": "uint256",
          "name": "tokenId",
          "type": "uint256"
        }
      ],
      "name": "getApproved",
      "outputs": [
        {
          "internalType": "address",
          "name": "",
          "type": "address"
        }
      ],
      "stateMutability": "view",
      "type": "function"
    },
    {
      "inputs": [],
      "name": "getAvailableTokenCount",
      "outputs": [
        {
          "internalType": "uint256",
          "name": "",
          "type": "uint256"
        }
      ],
      "stateMutability": "view",
      "type": "function"
    },
    {
      "inputs": [
        {
          "internalType": "uint256",
          "name": "index",
          "type": "uint256"
        }
      ],
      "name": "getAvailableTokenIdAtIndex",
      "outputs": [
        {
          "internalType": "uint256",
          "name": "",
          "type": "uint256"
        }
      ],
      "stateMutability": "view",
      "type": "function"
    },
    {
      "inputs": [
        {
          "internalType": "uint256",
          "name": "tokenId",
          "type": "uint256"
        }
      ],
      "name": "getRentingConditions",
      "outputs": [
        {
          "components": [
            {
              "internalType": "uint32",
              "name": "price",
              "type": "uint32"
            },
            {
              "internalType": "uint128",
              "name": "duration",
              "type": "uint128"
            },
            {
              "internalType": "uint256",
              "name": "createdAt",
              "type": "uint256"
            }
          ],
          "internalType": "struct Marketplace.RentingConditions",
          "name": "",
          "type": "tuple"
        }
      ],
      "stateMutability": "view",
      "type": "function"
    },
    {
      "inputs": [
        {
          "internalType": "string",
          "name": "name_",
          "type": "string"
        },
        {
          "internalType": "string",
          "name": "symbol_",
          "type": "string"
        },
        {
          "internalType": "uint32",
          "name": "contentSubscriptionPrice_",
          "type": "uint32"
        },
        {
          "internalType": "uint32",
          "name": "contentSubscriptionDuration_",
          "type": "uint32"
        },
        {
          "internalType": "uint32",
          "name": "minRentPrice_",
          "type": "uint32"
        },
        {
          "internalType": "uint32",
          "name": "minRentDuration_",
          "type": "uint32"
        },
        {
          "internalType": "address",
          "name": "contentProvider_",
          "type": "address"
        },
        {
          "internalType": "address",
          "name": "marketplaceProvider_",
          "type": "address"
        },
        {
          "internalType": "address",
          "name": "priceFeedAddress_",
          "type": "address"
        },
        {
          "internalType": "string",
          "name": "baseUri_",
          "type": "string"
        }
      ],
      "name": "initialize",
      "outputs": [],
      "stateMutability": "nonpayable",
      "type": "function"
    },
    {
      "inputs": [
        {
          "internalType": "address",
          "name": "owner",
          "type": "address"
        },
        {
          "internalType": "address",
          "name": "operator",
          "type": "address"
        }
      ],
      "name": "isApprovedForAll",
      "outputs": [
        {
          "internalType": "bool",
          "name": "",
          "type": "bool"
        }
      ],
      "stateMutability": "view",
      "type": "function"
    },
    {
      "inputs": [],
      "name": "minRentDuration",
      "outputs": [
        {
          "internalType": "uint32",
          "name": "",
          "type": "uint32"
        }
      ],
      "stateMutability": "view",
      "type": "function"
    },
    {
      "inputs": [],
      "name": "minRentPrice",
      "outputs": [
        {
          "internalType": "uint32",
          "name": "",
          "type": "uint32"
        }
      ],
      "stateMutability": "view",
      "type": "function"
    },
    {
      "inputs": [],
      "name": "mint",
      "outputs": [],
      "stateMutability": "payable",
      "type": "function"
    },
    {
      "inputs": [],
      "name": "name",
      "outputs": [
        {
          "internalType": "string",
          "name": "",
          "type": "string"
        }
      ],
      "stateMutability": "view",
      "type": "function"
    },
    {
      "inputs": [
        {
          "internalType": "uint256",
          "name": "tokenId",
          "type": "uint256"
        },
        {
          "internalType": "uint32",
          "name": "price",
          "type": "uint32"
        },
        {
          "internalType": "uint128",
          "name": "duration",
          "type": "uint128"
        }
      ],
      "name": "offerForRent",
      "outputs": [],
      "stateMutability": "nonpayable",
      "type": "function"
    },
    {
      "inputs": [
        {
          "internalType": "uint256",
          "name": "tokenId",
          "type": "uint256"
        }
      ],
      "name": "ownerOf",
      "outputs": [
        {
          "internalType": "address",
          "name": "",
          "type": "address"
        }
      ],
      "stateMutability": "view",
      "type": "function"
    },
    {
      "inputs": [
        {
          "internalType": "uint256",
          "name": "tokenId",
          "type": "uint256"
        }
      ],
      "name": "reclaim",
      "outputs": [],
      "stateMutability": "nonpayable",
      "type": "function"
    },
    {
      "inputs": [
        {
          "internalType": "uint256",
          "name": "tokenId",
          "type": "uint256"
        }
      ],
      "name": "rent",
      "outputs": [],
      "stateMutability": "payable",
      "type": "function"
    },
    {
      "inputs": [
        {
          "internalType": "address",
          "name": "",
          "type": "address"
        },
        {
          "internalType": "address",
          "name": "",
          "type": "address"
        },
        {
          "internalType": "uint256",
          "name": "",
          "type": "uint256"
        }
      ],
      "name": "safeTransferFrom",
      "outputs": [],
      "stateMutability": "pure",
      "type": "function"
    },
    {
      "inputs": [
        {
          "internalType": "address",
          "name": "",
          "type": "address"
        },
        {
          "internalType": "address",
          "name": "",
          "type": "address"
        },
        {
          "internalType": "uint256",
          "name": "",
          "type": "uint256"
        },
        {
          "internalType": "bytes",
          "name": "",
          "type": "bytes"
        }
      ],
      "name": "safeTransferFrom",
      "outputs": [],
      "stateMutability": "pure",
      "type": "function"
    },
    {
      "inputs": [
        {
          "internalType": "address",
          "name": "operator",
          "type": "address"
        },
        {
          "internalType": "bool",
          "name": "approved",
          "type": "bool"
        }
      ],
      "name": "setApprovalForAll",
      "outputs": [],
      "stateMutability": "nonpayable",
      "type": "function"
    },
    {
      "inputs": [
        {
          "internalType": "uint256",
          "name": "tokenId",
          "type": "uint256"
        },
        {
          "internalType": "address",
          "name": "user",
          "type": "address"
        },
        {
          "internalType": "uint64",
          "name": "expires",
          "type": "uint64"
        }
      ],
      "name": "setUser",
      "outputs": [],
      "stateMutability": "nonpayable",
      "type": "function"
    },
    {
      "inputs": [
        {
          "internalType": "bytes4",
          "name": "interfaceId",
          "type": "bytes4"
        }
      ],
      "name": "supportsInterface",
      "outputs": [
        {
          "internalType": "bool",
          "name": "",
          "type": "bool"
        }
      ],
      "stateMutability": "view",
      "type": "function"
    },
    {
      "inputs": [],
      "name": "symbol",
      "outputs": [
        {
          "internalType": "string",
          "name": "",
          "type": "string"
        }
      ],
      "stateMutability": "view",
      "type": "function"
    },
    {
      "inputs": [
        {
          "internalType": "uint256",
          "name": "index",
          "type": "uint256"
        }
      ],
      "name": "tokenByIndex",
      "outputs": [
        {
          "internalType": "uint256",
          "name": "",
          "type": "uint256"
        }
      ],
      "stateMutability": "view",
      "type": "function"
    },
    {
      "inputs": [
        {
          "internalType": "address",
          "name": "owner",
          "type": "address"
        },
        {
          "internalType": "uint256",
          "name": "index",
          "type": "uint256"
        }
      ],
      "name": "tokenOfOwnerByIndex",
      "outputs": [
        {
          "internalType": "uint256",
          "name": "",
          "type": "uint256"
        }
      ],
      "stateMutability": "view",
      "type": "function"
    },
    {
      "inputs": [
        {
          "internalType": "address",
          "name": "user",
          "type": "address"
        },
        {
          "internalType": "uint256",
          "name": "index",
          "type": "uint256"
        }
      ],
      "name": "tokenOfUserByIndex",
      "outputs": [
        {
          "internalType": "uint256",
          "name": "",
          "type": "uint256"
        }
      ],
      "stateMutability": "view",
      "type": "function"
    },
    {
      "inputs": [
        {
          "internalType": "uint256",
          "name": "tokenId",
          "type": "uint256"
        }
      ],
      "name": "tokenURI",
      "outputs": [
        {
          "internalType": "string",
          "name": "",
          "type": "string"
        }
      ],
      "stateMutability": "view",
      "type": "function"
    },
    {
      "inputs": [],
      "name": "totalSupply",
      "outputs": [
        {
          "internalType": "uint256",
          "name": "",
          "type": "uint256"
        }
      ],
      "stateMutability": "view",
      "type": "function"
    },
    {
      "inputs": [
        {
          "internalType": "address",
          "name": "",
          "type": "address"
        },
        {
          "internalType": "address",
          "name": "",
          "type": "address"
        },
        {
          "internalType": "uint256",
          "name": "",
          "type": "uint256"
        }
      ],
      "name": "transferFrom",
      "outputs": [],
      "stateMutability": "pure",
      "type": "function"
    },
    {
      "inputs": [
        {
          "internalType": "address",
          "name": "user",
          "type": "address"
        }
      ],
      "name": "usedBalanceOf",
      "outputs": [
        {
          "internalType": "uint256",
          "name": "",
          "type": "uint256"
        }
      ],
      "stateMutability": "view",
      "type": "function"
    },
    {
      "inputs": [
        {
          "internalType": "uint256",
          "name": "tokenId",
          "type": "uint256"
        }
      ],
      "name": "userExpires",
      "outputs": [
        {
          "internalType": "uint256",
          "name": "",
          "type": "uint256"
        }
      ],
      "stateMutability": "view",
      "type": "function"
    },
    {
      "inputs": [
        {
          "internalType": "uint256",
          "name": "tokenId",
          "type": "uint256"
        }
      ],
      "name": "userOf",
      "outputs": [
        {
          "internalType": "address",
          "name": "",
          "type": "address"
        }
      ],
      "stateMutability": "view",
      "type": "function"
    },
    {
      "inputs": [],
      "name": "withdraw",
      "outputs": [],
      "stateMutability": "nonpayable",
      "type": "function"
    }
  ],
  "bytecode": "0x608060405234801561001057600080fd5b50613bb9806100206000396000f3fe60806040526004361061026a5760003560e01c80634f6ccce711610153578063a22cb465116100cb578063c87b56dd1161007f578063d537090411610064578063d53709041461078a578063e030565e146107a0578063e985e9c5146107c057600080fd5b8063c87b56dd1461074a578063d3d726171461076a57600080fd5b8063b88d4fde116100b0578063b88d4fde146106db578063c25a2c65146106f6578063c2f1f14a1461071457600080fd5b8063a22cb46514610610578063abb302ad1461063057600080fd5b806363dd96c4116101225780637456be7d116101075780637456be7d146105aa5780638fc88c48146105bd57806395d89b41146105fb57600080fd5b806363dd96c41461056c57806370a082311461058a57600080fd5b80634f6ccce7146104e657806355673d07146105065780635f3fd7bc1461052c5780636352211e1461054c57600080fd5b8063227773c0116101e65780632dabbeed116101b55780633ccfd60b1161019a5780633ccfd60b146104b157806342842e0e1461042357806347906905146104c657600080fd5b80632dabbeed146104715780632f745c591461049157600080fd5b8063227773c0146103cd57806322f3bb3e1461040357806323b872dd1461042357806327e235e31461044357600080fd5b806311daca271161023d57806317c957091161022257806317c957091461035b57806318160ddd146103975780631d350ef8146103ad57600080fd5b806311daca27146103205780631249c58b1461035357600080fd5b806301ffc9a71461026f57806306fdde03146102a4578063081812fc146102c6578063095ea7b3146102fe575b600080fd5b34801561027b57600080fd5b5061028f61028a3660046131db565b610809565b60405190151581526020015b60405180910390f35b3480156102b057600080fd5b506102b961081a565b60405161029b9190613248565b3480156102d257600080fd5b506102e66102e136600461325b565b6108ac565b6040516001600160a01b03909116815260200161029b565b34801561030a57600080fd5b5061031e610319366004613290565b6108d3565b005b34801561032c57600080fd5b506101685461033e9063ffffffff1681565b60405163ffffffff909116815260200161029b565b61031e610a09565b34801561036757600080fd5b5061038961037636600461325b565b6000908152610169602052604090205490565b60405190815260200161029b565b3480156103a357600080fd5b5061010154610389565b3480156103b957600080fd5b506103896103c8366004613290565b610cff565b3480156103d957600080fd5b506103896103e83660046132ba565b6001600160a01b0316600090815260cd602052604090205490565b34801561040f57600080fd5b5061031e61041e3660046132e9565b610db5565b34801561042f57600080fd5b5061031e61043e366004613335565b610f27565b34801561044f57600080fd5b5061038961045e3660046132ba565b61016c6020526000908152604090205481565b34801561047d57600080fd5b5061031e61048c36600461325b565b610f6f565b34801561049d57600080fd5b506103896104ac366004613290565b610f7e565b3480156104bd57600080fd5b5061031e611014565b3480156104d257600080fd5b506103896104e136600461325b565b61115e565b3480156104f257600080fd5b5061038961050136600461325b565b611186565b34801561051257600080fd5b506101325461033e90640100000000900463ffffffff1681565b34801561053857600080fd5b5061031e610547366004613466565b61121a565b34801561055857600080fd5b506102e661056736600461325b565b61140d565b34801561057857600080fd5b5061016a5461033e9063ffffffff1681565b34801561059657600080fd5b506103896105a53660046132ba565b611472565b61031e6105b836600461325b565b61150c565b3480156105c957600080fd5b506103896105d836600461325b565b600090815260976020526040902054600160a01b900467ffffffffffffffff1690565b34801561060757600080fd5b506102b9611660565b34801561061c57600080fd5b5061031e61062b36600461357f565b61166f565b34801561063c57600080fd5b506106aa61064b36600461325b565b60408051606080820183526000808352602080840182905292840181905293845261013182529282902082519384018352805463ffffffff8116855264010000000090046001600160801b031691840191909152600101549082015290565b60408051825163ffffffff1681526020808401516001600160801b031690820152918101519082015260600161029b565b3480156106e757600080fd5b5061031e61043e3660046135bb565b34801561070257600080fd5b506101325461033e9063ffffffff1681565b34801561072057600080fd5b506102e661072f36600461325b565b6000908152609760205260409020546001600160a01b031690565b34801561075657600080fd5b506102b961076536600461325b565b61167e565b34801561077657600080fd5b5061031e61078536600461325b565b6116af565b34801561079657600080fd5b5061013354610389565b3480156107ac57600080fd5b5061031e6107bb366004613637565b61171c565b3480156107cc57600080fd5b5061028f6107db366004613679565b6001600160a01b039182166000908152606a6020908152604080832093909416825291909152205460ff1690565b60006108148261187f565b92915050565b606060658054610829906136ac565b80601f0160208091040260200160405190810160405280929190818152602001828054610855906136ac565b80156108a25780601f10610877576101008083540402835291602001916108a2565b820191906000526020600020905b81548152906001019060200180831161088557829003601f168201915b5050505050905090565b60006108b7826118bd565b506000908152606960205260409020546001600160a01b031690565b60006108de8261140d565b9050806001600160a01b0316836001600160a01b03160361096c5760405162461bcd60e51b815260206004820152602160248201527f4552433732313a20617070726f76616c20746f2063757272656e74206f776e6560448201527f720000000000000000000000000000000000000000000000000000000000000060648201526084015b60405180910390fd5b336001600160a01b0382161480610988575061098881336107db565b6109fa5760405162461bcd60e51b815260206004820152603d60248201527f4552433732313a20617070726f76652063616c6c6572206973206e6f7420746f60448201527f6b656e206f776e6572206f7220617070726f76656420666f7220616c6c0000006064820152608401610963565b610a048383611921565b505050565b6101665460408051633fabe5a360e21b815290516000926001600160a01b03169163feaf968c9160048083019260a09291908290030181865afa158015610a54573d6000803e3d6000fd5b505050506040513d601f19601f82011682018060405250810190610a789190613700565b50505091505060008113610a8e57610a8e613750565b610166546040805163313ce56760e01b815290516000926001600160a01b03169163313ce5679160048083019260209291908290030181865afa158015610ad9573d6000803e3d6000fd5b505050506040513d601f19601f82011682018060405250810190610afd9190613766565b905060006064610b0e83600a613883565b610b189085613892565b61016a54610b349063ffffffff16670de0b6b3a76400006138b4565b610b3e9190613892565b610b489190613892565b61016a549091506000906103e890610b6b90640100000000900460ff16826138cb565b610b799061ffff16846138b4565b610b839190613892565b61016a549091506000906103e890610ba690640100000000900460ff16826138ed565b610bb49061ffff16856138b4565b610bbe9190613892565b9050813410158015610bd05750803411155b610c1c5760405162461bcd60e51b815260206004820152601160248201527f546f6f206d75636820736c6970706167650000000000000000000000000000006044820152606401610963565b60006103e8610c2c6019346138b4565b610c369190613892565b90506000610c448234613908565b61016b546001600160a01b0316600090815261016c6020526040812080549293508492909190610c7590849061391b565b909155505061016a546501000000000090046001600160a01b0316600090815261016c602052604081208054839290610caf90849061391b565b90915550506101675461016854610ccc9063ffffffff164261391b565b60008281526101696020526040902055610ce6338261198f565b610cf561016780546001019055565b5050505050505050565b6001600160a01b038216600090815260cd60205260408120548210610d7a5760405162461bcd60e51b815260206004820152602b60248201527f45524334393037456e756d657261626c653a207573657220696e646578206f7560448201526a74206f6620626f756e647360a81b6064820152608401610963565b6001600160a01b038316600090815260c96020908152604080832085845290915281205490819003610dae57610dae613750565b9392505050565b610dc0335b846119a9565b610e1a5760405162461bcd60e51b815260206004820152602560248201527f43616c6c6572206973206e6f7420746f6b656e206f776e6572206f72206170706044820152641c9bdd995960da1b6064820152608401610963565b6000838152609760205260409020546001600160a01b031615610e6e5760405162461bcd60e51b815260206004820152600c60248201526b105b1c9958591e481d5cd95960a21b6044820152606401610963565b6000610e836001600160801b0383164261391b565b6000858152610169602052604090205490915067ffffffffffffffff82168111610f155760405162461bcd60e51b815260206004820152602c60248201527f537562736372697074696f6e2077696c6c20657870697265206265666f72652060448201527f72656e74206578706972657300000000000000000000000000000000000000006064820152608401610963565b610f20858585611a28565b5050505050565b60405162461bcd60e51b815260206004820152600b60248201527f4e6f7420616c6c6f7765640000000000000000000000000000000000000000006044820152606401610963565b610f7b8160008061171c565b50565b6000610f8983611472565b8210610feb5760405162461bcd60e51b815260206004820152602b60248201527f455243373231456e756d657261626c653a206f776e657220696e646578206f7560448201526a74206f6620626f756e647360a81b6064820152608401610963565b506001600160a01b0391909116600090815260ff60209081526040808320938352929052205490565b33600090815261016c6020526040902054806110725760405162461bcd60e51b815260206004820152601360248201527f4e6f7468696e6720746f207769746864726177000000000000000000000000006044820152606401610963565b33600081815261016c60205260408082208290555190919083908381818185875af1925050503d80600081146110c4576040519150601f19603f3d011682016040523d82523d6000602084013e6110c9565b606091505b505090508061111a5760405162461bcd60e51b815260206004820152601460248201527f4661696c656420746f2073656e642045746865720000000000000000000000006044820152606401610963565b7f3f105d2c4d1d19b11338d06a6a66c5069b82855c17542d49f49fc159d0f9514c3361114461081a565b60405161115292919061392e565b60405180910390a15050565b6000610133828154811061117457611174613950565b90600052602060002001549050919050565b60006111926101015490565b82106112065760405162461bcd60e51b815260206004820152602c60248201527f455243373231456e756d657261626c653a20676c6f62616c20696e646578206f60448201527f7574206f6620626f756e647300000000000000000000000000000000000000006064820152608401610963565b610101828154811061117457611174613950565b600054610100900460ff161580801561123a5750600054600160ff909116105b806112545750303b158015611254575060005460ff166001145b6112c65760405162461bcd60e51b815260206004820152602e60248201527f496e697469616c697a61626c653a20636f6e747261637420697320616c72656160448201527f647920696e697469616c697a65640000000000000000000000000000000000006064820152608401610963565b6000805460ff1916600117905580156112e9576000805461ff0019166101001790555b6112f58d8d8d8d611bd6565b6112ff8787611c4d565b61016a8054610168805463ffffffff191663ffffffff8c81169190911790915561016b80546001600160a01b03199081166001600160a01b038a8116919091179092556101668054909116888316179055908c167fffffffffffffff0000000000000000000000000000000000000000ff000000009092169190911765010000000000918816919091021764ff00000000191664050000000017905561016d6113a883826139b4565b506113b861016780546001019055565b80156113fe576000805461ff0019169055604051600181527f7f26b83ff96e1f2b6a682f133852f6798a09c465da95921460cefb38474024989060200160405180910390a15b50505050505050505050505050565b6000818152606760205260408120546001600160a01b0316806108145760405162461bcd60e51b815260206004820152601860248201527f4552433732313a20696e76616c696420746f6b656e20494400000000000000006044820152606401610963565b60006001600160a01b0382166114f05760405162461bcd60e51b815260206004820152602960248201527f4552433732313a2061646472657373207a65726f206973206e6f74206120766160448201527f6c6964206f776e657200000000000000000000000000000000000000000000006064820152608401610963565b506001600160a01b031660009081526068602052604090205490565b6000818152610131602090815260408083208151606081018352815463ffffffff8116825264010000000090046001600160801b031693810193909352600101549082018190529091036115a25760405162461bcd60e51b815260206004820152601960248201527f4e6f7420617661696c61626c6520666f722072656e74696e67000000000000006044820152606401610963565b600081602001516001600160801b0316426115bd919061391b565b6000848152610169602052604090205490915067ffffffffffffffff8216811161164f5760405162461bcd60e51b815260206004820152602860248201527f537562736372697074696f6e2065787069726573206265666f72652072656e7460448201527f20657870697265730000000000000000000000000000000000000000000000006064820152608401610963565b61165a84338461171c565b50505050565b606060668054610829906136ac565b61167a338383611ce9565b5050565b606061168982611db7565b6040516020016116999190613a74565b6040516020818303038152906040529050919050565b6116b933826119a9565b6117135760405162461bcd60e51b815260206004820152602560248201527f43616c6c6572206973206e6f7420746f6b656e206f776e6572206f72206170706044820152641c9bdd995960da1b6064820152608401610963565b610f7b81611e1d565b6117258361140d565b6001600160a01b0316826001600160a01b0316036117855760405162461bcd60e51b815260206004820152601960248201527f43616e6e6f742075736520796f7572206f776e20746f6b656e000000000000006044820152606401610963565b600083815260976020526040902054600160a01b900467ffffffffffffffff164210156117e35760405162461bcd60e51b815260206004820152600c60248201526b105b1c9958591e481d5cd95960a21b6044820152606401610963565b6001600160a01b038216611859576117fa33610dba565b6118545760405162461bcd60e51b815260206004820152602560248201527f43616c6c6572206973206e6f7420746f6b656e206f776e6572206f72206170706044820152641c9bdd995960da1b6064820152608401610963565b611874565b61186283611e5c565b61186b8361210b565b61187483612209565b610a04838383612233565b60006001600160e01b031982167f780e9d630000000000000000000000000000000000000000000000000000000014806108145750610814826122bb565b6000818152606760205260409020546001600160a01b0316610f7b5760405162461bcd60e51b815260206004820152601860248201527f4552433732313a20696e76616c696420746f6b656e20494400000000000000006044820152606401610963565b600081815260696020526040902080546001600160a01b0319166001600160a01b03841690811790915581906119568261140d565b6001600160a01b03167f8c5be1e5ebec7d5bd14f71427d1e84f3dd0314c0f7b2291e5b200ac8c7c3b92560405160405180910390a45050565b61167a8282604051806020016040528060008152506122f9565b6000806119b58361140d565b9050806001600160a01b0316846001600160a01b031614806119fc57506001600160a01b038082166000908152606a602090815260408083209388168352929052205460ff165b80611a205750836001600160a01b0316611a15846108ac565b6001600160a01b0316145b949350505050565b6101325463ffffffff9081169083161015611a855760405162461bcd60e51b815260206004820152600d60248201527f507269636520746f6f206c6f77000000000000000000000000000000000000006044820152606401610963565b61013254640100000000900463ffffffff166001600160801b0382161015611aef5760405162461bcd60e51b815260206004820152601060248201527f4475726174696f6e20746f6f206c6f77000000000000000000000000000000006044820152606401610963565b6040805160608101825263ffffffff84811682526001600160801b0384811660208085019182524285870190815260008a8152610131835287812087518154955197166001600160a01b031990951694909417640100000000969095169590950293909317825591516001918201556101338054610134909352948320829055810184559290527f92e985329fb94cc1b424ebb0f7f2929b6d27383ca94c0ec71c44fb48bdf96d2c9091018490556040518481527fc8bf25b5dc60208595c2afecaf7a3b5852ecdb7917ab66a44def586c13a282a79060200160405180910390a150505050565b600054610100900460ff16611c415760405162461bcd60e51b815260206004820152602b60248201527f496e697469616c697a61626c653a20636f6e7472616374206973206e6f74206960448201526a6e697469616c697a696e6760a81b6064820152608401610963565b61165a84848484612382565b600054610100900460ff16611cb85760405162461bcd60e51b815260206004820152602b60248201527f496e697469616c697a61626c653a20636f6e7472616374206973206e6f74206960448201526a6e697469616c697a696e6760a81b6064820152608401610963565b610132805463ffffffff9283166401000000000267ffffffffffffffff199091169290931691909117919091179055565b816001600160a01b0316836001600160a01b031603611d4a5760405162461bcd60e51b815260206004820152601960248201527f4552433732313a20617070726f766520746f2063616c6c6572000000000000006044820152606401610963565b6001600160a01b038381166000818152606a6020908152604080832094871680845294825291829020805460ff191686151590811790915591519182527f17307eab39ab6107e8899845ad3d59bd9653f200f220920489ca2b5937696c31910160405180910390a3505050565b6060611dc2826118bd565b6000611dcc612460565b90506000815111611dec5760405180602001604052806000815250610dae565b80611df684612470565b604051602001611e07929190613ab5565b6040516020818303038152906040529392505050565b611e2681612209565b6040518181527f4ee8bdb37621a2594d4cb695cc7b6ecddd0eaa9d9d972acd674f3fca50aee7f29060200160405180910390a150565b60003411611eac5760405162461bcd60e51b815260206004820152601160248201527f4e6f2076616c75652072656365697665640000000000000000000000000000006044820152606401610963565b6000818152610131602090815260408083208151606081018352815463ffffffff8116825264010000000090046001600160801b0316938101939093526001015482820152610166548151633fabe5a360e21b815291519293926001600160a01b039091169163feaf968c9160048083019260a09291908290030181865afa158015611f3c573d6000803e3d6000fd5b505050506040513d601f19601f82011682018060405250810190611f609190613700565b50505091505060008113611f7657611f76613750565b610166546040805163313ce56760e01b815290516000926001600160a01b03169163313ce5679160048083019260209291908290030181865afa158015611fc1573d6000803e3d6000fd5b505050506040513d601f19601f82011682018060405250810190611fe59190613766565b905060006064611ff683600a613883565b6120009085613892565b855161201a9063ffffffff16670de0b6b3a76400006138b4565b6120249190613892565b61202e9190613892565b61016a549091506000906103e89061205190640100000000900460ff16826138cb565b61205f9061ffff16846138b4565b6120699190613892565b61016a549091506000906103e89061208c90640100000000900460ff16826138ed565b61209a9061ffff16856138b4565b6120a49190613892565b90508134101580156120b65750803411155b6121025760405162461bcd60e51b815260206004820152601160248201527f546f6f206d75636820736c6970706167650000000000000000000000000000006044820152606401610963565b50505050505050565b60006121168261140d565b905060006064612127600f346138b4565b6121319190613892565b905060006064612142600f346138b4565b61214c9190613892565b9050600061215a828461391b565b6121649034613908565b61016a546501000000000090046001600160a01b0316600090815261016c602052604081208054929350859290919061219e90849061391b565b909155505061016b546001600160a01b0316600090815261016c6020526040812080548492906121cf90849061391b565b90915550506001600160a01b038416600090815261016c6020526040812080548392906121fd90849061391b565b90915550505050505050565b60008181526101316020526040812080546001600160a01b031916815560010155610f7b81612510565b61223d82846125c5565b6001600160a01b0382161561227a576001600160a01b038216600090815260cd6020526040812080549161227083613ae4565b91905055506122b0565b6000838152609760209081526040808320546001600160a01b0316835260cd90915281208054916122aa83613afd565b91905055505b610a04838383612683565b60006001600160e01b031982167fad092b5c0000000000000000000000000000000000000000000000000000000014806108145750610814826127cc565b6123038383612867565b6123106000848484612a00565b610a045760405162461bcd60e51b815260206004820152603260248201527f4552433732313a207472616e7366657220746f206e6f6e20455243373231526560448201527f63656976657220696d706c656d656e74657200000000000000000000000000006064820152608401610963565b600054610100900460ff166123ed5760405162461bcd60e51b815260206004820152602b60248201527f496e697469616c697a61626c653a20636f6e7472616374206973206e6f74206960448201526a6e697469616c697a696e6760a81b6064820152608401610963565b61165a84848080601f01602080910402602001604051908101604052809392919081815260200183838082843760009201919091525050604080516020601f88018190048102820181019092528681529250869150859081908401838280828437600092019190915250612b5792505050565b606061016d8054610829906136ac565b6060600061247d83612bcc565b600101905060008167ffffffffffffffff81111561249d5761249d6133ba565b6040519080825280601f01601f1916602001820160405280156124c7576020820181803683370190505b5090508181016020015b600019017f3031323334353637383961626364656600000000000000000000000000000000600a86061a8153600a85049450846124d157509392505050565b6101335460009061252390600190613908565b60008381526101346020526040812054610133805493945090928490811061254d5761254d613950565b9060005260206000200154905080610133838154811061256f5761256f613950565b600091825260208083209091019290925582815261013490915260408082208490558582528120556101338054806125a9576125a9613b14565b6001900381819060005260206000200160009055905550505050565b6001600160a01b0382166125fe576125dc81612cae565b60008181526097602052604090205461167a906001600160a01b031682612d41565b6126468160cb8054600083815260cc60205260408120829055600182018355919091527fa7ce836d032b2bf62b7e2097a8e0a6d8aeb35405ad15271e96d3b0188a1d06fb0155565b6001600160a01b0391909116600090815260cd602090815260408083205460c98352818420818552835281842085905593835260ca909152902055565b6001600160a01b038216156126eb57428167ffffffffffffffff16116126eb5760405162461bcd60e51b815260206004820152601160248201527f457870697265642074696d657374616d700000000000000000000000000000006044820152606401610963565b600083815260976020526040902080546001600160a01b0319166001600160a01b03841690811782556127435780547fffffffff0000000000000000ffffffffffffffffffffffffffffffffffffffff16815561277c565b80547fffffffff0000000000000000ffffffffffffffffffffffffffffffffffffffff16600160a01b67ffffffffffffffff8416021781555b60405167ffffffffffffffff831681526001600160a01b0384169085907f4e06b4e7000e659094299b3533b47b6aa8ad048e95e872d23d1f4ee55af89cfe9060200160405180910390a350505050565b60006001600160e01b031982167f80ac58cd00000000000000000000000000000000000000000000000000000000148061282f57506001600160e01b031982167f5b5e139f00000000000000000000000000000000000000000000000000000000145b8061081457507f01ffc9a7000000000000000000000000000000000000000000000000000000006001600160e01b0319831614610814565b6001600160a01b0382166128bd5760405162461bcd60e51b815260206004820181905260248201527f4552433732313a206d696e7420746f20746865207a65726f20616464726573736044820152606401610963565b6000818152606760205260409020546001600160a01b0316156129225760405162461bcd60e51b815260206004820152601c60248201527f4552433732313a20746f6b656e20616c7265616479206d696e746564000000006044820152606401610963565b612930600083836001612dec565b6000818152606760205260409020546001600160a01b0316156129955760405162461bcd60e51b815260206004820152601c60248201527f4552433732313a20746f6b656e20616c7265616479206d696e746564000000006044820152606401610963565b6001600160a01b038216600081815260686020908152604080832080546001019055848352606790915280822080546001600160a01b0319168417905551839291907fddf252ad1be2c89b69c2b068fc378daa952ba7f163c4a11628f55a4df523b3ef908290a45050565b60006001600160a01b0384163b15612b4c57604051630a85bd0160e11b81526001600160a01b0385169063150b7a0290612a44903390899088908890600401613b2a565b6020604051808303816000875af1925050508015612a7f575060408051601f3d908101601f19168201909252612a7c91810190613b66565b60015b612b32573d808015612aad576040519150601f19603f3d011682016040523d82523d6000602084013e612ab2565b606091505b508051600003612b2a5760405162461bcd60e51b815260206004820152603260248201527f4552433732313a207472616e7366657220746f206e6f6e20455243373231526560448201527f63656976657220696d706c656d656e74657200000000000000000000000000006064820152608401610963565b805181602001fd5b6001600160e01b031916630a85bd0160e11b149050611a20565b506001949350505050565b600054610100900460ff16612bc25760405162461bcd60e51b815260206004820152602b60248201527f496e697469616c697a61626c653a20636f6e7472616374206973206e6f74206960448201526a6e697469616c697a696e6760a81b6064820152608401610963565b61167a8282612df8565b6000807a184f03e93ff9f4daa797ed6e38ed64bf6a1f0100000000000000008310612c15577a184f03e93ff9f4daa797ed6e38ed64bf6a1f010000000000000000830492506040015b6d04ee2d6d415b85acef81000000008310612c41576d04ee2d6d415b85acef8100000000830492506020015b662386f26fc100008310612c5f57662386f26fc10000830492506010015b6305f5e1008310612c77576305f5e100830492506008015b6127108310612c8b57612710830492506004015b60648310612c9d576064830492506002015b600a83106108145760010192915050565b60cb54600090612cc090600190613908565b600083815260cc602052604081205460cb8054939450909284908110612ce857612ce8613950565b906000526020600020015490508060cb8381548110612d0957612d09613950565b600091825260208083209091019290925582815260cc909152604080822084905585825281205560cb8054806125a9576125a9613b14565b6001600160a01b038216600090815260cd6020526040812054612d6690600190613908565b600083815260ca6020526040902054909150808214612db9576001600160a01b038416600090815260c960209081526040808320858452825280832054848452818420819055835260ca90915290208190555b50600091825260ca602090815260408084208490556001600160a01b03909416835260c981528383209183525290812055565b61165a84848484612e7c565b600054610100900460ff16612e635760405162461bcd60e51b815260206004820152602b60248201527f496e697469616c697a61626c653a20636f6e7472616374206973206e6f74206960448201526a6e697469616c697a696e6760a81b6064820152608401610963565b6065612e6f83826139b4565b506066610a0482826139b4565b612e8884848484612fbf565b6001811115612eff5760405162461bcd60e51b815260206004820152603560248201527f455243373231456e756d657261626c653a20636f6e736563757469766520747260448201527f616e7366657273206e6f7420737570706f7274656400000000000000000000006064820152608401610963565b816001600160a01b038516612f5d57612f58816101018054600083815261010260205260408120829055600182018355919091527f109ea3cebb188b9c1b9fc5bb3920be60dfdc8699098dff92f3d80daaca7476890155565b612f80565b836001600160a01b0316856001600160a01b031614612f8057612f808582613047565b6001600160a01b038416612f9c57612f97816130e7565b610f20565b846001600160a01b0316846001600160a01b031614610f2057610f208482613180565b600181111561165a576001600160a01b03841615613005576001600160a01b03841660009081526068602052604081208054839290612fff908490613908565b90915550505b6001600160a01b0383161561165a576001600160a01b0383166000908152606860205260408120805483929061303c90849061391b565b909155505050505050565b6000600161305484611472565b61305e9190613908565b600083815261010060205260409020549091508082146130b3576001600160a01b038416600090815260ff60209081526040808320858452825280832054848452818420819055835261010090915290208190555b506000918252610100602090815260408084208490556001600160a01b03909416835260ff81528383209183525290812055565b610101546000906130fa90600190613908565b60008381526101026020526040812054610101805493945090928490811061312457613124613950565b9060005260206000200154905080610101838154811061314657613146613950565b600091825260208083209091019290925582815261010290915260408082208490558582528120556101018054806125a9576125a9613b14565b600061318b83611472565b6001600160a01b03909316600090815260ff6020908152604080832086845282528083208590559382526101009052919091209190915550565b6001600160e01b031981168114610f7b57600080fd5b6000602082840312156131ed57600080fd5b8135610dae816131c5565b60005b838110156132135781810151838201526020016131fb565b50506000910152565b600081518084526132348160208601602086016131f8565b601f01601f19169290920160200192915050565b602081526000610dae602083018461321c565b60006020828403121561326d57600080fd5b5035919050565b80356001600160a01b038116811461328b57600080fd5b919050565b600080604083850312156132a357600080fd5b6132ac83613274565b946020939093013593505050565b6000602082840312156132cc57600080fd5b610dae82613274565b803563ffffffff8116811461328b57600080fd5b6000806000606084860312156132fe57600080fd5b8335925061330e602085016132d5565b915060408401356001600160801b038116811461332a57600080fd5b809150509250925092565b60008060006060848603121561334a57600080fd5b61335384613274565b925061336160208501613274565b9150604084013590509250925092565b60008083601f84011261338357600080fd5b50813567ffffffffffffffff81111561339b57600080fd5b6020830191508360208285010111156133b357600080fd5b9250929050565b634e487b7160e01b600052604160045260246000fd5b600067ffffffffffffffff808411156133eb576133eb6133ba565b604051601f8501601f19908116603f01168101908282118183101715613413576134136133ba565b8160405280935085815286868601111561342c57600080fd5b858560208301376000602087830101525050509392505050565b600082601f83011261345757600080fd5b610dae838335602085016133d0565b6000806000806000806000806000806000806101408d8f03121561348957600080fd5b67ffffffffffffffff8d35111561349f57600080fd5b6134ac8e8e358f01613371565b909c509a5067ffffffffffffffff60208e013511156134ca57600080fd5b6134da8e60208f01358f01613371565b909a5098506134eb60408e016132d5565b97506134f960608e016132d5565b965061350760808e016132d5565b955061351560a08e016132d5565b945061352360c08e01613274565b935061353160e08e01613274565b92506135406101008e01613274565b915067ffffffffffffffff6101208e0135111561355c57600080fd5b61356d8e6101208f01358f01613446565b90509295989b509295989b509295989b565b6000806040838503121561359257600080fd5b61359b83613274565b9150602083013580151581146135b057600080fd5b809150509250929050565b600080600080608085870312156135d157600080fd5b6135da85613274565b93506135e860208601613274565b925060408501359150606085013567ffffffffffffffff81111561360b57600080fd5b8501601f8101871361361c57600080fd5b61362b878235602084016133d0565b91505092959194509250565b60008060006060848603121561364c57600080fd5b8335925061365c60208501613274565b9150604084013567ffffffffffffffff8116811461332a57600080fd5b6000806040838503121561368c57600080fd5b61369583613274565b91506136a360208401613274565b90509250929050565b600181811c908216806136c057607f821691505b6020821081036136e057634e487b7160e01b600052602260045260246000fd5b50919050565b805169ffffffffffffffffffff8116811461328b57600080fd5b600080600080600060a0868803121561371857600080fd5b613721866136e6565b9450602086015193506040860151925060608601519150613744608087016136e6565b90509295509295909350565b634e487b7160e01b600052600160045260246000fd5b60006020828403121561377857600080fd5b815160ff81168114610dae57600080fd5b634e487b7160e01b600052601160045260246000fd5b600181815b808511156137da5781600019048211156137c0576137c0613789565b808516156137cd57918102915b93841c93908002906137a4565b509250929050565b6000826137f157506001610814565b816137fe57506000610814565b8160018114613814576002811461381e5761383a565b6001915050610814565b60ff84111561382f5761382f613789565b50506001821b610814565b5060208310610133831016604e8410600b841016171561385d575081810a610814565b613867838361379f565b806000190482111561387b5761387b613789565b029392505050565b6000610dae60ff8416836137e2565b6000826138af57634e487b7160e01b600052601260045260246000fd5b500490565b808202811582820484141761081457610814613789565b61ffff8281168282160390808211156138e6576138e6613789565b5092915050565b61ffff8181168382160190808211156138e6576138e6613789565b8181038181111561081457610814613789565b8082018082111561081457610814613789565b6001600160a01b0383168152604060208201526000611a20604083018461321c565b634e487b7160e01b600052603260045260246000fd5b601f821115610a0457600081815260208120601f850160051c8101602086101561398d5750805b601f850160051c820191505b818110156139ac57828155600101613999565b505050505050565b815167ffffffffffffffff8111156139ce576139ce6133ba565b6139e2816139dc84546136ac565b84613966565b602080601f831160018114613a1757600084156139ff5750858301515b600019600386901b1c1916600185901b1785556139ac565b600085815260208120601f198616915b82811015613a4657888601518255948401946001909101908401613a27565b5085821015613a645787850151600019600388901b60f8161c191681555b5050505050600190811b01905550565b60008251613a868184602087016131f8565b7f2e6a736f6e3f616c743d6d656469610000000000000000000000000000000000920191825250600f01919050565b60008351613ac78184602088016131f8565b835190830190613adb8183602088016131f8565b01949350505050565b600060018201613af657613af6613789565b5060010190565b600081613b0c57613b0c613789565b506000190190565b634e487b7160e01b600052603160045260246000fd5b60006001600160a01b03808716835280861660208401525083604083015260806060830152613b5c608083018461321c565b9695505050505050565b600060208284031215613b7857600080fd5b8151610dae816131c556fea26469706673582212202a88454d7561cbbb42d988642b609a799a5a274ad6f25259eab7a749e07a58e964736f6c63430008110033",
  "linkReferences": {},
  "deployedLinkReferences": {}
}